:020000021000EC
:100000000000011025590100815F01001902010063
:10001000815F0100815F0100815F0100BE26F7EF73
:10002000000000000000000000000000A1630100CB
:10003000815F010000000000D1630100815F0100C9
:10004000815F0100815F0100815F0100815F01002C
:10005000815F0100815F0100815F0100815F01001C
:10006000815F0100815F0100815F0100815F01000C
:10007000815F010000000000815F0100815F0100DD
:10008000815F0100815F0100815F0100815F0100EC
:10009000815F0100815F0100815F0100815F0100DC
:1000A000815F0100815F0100815F0100815F0100CC
:1000B000815F0100815F0100815F0100815F0100BC
:1000C000815F0100815F0100815F0100815F0100AC
:1000D000815F0100815F0100815F0100815F01009C
:1000E000815F01008CB80100000000105C09000075
:1000F0008CB8010000000020000000006009001022
:10010000D80F0000000000200000000086B000238F
:100110000593059A13465B0013449B001D4A134444
:100120001D4A934233D21B49059A13465B00134480
:100130009B000B441B6803931649059A13465B000A
:1001400013449B000B445B6802931249059A1346C3
:100150005B0013449B000B4408331B68019300238E
:100160000493049A019B9A420DD2049B9B00039A2C
:100170001A44049B9B0002990B4412681A60049B6A
:1001800001330493EDE7059B01330593C1E700BFFD
:1001900006B07047E4000100FC00010084B00023B9
:1001A0000393039BDB00134A1344134A93421ED26A
:1001B000104A039B52F8333001930E4A039BDB0035
:1001C00013445B68009300230293029A009B9A42B7
:1001D00009D2029B9B00019A134400221A60029BE1
:1001E00001330293F1E7039B01330393D9E700BF87
:1001F00004B07047FC0001000C010100DFF814009E
:10020000016841F470010160BFF34F8FBFF36F8F3E
:1002100000BF704788ED00E01EF0040F0CBFEFF345
:100220000880EFF309808169004A104749600100A6
:1002300000BF7047FFFFFFFFFFFFFFFFFFFFFFFF54
:10024000FFFFFFFFFFFFFFFFFFFFFFFFFFFFFFFFBE
:10025000FFFFFFFFFFFFFFFFFFFFFFFFFFFFFFFFAE
:10026000FFFFFFFFFFFFFFFFFFFFFFFFFFFFFFFF9E
:10027000FFFFFFFFFFFFFFFFFFFFFFFFFFFFFFFF8E
:10028000FFFFFFFFFFFFFFFFFFFFFFFFFFFFFFFF7E
:10029000FFFFFFFFFFFFFFFFFFFFFFFFFFFFFFFF6E
:1002A000FFFFFFFFFFFFFFFFFFFFFFFFFFFFFFFF5E
:1002B000FFFFFFFFFFFFFFFFFFFFFFFFFFFFFFFF4E
:1002C000FFFFFFFFFFFFFFFFFFFFFFFFFFFFFFFF3E
:1002D000FFFFFFFFFFFFFFFFFFFFFFFFFFFFFFFF2E
:1002E000FFFFFFFFFFFFFFFFFFFFFFFFFFFFFFFF1E
:1002F000FFFFFFFFFFFFFFFFFFFFFFFFFFFFFFFF0E
:10030000F8B500BFF8BC08BC9E4670474D0301001D
:1003100061490100F15E0100E98A0100F8B500BF02
:10032000F8BC08BC9E46704710B5054C237833B91D
:10033000044B13B10448AFF300800123237010BDB8
:1003400060090010000000008CB8010008B5034BE4
:100350001BB103490348AFF3008008BD0000000053
:10036000640900108CB8010030B583B07546019067
:100370000B468DF8033013468DF802302B46194694
:100380000A4805F05BFF019B9DF803201A70019B52
:100390009DF802205A70019C2B461946034805F02F
:1003A00061FF2346184603B030BD00BF690301005A
:1003B00010B582B074460190234619460B4805F0EB
:1003C0003DFF019B5B781A46012303FA02F2019B71
:1003D0001B781946064B53F821309A61234619467B
:1003E000024805F03FFF00BF02B010BDB10301009D
:1003F0000000001010B582B07446019023461946E3
:100400000B4805F01BFF019B5B781A46012303FA9A
:1004100002F2019B1B781946064B53F82130DA6132
:1004200023461946024805F01DFF00BF02B010BD6B
:10043000F50301000000001030B583B0754601904F
:100440002B4619460E4805F0F9FE019B1B781A460B
:100450000C4B53F822305B69019A52781146012205
:100460008A401340002B14BF01230023DCB22B462B
:100470001946034805F0F6FE2346184603B030BD82
:10048000390401000000001010B582B074460190DC
:10049000234619460D4805F0D1FE0198FFF7CCFF21
:1004A000034683F00103DBB2002B03D00198FFF772
:1004B0007FFF02E00198FFF79DFF2346194603489E
:1004C00005F0D0FE00BF02B010BD00BF89040100DE
:1004D00010B582B07446019023461946094805F0CC
:1004E000ADFE019B5868019B1978019B5B781A4609
:1004F00004F07CFA23461946024805F0B3FE00BF1B
:1005000002B010BDD104010030B583B07546019032
:100510002B461946074805F091FE074A019B1A60D1
:10052000019C2B461946034805F09CFE23461846BD
:1005300003B030BD090501001C9B010030B583B03C
:10054000754601900B468DF8033013468DF8023046
:100550002B4619460D4805F071FE019B1846FFF722
:10056000D3FF0B4A019B1A60019B9DF803201A716F
:10057000019B9DF802205A71019C2B4619460348A5
:1005800005F070FE2346184603B030BD3D0501005E
:10059000E09A0100F0B585B0774603900B468DF8E0
:1005A0000B303B461946174805F048FE164B1B68B2
:1005B000039A12791046039A5279114642010A446D
:1005C00053F822109DF80B3003F007020E4B1C6805
:1005D000039B1B791E46039B5B791D4603230093F7
:1005E00013460022039800F067FA024673012B4479
:1005F00044F823203B461946024805F033FE00BF6D
:1006000005B0F0BD9505010018000010F0B587B0E9
:10061000774603900B468DF80B303B461946194838
:1006200005F00CFE9DF80B308DF81730164B1B684B
:10063000039A12791046039A5279114642010A44EC
:1006400053F822109DF8173003F003020E4B1C687C
:10065000039B1B791E46039B5B791D460223009377
:1006600013460322039800F027FA024673012B4435
:1006700044F823203B461946024805F0F3FD00BF2D
:1006800007B0F0BD0D06010018000010F0B585B0F0
:10069000774603900B468DF80B303B4619461648BB
:1006A00005F0CCFD154B1B68039A12791046039A8E
:1006B0005279114642010A4453F822109DF80B204A
:1006C0000E4B1C68039B1B791E46039B5B791D46E2
:1006D0000123009313460522039800F0EDF902462A
:1006E00073012B4444F823203B461946024805F089
:1006F000B9FD00BF05B0F0BD8D0601001800001067
:10070000F0B585B0774603900B468DF80B303B462D
:100710001946164805F092FD154B1B68039A12798D
:100720001046039A5279114642010A4453F82210A6
:100730009DF80B200E4B1C68039B1B791E46039BE8
:100740005B791D460123009313460622039800F0AF
:10075000B3F9024673012B4444F823203B46194663
:10076000024805F07FFD00BF05B0F0BD01070100A4
:1007700018000010F0B585B0774603900B468DF851
:100780000B303B461946184805F058FD174B1B68BF
:10079000039A12791046039A5279114642010A448B
:1007A00053F822109DF80B3083F00103DBB21A4698
:1007B0000E4B1C68039B1B791E46039B5B791D46F1
:1007C0000123009313460722039800F075F90246AF
:1007D00073012B4444F823203B461946024805F098
:1007E00041FD00BF05B0F0BD750701001800001005
:1007F000F0B585B0774603900B468DF80B303B463D
:100800001946184805F01AFD174B1B68039A127910
:100810001046039A5279114642010A4453F82210B5
:100820009DF80B3083F00103DBB21A460E4B1C68B7
:10083000039B1B791E46039B5B791D460123009396
:1008400013460822039800F037F9024673012B443F
:1008500044F823203B461946024805F003FD00BF3B
:1008600005B0F0BDF107010018000010F0B585B02B
:10087000774603900B468DF80B303B4619461648D9
:1008800005F0DCFC154B1B68039A12791046039A9D
:100890005279114642010A4453F822109DF80B2068
:1008A0000E4B1C68039B1B791E46039B5B791D4600
:1008B0000123009313460922039800F0FDF8024635
:1008C00073012B4444F823203B461946024805F0A7
:1008D000C9FC00BF05B0F0BD6D0801001800001094
:1008E000F0B585B0774603900B468DF80B303B464C
:1008F0001946184805F0A2FC174B1B68039A127999
:100900001046039A5279114642010A4453F82210C4
:100910009DF80B3083F00103DBB21A460E4B1C68C6
:10092000039B1B791E46039B5B791D4601230093A5
:1009300013460822039800F0BFF8024673012B44C7
:1009400044F823203B461946024805F08BFC00BFC3
:1009500005B0F0BDE108010018000010F0B585B049
:10096000774603900B468DF80B303B4619461648E8
:1009700005F064FC154B1B68039A12791046039A24
:100980005279114642010A4453F822109DF80B2077
:100990000E4B1C68039B1B791E46039B5B791D460F
:1009A0000123009313460922039800F085F80246BC
:1009B00073012B4444F823203B461946024805F0B6
:1009C00051FC00BF05B0F0BD5D090100180000102A
:1009D000F0B585B0774603900B468DF80B303B465B
:1009E0001946164805F02AFC154B1B68039A127924
:1009F0001046039A5279114642010A4453F82210D4
:100A00009DF80B200E4B1C68039B1B791E46039B15
:100A10005B791D460123009313460A22039800F0D8
:100A20004BF8024673012B4444F823203B461946F9
:100A3000024805F017FC00BF05B0F0BDD109010068
:100A400018000010F0B585B0774603900B468DF87E
:100A50000B303B461946164805F0F0FB154B1B685A
:100A6000039A12791046039A5279114642010A44B8
:100A700053F822109DF80B200E4B1C68039B1B792A
:100A80001E46039B5B791D460123009313461022EB
:100A9000039800F011F8024673012B4444F8232018
:100AA0003B461946024805F0DDFB00BF05B0F0BD2E
:100AB000450A01001800001030B587B07546039054
:100AC0000291019200932B461946134805F0B6FB9C
:100AD0000A9BC3F120034FF0FF3222FA03F3059380
:100AE000059A019B02FA03F3DB43029A1340029337
:100AF000009A059B1A40019B02FA03F3029A1343E2
:100B00000293029C2B461946034805F0ABFB234693
:100B1000184607B030BD00BFB90A010030B583B038
:100B2000754601902B461946064805F087FB019B48
:100B30001C792B461946034805F094FB23461846BA
:100B400003B030BD1D0B010030B583B07546019078
:100B50002B461946064805F071FB019B5C792B4634
:100B60001946034805F07EFB2346184603B030BD06
:100B7000490B010000B58BB0034600918DF807309A
:100B800005F092FB03461946314806F0D5FD05F005
:100B900077FB079005F088FB069000230993069BDE
:100BA000013B099A9A420DD2099B9B00079A134474
:100BB0001B681A460999274806F0BEFD099B0133B8
:100BC0000993ECE7009B002B06D0069B013B009AA3
:100BD0001946204806F0B0FD9DF80730002B33D0B1
:100BE0001D4A03AB07CA83E807001C4805F0F6FA64
:100BF00003AB19461A4806F09FFD00230893069B95
:100C0000013B089A9A4212D2089B002B02D0202066
:100C100005F0C8FA089B9B00079A13441B68194605
:100C2000104806F089FD089B01330893E7E7009B15
:100C3000002B03D000990C4806F07EFD0B4805F010
:100C4000CDFA0B4805F0CAFA00BF0BB05DF804FB03
:100C50002C900100409001001C9101005090010077
:100C600088900100B0900100B8900100C090010090
:100C7000C890010070B5764633461946074805F01E
:100C8000DDFA074BD3E9004533461946034805F022
:100C9000E9FA23462C461846214670BD750C010022
:100CA0008009001070B57446234619460C4805F0BB
:100CB000C5FA0C4B1B6898474FF47A724FF000034B
:100CC00007F0BCFF02460B4615461E462346194652
:100CD000034805F0C7FA2B4634461846214670BD36
:100CE000A50C01001C00001030B583B075460190C2
:100CF0002B461946064805F0A1FA00242B46194652
:100D0000034805F0AFFA2346184603B030BD00BFD4
:100D1000E90C010038B5744623461946074805F02A
:100D20008DFA0020FFF7E0FF03461D4623461946D3
:100D3000024805F097FA2B46184638BD150D0100FC
:100D4000F0B589B07546CDE900012B4619462B4810
:100D500005F074FADDE90034CDE906348DF8086059
:100D60002B461946264805F069FA4FF000034FF06C
:100D70000004CDE90434DDE90634B4F1FF3F08BFD7
:100D8000B3F1FF3F06D14FF0FF334FF0FF34CDE911
:100D900004340AE0FFF786FF0A460146DDE906341F
:100DA0005E1844EB0207CDE9046701230393FFF7C4
:100DB00079FF0A460146DDE90434A24208BF9942A0
:100DC00034BF01230023DBB2002B08D002AB18464E
:100DD000FFF78AFF0346002BE9D000230393039C0F
:100DE0002B461946064805F03DFA2B46194603489E
:100DF00005F038FA2346184609B0F0BD410D010050
:100E00004546010010B582B07446CDE90001234685
:100E10001946074805F012FADDE90001FFF790FFD7
:100E200023461946024805F01DFA00BF02B010BD66
:100E3000050E010030B583B0754601902B4619466A
:100E4000074805F0FBF9074A019B1A60019C2B46F5
:100E50001946034805F006FA2346184603B030BD8C
:100E6000350E0100989A010030B583B075460190A7
:100E70000B468DF8033013468DF802302B46194689
:100E8000164805F0DBF9019B1846FFF7D3FF144A1B
:100E9000019B1A60019B00221A71019B03F10C0255
:100EA000019B9A60019B0C339DF802209DF8031072
:100EB0001846FFF743FB9DF80330022B01D10122B6
:100EC00000E00022019B1A71019C2B461946034841
:100ED00005F0C8F92346184603B030BD690E01007D
:100EE000509A010030B583B0754601902B461946E3
:100EF000194805F0A3F9019B9A68019B9B681B6840
:100F00001B68002110469847019B9A68019B9B68CB
:100F10001B6830331B681046984703461A46012366
:100F20009340DC43019B9A68019B9B681B682C33B0
:100F30001B681046984703461A46084B53F8223060
:100F40001A6821460A401A602B461946024805F0E5
:100F500089F900BF03B030BDE50E0100200000108C
:100F600030B583B0754601902B461946194805F0F7
:100F700065F9019B9A68019B9B681B681B680021AF
:100F800010469847019B9A68019B9B681B68303309
:100F90001B681046984703461A46012303FA02F4D9
:100FA000019B9A68019B9B681B682C331B68104649
:100FB000984703461A46084B53F822301A682146D0
:100FC0000A431A602B461946024805F04BF900BF48
:100FD00003B030BD610F01002000001010B582B0D9
:100FE000744601900B468DF80330234619460B4892
:100FF00005F024F99DF80330002B03D00198FFF78A
:10100000AFFF02E00198FFF76DFF23461946034842
:1010100005F028F900BF02B010BD00BFDD0F0100D0
:1010200030B583B0754601902B461946134805F03C
:1010300005F9019B9A68019B9B681B6830331B680C
:101040001046984703461A46012393401C46019BCD
:101050009A68019B9B681B682C331B681046984755
:1010600003461A46064B53F822309C612B4619461C
:10107000024805F0F7F800BF03B030BD21100100B1
:101080002000001030B583B0754601902B461946FC
:10109000134805F0D3F8019B9A68019B9B681B6875
:1010A00030331B681046984703461A460123934085
:1010B0001C46019B9A68019B9B681B682C331B682C
:1010C0001046984703461A46064B53F82230DC6117
:1010D0002B461946024805F0C5F800BF03B030BDE5
:1010E000851001002000001010B582B074460190F8
:1010F0000B468DF80330234619460B4805F09EF841
:101100009DF80330002B03D00198FFF789FF02E020
:101110000198FFF7B7FF23461946034805F0A2F8E8
:1011200000BF02B010BD00BFE910010030B583B0B0
:10113000754601902B461946154805F07FF8019B2E
:101140009A68019B9B681B6830331B681046984760
:1011500003461A46012303FA02F4019B9A68019B95
:101160009B681B682C331B681046984703461A4639
:10117000084B53F822305A6921464A405A612B469F
:101180001946034805F06EF800BF03B030BD00BF3C
:101190002D1101002000001030B585B0754601907A
:1011A0002B461946184805F049F8019B9A68019B9F
:1011B0009B681B682C331B681046984703461A46E9
:1011C000124B53F822305C69019B9A68019B9B6823
:1011D0001B6830331B6810469847034624FA03F314
:1011E00003F00103002B14BF012300238DF80F30FF
:1011F0009DF80F402B461946034805F033F8234667
:10120000184605B030BD00BF991101002000001044
:1012100030B583B0754601902B461946164805F047
:101220000DF8019B9A68019B9B681B682C331B6817
:101230001046984703461A46104B53F822305C6913
:10124000019B9A68019B9B681B6830331B681046A2
:101250009847034624FA03F303F00103002B14BF5D
:1012600001230023DCB22B461946034804F0FAFFA1
:101270002346184603B030BD1112010020000010B3
:1012800030B583B0754601902B461946064804F0E8
:10129000D5FF019B9C682B461946034804F0E2FFEA
:1012A0002346184603B030BD8112010030B587B027
:1012B000754603902B461946174804F0BFFF039B61
:1012C0001B79012B94BF01230023DBB28DF817306B
:1012D0009DF8173083F00103DBB2002B10D0039B85
:1012E0009A68039B9B681B682C331B6810469847C1
:1012F00003460093A623094A09490A4806F01CFA46
:101300009DF817402B461946034804F0ABFF2346CF
:10131000184607B030BD00BFAD120100EC9C0100C3
:10132000049801002891010070B582B076460190C2
:10133000009133461946114804F080FF0198FFF7E9
:10134000B5FF009C019B1B791D46019B9A68019B80
:101350009B681B6830331B68104698470346194644
:10136000074A6B010B4442F82340334619460348B1
:1013700004F078FF00BF02B070BD00BF2913010068
:101380008809001030B583B0754601902B46194688
:101390000F4804F053FF019B1B791C46019B9A6880
:1013A000019B9B681B6830331B68104698470346B7
:1013B0001946084A63010B44002142F823102B46CA
:1013C0001946034804F04EFF00BF03B030BD00BF14
:1013D000851301008809001030B583B075460346B7
:1013E0008DF807302B461946064804F027FF9DF874
:1013F00007402B461946034804F034FF234618469D
:1014000003B030BDD913010010B584B07446039009
:101410000B468DF80B3023461946194804F00EFF91
:101420000398FFF743FF9DF80B30012B08D0012BE9
:1014300002D3022B08D00EE0039800F0B1F817E0B9
:10144000039800F0EBF813E0039800F0A9F8039874
:1014500000F0E4F80CE09DF80B301846FFF7BCFFF5
:1014600003460093D223074A0749084806F064F967
:1014700023461946024804F0F5FE00BF04B010BD33
:1014800009140100089D010010980100B8910100A5
:1014900010B584B0744603900B468DF80B3023468C
:1014A0001946194804F0CAFE0398FFF7FFFE9DF89D
:1014B0000B30012B08D0012B02D3022B08D00EE0F9
:1014C000039800F0E9F817E0039800F023F913E01F
:1014D000039800F0E1F8039800F01CF90CE09DF887
:1014E0000B301846FFF778FF03460093F223074AB4
:1014F0000749084806F020F923461946024804F037
:10150000B1FE00BF04B010BD91140100B09C0100F9
:101510001C980100B891010010B584B07446039086
:10152000029113468DF80730234619460B4804F004
:1015300085FE0398FFF7BAFE02990398FFF7F4FEC1
:101540009DF8073019460398FFF75EFF23461946BA
:10155000024804F087FE00BF04B010BD1915010059
:1015600010B582B074460190234619460B4804F02A
:1015700065FE0198FFF79AFE0198FFF703FF0198B7
:1015800000F08AF8019800F0C5F823461946034890
:1015900004F068FE00BF02B010BD00BF611501007D
:1015A00030B583B0754601902B461946194804F0B2
:1015B00045FE019B9A68019B9B681B6830331B6842
:1015C0001046984703461A46012303FA02F0019B8E
:1015D0001B791946104A0B469B000B449B00134491
:1015E0000C331B681A680446019B1B7918460A498C
:1015F00003469B0003449B000B440C331B682243AF
:101600001A602B461946034804F02CFE00BF03B0B5
:1016100030BD00BFA11501003800001030B583B007
:10162000754601902B461946194804F007FE019BA8
:101630009A68019B9B681B6830331B68104698476B
:1016400003461A46012303FA02F0019B1B7919464F
:10165000104A0B469B000B449B00134410331B683D
:101660001A680446019B1B7918460A4903469B00E9
:1016700003449B000B4410331B6822431A602B4623
:101680001946034804F0EEFD00BF03B030BD00BFB3
:101690001D1601003800001030B583B0754601906A
:1016A0002B461946194804F0C9FD019B9A68019B15
:1016B0009B681B6830331B681046984703461A46E0
:1016C00001239340D843019B1B791946104A0B46CE
:1016D0009B000B449B0013440C331B681A680446A0
:1016E000019B1B7918460A4903469B0003449B0053
:1016F0000B440C331B6822401A602B4619460348E2
:1017000004F0B0FD00BF03B030BD00BF991601006A
:101710003800001030B583B0754601902B4619464D
:10172000194804F08BFD019B9A68019B9B681B681C
:1017300030331B681046984703461A4601239340EE
:10174000D843019B1B791946104A0B469B000B445A
:101750009B00134410331B681A680446019B1B79D5
:1017600018460A4903469B0003449B000B44103370
:101770001B6822401A602B461946034804F072FD8C
:1017800000BF03B030BD00BF1517010038000010C6
:1017900082B00190034A019B1A60019B184602B077
:1017A000704700BF2C9A010000B583B00190019BE7
:1017B0001846FFF7EDFF044A019B1A60019B18468B
:1017C00003B05DF804FB00BF089A010000B585B0C6
:1017D00001900B468DF803300023039300210198FC
:1017E00000F0CEF89DF803300C2B16D99DF803308D
:1017F0009BB21A460C21019800F0ACF903904FF40B
:101800008071019800F0D6F89DF80330104A02FB71
:1018100003F31A460F4B1A6006E00021019800F00E
:10182000C9F80C4B0C4A1A600121019800F04AFAE1
:10183000019B1B6804331B68012101989847002114
:10184000019800F073FA039B184605B05DF804FB9D
:1018500040420F0064000010001BB70000B583B0C9
:1018600001900B468DF803309DF80330042B0DD901
:10187000AE230B4A0B490C4805F05EFF0B4804F001
:10188000ADFC00210120FFF775F9FEE7084B1B684E
:101890009DF80320C3F8A82100BF03B05DF804FB46
:1018A000709B01002898010058920100F8920100F5
:1018B0006000001082B00190034B1B68D3F8A83180
:1018C000184602B0704700BF6000001082B001905F
:1018D000024B1B68184602B0704700BF640000103E
:1018E00000B585B00190019B1B6808331B68019807
:1018F0009847029000230393029B002B0AD0019B80
:101900001B680C331B68019898470246029BB2FB88
:10191000F3F30393039B184605B05DF804FBFFFF48
:1019200084B001900091094B1B68D3F8C430009A31
:101930001268012101FA02F213430393034B1B685F
:10194000039AC3F8C42000BF04B0704760000010C1
:1019500084B001900091094B1B68D3F8C430009A01
:101960001268012101FA02F213400393034B1B6832
:10197000039AC3F8C42000BF04B070476000001091
:1019800084B001900B46ADF80230BDF802300393ED
:10199000074B1B68D3F80C3123F00101044B1B6883
:1019A000039A0A43C3F80C2100BF04B0704700BF7C
:1019B0006000001082B001900B46ADF80230084B79
:1019C0001B68D3F8043123F48071BDF80220044B66
:1019D0001B680A43C3F8042100BF02B0704700BF70
:1019E0006000001082B001900B46ADF80230084B49
:1019F0001B68D3F8083123F44071BDF80220044B72
:101A00001B680A43C3F8082100BF02B0704700BF3B
:101A10006000001082B001900B46ADF80230084B18
:101A20001B68D3F8B43123F44071BDF80220044B95
:101A30001B680A43C3F8B42100BF02B0704700BF5F
:101A40006000001000B587B001900B46ADF8023081
:101A50001346ADF80030BDF80030B3F5C07F03D2B7
:101A6000BDF800300C2B0DD8FF23344A34493548DB
:101A700005F062FE344804F0B1FB00210120FFF7BD
:101A800079F8FEE701238DF81730BDF80030BDF876
:101A90000220B3FBF2F102FB01F29B1A9BB2002B76
:101AA00009D0BDF80020BDF80230B2FBF3F39BB2C1
:101AB0000133049307E0BDF80020BDF80230B2FB0B
:101AC000F3F39BB204930123ADF80E309DF8173069
:101AD000002B2ED0049B9BB2BDF8022012FB03F317
:101AE0009BB2BDF80E2012FB03F39BB25B00ADF876
:101AF0000C30BDF80C309B2B03D900238DF8173028
:101B0000E4E7BDF80E305B00ADF80E30BDF80E30E6
:101B1000072BDBD940F21B13084A0C490C4805F08F
:101B20000BFE094804F05AFB00210120FFF722F8C0
:101B3000FEE7049B184607B05DF804FB189C010003
:101B40004098010010930100F8920100589801009C
:101B50000094010010B58AB001900B46ADF8023038
:101B60001346ADF800300123ADF81A30FFF79AF8AC
:101B70000A46014611F57A7342F10004CDE90434B6
:101B8000FFF790F8CDE90801BDF80020BDF802305C
:101B900019460198FFF756FF0390BDF80220039BFA
:101BA00002FB03F3079300210198FFF7E9FE0021F0
:101BB0000198FFF7FFFE00210198FFF713FF0021B6
:101BC0000198FFF727FF3A4B1B68D3F8843023F0C6
:101BD0001F01039B5A1E364B1B680A43C3F884201F
:101BE000334B1B68D3F8843023F06002BDF81A3001
:101BF0005B0119462E4B1B680A43C3F884202C4B0B
:101C00001B68D3F880202A4B1B6842F00102C3F8FE
:101C10008020274B1B68AA22C3F88C20244B1B680A
:101C20005522C3F88C20224B1B68D3F8883003F46C
:101C30008063002B09D1DDE90812DDE90434A242FA
:101C400008BF994201D2012300E00023002B04D0F9
:101C5000FFF728F8CDE90801E5E7154B1B68D3F835
:101C6000883003F48063002B09D1DDE90812DDE937
:101C70000434A24208BF994201D3012300E00023AB
:101C8000002B0ED040F243130A4A0B490B4805F0D3
:101C900053FD0B4804F0A2FA00210120FEF76AFF71
:101CA000FEE7BDF80030079AD31A18460AB010BDF7
:101CB00060000010BC9B010070980100A894010016
:101CC000F892010000B583B001900B468DF8033007
:101CD0009DF803301F2B0ED940F26F130E4A0F49A7
:101CE0000F4805F029FD0F4804F078FA0021012083
:101CF000FEF740FFFEE70C4B1B68D3F8043123F0DE
:101D00001F019DF80320084B1B680A43C3F80421F8
:101D100000BF03B05DF804FB749C010088980100CB
:101D200050950100F89201006000001082B001900F
:101D30000B468DF80330084B1B68D3F8003123F0B5
:101D400001019DF80320044B1B680A43C3F80021DE
:101D500000BF02B0704700BF6000001030B583B014
:101D6000754601902B461946064804F067FA019C17
:101D70002B461946034804F075FA2346184603B06B
:101D800030BD00BF5D1D010030B583B075460190C8
:101D90002B461946074804F051FA074A019B1A607E
:101DA000019C2B461946034804F05CFA234618466A
:101DB00003B030BD891D0100E099010030B583B04A
:101DC0007546019000912B461946084804F036FAF2
:101DD000074A019B1A60019C2B461946034804F0F0
:101DE00041FA2346184603B030BD00BFBD1D0100B7
:101DF0001C9B010030B583B07546019000912B46C5
:101E000019460F4804F01AFA019B009A1146184629
:101E1000FFF7D4FF0B4A019B1A60009B1A79019BC4
:101E20001A71009B5A79019B5A71019C2B461946E5
:101E3000034804F017FA2346184603B030BD00BF2C
:101E4000F51D0100E09A010030B583B075460190A0
:101E500000912B461946314804F0F0F9019B1846D1
:101E6000FFF792FF019B04331846FFF79DFC2C4AB5
:101E7000019B1A602B4A019B5A60019B03F11402DB
:101E8000019B9A60019B03F11C02019BDA60019B9C
:101E900003F12402019B1A61019B03F114040098D1
:101EA000FFF75CFF024613465B001344DB001E4A4B
:101EB000134419462046FFF79DFF019B03F11C04C4
:101EC0000098FFF74BFF024613465B001344DB000C
:101ED0000833154A134419462046FFF78BFF019B30
:101EE00003F124040098FFF739FF024613465B0014
:101EF0001344DB0010330C4A134419462046FFF705
:101F000079FF019B009ADA62019C2B46194603482F
:101F100004F0A8F92346184603B030BD491E01005D
:101F200094990100BC990100A498010070B586B095
:101F30007646019033461946304804F07FF9019BFC
:101F4000DB6A1846FFF70AFF03460593019B181D3D
:101F5000019B5B6814331B68059A920028490A4468
:101F600011469847019B9868019B9B681B681B68FA
:101F70002449059A0A44127811469847019BD8686B
:101F8000019BDB681B681B681E49059A0A4412788E
:101F900011469847019B1869019B1B691B681B68C8
:101FA0001849059A0A44127811469847164A059B23
:101FB00052F823305B681449059A51F82240049383
:101FC0000123039333461946104804F037F90122E0
:101FD000039B02FA03F31A46049B42EA03053346C5
:101FE00019460A4804F03EF965603346194603482D
:101FF00004F038F900BF06B070BD00BF2D1F01000E
:10200000EC980100A098010068000010F146010062
:1020100030B585B0754601902B461946174804F037
:102020000DF9019BDB6A1846FFF798FE0246144B38
:1020300053F82230DB680393042302932B4619469E
:10204000104804F0FBF80122029B02FA03F31A463F
:10205000039B1340002B14BF01230023DCB22B464B
:102060001946084804F0FEF82B461946034804F0C8
:10207000F9F82346184605B030BD00BF1120010015
:10208000680000102D47010030B585B075460190FD
:102090000B46ADF802302B461946144804F0CEF832
:1020A000019BDB6A1846FFF759FE03460393104A6B
:1020B000039B52F82330BDF802209A600198FFF785
:1020C000A7FF0346002B01D000BFF7E7084A039B98
:1020D00052F823309B689CB22B461946034804F003
:1020E000C1F82346184605B030BD00BF8920010065
:1020F0006800001010B586B0744603902346194658
:10210000124804F09BF801238DF8173000238DF856
:10211000163000238DF8153030238DF81430072346
:1021200000220021039800F05BF830230093002385
:1021300000220121039800F009FA234619460348BA
:1021400004F090F800BF06B010BD00BFF5200100FC
:1021500030B583B0754603468DF807302B461946D7
:10216000064804F06BF89DF807402B4619460348D3
:1021700004F078F82346184603B030BD5121010021
:1021800030B583B0754603468DF807302B461946A7
:10219000064804F053F89DF807402B4619460348BB
:1021A00004F060F82346184603B030BD81210100D9
:1021B00030B583B0754603468DF807302B46194677
:1021C000064804F03BF89DF807402B4619460348A3
:1021D00004F048F82346184603B030BDB121010091
:1021E00070B598B074460190084611461A460346E9
:1021F0008DF803300B468DF8023013468DF8013010
:1022000023461946754804F019F8019BDB6A184605
:10221000FFF7A4FD03461793019B181D179B9B0016
:102220006F4A13441946FFF77BFB9DF80230022BDF
:1022300002D107238DF801306A4A179B52F82330E8
:102240001E689DF801301846FFF782FF03461946C5
:10225000644A179B52F8235008960B468DF81F309E
:102260000023069304230593234619465E4803F092
:10227000E5FF4FF0FF33049320230393059BC3F145
:1022800020034FF0FF3222FA03F30293029A069BD7
:1022900002FA03F3DB43089A134008939DF81F20CA
:1022A000029B1A40069B02FA03F3089A1343089311
:1022B000089E234619464C4803F0D4FF2E60494A35
:1022C000179B52F823301E689DF802301846FFF71E
:1022D00057FF03461946434A179B52F823500F965F
:1022E0000B468DF83B3004230D9302230C932346B9
:1022F00019463D4803F0A2FF4FF0FF330B93202314
:102300000A930C9BC3F120034FF0FF3222FA03F330
:102310000993099A0D9B02FA03F3DB430F9A1340CA
:102320000F939DF83B20099B1A400D9B02FA03F383
:102330000F9A13430F930F9E234619462A4803F022
:1023400091FF2E60274A179B52F823305E689DF854
:1023500003301846FFF72CFF03461946214A179B06
:1023600052F8235016960B468DF8573002231493DB
:1023700001231393234619461B4803F05FFF4FF0D8
:10238000FF33129320231193139BC3F120034FF0CB
:10239000FF3222FA03F31093109A149B02FA03F30C
:1023A000DB43169A134016939DF85720109B1A4052
:1023B000149B02FA03F3169A13431693169E2346B0
:1023C0001946094803F04EFF6E602346194603483C
:1023D00003F048FF00BF18B070BD00BFE12101004D
:1023E000EC980100680000107147010070B596B0CC
:1023F0007446019023461946504803F01FFF0023FE
:10240000ADF85630019BDB6A1846FFF7A7FC034680
:102410001493019B181D149B9B00494A13441946B1
:10242000FFF77EFA474A149B52F823301B68079344
:10243000002306930423059323461946424803F0DC
:10244000FDFE4FF0FF33049320230393059BC3F15C
:1024500020034FF0FF3222FA03F30293079A069B00
:10246000DA40029B02EA030523461946364803F088
:10247000F9FEADB2334A149B52F823301B680D931A
:1024800004230C9302230B93234619462E4803F092
:10249000D5FE4FF0FF330A93202309930B9BC3F122
:1024A00020034FF0FF3222FA03F308930D9A0C9B9E
:1024B000DA40089B02EA030623461946224803F045
:1024C000D1FEB3B25B019BB22B449DB21D4A149B5B
:1024D00052F823305B681393022312930123119364
:1024E00023461946184803F0A9FE4FF0FF33109316
:1024F00020230F93119BC3F120034FF0FF3222FAE8
:1025000003F30E93139A129BDA400E9B02EA030622
:10251000234619460C4803F0A5FEB3B21B029BB23A
:102520002B44ADF85630BDF85650234619460348A3
:1025300003F098FE2B46184616B070BDED2301003F
:10254000EC98010068000010E547010070B598B0F4
:1025500074460190084611461A4603468DF803302A
:102560000B468DF8023013468DF80130234619468C
:102570006C4803F063FE019BDB6A1846FFF7EEFB35
:1025800003461793019B181D179B9B00664A134433
:102590001946FFF7C5F9654A179B52F823301B68A7
:1025A0006249179A51F8225008939DF803308DF82C
:1025B0001F300623069301230593234619465C48E2
:1025C00003F03CFE4FF0FF33049320230393059B5D
:1025D000C3F120034FF0FF3222FA03F30293029A71
:1025E000069B02FA03F3DB43089A134008939DF815
:1025F0001F20029B1A40069B02FA03F3089A13431A
:102600000893089E23461946494803F02BFE2E6086
:10261000464A179B52F823301B684449179A51F8D1
:1026200022500F939DF802308DF83B3007230D9315
:1026300001230C93234619463D4803F0FFFD4FF05C
:10264000FF330B9320230A930C9BC3F120034FF01D
:10265000FF3222FA03F30993099A0D9B02FA03F35E
:10266000DB430F9A13400F939DF83B20099B1A40C0
:102670000D9B02FA03F30F9A13430F930F9E234609
:1026800019462B4803F0EEFD2E60284A179B52F89E
:1026900023301B682549179A51F8225016939DF84C
:1026A00001308DF8573008231493082313932346E1
:1026B0001946204803F0C2FD4FF0FF331293202348
:1026C0001193139BC3F120034FF0FF3222FA03F35F
:1026D0001093109A149B02FA03F3DB43169A1340EB
:1026E00016939DF85720109B1A40149B02FA03F38F
:1026F000169A13431693169E234619460D4803F067
:10270000B1FD2E60094A179B52F823309DF87020C6
:102710001A6123461946034803F0A4FD00BF18B010
:1027200070BD00BF4D250100EC980100680000104D
:10273000394801007147010070B594B074460190AA
:1027400023461946584803F079FD00231393019B53
:10275000DB6A1846FFF702FB03461293019B181D24
:10276000129B9B00514A13441946FFF7D9F8504A6F
:10277000129B52F823301B6907930023069308230A
:102780000593234619464B4803F058FD4FF0FF339D
:10279000049320230393059BC3F120034FF0FF32E2
:1027A00022FA03F30293079A069BDA40029B02EA9D
:1027B0000305234619463F4803F054FD3C4A129B4B
:1027C00052F823301B680D9308230C9308230B93B6
:1027D00023461946374803F031FD4FF0FF330A9383
:1027E000202309930B9BC3F120034FF0FF3222FA01
:1027F00003F308930D9A0C9BDA40089B02EA030648
:10280000234619462B4803F02DFD33021D44284A68
:10281000129B52F823301B680F9307230E93234615
:102820001946254803F00AFD01220E9B02FA03F324
:102830001A460F9B1340002B14BF01230023DEB266
:10284000234619461C4803F00DFD33461B041D4466
:10285000174A129B52F823301B68119306231093DA
:1028600023461946144803F0E9FC0122109B02FAA2
:1028700003F31A46119B1340002B14BF01230023BE
:10288000DEB2234619460C4803F0ECFC33469B04A9
:102890002B441393139D23461946034803F0E2FC8F
:1028A0002B46184614B070BD39270100EC98010082
:1028B00068000010E54701002D47010030B583B0E6
:1028C00075460190084611461A4603468DF80330B6
:1028D0000B468DF8023013468DF801302B46194611
:1028E0001A4803F0ABFC019A13789DF8201061F3AD
:1028F00000031370019A13789DF8031061F34103EC
:102900001370019A13789DF8021061F3820313701B
:10291000019A13789DF8011061F3C3031370019AB3
:1029200013786FF307131370019B9DF81C205A70E6
:10293000019B9DF818209A70019C2B46194603486C
:1029400003F090FC2346184603B030BDBD280100BB
:1029500030B583B0754601902B461946154803F0F3
:102960006DFC019A13786FF300031370019A1378CA
:102970006FF341031370019A13786FF3820313709E
:10298000019A13786FF3C3031370019A13786FF3EE
:1029900007131370019B00225A70019B00229A704A
:1029A000019C2B461946034803F05CFC234618465D
:1029B00003B030BD5129010010B582B074460190BA
:1029C00023461946054803F039FC234619460348B7
:1029D00003F048FC00BF02B010BD00BFB9290100E0
:1029E00010B582B07446019023461946054803F09D
:1029F00025FC23461946034803F034FC00BF02B00F
:102A000010BD00BFE129010010B582B074460190ED
:102A100023461946054803F011FC2346194603488E
:102A200003F020FC00BF02B010BD00BF092A010066
:102A300030B583B0754601902B461946074803F020
:102A4000FDFB074A019B1A60019C2B46194603486F
:102A500003F008FC2346184603B030BD312A0100BC
:102A60006899010030B583B0754601902B46194630
:102A70001F4803F0E3FB019B1846FFF7D9FF1D4AEF
:102A8000019B1A60019B03F11002019B5A60019B9C
:102A900003F14002019B9A60019B03F15402019BE8
:102AA000DA60019B103301211846FFF7CDF9019B35
:102AB0004033162201211846FEF7D6F9019B543304
:102AC000192201211846FEF7CFF9019B683340F225
:102AD000C1620021184606F05DFA019C2B4619469A
:102AE000034803F0BFFB2346184603B030BD00BFC8
:102AF000652A01003C99010030B583B0754601900C
:102B00002B461946064803F099FB80242B461946AC
:102B1000034803F0A7FB2346184603B030BD00BFAF
:102B2000F92A010030B583B0754601902B4619464D
:102B3000064803F083FB40242B461946034803F064
:102B400091FB2346184603B030BD00BF252B010082
:102B500010B588B07446059023461946154803F011
:102B60006DFB07A801230293012301930123009326
:102B7000012301220121FFF7A1FE06AB07AA12687B
:102B8000114619800233120C1A702346194609485F
:102B900003F068FB00239DF8182062F307039DF8FB
:102BA000192062F30F239DF81A2062F31743184689
:102BB00008B010BD512B010010B586B074460390CB
:102BC000029101920093234619461E4803F036FBFA
:102BD000039BDB68019AD2B211461846FEF784FACD
:102BE000039B9B681846FEF74DFA00230593059A50
:102BF000009B9A4218D2009A059BD31A03F1005306
:102C0000013BDB00029A22FA03F38DF81330039B99
:102C10005B689DF8132092B211461846FFF734FA0C
:102C2000059B01330593E2E7039B9B681846FEF77B
:102C3000F7F923461946034803F014FB00BF06B01A
:102C400010BD00BFB92B010010B582B074460190D1
:102C500023461946374803F0F1FA01230022AE213A
:102C60000198FFF7A9FF022300224DF2805101983D
:102C7000FFF7A2FF022300224AF63F010198FFF767
:102C80009BFF022300224FF453410198FFF794FF6A
:102C90000123002240210198FFF78EFF022300222A
:102CA00048F614510198FFF787FF01230022A12164
:102CB0000198FFF781FF01230022C8210198FFF747
:102CC0007BFF022300224DF612210198FFF774FFCB
:102CD0000223002248F2CF110198FFF76DFF022373
:102CE00000224DF6F1110198FFF766FF0223002242
:102CF0004DF640310198FFF75FFF019800F05EF854
:102D000001230022A4210198FFF756FF012300228E
:102D1000A6210198FFF750FF01230022AF2101985F
:102D2000FFF74AFF23461946024803F09BFA00BF0B
:102D300002B010BD492C010010B584B07446039058
:102D4000234619461C4803F079FA039B9B681846F2
:102D5000FEF706F9039BDB681846FEF701F9039BB3
:102D60009B681846FEF75CF9039BDB681846FEF784
:102D700057F9039B5868072300220021FFF730FA18
:102D8000039B586810230093012300220021FFF7C2
:102D9000DDFB039B5B681846FFF7C8F8039800F05B
:102DA00037F80398FFF750FF23461946024803F00F
:102DB00059FA00BF04B010BD392D010010B582B022
:102DC00074460190234619460E4803F037FA022351
:102DD00000224FF400510198FFF7EEFE032300227A
:102DE00009490198FFF7E8FE0323002207490198EB
:102DF000FFF7E2FE23461946024803F033FA00BF0C
:102E000002B010BDBD2D01007F002100070022008F
:102E100010B582B07446019023461946094803F064
:102E20000DFA019B683340F2C1620021184606F09A
:102E3000B1F823461946034803F014FA00BF02B064
:102E400010BD00BF112E010010B58CB07446039068
:102E5000029101920093234619461F4803F0EEF9B0
:102E6000019B03F007030B93019BDB100A930122E4
:102E70000B9B02FA03F3DB4309939DF80230002B0E
:102E800014BF012300238DF823309DF823200B9BD2
:102E900002FA03F307930A9A13465B0113449B005B
:102EA0001344029A13446833039A13440693069B0F
:102EB0001B781A46099B1340079A13430593059BF9
:102EC000DAB2069B1A7023461946034803F0CAF982
:102ED00000BF0CB010BD00BF492E010010B584B07A
:102EE0007446019023461946184803F0A7F9019843
:102EF000FFF764FF00230393039B072B1ED80023D7
:102F00000293029B7F2B15D80199039A13465B010C
:102F100013449B001344CA18029B134468331B7864
:102F20001946012301220198FFF746FE029B013357
:102F30000293E6E7039B01330393DDE7234619463B
:102F4000024803F08FF900BF04B010BDDD2E010070
:102F500030B583B07546019000912B4619461E4846
:102F600003F06CF9019B009A1A60019B0433184628
:102F7000FFF7EEFC019B00229A60019B0022DA60C1
:102F8000009B1B681B68009898470246019B9A604B
:102F9000009B1B6804331B68009898470246019BFE
:102FA000DA60009B1B6808331B68019C00989847F7
:102FB00003461A462271C3F307226271C3F3074323
:102FC000A371019C2B461946034803F04BF9234695
:102FD000184603B030BD00BF512F010010B582B0BC
:102FE00074460190234619460E4803F027F9019BC9
:102FF0001A68019B1B681B680C331B6810469847B6
:10300000019B1A68019B1B681B6810331B681046E4
:10301000984723461946034803F024F900BF02B03D
:1030200010BD00BFDD2F010010B58EB074460790B3
:10303000069105928DF8133023461946374803F060
:10304000FDF89DF813300B93079A0AAB043212680F
:10305000114619800233120C1A7009A80123029339
:103060000123019300230093002300220021FFF796
:1030700025FC00230D930D9B072B3DDC00230C93B7
:103080000C9B072B34DC264A0B9BDB001A440D9B60
:1030900013441B781A460C9B42FA03F303F0010316
:1030A000002B09D0079B04330AAA12681146198025
:1030B0000233120C1A700CE09DF84030002B08D03F
:1030C000079B043309AA1268114619800233120CB7
:1030D0001A70069A0C9B13441946059A0D9B1344CB
:1030E0001A46079800F01EF80C9B01330C93C7E7B3
:1030F0000D9B01330D93BEE7079B04330AAA1268A8
:10310000114619800233120C1A70234619460348DF
:1031100003F0A8F800BF0EB010BD00BF29300100B9
:103120007400001030B585B075460390029101928D
:103130002B461946104803F081F8039B9B68029ABE
:103140009A4210D8039BDB68019A9A420BD8039BE2
:103150001868039B1B681B681C331C680299019A42
:10316000039B5B68A0472B461946034803F07AF897
:1031700000BF05B030BD00BF2531010010B582B0E1
:103180007446019023461946094803F057F8019BFD
:103190001A68019B1B681B6820331B681046984700
:1031A00023461946024803F05DF800BF02B010BD87
:1031B0007D31010010B582B0744601902346194656
:1031C000094803F03BF8019B1A68019B1B681B68C8
:1031D00018331B681046984723461946024803F0E7
:1031E00041F800BF02B010BDB531010010B582B08A
:1031F00074460190234619460E4803F01FF8019BC0
:1032000003F22C731846FFF7E9FE019B03F22C73BF
:103210001846FFF7CFFF019B03F22C731846FFF708
:10322000ADFF23461946034803F01CF800BF02B067
:1032300010BD00BFED3101000EB430B5C6B075460B
:1032400001AB18602B461946504802F0F7FF4AAA16
:1032500002AB1A6002AB03A81B68499A4FF4807155
:1032600004F090FA0346449300234593459A449B07
:103270009A4253D203AA459B13441B788DF80F3111
:103280009DF80F310A2B0ED101AB1B680022C3F849
:10329000402701AB1B68D3F83C375A1C01AB1B68B5
:1032A000C3F83C2736E001AB1B68D3F83C2701ABE1
:1032B0001B68D3F84437134403F0070201AB1B68C3
:1032C000D3F8403701A9096812010A44134403F5F1
:1032D000E9639DF80F211A7001AB1B68D3F84037E2
:1032E0005A1C01AB1B68C3F8402701AB1B68D3F81D
:1032F00040370F2B0DD901AB1B680022C3F84027C4
:1033000001AB1B68D3F83C375A1C01AB1B68C3F8F0
:103310003C2700BF459B01334593A7E701AB1868E5
:1033200000F05AF801AB1B68D3F83C37072B1FD9C4
:1033300001AB1B68D3F84437013303F0070201AB3C
:103340001B68C3F8442701AB1B680722C3F83C275E
:1033500001AB1B68D3F83C2701AB1B68D3F844379B
:10336000134403F0070201AB1146186800F082F81D
:10337000459C2B461946054802F074FF2346184623
:1033800046B0BDE8304003B0704700BF393201009D
:1033900030B585B075460390029101922B461946CF
:1033A0000C4802F04BFF039B029AC3F84027039B93
:1033B000019AC3F83C27039B0022C3F84427039CCF
:1033C0002B461946034802F04DFF2346184605B028
:1033D00030BD00BF9133010030B589B07546039010
:1033E0002B461946224802F029FF00230793079B2A
:1033F000072B2CD800230693069B0F2B23D8069B64
:10340000DB000593079BDB000493039B03F22C7006
:103410000599049C039BD3F84427079B134403F0AE
:103420000703039A1B011A44069B134403F5E9633F
:103430001A780123009313462246FFF7F5FD069BF9
:1034400001330693D8E7079B01330793CFE7039B2C
:1034500003F22C731846FFF791FE039C2B46194686
:10346000034802F0FFFE2346184609B030BD00BFF6
:10347000D933010010B584B0744601900091234601
:1034800019460F4802F0DAFE00230393039B0F2B2B
:103490000DD8019A009B1B011A44039B134403F5AA
:1034A000E96320221A70039B01330393EEE723465E
:1034B0001946034802F0D6FE00BF04B010BD00BF9D
:1034C0007534010010B582B0744601902346194648
:1034D000114802F0B3FE019B03F22C731846FFF76C
:1034E00069FE019B03F5E96380220021184605F07F
:1034F00051FD002200210198FFF74AFF019B03F2D2
:103500002C731846FFF73AFE23461946024802F08C
:10351000A9FE00BF02B010BDC534010030B583B0B4
:10352000754601902B461946164802F087FE019B0E
:103530001846FFF797FA019B03F22C73019A114684
:103540001846FFF705FD019B0022C3F83C27019BAD
:103550000022C3F84027019B0022C3F84427019BA7
:1035600003F5E96380220021184605F013FD019C54
:103570002B461946034802F075FE2346184603B051
:1035800030BD00BF1D35010000B583B0734619463C
:10359000254802F053FE2F23244A2549254804F0EC
:1035A000CBF82548FFF722FE2448FCF791FF24487A
:1035B000FCF78EFF01238DF807309DF80730002BB4
:1035C00001D000F049F81F4B1B68002B03F00103EA
:1035D000B8BF5B42012BF0D11B4B19681B4B83FB1F
:1035E0000132CB17D21A13465B0013445B00CA1A90
:1035F000052AE2D1164B1B6803F00303002BDCD134
:10360000144B1968114B83FB0132CB17D21A1346A6
:103610005B0013445B00CA1A052ACED100238DF843
:10362000073000F0DFF8C8E789350100509B010042
:10363000F8980100EC9501002C0F0010B80A00105A
:10364000A80A0010C80A0010CC0A0010ABAAAA2AC7
:10365000D00A0010D40A001010B57446234619464B
:103660004A4802F0EBFD4A48FCF7E6FE0346002B11
:103670001CD04FF00A004FF00001FDF7C3FB444897
:10368000FCF7DAFE034683F00103DBB2002B0DD01A
:103690005E23404A4049414804F04EF84048FCF758
:1036A000F3FE404B1B6801333E4A13603E48FCF773
:1036B000C3FE0346002B1CD04FF00A004FF0000160
:1036C000FDF7A0FB3848FCF7B7FE034683F0010383
:1036D000DBB2002B0DD069232E4A3449344804F064
:1036E0002BF83448FCF7D0FE334B1B680133324AC9
:1036F00013603248FCF7A0FE0346002B1CD04FF0AD
:103700000A004FF00001FDF77DFB2C48FCF794FE0A
:10371000034683F00103DBB2002B0DD074231D4A56
:103720002749284804F008F82748FCF7ADFE274B46
:103730001B680133254A13602548FCF77DFE0346CC
:10374000002B1CD04FF00A004FF00001FDF75AFB90
:103750001F48FCF771FE034683F00103DBB2002B28
:103760000DD07E230B4A1B491B4803F0E5FF1B4885
:10377000FCF78AFE1A4B1B680133194A1360234673
:103780001946024802F06EFD00BF10BD5936010017
:10379000B80A00105C9B010004990100C496010066
:1037A000C00A0010C80A0010A80A001010990100F1
:1037B00010970100B00A0010CC0A0010980A0010FF
:1037C0001C9901005C970100A00A0010D00A0010AB
:1037D000880A001028990100A8970100900A00109B
:1037E000D40A001010B5744623461946764802F0F4
:1037F00025FD764B3F221A70754B3F221A70754893
:10380000FCF71AFE0346002B48D04FF096004FF00D
:103810000001FDF7F7FA704B1B6801336E4A136025
:103820006D4B1B68022B11DD6C496D48FFF704FDE1
:103830006C4B1B68664A2D21D1546A4B1B680133BF
:10384000684A1360644B4FF0FF321A606148FCF71E
:10385000F3FD034683F00103DBB2002B0AD05E4B7D
:103860001B68002B06D05C4B1B68B3F1FF3F01D0F7
:10387000012300E00023002B10D05B495848FFF7DC
:10388000DBFC584B1B68524A2E21D154554B1B6808
:103890000133544A1360504B00221A605348FCF71E
:1038A000CBFD0346002B42D04FF00A004FF0000141
:1038B000FDF7A8FA4D48FCF7BFFD034683F001036E
:1038C000DBB2002B33D04A4B01221A60484B1A68F6
:1038D000444B1B689A420EDC454B1B683C4AD35C48
:1038E000184602F05FFC00F08FF8414B1B68013373
:1038F0003F4A1360EAE70A2002F054FC3C4B0122E5
:103900001A603B4B1A683B4B1B689A420CDC384BE5
:103910001B682E4AD35C184602F044FC344B1B68EB
:103920000133334A1360ECE72D48FFF7CBFD3248F3
:10393000FCF782FD0346002B1CD04FF00A004FF02D
:103940000001FDF75FFA2C48FCF776FD034683F093
:103950000103DBB2002B0DD028492148FFF76CFC96
:10396000204B1B681A4A2621D1541E4B1B68013379
:103970001C4A13602248FCF75FFD0346002B1CD055
:103980004FF00A004FF00001FDF73CFA1C48FCF72D
:1039900053FD034683F00103DBB2002B0DD0194920
:1039A0000F48FFF749FC0F4B1B68094A7C21D15493
:1039B0000C4B1B6801330B4A13602346194602481F
:1039C00002F050FC00BF10BDE5370100C80E00102A
:1039D000E00A0010880A0010DC0A0010F4970100C9
:1039E0002C0F001074040010F8970100980A0010C2
:1039F000D80A001078040010A80A0010FC970100F3
:103A0000B80A00100098010010B574462346194604
:103A1000934802F013FC934B1B68934AD35C7C2BB6
:103A200009D1924B1B68924A2021D1548F4B1B68BD
:103A300001338E4A13608B4B1B68033B8A4AD35C6D
:103A4000262B0DD0874B1B68033B874AD35C7C2B0E
:103A500006D0844B1B68033B834AD35C3F2B1DD1AC
:103A6000804B1B68023B804AD35C2E2B16D17D4BCA
:103A70001B68013B7C4AD35C2D2B0FD1794B1B6813
:103A8000794AD35C262B09D1784B1B68784A61218F
:103A9000D154764B1B680133744A1360714B1B6819
:103AA000053B714AD35C262B0DD06E4B1B68053B42
:103AB0006D4AD35C7C2B06D06A4B1B68053B6A4A77
:103AC000D35C3F2B2BD1674B1B68043B664AD35C0E
:103AD0002D2B24D1634B1B68033B634AD35C2E2BF5
:103AE0001DD1604B1B68023B5F4AD35C2E2B16D165
:103AF0005C4B1B68013B5C4AD35C2E2B0FD1594BAE
:103B00001B68594AD35C262B09D1584B1B68584A6D
:103B10006221D154554B1B680133544A1360514BF9
:103B20001B68053B504AD35C262B0DD04D4B1B68C0
:103B3000053B4D4AD35C7C2B06D04A4B1B68053BAA
:103B4000494AD35C3F2B2BD1464B1B68043B464A6A
:103B5000D35C2D2B24D1434B1B68033B424AD35CDF
:103B60002E2B1DD13F4B1B68023B3F4AD35C2D2BB4
:103B700016D13C4B1B68013B3B4AD35C2E2B0FD12B
:103B8000384B1B68384AD35C262B09D1374B1B684E
:103B9000374A6321D154354B1B680133334A1360D4
:103BA000304B1B68043B304AD35C262B0DD02D4B89
:103BB0001B68043B2C4AD35C7C2B06D0294B1B682A
:103BC000043B294AD35C3F2B24D1264B1B68033B83
:103BD000254AD35C2D2B1DD1224B1B68023B224A68
:103BE000D35C2E2B16D11F4B1B68013B1E4AD35CA6
:103BF0002E2B0FD11B4B1B681B4AD35C262B09D1E4
:103C00001A4B1B681A4A6421D154184B1B680133A4
:103C1000164A1360134B1B68023B134AD35C262BD6
:103C20000DD0104B1B68023B0F4AD35C3F2B06D0D4
:103C30000C4B1B68023B0C4AD35C7C2B22D1094BFA
:103C40001B68013B084AD35C2E2B1BD1054B1B681C
:103C5000054AD35C262B15D1044B1B680AE000BF34
:103C6000093A0100D80A0010E00A00107804001098
:103C7000C80E0010934A6521D154934B1B68013341
:103C8000914A1360914B1B68053B914AD35C262BEC
:103C90000DD08E4B1B68053B8D4AD35C7C2B06D028
:103CA0008A4B1B68053B8A4AD35C3F2B2BD1874B41
:103CB0001B68043B864AD35C2E2B24D1834B1B68A4
:103CC000033B834AD35C2E2B1DD1804B1B68023BE8
:103CD0007F4AD35C2D2B16D17C4B1B68013B7C4A61
:103CE000D35C2E2B0FD1794B1B68794AD35C262BE2
:103CF00009D1754B1B68734A6621D154724B1B68FE
:103D00000133714A1360714B1B68053B704AD35CE9
:103D1000262B0DD06D4B1B68053B6D4AD35C7C2B6D
:103D200006D06A4B1B68053B694AD35C3F2B2BD1FD
:103D3000664B1B68043B664AD35C2E2B24D1634B35
:103D40001B68033B624AD35C2E2B1DD15F4B1B6863
:103D5000023B5F4AD35C2E2B16D15C4B1B68013BA8
:103D60005B4AD35C2E2B0FD1584B1B68584AD35C4F
:103D7000262B09D1544B1B68524A6821D154524B0F
:103D80001B680133504A1360504B1B68033B504A79
:103D9000D35C262B0DD04D4B1B68033B4C4AD35CA8
:103DA0007C2B06D0494B1B68033B494AD35C3F2B15
:103DB0001DD1464B1B68023B454AD35C2E2B16D1C6
:103DC000424B1B68013B424AD35C2E2B0FD13F4B29
:103DD0001B683F4AD35C262B09D13B4B1B68394AF1
:103DE0006921D154384B1B680133374A1360374B74
:103DF0001B68053B364AD35C262B0DD0334B1B6822
:103E0000053B334AD35C7C2B06D0304B1B68053B0B
:103E10002F4AD35C3F2B2BD12C4B1B68043B2C4AE5
:103E2000D35C2E2B24D1294B1B68033B284AD35C3F
:103E30002D2B1DD1254B1B68023B254AD35C2D2B16
:103E400016D1224B1B68013B214AD35C2D2B0FD18D
:103E50001E4B1B681E4AD35C262B09D11A4B1B68CC
:103E6000184A6A21D154184B1B680133164A136053
:103E7000164B1B68043B164AD35C262B0DD0134B04
:103E80001B68043B124AD35C7C2B06D00F4B1B688B
:103E9000043B0F4AD35C3F2B2DD10C4B1B68033BDB
:103EA0000B4AD35C2D2B26D1084B1B68023B084ADA
:103EB000D35C2E2B1FD1054B1B68013B044AD35CFE
:103EC0002D2B07E0C80E001078040010D80A00104F
:103ED000E00A00100FD1934B1B68934AD35C262B4A
:103EE00009D1924B1B68924A6B21D1548F4B1B68AE
:103EF00001338E4A13608B4B1B68053B8A4AD35CA7
:103F0000262B0DD0874B1B68053B874AD35C7C2B47
:103F100006D0844B1B68053B834AD35C3F2B2BD1D7
:103F2000804B1B68043B804AD35C2E2B24D17D4BF5
:103F30001B68033B7C4AD35C2D2B1DD1794B1B683E
:103F4000023B794AD35C2E2B16D1764B1B68013B82
:103F5000754AD35C2E2B0FD1724B1B68724AD35C0F
:103F6000262B09D1714B1B68714A6C21D1546F4BC0
:103F70001B6801336D4A13606A4B1B68033B6A4A36
:103F8000D35C262B0DD0674B1B68033B664AD35C82
:103F90007C2B06D0634B1B68033B634AD35C3F2BEF
:103FA0001DD1604B1B68023B5F4AD35C2D2B16D1A1
:103FB0005C4B1B68013B5C4AD35C2D2B0FD1594BEA
:103FC0001B68594AD35C262B09D1584B1B68584AA9
:103FD0006D21D154554B1B680133544A1360514B2A
:103FE0001B68033B504AD35C262B0DD04D4B1B68FE
:103FF000033B4D4AD35C7C2B06D04A4B1B68033BEA
:10400000494AD35C3F2B1DD1464B1B68023B464AB5
:10401000D35C2D2B16D1434B1B68013B424AD35C2A
:104020002E2B0FD13F4B1B683F4AD35C262B09D167
:104030003E4B1B683E4A6E21D1543C4B1B680133FA
:104040003A4A1360374B1B68043B374AD35C262B34
:104050000DD0344B1B68043B334AD35C7C2B06D019
:10406000304B1B68043B304AD35C3F2B24D12D4B93
:104070001B68033B2C4AD35C2D2B1DD1294B1B689D
:10408000023B294AD35C2D2B16D1264B1B68013BE2
:10409000254AD35C2D2B0FD1224B1B68224AD35CBF
:1040A000262B09D1214B1B68214A6F21D1541F4B6C
:1040B0001B6801331D4A13601A4B1B68053B1A4AE3
:1040C000D35C262B0DD0174B1B68053B164AD35CDF
:1040D0007C2B06D0134B1B68053B134AD35C3F2B4C
:1040E00034D1104B1B68043B0F4AD35C2E2B2DD1CF
:1040F0000C4B1B68033B0C4AD35C2D2B26D1094B80
:104100001B68023B084AD35C2D2B1FD1054B1B6853
:10411000013B054AD35C2E2B18D1024B1B68024A87
:10412000D35C07E0D80A0010E00A00107804001001
:10413000C80E0010262B09D1924B1B68924A7021A1
:10414000D154904B1B6801338E4A13608F4B1B6810
:10415000053B8F4AD35C262B0DD08C4B1B68053B4F
:104160008B4AD35C7C2B06D0884B1B68053B884A66
:10417000D35C3F2B2BD1854B1B68043B844AD35C1B
:104180002D2B24D1814B1B68033B814AD35C2D2B03
:104190001DD17E4B1B68023B7D4AD35C2E2B16D172
:1041A0007A4B1B68013B7A4AD35C2D2B0FD1774B9E
:1041B0001B68774AD35C262B09D1724B1B68724A65
:1041C0007121D1546F4B1B6801336E4A13606F4BE2
:1041D0001B68043B6E4AD35C262B0DD06B4B1B68CF
:1041E000043B6B4AD35C7C2B06D0684B1B68043BBA
:1041F000674AD35C3F2B24D1644B1B68033B644A62
:10420000D35C2E2B1DD1614B1B68023B604AD35CF3
:104210002D2B16D15D4B1B68013B5D4AD35C2E2BC9
:104220000FD15A4B1B685A4AD35C262B09D1554BE8
:104230001B68554A7221D154524B1B680133514AB5
:104240001360524B1B68043B514AD35C262B0DD0A4
:104250004E4B1B68043B4E4AD35C7C2B06D04B4B29
:104260001B68043B4A4AD35C3F2B24D1474B1B6855
:10427000033B474AD35C2E2B1DD1444B1B68023BAA
:10428000434AD35C2E2B16D1404B1B68013B404A5E
:10429000D35C2E2B0FD13D4B1B683D4AD35C262BA4
:1042A00009D1384B1B68384A7321D154354B1B68F0
:1042B0000133344A1360354B1B68023B344AD35CEC
:1042C000262B0DD0314B1B68023B314AD35C3F2B70
:1042D00006D02E4B1B68023B2D4AD35C7C2B16D19B
:1042E0002A4B1B68013B2A4AD35C2D2B0FD1274B4D
:1042F0001B68274AD35C262B09D1224B1B68224A14
:104300007421D1541F4B1B6801331E4A13601F4B8D
:104310001B68043B1E4AD35C262B0DD01B4B1B682D
:10432000043B1B4AD35C7C2B06D0184B1B68043B18
:10433000174AD35C3F2B2DD1144B1B68033B144A07
:10434000D35C2E2B26D1114B1B68023B104AD35C49
:104350002E2B1FD10D4B1B68013B0D4AD35C2D2B1F
:1043600018D10A4B1B680A4AD35C262B12D1054B85
:104370001B68054A7521D154024B1B680133014A61
:10438000136007E078040010C80E0010D80A00106F
:10439000E00A0010934B1B68053B934AD35C262B25
:1043A0000DD0904B1B68053B8F4AD35C7C2B06D00D
:1043B0008C4B1B68053B8C4AD35C3F2B2BD1894B24
:1043C0001B68043B884AD35C2E2B24D1854B1B6889
:1043D000033B854AD35C2E2B1DD1824B1B68023BCD
:1043E000814AD35C2E2B16D17E4B1B68013B7E4A43
:1043F000D35C2D2B0FD17B4B1B687B4AD35C262BC8
:1044000009D17A4B1B687A4A7621D154774B1B68C5
:104410000133764A1360734B1B68043B724AD35CCA
:10442000262B0DD06F4B1B68043B6F4AD35C7C2B53
:1044300006D06C4B1B68043B6B4AD35C3F2B24D1EA
:10444000684B1B68033B684AD35C2E2B1DD1654B20
:104450001B68023B644AD35C2D2B16D1614B1B6851
:10446000013B614AD35C2D2B0FD15E4B1B685E4A2A
:10447000D35C262B09D15D4B1B685D4A7721D15453
:104480005A4B1B680133594A1360564B1B68053B56
:10449000554AD35C262B0DD0524B1B68053B524A24
:1044A000D35C7C2B06D04F4B1B68053B4E4AD35C3C
:1044B0003F2B2BD14B4B1B68043B4B4AD35C2D2B22
:1044C00024D1484B1B68033B474AD35C2E2B1DD19C
:1044D000444B1B68023B444AD35C2E2B16D1414B04
:1044E0001B68013B404AD35C2D2B0FD13D4B1B6811
:1044F0003D4AD35C262B09D13C4B1B683C4A7821B2
:10450000D1543A4B1B680133384A1360354B1B6852
:10451000053B354AD35C262B0DD0324B1B68053B3F
:10452000314AD35C7C2B06D02E4B1B68053B2E4AB0
:10453000D35C3F2B2BD12B4B1B68043B2A4AD35C0B
:104540002D2B24D1274B1B68033B274AD35C2E2BF2
:104550001DD1244B1B68023B234AD35C2D2B16D163
:10456000204B1B68013B204AD35C2D2B0FD11D4BE8
:104570001B681D4AD35C262B09D11C4B1B681C4AA7
:104580007921D154194B1B680133184A1360154B1C
:104590001B68053B144AD35C262B0DD0114B1B68BE
:1045A000053B114AD35C7C2B06D00E4B1B68053BA8
:1045B0000D4AD35C3F2B34D10A4B1B68043B0A4A9B
:1045C000D35C2D2B2DD1074B1B68033B064AD35CD4
:1045D0002D2B26D1034B1B68023B034AD35C2E2BA9
:1045E0001FD107E0D80A0010E00A0010780400107C
:1045F000C80E00100E4B1B68013B0E4AD35C2E2BDD
:104600000FD10B4B1B680B4AD35C262B09D10A4BED
:104610001B680A4A7A21D154074B1B680133064AAA
:10462000136023461946064801F01CFE00BF10BD6A
:10463000D80A0010E00A001078040010C80E00101C
:10464000093A01002DE9304888B07546CDE90201EC
:104650008DF804202B461946244801F0EFFD4FF059
:1046600000034FF00004CDE90634DDE90234B4F173
:10467000FF3F08BFB3F1FF3F06D14FF0FF334FF0CC
:10468000FF34CDE906340BE0FCF70CFB0A4601468B
:10469000DDE9023413EB010B44EB020CCDE906BC5F
:1046A00001230593FCF7FEFA0A460146DDE90634CC
:1046B000A24208BF994234BF01230023DBB2002B82
:1046C00008D001AB1846FCF70FFB0346002BE9D0DE
:1046D00000230593059C2B461946044801F0C2FDB2
:1046E0002346184608B0BDE8308800BF45460100A3
:1046F00030B583B07546019000912B4619460A48A3
:1047000001F09CFD0122009B02FA03F31A46019B73
:1047100042EA03042B461946034801F0A3FD234651
:10472000184603B030BD00BFF146010030B583B07C
:104730007546019000912B4619460C4801F07EFD0C
:104740000122009B02FA03F31A46019B1340002B3F
:1047500014BF01230023DCB22B461946034801F0A5
:1047600081FD2346184603B030BD00BF2D47010030
:1047700030B589B075460390019200930B468DF8D1
:104780000B302B461946164801F058FD4FF0FF3309
:10479000079320230693009BC3F120034FF0FF32C1
:1047A00022FA03F30593059A019B02FA03F3DB4314
:1047B000039A134003939DF80B20059B1A40019B1D
:1047C00002FA03F3039A13430393039C2B461946FF
:1047D000034801F047FD2346184609B030BD00BF2D
:1047E0007147010030B589B075460390029101927E
:1047F0002B4619460F4801F021FD4FF0FF33079378
:1048000020230693019BC3F120034FF0FF3222FACD
:1048100003F30593039A029BDA40059B02EA030423
:104820002B461946034801F01DFD2346184609B0E2
:1048300030BD00BFE547010030B589B07546039033
:10484000019200930B468DF80B302B461946164803
:1048500001F0F4FC4FF0FF33079320230693009BF5
:10486000C3F120034FF0FF3222FA03F30593059AB8
:10487000019B02FA03F3DB43039A134003939DF871
:104880000B20059B1A40019B02FA03F3039A134382
:104890000393039C2B461946034801F0E3FC23468F
:1048A000184609B030BD00BF3948010010B582B0CC
:1048B000744601900091234619461F4801F0BEFC42
:1048C000019B012B2FD1009B4FF6FF7293422AD1FF
:1048D0001D2200211948FBF747FD1222012118482B
:1048E000FBF742FD1E2200211648FBF73DFD182272
:1048F00001211548FBF738FD0F2201211348FBF772
:1049000033FD1A2201211248FBF72EFD132201214B
:104910001048FBF729FD032202210F48FBF724FD75
:104920000E48FEF7FBFD23461946034801F09AFCAA
:1049300000BF02B010BD00BFAD480100880A0010E2
:10494000900A0010980A0010A00A0010A80A00108F
:10495000B00A0010B80A0010C00A00102C0F001096
:1049600010B5744623461946064801F067FC4FF619
:10497000FF710120FFF79AFF23461946014801F015
:1049800071FC10BD6149010010B582B07446019000
:104990000B468DF8033013468DF802302346194636
:1049A000104801F04BFC9DF803209DF802300E49A1
:1049B0005201134451F823301A689DF803109DF8F2
:1049C0000230094849010B4450F8233022F0180204
:1049D0001A6023461946034801F044FC00BF02B0A8
:1049E00010BD00BF894901007C04001010B582B0E1
:1049F000744601900B468DF8033013468DF8023053
:104A000023461946144801F019FC9DF802209DF830
:104A1000033019460198FFF7B7FF9DF803209DF872
:104A200002300E495201134451F823301A689DF8A0
:104A300003109DF80230094849010B4450F8233017
:104A400042F008021A6023461946034801F00AFCA6
:104A500000BF02B010BD00BFED4901007C04001092
:104A600010B582B07446019023461946064801F0FD
:104A7000E5FB064A019B136023461946024801F0F4
:104A8000F1FB00BF02B010BD614A01001C00001024
:104A900010B57446234619460A4801F0CFFB0A4B6D
:104AA0001B6800225A60084B1B6800229A60064B64
:104AB0001B6800221A6023461946024801F0D2FB07
:104AC00000BF10BD914A01007C07001010B574466C
:104AD00023461946084801F0B1FB084B1B68002B20
:104AE00002D0064B1B68984723461946024801F03E
:104AF000B9FB00BF10BD00BFCD4A0100F416001085
:104B000010B582B0744601900091234619460748BB
:104B100001F094FB064A009B1360234619460348A4
:104B200001F0A0FB00BF02B010BD00BF014B0100AF
:104B3000F416001030B585B0754601902B46194625
:104B4000204801F07BFB00238DF80F301E4B1B68C3
:104B50005B68002B14BF01230023DBB2002B1ED0A7
:104B6000194B1B6800229A60174B1B681A68164B7A
:104B70001B6842F002021A60134B1B681A68124B42
:104B80001B6842F001021A600F4B1B681A680E4B3B
:104B90001B6842F004021A6001238DF80F304FF0B9
:104BA000FF33012209494FF0FF3001F01FFA9DF851
:104BB0000F402B461946034801F054FB2346184684
:104BC00005B030BD354B01007C070010CD4A010017
:104BD00030B585B07546019000912B4619461F48A7
:104BE00001F02CFB009B012B01D800242DE0019B40
:104BF0001A1D019B5B680C331B68104698470246E0
:104C0000009BB2FBF3F3013B0393019B1A1D019B35
:104C10005B680C331B68104698470346009AB3FB49
:104C2000F2F2009901FB02F29B1A0293039BB3F18B
:104C3000807F05D36FF07F4303936FF07F43029330
:104C4000074B1B68039A5A60029C2B46194603487F
:104C500001F008FB2346184605B030BDD14B0100DA
:104C60007C07001030B583B0754603468DF80730D9
:104C70002B461946064801F0E1FA9DF807402B46FD
:104C80001946034801F0EEFA2346184603B030BD3A
:104C9000654C010010B5744623461946044801F0DE
:104CA000CDFA23461946024801F0DCFA00BF10BDD8
:104CB000954C010010B586B07446039002910192A4
:104CC0000093234619463E4801F0B8FA039B181D8D
:104CD000039B5B6814331B68039A127A920039496C
:104CE0000A4411469847029B002B0DD18423364A73
:104CF0003649374802F020FD364801F06FFA0021AE
:104D00000120FBF737FFFEE7039B1A1D039B5B683F
:104D100010331B68104698470246029BB2FBF3F320
:104D20000593039B1B7A1A462B4B53F82230DA6803
:104D3000039B1B7A1946284B53F8213002F00102DD
:104D4000DA60039B1B7A1A46234B53F82230D9684A
:104D5000059B5A00039B1B7A18461F4B53F82030C3
:104D60000A43DA60039B1B7A1A461B4B53F8223026
:104D70005A68039B1B7A1946174B53F8213042F0AF
:104D800001025A60039B1B7A1946144A019B42F8A0
:104D90002130039B1B7A1A46114B9856039B1B7AB2
:104DA0001A46104B53F82210009B012201F01EF905
:104DB00023461946024801F055FA00BF06B010BD5F
:104DC000B54C0100F4A20100F4A3010018A30100F6
:104DD000D4A10100E09E01008007001038170010E8
:104DE00004A3010008A3010030B583B07546034653
:104DF0008DF807302B461946064801F01FFA9DF83A
:104E000007402B461946034801F02CFA2346184662
:104E100003B030BDE94D010070B586B07646039011
:104E2000029111461A460B468DF8073013468DF84D
:104E3000063033461946324801F000FA9DF8063034
:104E40001846FFF7D1FF03468DF81730039B1B7AF6
:104E50001A462C4B53F822305A699DF81730072117
:104E600001FA03F3DB431946039B1B7A1846254BD3
:104E700053F820300A405A61039B1B7A1A46214B93
:104E800053F822305A699DF807109DF8173001FA3F
:104E900003F31946039B1B7A18461A4B53F820302C
:104EA0000A435A61039B1B7A18469DF81730164A2D
:104EB000A2FB03235B08DBB21946144A83000B44B0
:104EC00052F823301968029B5A08039B1B7A1D462F
:104ED0009DF817300C48A0FB03035B08DBB21C46AF
:104EE0000A48AB00234450F823300A431A60334683
:104EF0001946034801F0B6F900BF06B070BD00BF07
:104F0000194E010080070010ABAAAAAAF8160010DB
:104F100030B583B0754601902B461946094801F01B
:104F20008DF9019B1B7A1A46074B53F822309C6877
:104F30002B461946034801F095F92346184603B05D
:104F400030BD00BF114F01008007001010B588B0C0
:104F5000744601900091234619462D4801F06EF9E0
:104F600080238DF81F30009B07EE903AF8EE677AA9
:104F7000CDED067A02AB9DED060A0199184600F0C8
:104F80002DFB029B1B0A8DF81730029B8DF8163003
:104F9000049BDBB21B01DAB2039BDBB203F00F030D
:104FA000DBB213438DF81530019B1B7A1A46194B5F
:104FB00053F8223080221A73019B1B7A1A46154B34
:104FC00053F822309DF817201A71019B1B7A1A465C
:104FD000104B53F822309DF816201A70019B1B7A53
:104FE0001A460C4B53F822309DF8152083F82820E0
:104FF000019B1B7A1A46074B53F8223003221A737F
:1050000023461946024801F02DF900BF08B010BD33
:105010004D4F01009007001030B585B075460190E6
:1050200000912B461946304801F008F907238DF806
:105030000F30019B181D019B5B6814331B68019A9C
:10504000127A920029490A4411469847019B18692F
:10505000019B1B691B681B68019A127A1146244A3E
:10506000525C11469847019BD868019BDB681B681E
:105070001B68019A127A11461E4A525C11469847E3
:10508000019B1A69019B1B691B6804331B68022181
:1050900010469847019BDA68019BDB681B68043364
:1050A0001B6802211046984700990198FFF74EFFB0
:1050B000019B1B7A1A46104B53F822301B7ADAB246
:1050C000019B1B7A19460C4B53F8213042F0070222
:1050D000D2B21A7201242B461946034801F0C2F8D5
:1050E0002346184605B030BD195001002CA301001D
:1050F00028A3010024A301009007001030B583B05D
:10510000754601902B4619460D4801F097F8019B12
:105110001B681B7A1A460B4B53F822301B7DDBB2FF
:1051200003F02003002B14BF01230023DCB22B4625
:105130001946034801F096F82346184603B030BDDF
:10514000FD500100900700102DE930488AB07546E7
:1051500001900B468DF803302B461946314801F07B
:105160006DF8019B1B7A1A462F4B53F822309DF89D
:1051700003201A70019B04934FF0FF334FF0FF346C
:10518000CDE90834049B03932B461946274801F0C8
:1051900055F84FF000034FF00004CDE90634DDE987
:1051A0000834B4F1FF3F08BFB3F1FF3F06D14FF021
:1051B000FF334FF0FF34CDE906340BE0FBF772FD0F
:1051C0000A460146DDE9083413EB010B44EB020CFF
:1051D000CDE906BC01230593FBF764FD0A460146B1
:1051E000DDE90634A24208BF994234BF01230023FF
:1051F000DBB2002B08D003AB1846FFF77FFF034656
:10520000002BE9D0002305932B461946074801F0EF
:1052100029F82B461946034801F024F800BF0AB0CC
:10522000BDE830884951010090070010455A01003F
:1052300030B583B0754601902B4619460D4800F0F5
:10524000FDFF019B1B681B7A1A460B4B53F822305B
:105250001B7DDBB203F00103002B14BF01230023ED
:10526000DCB22B461946034800F0FCFF23461846E3
:1052700003B030BD31520100900700102DE93048D5
:105280008CB07546019000912B461946364800F0C7
:10529000D5FFFF238DF82F30019B0493009B4FF027
:1052A0000004CDE90834049B03932B4619462F488C
:1052B00000F0C4FF4FF000034FF00004CDE90634C6
:1052C000DDE90834B4F1FF3F08BFB3F1FF3F06D179
:1052D0004FF0FF334FF0FF34CDE906340BE0FBF71E
:1052E000E1FC0A460146DDE9083413EB010B44EB0F
:1052F000020CCDE906BC01230593FBF7D3FC0A465B
:105300000146DDE90634A24208BF994234BF0123B9
:105310000023DBB2002B08D003AB1846FFF788FF51
:105320000346002BE9D000230593059C2B46194624
:105330000E4800F097FF0A940A9B002B08D1019BAE
:105340001B7A1A460A4B53F822301B788DF82F30FF
:105350009DF82F402B461946034800F083FF234653
:1053600018460CB0BDE830887D520100ED5A0100AE
:105370009007001010B58AB07446039002918DED2D
:10538000010A23461946384800F058FF039B0022C3
:105390001A60039B00225A60039B01229A6000233B
:1053A0008DF8273000230893089B0E2B52DC9DF8C4
:1053B0002730002B4ED1089B01330793079B0E2B00
:1053C00044DC9DF82730002B40D1089B07EE903A33
:1053D000F8EEE77ACDED067A079B07EE903AF8EE05
:1053E000E77ACDED057ADDED066A9DED057AC6EE2C
:1053F000877AB7EE007A77EE877ACDED047ADDED25
:10540000047A9FED1A7A77EE877A9DED017AB4EEF1
:10541000E77AF1EE10FA15D8DDED047A9FED137AF4
:1054200077EEC77A9DED017AB4EEE77AF1EE10FAE5
:1054300008DB089A039B5A60079A039B9A60012332
:105440008DF82730079B01330793B7E7089B01339B
:105450000893A9E700BF23461946034800F002FF5E
:1054600000BF03980AB010BD75530100CDCC4C3D70
:1054700010B52DED028B86B0744603908DED020AB7
:10548000CDED010A23461946154800F0D7FE039BCF
:105490001A1D039B5B6810331B681046984707EE84
:1054A000900AF8EE677ACDED057ADDED027AB3EE7B
:1054B000007A27EE877ADDED017A67EE277A9DED97
:1054C000057A87EE278A23461946054800F0CAFE6A
:1054D000F0EE487AB0EE670A06B0BDEC028B10BD64
:1054E0007154010010B52DED028B86B07446039007
:1054F0008DED020ACDED010A23461946154800F04C
:105500009DFE039B1A1D039B5B6810331B681046AE
:10551000984707EE900AF8EE677ACDED057ADDED53
:10552000027AB3EE007A27EE877ADDED017A67EE34
:10553000277A9DED057A87EE278A23461946054886
:1055400000F090FEF0EE487AB0EE670A06B0BDECCF
:10555000028B10BDE554010030B587B0754601904F
:105560008DED000A2B461946194800F067FE00230E
:105570008DF817309DED000A03F0E0FA8DED040A76
:105580009DED007ADDED047A77EE677ACDED037A52
:10559000DDED037A9FED0F7AF4EEC77AF1EE10FAA3
:1055A0000BDBDDED037A9FED0C7AF4EEC77AF1EEBA
:1055B00010FA02D801238DF817309DF817402B46BA
:1055C0001946034800F04EFE2346184607B030BD8A
:1055D00059550100CDCC4CBDCDCC4C3D30B58FB034
:1055E0007546079006918DED050A2B4619467448BD
:1055F00000F024FE00230D93079B00221A60079BF6
:1056000000225A60079B01229A604FF000030C931E
:105610004FF07F530B934FF07E530A934FF080432C
:1056200009930D9B042B00F0C1800D9B042B00F20D
:10563000BB8001A252F823F04D560100A95601008B
:105640000957010079570100A9570100F7EE000A38
:105650009DED050A0698FFF70BFF8DED0C0ADDEDB9
:105660000C7AB7EE007AF4EEC77AF1EE10FA05D5AF
:10567000079B00221A6004230D9396E09DED0C0A0F
:105680000698FFF769FF0346002B0AD0DDED0C7A80
:10569000FCEEE77A17EE902A079B1A6004230D931D
:1056A00083E001230D9380E0DDED0B0A9DED050AFB
:1056B0000698FFF7DDFEF0EE407AB0EE670A03F0E1
:1056C0003DFA8DED0C0ADDED0C0A9DED050A0698FC
:1056D000FFF708FF8DED0B0ADDED0B7A9FED397AB0
:1056E000F4EEC77AF1EE10FA0BDBDDED0B7A9FEDED
:1056F000367AF4EEC77AF1EE10FA02D803230D934E
:1057000053E002230D9350E0DDED097AB7EE007A05
:1057100077EE877ACDED097ADDED0A7AB2EE0E7A70
:10572000F4EEC77AF1EE10FA02DD04230D933CE0AB
:10573000DDED097AB2EE0E7AF4EEC77AF1EE10FAE8
:105740000FDDDDED0A7AB7EE007A77EE877ACDEDE0
:105750000A7ADDED0A7AB7EE007A77EE877ACDED38
:10576000097ADDED0A6A9DED097AC6EE877ACDEDFC
:105770000B7A01230D9318E0079C6B469DED0B0AF5
:1057800006991846FFF7F6FD6B4693E8070084E894
:105790000700DDED0C7AFCEEE77A17EE902A079B06
:1057A0001A6004230D9300E000BF3AE700BF2B46C8
:1057B0001946034800F056FD00BF07980FB030BDF2
:1057C000DD550100CDCC8C3F3333F33F38B5754602
:1057D0002B4619460A4800F031FD0A4B1B7A1A463F
:1057E000094B53F822309C682B461946044800F0B8
:1057F00039FD23464FF000041846214638BD00BF4E
:10580000114F0100000800108007001038B57546E0
:105810002B4619460A4800F011FD0A4B1B7A1A461E
:10582000094B53F822309C682B461946044800F077
:1058300019FD23464FF000041846214638BD00BF2D
:10584000114F0100000800108007001000B583B060
:105850004FF47A712248FFF7BBF92148FFF76AF944
:1058600003468DF807309DF8073083F00103DBB263
:10587000002B05D0AD231B4A1B491C4801F05CFFDF
:1058800030211B48FBF7A2FF0346002B14BF012366
:105890000023DBB2002B01D000BFF1E70121144847
:1058A000FBF7DCFFFFF7F4F84FF47A710C48FFF7D1
:1058B0008FF90B48FFF73EF94FF0FF330D4A0E49C1
:1058C0000E48FFF7F7F90E48FFF7CAF84FF41641F4
:1058D0000C48FFF7A1FB00BF03B05DF804FB00BF5D
:1058E000F407001034A401003CA3010094A20100BD
:1058F000FC070010954C010040420F00000800100A
:10590000CD570100E007001008B5FAF7FFFBFAF7E2
:1059100045FCFAF773FC03F019FBFFF797FF00BF94
:1059200008BDFFFF80B584B000AF094BFB60FB688A
:105930003B603B6883F30988FB687B607B6883F38B
:105940000888FFF7E1FFFDF71FFEB860FEE700BF24
:105950000000011010B57446234619460A4800F0AD
:105960006DFC0020FFF77EF903461A46074B53F8FB
:105970002230984700F00EF923461946024800F0FD
:1059800071FC00BF10BD00BF555901003817001051
:1059900010B57446234619460A4800F04FFC012012
:1059A000FFF760F903461A46074B53F82230984731
:1059B00000F040F923461946024800F053FC00BFAE
:1059C00010BD00BF915901003817001010B5744682
:1059D000234619460A4800F031FC0220FFF742F93D
:1059E00003461A46074B53F82230984700F072F9E5
:1059F00023461946024800F035FC00BF10BD00BF29
:105A0000CD5901003817001010B5744623461946C9
:105A10000A4800F013FC0320FFF724F903461A4656
:105A2000074B53F82230984700F0A4F92346194653
:105A3000024800F017FC00BF10BD00BF095A01006A
:105A4000381700102DE9304888B07546CDE90201BD
:105A500001922B461946244800F0F0FB4FF000035A
:105A60004FF00004CDE90634DDE90234B4F1FF3F24
:105A700008BFB3F1FF3F06D14FF0FF334FF0FF34C3
:105A8000CDE906340BE0FBF70DF90A460146DDE9E6
:105A9000023413EB010B44EB020CCDE906BC0123ED
:105AA0000593FBF7FFF80A460146DDE90634A242FA
:105AB00008BF994234BF01230023DBB2002B08D07A
:105AC00001AB1846FFF71AFB0346002BE9D0002371
:105AD0000593059C2B461946034800F0C3FB23465B
