:020000021000EC
:1000000000000110E12B01003D3201001902010046
:100010003D3201003D3201003D3201001209F8EF8E
:10002000000000000000000000000000D14B0100B3
:100030003D32010000000000D14C01003D320100C2
:100040003D3201003D3201003D3201003D320100F0
:100050003D3201003D3201003D3201003D320100E0
:100060003D3201003D3201003D3201003D320100D0
:100070003D320100000000003D3201003D32010030
:100080003D3201003D3201003D3201003D320100B0
:100090003D3201003D3201003D3201003D320100A0
:1000A0003D3201003D3201003D3201003D32010090
:1000B0003D3201003D3201003D3201003D32010080
:1000C0003D3201003D3201003D3201003D32010070
:1000D0003D3201003D3201003D3201003D32010060
:1000E0003D3201004CB3010000000010840200000A
:1000F0004CB3010000000020000000008802001046
:10010000CC060000000000200000000086B00023A4
:100110000593059A13465B0013449B001D4A134444
:100120001D4A934233D21B49059A13465B00134480
:100130009B000B441B6803931649059A13465B000A
:1001400013449B000B445B6802931249059A1346C3
:100150005B0013449B000B4408331B68019300238E
:100160000493049A019B9A420DD2049B9B00039A2C
:100170001A44049B9B0002990B4412681A60049B6A
:1001800001330493EDE7059B01330593C1E700BFFD
:1001900006B07047E4000100FC00010084B00023B9
:1001A0000393039BDB00134A1344134A93421ED26A
:1001B000104A039B52F8333001930E4A039BDB0035
:1001C00013445B68009300230293029A009B9A42B7
:1001D00009D2029B9B00019A134400221A60029BE1
:1001E00001330293F1E7039B01330393D9E700BF87
:1001F00004B07047FC0001000C010100DFF814009E
:10020000016841F470010160BFF34F8FBFF36F8F3E
:1002100000BF704788ED00E01EF0040F0CBFEFF345
:100220000880EFF309808169004A10470533010017
:1002300000BF7047FFFFFFFFFFFFFFFFFFFFFFFF54
:10024000FFFFFFFFFFFFFFFFFFFFFFFFFFFFFFFFBE
:10025000FFFFFFFFFFFFFFFFFFFFFFFFFFFFFFFFAE
:10026000FFFFFFFFFFFFFFFFFFFFFFFFFFFFFFFF9E
:10027000FFFFFFFFFFFFFFFFFFFFFFFFFFFFFFFF8E
:10028000FFFFFFFFFFFFFFFFFFFFFFFFFFFFFFFF7E
:10029000FFFFFFFFFFFFFFFFFFFFFFFFFFFFFFFF6E
:1002A000FFFFFFFFFFFFFFFFFFFFFFFFFFFFFFFF5E
:1002B000FFFFFFFFFFFFFFFFFFFFFFFFFFFFFFFF4E
:1002C000FFFFFFFFFFFFFFFFFFFFFFFFFFFFFFFF3E
:1002D000FFFFFFFFFFFFFFFFFFFFFFFFFFFFFFFF2E
:1002E000FFFFFFFFFFFFFFFFFFFFFFFFFFFFFFFF1E
:1002F000FFFFFFFFFFFFFFFFFFFFFFFFFFFFFFFF0E
:10030000F8B500BFF8BC08BC9E4670474D0301001D
:10031000F90F0100AD310100D9880100F8B500BF27
:10032000F8BC08BC9E46704710B5054C237833B91D
:10033000044B13B10448AFF300800123237010BDB8
:1003400088020010000000004CB3010008B5034B08
:100350001BB103490348AFF3008008BD0000000053
:100360008C0200104CB3010030B583B0754601908B
:100370000B468DF8033013468DF802302B46194694
:100380000E4803F0E5F8019B9DF803201A70019BCD
:100390009DF802205A709DF80330022B01D10122F2
:1003A00000E00022019B9A70019C2B4619460348ED
:1003B00003F0E2F82346184603B030BD690301009C
:1003C00010B582B074460190234619460B4803F0DD
:1003D000BFF8019B5B781A46012303FA02F2019BE6
:1003E0001B781946064B53F821309A61234619466B
:1003F000024803F0C1F800BF02B010BDC103010004
:100400000000001010B582B07446019023461946D2
:100410000B4803F09DF8019B5B781A46012303FA11
:1004200002F2019B1B781946064B53F82130DA6122
:1004300023461946024803F09FF800BF02B010BDE2
:10044000050401000000001030B583B0754601902E
:100450002B4619460E4803F07BF8019B1B781A4681
:100460000C4B53F822305B69019A527811460122F5
:100470008A401340002B14BF01230023DCB22B461B
:100480001946034803F078F82346184603B030BDF8
:10049000490401000000001010B582B074460190BC
:1004A000234619460D4803F053F80198FFF7CCFF97
:1004B000034683F00103DBB2002B03D00198FFF762
:1004C0007FFF02E00198FFF79DFF2346194603488E
:1004D00003F052F800BF02B010BD00BF9904010044
:1004E00010B584B0744603900291019223461946D8
:1004F0000D4803F02DF8039B9B781846039B5B780F
:100500001A460A4943011344029A41F823200199EB
:10051000039800F08BF823461946034803F02CF8A3
:1005200000BF04B010BD00BFE1040100A402001030
:1005300010B582B07446234619462C4803F008F8DB
:100540002B4B5A682A4B9B681343002B14BF012383
:100550000023DBB2002B19D0254B5A68244B9B6833
:10056000134393FAA3F3B3FA83F30193214A019B54
:1005700052F8233098471E4BDB680121019A01FA9B
:1005800002F2D24311461A4A0B40D360184B5A6A02
:10059000174B9B6A1343002B14BF01230023DBB2CC
:1005A000002B1AD0124B5A6A114B9B6A134393FAD1
:1005B000A3F3B3FA83F301930E4A019B203352F85D
:1005C000233098470A4BDB6A0121019A01FA02F2B3
:1005D000D2431146064A0B40D362234619460348CC
:1005E00002F0CAFF00BF02B010BD00BF310501001C
:1005F00080800240A402001010B5744623461946BC
:10060000084802F0A5FF4FF0FF33012206492620DB
:1006100002F04AFE23461946024802F0ADFF00BF31
:1006200010BD00BFF90501003105010010B582B011
:1006300074460190009123461946174802F088FF3E
:10064000009B032B20D801A252F823F05D06010085
:100650006B060100730601007B06010089230F4A27
:100660000F49104805F012FD0EE0019800F044F823
:100670000AE0019800F018F806E0019800F03CF854
:10068000019800F011F800BF23461946024802F015
:1006900073FF00BF02B010BD2D0601002C900100B9
:1006A000C88F0100D48F010010B582B0744601904C
:1006B000234619460E4802F04BFF019B5B781A4611
:1006C000012303FA02F0019B9B781946094A0B4665
:1006D0009B000B449B00134410331B6802461A60B6
:1006E00023461946024802F047FF00BF02B010BD82
:1006F000A90601001800001010B582B074460190E0
:10070000234619460E4802F023FF019B5B781A46E8
:10071000012303FA02F0019B9B781946094A0B4614
:100720009B000B449B0013440C331B6802461A6069
:1007300023461946024802F01FFF00BF02B010BD59
:10074000F90601001800001010B582B0744601903F
:10075000234619460E4802F0FBFE019B5B781A46C1
:10076000012303FA02F0019B9B781946094A0B46C4
:100770009B000B449B00134408331B6802461A601D
:1007800023461946024802F0F7FE00BF02B010BD32
:10079000490701001800001010B582B0744601909E
:1007A000234619460E4802F0D3FE019B5B781A4699
:1007B000012303FA02F0019B9B781946094A0B4674
:1007C0009B000B449B00134408331B6802461A60CD
:1007D00023461946024802F0CFFE00BF02B010BD0A
:1007E000990701001800001010B582B074460190FE
:1007F000009123461946174802F0AAFE009B032BDE
:1008000020D801A252F823F019080100270801009E
:100810002F08010037080100A7230F4A0F4910488D
:1008200005F034FC0EE00198FFF7B6FF0AE00198EE
:10083000FFF78AFF06E00198FFF7AEFF0198FFF788
:1008400083FF00BF23461946024802F095FE00BF11
:1008500002B010BDE9070100549001002090010092
:10086000D48F010070B5764633461946074802F02A
:100870006FFE074BD3E9004533461946034802F0A3
:100880007BFE23462C461846214670BD65080100B4
:10089000A803001070B57446234619460C4802F0B0
:1008A00057FE0C4B1B6898474FF47A724FF00003C9
:1008B00008F0BCF802460B4615461E46234619466C
:1008C000034802F059FE2B4634461846214670BDB7
:1008D000950801004000001030B583B075460190C6
:1008E0002B461946064802F033FE00242B461946D3
:1008F000034802F041FE2346184603B030BD00BF56
:10090000D908010038B5744623461946074802F055
:100910001FFE0020FFF7E0FF03461D462346194651
:10092000024802F029FE2B46184638BD0509010091
:10093000F0B589B07546CDE900012B4619462B4824
:1009400002F006FEDDE90034CDE906348DF80860DA
:100950002B461946264802F0FBFD4FF000034FF0EE
:100960000004CDE90434DDE90634B4F1FF3F08BFEB
:10097000B3F1FF3F06D14FF0FF334FF0FF34CDE925
:1009800004340AE0FFF786FF0A460146DDE9063433
:100990005E1844EB0207CDE9046701230393FFF7D8
:1009A00079FF0A460146DDE90434A24208BF9942B4
:1009B00034BF01230023DBB2002B08D002AB184662
:1009C000FFF78AFF0346002BE9D000230393039C23
:1009D0002B461946064802F0CFFD2B461946034820
:1009E00002F0CAFD2346184609B0F0BD31090100E6
:1009F000990E010010B582B07446CDE9000123467E
:100A00001946074802F0A4FDDDE90001FFF790FF59
:100A100023461946024802F0AFFD00BF02B010BDE8
:100A2000F509010030B583B0754601902B46194693
:100A3000134802F08DFD019B9A68019B9B681B681F
:100A400030331B681046984703461A4601239340EB
:100A50001C46019B9A68019B9B681B682C331B6892
:100A60001046984703461A46064B53F822309C61BD
:100A70002B461946024802F07FFD00BF03B030BD8F
:100A8000250A01004400001030B583B0754601907E
:100A90002B461946134802F05BFD019B9A68019BA7
:100AA0009B681B6830331B681046984703461A46FC
:100AB000012393401C46019B9A68019B9B681B681D
:100AC0002C331B681046984703461A46064B53F8CA
:100AD0002230DC612B461946024802F04DFD00BF72
:100AE00003B030BD890A01004400001010B582B087
:100AF000744601900B468DF80330234619460B4887
:100B000002F026FD9DF80330002B03D00198FFF77B
:100B100089FF02E00198FFF7B7FF23461946034813
:100B200002F02AFD00BF02B010BD00BFED0A0100B7
:100B300030B583B0754601902B461946064802F041
:100B400007FD019C2B461946034802F015FD23467C
:100B5000184603B030BD00BF310B010030B585B081
:100B6000754601902B461946174802F0F1FC019B8F
:100B7000DB6A1846FFF7DCFF0246144B53F82230BD
:100B8000DB680393042302932B461946104802F0B6
:100B9000DFFC0122029B02FA03F31A46039B134077
:100BA000002B14BF01230023DCB22B461946084852
:100BB00002F0E2FC2B461946034802F0DDFC234616
:100BC000184605B030BD00BF5D0B01005C00001091
:100BD000450F010030B585B0754601900B46ADF864
:100BE00002302B461946144802F0B2FC019BDB6A26
:100BF0001846FFF79DFF03460393104A039B52F8E4
:100C00002330BDF802209A600198FFF7A7FF034642
:100C1000002B01D000BFF7E7084A039B52F82330AE
:100C20009B689CB22B461946034802F0A5FC23465C
:100C3000184605B030BD00BFD50B01005C000010A8
:100C400000B583B073461946254802F081FC1A238B
:100C5000244A2549254805F019FA032200210120DC
:100C600003F058FC0246224B1A60214B1B68002BF4
:100C700006D01F4B186800230022002103F0A0FCBF
:100C800003220021012003F045FC0246194B1A60A3
:100C9000184B1B68002B06D0164B18680023002247
:100CA000002103F08DFC022213491448FFF718FCC1
:100CB000FFF7A2FC012212491248FFF711FCFFF7CF
:100CC0009BFC002301930123009300234FF48062D7
:100CD0000D490E4802F051FD02F07EFEFEE700BF16
:100CE000410C0100FC9201007C9001008890010001
:100CF000B0030010B4030010110D0100C803001070
:100D0000710D0100B8030010C8900100D10D010061
:100D100010B57446234619460F4802F019FC3E23CD
:100D20000E4A0F490F4805F0B1F94FF032004FF06D
:100D30000001FFF75FFE0C4B1B680021184603F013
:100D4000E7FC02210948FFF74FFD234619460248F8
:100D500002F012FC00BF10BD110D0100089301004C
:100D6000B4920100CC900100B0030010C803001041
:100D700010B57446234619460F4802F0E9FB452397
:100D80000E4A0F490F4805F081F94FF032004FF03D
:100D90000001FFF72FFE0C4B1B680021184603F0E3
:100DA000B7FC01210948FFF71FFD234619460248F9
:100DB00002F0E2FB00BF10BD710D01001C930100A9
:100DC000C092010018910100B4030010B803001094
:100DD00000B583B0734601901946214802F0B8FB74
:100DE000204B1B684FF47A71184603F0E5FC03466C
:100DF000002B14BF01230023DBB2002B09D04E23AC
:100E0000194A1A491A4805F041F91A48FFF744FBF4
:100E100005E05123144A1849184805F037F9184BD2
:100E20001B684FF47A71184603F0C6FC0346002B8A
:100E300014BF01230023DBB2002B09D054230A4A3C
:100E40001049114805F022F91048FFF725FBC7E7C4
:100E50005723054A0E490F4805F018F9C0E700BFAF
:100E6000D10D0100B003001030930100CC920100BD
:100E70006C910100D0030010D8920100BC910100D8
:100E8000B4030010E492010010920100C0030010AE
:100E9000F0920100609201002DE9304888B075465B
:100EA000CDE902018DF804202B461946244802F0B2
:100EB0004FFB4FF000034FF00004CDE90634DDE9AD
:100EC0000234B4F1FF3F08BFB3F1FF3F06D14FF04A
:100ED000FF334FF0FF34CDE906340BE0FFF7DAFCC7
:100EE0000A460146DDE9023413EB010B44EB020C28
:100EF000CDE906BC01230593FFF7CCFC0A46014669
:100F0000DDE90634A24208BF994234BF0123002321
:100F1000DBB2002B08D001AB1846FFF7DDFC03461F
:100F2000002BE9D000230593059C2B461946044865
:100F300002F022FB2346184608B0BDE8308800BF07
:100F4000990E010030B583B07546019000912B4693
:100F500019460C4802F0FCFA0122009B02FA03F346
:100F60001A46019B1340002B14BF01230023DCB25F
:100F70002B461946034802F0FFFA2346184603B0F1
:100F800030BD00BF450F010010B582B0744601901E
:100F9000009123461946134802F0DAFA019B012B0F
:100FA00018D1009B4FF6FF72934213D11D220021EE
:100FB0000D48FFF7D9F9122201210C48FFF7D4F9A7
:100FC0001E2200210A48FFF7CFF918220121094803
:100FD000FFF7CAF923461946024802F0CDFA00BFCE
:100FE00002B010BD890F0100B8030010C00300104B
:100FF000C8030010D003001010B5744623461946EC
:10100000064802F0A5FA4FF6FF710120FFF7BCFF7A
:1010100023461946014802F0AFFA10BDF90F01004E
:1010200000B58BB0034600918DF8073002F0C6FA88
:1010300003461946314805F029F802F0ABFA07904B
:1010400002F0BCFA069000230993069B013B099A23
:101050009A420DD2099B9B00079A13441B681A46BB
:101060000999274805F012F8099B01330993ECE729
:10107000009B002B06D0069B013B009A1946204896
:1010800005F004F89DF80730002B33D01D4A03AB60
:1010900007CA83E807001C4802F02AFA03AB194686
:1010A0001A4804F0F3FF00230893069B013B089ABB
:1010B0009A4212D2089B002B02D0202002F0FCF9A9
:1010C000089B9B00079A13441B681946104804F0BC
:1010D000DDFF089B01330893E7E7009B002B03D05B
:1010E00000990C4804F0D2FF0B4802F001FA0B48BB
:1010F00002F0FEF900BF0BB05DF804FB489301005D
:101100005C930100389401006C930100A4930100EA
:10111000CC930100D4930100DC930100E49301001F
:1011200010B582B07446019023461946064802F075
:101130000FFA064A019B136023461946024802F043
:101140001BFA00BF02B010BD2111010040000010C9
:1011500000B585B001900B468DF803300023039352
:101160000021019800F0CEF89DF803300C2B16D921
:101170009DF803309BB21A460C21019800F0ACF99F
:1011800003904FF48071019800F0D6F89DF8033079
:10119000104A02FB03F31A460F4B1A6006E00021C7
:1011A000019800F0C9F80C4B0C4A1A600121019813
:1011B00000F04AFA019B1B6804331B680121019867
:1011C00098470021019800F073FA039B184605B078
:1011D0005DF804FB40420F006C000010001BB700DC
:1011E00000B583B001900B468DF803309DF80330B5
:1011F000042B0DD9AE230B4A0B490C4804F046FFD3
:101200000B4802F075F900210120FFF709FFFEE706
:10121000084B1B689DF80320C3F8A82100BF03B04A
:101220005DF804FBD09A0100F89801004494010095
:10123000E49401006800001082B00190034B1B6829
:10124000D3F8A831184602B0704700BF68000010FC
:1012500082B00190024B1B68184602B0704700BF75
:101260006C00001000B585B00190019B1B6808332D
:101270001B6801989847029000230393029B002B60
:101280000AD0019B1B680C331B68019898470246E3
:10129000029BB2FBF3F30393039B184605B05DF882
:1012A00004FBFFFF84B001900091094B1B68D3F849
:1012B000C430009A1268012101FA02F21343039329
:1012C000034B1B68039AC3F8C42000BF04B07047E7
:1012D0006800001084B001900091094B1B68D3F89E
:1012E000C430009A1268012101FA02F213400393FC
:1012F000034B1B68039AC3F8C42000BF04B07047B7
:101300006800001084B001900B46ADF80230BDF8C3
:1013100002300393074B1B68D3F80C3123F0010113
:10132000044B1B68039A0A43C3F80C2100BF04B0A6
:10133000704700BF6800001082B001900B46ADF806
:101340000230084B1B68D3F8043123F48071BDF8D8
:101350000220044B1B680A43C3F8042100BF02B0FB
:10136000704700BF6800001082B001900B46ADF8D6
:101370000230084B1B68D3F8083123F44071BDF8E4
:101380000220044B1B680A43C3F8082100BF02B0C7
:10139000704700BF6800001082B001900B46ADF8A6
:1013A0000230084B1B68D3F8B43123F44071BDF808
:1013B0000220044B1B680A43C3F8B42100BF02B0EB
:1013C000704700BF6800001000B587B001900B4661
:1013D000ADF802301346ADF80030BDF80030B3F57B
:1013E000C07F03D2BDF800300C2B0DD8FF23344A48
:1013F0003449354804F04AFE344802F079F80021B7
:101400000120FFF70DFEFEE701238DF81730BDF830
:101410000030BDF80220B3FBF2F102FB01F29B1A8F
:101420009BB2002B09D0BDF80020BDF80230B2FB02
:10143000F3F39BB20133049307E0BDF80020BDF83D
:101440000230B2FBF3F39BB204930123ADF80E30EC
:101450009DF81730002B2ED0049B9BB2BDF80220C4
:1014600012FB03F39BB2BDF80E2012FB03F39BB2F9
:101470005B00ADF80C30BDF80C309B2B03D900237A
:101480008DF81730E4E7BDF80E305B00ADF80E3094
:10149000BDF80E30072BDBD940F21B13084A0C496C
:1014A0000C4804F0F3FD094802F022F80021012065
:1014B000FFF7B6FDFEE7049B184607B05DF804FB96
:1014C000789B010010990100FC940100E494010054
:1014D00028990100EC95010010B58AB001900B46E7
:1014E000ADF802301346ADF800300123ADF81A30E4
:1014F000FFF7D0F90A46014611F57A7342F100046C
:10150000CDE90434FFF7C6F9CDE90801BDF80020A4
:10151000BDF8023019460198FFF756FF0390BDF859
:101520000220039B02FB03F3079300210198FFF7BE
:10153000E9FE00210198FFF7FFFE00210198FFF767
:1015400013FF00210198FFF727FF3A4B1B68D3F8E0
:10155000843023F01F01039B5A1E364B1B680A433D
:10156000C3F88420334B1B68D3F8843023F0600227
:10157000BDF81A305B0119462E4B1B680A43C3F8AD
:1015800084202C4B1B68D3F880202A4B1B6842F028
:101590000102C3F88020274B1B68AA22C3F88C20C5
:1015A000244B1B685522C3F88C20224B1B68D3F8B0
:1015B000883003F48063002B09D1DDE90812DDE9EE
:1015C0000434A24208BF994201D2012300E0002363
:1015D000002B04D0FFF75EF9CDE90801E5E7154BD4
:1015E0001B68D3F8883003F48063002B09D1DDE950
:1015F0000812DDE90434A24208BF994201D3012355
:1016000000E00023002B0ED040F243130A4A0B499E
:101610000B4804F03BFD0B4801F06AFF002101205C
:10162000FFF7FEFCFEE7BDF80030079AD31A184614
:101630000AB010BD680000101C9B01004099010019
:1016400094960100E494010000B583B001900B462C
:101650008DF803309DF803301F2B0ED940F26F1325
:101660000E4A0F490F4804F011FD0F4801F040FFEA
:1016700000210120FFF7D4FCFEE70C4B1B68D3F8D8
:10168000043123F01F019DF80320084B1B680A4317
:10169000C3F8042100BF03B05DF804FBD49B010034
:1016A000589901003C970100E49401006800001083
:1016B00082B001900B468DF80330084B1B68D3F8BD
:1016C000003123F001019DF80320044B1B680A43FD
:1016D000C3F8002100BF02B0704700BF68000010CF
:1016E00010B57446234619460A4801F031FF0A4BEB
:1016F0001B6800225A60084B1B6800229A60064B48
:101700001B6800221A6023461946024801F034FF84
:1017100000BF10BDE11601007000001010B5744646
:1017200023461946084801F013FF084B1B68002B9D
:1017300002D0064B1B68984723461946024801F021
:101740001BFF00BF10BD00BF1D170100D803001014
:1017500010B582B07446019000912346194607489F
:1017600001F0F6FE064A009B136023461946034823
:1017700001F002FF00BF02B010BD00BF5117010011
:10178000D803001030B585B0754601902B46194638
:10179000204801F0DDFE00238DF80F301E4B1B6842
:1017A0005B68002B14BF01230023DBB2002B1ED08B
:1017B000194B1B6800229A60174B1B681A68164B5E
:1017C0001B6842F002021A60134B1B681A68124B26
:1017D0001B6842F001021A600F4B1B681A680E4B1F
:1017E0001B6842F004021A6001238DF80F304FF09D
:1017F000FF33012209494FF0FF3001F055FD9DF8FC
:101800000F402B461946034801F0B6FE2346184602
:1018100005B030BD85170100700000101D170100D4
:1018200030B585B07546019000912B4619461F488A
:1018300001F08EFE009B012B01D800242DE0019BBE
:101840001A1D019B5B680C331B68104698470246C3
:10185000009BB2FBF3F3013B0393019B1A1D019B19
:101860005B680C331B68104698470346009AB3FB2D
:10187000F2F2009901FB02F29B1A0293039BB3F16F
:10188000807F05D36FF07F4303936FF07F43029314
:10189000074B1B68039A5A60029C2B461946034863
:1018A00001F06AFE2346184605B030BD211801003C
:1018B00070000010F0B585B0774603900B468DF8A8
:1018C0000B303B461946174801F042FE164B1B6889
:1018D000039A12791046039A5279114642010A443A
:1018E00053F822109DF80B3003F007020E4B1C68D2
:1018F000039B1B791E46039B5B791D4603230093C4
:1019000013460022039800F067FA024673012B4445
:1019100044F823203B461946024801F02DFE00BF43
:1019200005B0F0BDB518010074000010F0B587B027
:10193000774603900B468DF80B303B461946194805
:1019400001F006FE9DF80B308DF81730164B1B6822
:10195000039A12791046039A5279114642010A44B9
:1019600053F822109DF8173003F003020E4B1C6849
:10197000039B1B791E46039B5B791D460223009344
:1019800013460322039800F027FA024673012B4402
:1019900044F823203B461946024801F0EDFD00BF04
:1019A00007B0F0BD2D19010074000010F0B585B02E
:1019B000774603900B468DF80B303B461946164888
:1019C00001F0C6FD154B1B68039A12791046039A65
:1019D0005279114642010A4453F822109DF80B2017
:1019E0000E4B1C68039B1B791E46039B5B791D46AF
:1019F0000123009313460522039800F0EDF90246F7
:101A000073012B4444F823203B461946024801F059
:101A1000B3FD00BF05B0F0BDAD19010074000010AA
:101A2000F0B585B0774603900B468DF80B303B46FA
:101A30001946164801F08CFD154B1B68039A127964
:101A40001046039A5279114642010A4453F8221073
:101A50009DF80B200E4B1C68039B1B791E46039BB5
:101A60005B791D460123009313460622039800F07C
:101A7000B3F9024673012B4444F823203B46194630
:101A8000024801F079FD00BF05B0F0BD211A010048
:101A900074000010F0B585B0774603900B468DF8C2
:101AA0000B303B461946184801F052FD174B1B6896
:101AB000039A12791046039A5279114642010A4458
:101AC00053F822109DF80B3083F00103DBB21A4665
:101AD0000E4B1C68039B1B791E46039B5B791D46BE
:101AE0000123009313460722039800F075F902467C
:101AF00073012B4444F823203B461946024801F069
:101B00003BFD00BF05B0F0BD951A01007400001048
:101B1000F0B585B0774603900B468DF80B303B4609
:101B20001946184801F014FD174B1B68039A1279E7
:101B30001046039A5279114642010A4453F8221082
:101B40009DF80B3083F00103DBB21A460E4B1C6884
:101B5000039B1B791E46039B5B791D460123009363
:101B600013460822039800F037F9024673012B440C
:101B700044F823203B461946024801F0FDFC00BF13
:101B800005B0F0BD111B010074000010F0B585B068
:101B9000774603900B468DF80B303B4619461648A6
:101BA00001F0D6FC154B1B68039A12791046039A74
:101BB0005279114642010A4453F822109DF80B2035
:101BC0000E4B1C68039B1B791E46039B5B791D46CD
:101BD0000123009313460922039800F0FDF8024602
:101BE00073012B4444F823203B461946024801F078
:101BF000C3FC00BF05B0F0BD8D1B010074000010D8
:101C0000F0B585B0774603900B468DF80B303B4618
:101C10001946184801F09CFC174B1B68039A12796F
:101C20001046039A5279114642010A4453F8221091
:101C30009DF80B3083F00103DBB21A460E4B1C6893
:101C4000039B1B791E46039B5B791D460123009372
:101C500013460822039800F0BFF8024673012B4494
:101C600044F823203B461946024801F085FC00BF9A
:101C700005B0F0BD011C010074000010F0B585B086
:101C8000774603900B468DF80B303B4619461648B5
:101C900001F05EFC154B1B68039A12791046039AFB
:101CA0005279114642010A4453F822109DF80B2044
:101CB0000E4B1C68039B1B791E46039B5B791D46DC
:101CC0000123009313460922039800F085F8024689
:101CD00073012B4444F823203B461946024801F087
:101CE0004BFC00BF05B0F0BD7D1C0100740000106E
:101CF000F0B585B0774603900B468DF80B303B4628
:101D00001946164801F024FC154B1B68039A1279FA
:101D10001046039A5279114642010A4453F82210A0
:101D20009DF80B200E4B1C68039B1B791E46039BE2
:101D30005B791D460123009313460A22039800F0A5
:101D40004BF8024673012B4444F823203B461946C6
:101D5000024801F011FC00BF05B0F0BDF11C01000C
:101D600074000010F0B585B0774603900B468DF8EF
:101D70000B303B461946164801F0EAFB154B1B6831
:101D8000039A12791046039A5279114642010A4485
:101D900053F822109DF80B200E4B1C68039B1B79F7
:101DA0001E46039B5B791D460123009313461022B8
:101DB000039800F011F8024673012B4444F82320E5
:101DC0003B461946024801F0D7FB00BF05B0F0BD05
:101DD000651D01007400001030B587B07546039092
:101DE0000291019200932B461946134801F0B0FB73
:101DF0000A9BC3F120034FF0FF3222FA03F305934D
:101E0000059A019B02FA03F3DB43029A1340029303
:101E1000009A059B1A40019B02FA03F3029A1343AE
:101E20000293029C2B461946034801F0A5FB23466A
:101E3000184607B030BD00BFD91D010030B583B0D2
:101E4000754601902B461946064801F081FB019B1F
:101E50001C792B461946034801F08EFB2346184691
:101E600003B030BD3D1E010030B583B07546019012
:101E70002B461946064801F06BFB019B5C792B460B
:101E80001946034801F078FB2346184603B030BDDD
:101E9000691E010030B583B0754603468DF80730E2
:101EA0002B461946064801F053FB9DF807402B4688
:101EB0001946034801F060FB2346184603B030BDC5
:101EC000951E010010B5744623461946044801F0DA
:101ED0003FFB23461946024801F04EFB00BF10BDF0
:101EE000C51E010010B586B07446039002910192A0
:101EF0000093234619463E4801F02AFB039B181D18
:101F0000039B5B6814331B68039A127A9200394969
:101F10000A4411469847029B002B0DD18423364A70
:101F20003649374804F0B2F8364801F0E1FA0021AA
:101F30000120FFF775F8FEE7039B1A1D039B5B6802
:101F400010331B68104698470246029BB2FBF3F31E
:101F50000593039B1B7A1A462B4B53F82230DA6801
:101F6000039B1B7A1946284B53F8213002F00102DB
:101F7000DA60039B1B7A1A46234B53F82230D96848
:101F8000059B5A00039B1B7A18461F4B53F82030C1
:101F90000A43DA60039B1B7A1A461B4B53F8223024
:101FA0005A68039B1B7A1946174B53F8213042F0AD
:101FB00001025A60039B1B7A1946144A019B42F89E
:101FC0002130039B1B7A1A46114B9856039B1B7AB0
:101FD0001A46104B53F82210009B012201F064F9BD
:101FE00023461946024801F0C7FA00BF06B010BDEB
:101FF000E51E010070990100109C010094990100F8
:10200000D8970100E4940100780000101C0400102F
:10201000809901008499010030B583B0754603466C
:102020008DF807302B461946064801F091FA9DF8C5
:1020300007402B461946034801F09EFA23461846EE
:1020400003B030BD1920010070B586B0764603900C
:10205000029111461A460B468DF8073013468DF84B
:10206000063033461946324801F072FA9DF80630C0
:102070001846FFF7D1FF03468DF81730039B1B7AF4
:102080001A462C4B53F822305A699DF81730072115
:1020900001FA03F3DB431946039B1B7A1846254BD1
:1020A00053F820300A405A61039B1B7A1A46214B91
:1020B00053F822305A699DF807109DF8173001FA3D
:1020C00003F31946039B1B7A18461A4B53F820302A
:1020D0000A435A61039B1B7A18469DF81730164A2B
:1020E000A2FB03235B08DBB21946144A83000B44AE
:1020F00052F823301968029B5A08039B1B7A1D462D
:102100009DF817300C48A0FB03035B08DBB21C46AC
:102110000A48AB00234450F823300A431A60334680
:102120001946034801F028FA00BF06B070BD00BF91
:102130004920010078000010ABAAAAAADC03001015
:1021400030B583B0754601902B461946094801F019
:10215000FFF9019B1B7A1A46074B53F822309C6803
:102160002B461946034801F007FA2346184603B0E8
:1021700030BD00BF412101007800001010B588B0CB
:10218000744601900091234619462D4801F0E0F96C
:1021900080238DF81F30009B07EE903AF8EE677AA7
:1021A000CDED067A02AB9DED060A0199184600F0C6
:1021B0002DFB029B1B0A8DF81730029B8DF8163001
:1021C000049BDBB21B01DAB2039BDBB203F00F030B
:1021D000DBB213438DF81530019B1B7A1A46194B5D
:1021E00053F8223080221A73019B1B7A1A46154B32
:1021F00053F822309DF817201A71019B1B7A1A465A
:10220000104B53F822309DF816201A70019B1B7A50
:102210001A460C4B53F822309DF8152083F82820DD
:10222000019B1B7A1A46074B53F8223003221A737C
:1022300023461946024801F09FF900BF08B010BDBF
:102240007D2101008800001030B585B075460190F1
:1022500000912B461946304801F07AF907238DF892
:102260000F30019B181D019B5B6814331B68019A9A
:10227000127A920029490A4411469847019B18692D
:10228000019B1B691B681B68019A127A1146244A3C
:10229000525C11469847019BD868019BDB681B681C
:1022A0001B68019A127A11461E4A525C11469847E1
:1022B000019B1A69019B1B691B6804331B6802217F
:1022C00010469847019BDA68019BDB681B68043362
:1022D0001B6802211046984700990198FFF74EFFAE
:1022E000019B1B7A1A46104B53F822301B7ADAB244
:1022F000019B1B7A19460C4B53F8213042F0070220
:10230000D2B21A7201242B461946034801F034F95F
:102310002346184605B030BD49220100A8990100A6
:10232000A4990100A09901008800001030B583B085
:10233000754601902B4619460D4801F009F9019B9D
:102340001B681B7A1A460B4B53F822301B7DDBB2FD
:1023500003F02003002B14BF01230023DCB22B4623
:102360001946034801F008F92346184603B030BD6A
:102370002D230100880000102DE930488AB07546F1
:1023800001900B468DF803302B461946314801F079
:10239000DFF8019B1B7A1A462F4B53F822309DF829
:1023A00003201A70019B04934FF0FF334FF0FF346A
:1023B000CDE90834049B03932B461946274801F0C6
:1023C000C7F84FF000034FF00004CDE90634DDE913
:1023D0000834B4F1FF3F08BFB3F1FF3F06D14FF01F
:1023E000FF334FF0FF34CDE906340BE0FEF752FA2D
:1023F0000A460146DDE9083413EB010B44EB020CFD
:10240000CDE906BC01230593FEF744FA0A460146CE
:10241000DDE90634A24208BF994234BF01230023FC
:10242000DBB2002B08D003AB1846FFF77FFF034653
:10243000002BE9D0002305932B461946074801F0ED
:102440009BF82B461946034801F096F800BF0AB0E6
:10245000BDE830887923010088000010012D0100BB
:1024600030B583B0754601902B4619460D4801F0F2
:102470006FF8019B1B681B7A1A460B4B53F82230EE
:102480001B7DDBB203F00103002B14BF01230023EB
:10249000DCB22B461946034801F06EF82346184675
:1024A00003B030BD61240100880000102DE93048E0
:1024B0008CB07546019000912B461946364801F0C4
:1024C00047F8FF238DF82F30019B0493009B4FF0BA
:1024D0000004CDE90834049B03932B4619462F488A
:1024E00001F036F84FF000034FF00004CDE9063458
:1024F000DDE90834B4F1FF3F08BFB3F1FF3F06D177
:102500004FF0FF334FF0FF34CDE906340BE0FEF718
:10251000C1F90A460146DDE9083413EB010B44EB2F
:10252000020CCDE906BC01230593FEF7B3F90A4678
:102530000146DDE90634A24208BF994234BF0123B7
:102540000023DBB2002B08D003AB1846FFF788FF4F
:102550000346002BE9D000230593059C2B46194622
:102560000E4801F009F80A940A9B002B08D1019B40
:102570001B7A1A460A4B53F822301B788DF82F30FD
:102580009DF82F402B461946034800F0F5FF2346DF
:1025900018460CB0BDE83088AD240100A92D01001B
:1025A0008800001010B58AB07446039002918DED3A
:1025B000010A23461946384800F0CAFF039B00224F
:1025C0001A60039B00225A60039B01229A60002339
:1025D0008DF8273000230893089B0E2B52DC9DF8C2
:1025E0002730002B4ED1089B01330793079B0E2BFE
:1025F00044DC9DF82730002B40D1089B07EE903A31
:10260000F8EEE77ACDED067A079B07EE903AF8EE02
:10261000E77ACDED057ADDED066A9DED057AC6EE29
:10262000877AB7EE007A77EE877ACDED047ADDED22
:10263000047A9FED1A7A77EE877A9DED017AB4EEEF
:10264000E77AF1EE10FA15D8DDED047A9FED137AF2
:1026500077EEC77A9DED017AB4EEE77AF1EE10FAE3
:1026600008DB089A039B5A60079A039B9A60012330
:102670008DF82730079B01330793B7E7089B013399
:102680000893A9E700BF23461946034800F074FFEA
:1026900000BF03980AB010BDA5250100CDCC4C3D6C
:1026A00010B52DED028B86B0744603908DED020AB5
:1026B000CDED010A23461946154800F049FF039B5A
:1026C0001A1D039B5B6810331B681046984707EE82
:1026D000900AF8EE677ACDED057ADDED027AB3EE79
:1026E000007A27EE877ADDED017A67EE277A9DED95
:1026F000057A87EE278A23461946054800F03CFFF5
:10270000F0EE487AB0EE670A06B0BDEC028B10BD61
:10271000A126010010B52DED028B86B07446039002
:102720008DED020ACDED010A23461946154800F049
:102730000FFF039B1A1D039B5B6810331B68104639
:10274000984707EE900AF8EE677ACDED057ADDED51
:10275000027AB3EE007A27EE877ADDED017A67EE32
:10276000277A9DED057A87EE278A23461946054884
:1027700000F002FFF0EE487AB0EE670A06B0BDEC5A
:10278000028B10BD1527010030B587B0754601904A
:102790008DED000A2B461946194800F0D9FE00239A
:1027A0008DF817309DED000A06F0C0F88DED040A93
:1027B0009DED007ADDED047A77EE677ACDED037A50
:1027C000DDED037A9FED0F7AF4EEC77AF1EE10FAA1
:1027D0000BDBDDED037A9FED0C7AF4EEC77AF1EEB8
:1027E00010FA02D801238DF817309DF817402B46B8
:1027F0001946034800F0C0FE2346184607B030BD16
:1028000089270100CDCC4CBDCDCC4C3D30B58FB02F
:102810007546079006918DED050A2B4619467448BA
:1028200000F096FE00230D93079B00221A60079B81
:1028300000225A60079B01229A604FF000030C931C
:102840004FF07F530B934FF07E530A934FF080432A
:1028500009930D9B042B00F0C1800D9B042B00F20B
:10286000BB8001A252F823F07D280100D928010085
:1028700039290100A9290100D9290100F7EE000A30
:102880009DED050A0698FFF70BFF8DED0C0ADDEDB7
:102890000C7AB7EE007AF4EEC77AF1EE10FA05D5AD
:1028A000079B00221A6004230D9396E09DED0C0A0D
:1028B0000698FFF769FF0346002B0AD0DDED0C7A7E
:1028C000FCEEE77A17EE902A079B1A6004230D931B
:1028D00083E001230D9380E0DDED0B0A9DED050AF9
:1028E0000698FFF7DDFEF0EE407AB0EE670A06F0DC
:1028F0001DF88DED0C0ADDED0C0A9DED050A06981C
:10290000FFF708FF8DED0B0ADDED0B7A9FED397AAD
:10291000F4EEC77AF1EE10FA0BDBDDED0B7A9FEDEA
:10292000367AF4EEC77AF1EE10FA02D803230D934B
:1029300053E002230D9350E0DDED097AB7EE007A03
:1029400077EE877ACDED097ADDED0A7AB2EE0E7A6E
:10295000F4EEC77AF1EE10FA02DD04230D933CE0A9
:10296000DDED097AB2EE0E7AF4EEC77AF1EE10FAE6
:102970000FDDDDED0A7AB7EE007A77EE877ACDEDDE
:102980000A7ADDED0A7AB7EE007A77EE877ACDED36
:10299000097ADDED0A6A9DED097AC6EE877ACDEDFA
:1029A0000B7A01230D9318E0079C6B469DED0B0AF3
:1029B00006991846FFF7F6FD6B4693E8070084E892
:1029C0000700DDED0C7AFCEEE77A17EE902A079B04
:1029D0001A6004230D9300E000BF3AE700BF2B46C6
:1029E0001946034800F0C8FD00BF07980FB030BD7E
:1029F0000D280100CDCC8C3F3333F33F38B57546FD
:102A00002B4619460A4800F0A3FD0A4B1B7A1A46CA
:102A1000094B53F822309C682B461946044800F0B5
:102A2000ABFD23464FF000041846214638BD00BFD9
:102A300041210100F80000107800001038B57546FB
:102A40002B4619460A4800F083FD0A4B1B7A1A46AA
:102A5000094B53F822309C682B461946044800F075
:102A60008BFD23464FF000041846214638BD00BFB9
:102A700041210100F80000107800001030B583B04B
:102A8000754601902B461946064800F061FD50241A
:102A90002B461946034800F06FFD2346184603B045
:102AA00030BD00BF7D2A010000B585B003900291C2
:102AB0000192039B074A1A60029B074A1A60064864
:102AC000FFF7DCFF0246019B1A6000BF05B05DF80E
:102AD00004FB00BF2C0400108C04001008B5FEF7A6
:102AE000FFFD4FF47A710648FEF79AFE0549044847
:102AF000FEF72EFE0248FEF745FE00BF08BD00BFF0
:102B0000EC000010394D010000B583B04FF47A712C
:102B10002248FEF785FE2148FEF734FE03468DF875
:102B200007309DF8073083F00103DBB2002B05D09E
:102B3000AD231B4A1B491C4803F0A8FA30211B484F
:102B4000FEF706FB0346002B14BF01230023DBB274
:102B5000002B01D000BFF1E701211448FEF740FB34
:102B6000FEF7BEFD4FF47A710C48FEF759FE0B4894
:102B7000FEF708FE4FF0FF330D4A0E490E48FFF7EF
:102B8000B1F90E48FEF7CCFA4FF416410C48FFF7A6
:102B90005BFB00BF03B05DF804FB00BFEC0000105E
:102BA000509C0100B899010098980100F4000010B1
:102BB000C51E010040420F00F8000010FD29010071
:102BC000D800001008B5FDF7A1FAFDF7E7FAFDF708
:102BD00015FB06F0B3F8FFF797FF00BF08BDFFFF36
:102BE00080B584B000AF094BFB60FB683B603B687D
:102BF00083F30988FB687B607B6883F30888FFF7B1
:102C0000E1FFFEF71DF8B860FEE700BF000001100D
:102C100010B57446234619460A4800F099FC002076
:102C2000FFF738F903461A46074B53F82230984706
:102C300000F00EF923461946024800F09DFC00BF43
:102C400010BD00BF112C01001C04001010B574460B
:102C5000234619460A4800F07BFC0120FFF71AF9C9
:102C600003461A46074B53F82230984700F040F9C4
:102C700023461946024800F07FFC00BF10BD00BF8C
:102C80004D2C01001C04001010B574462346194653
:102C90000A4800F05DFC0220FFF7FCF803461A46E4
:102CA000074B53F82230984700F072F92346194633
:102CB000024800F061FC00BF10BD00BF892C01007C
:102CC0001C04001010B57446234619460A4800F04B
:102CD0003FFC0320FFF7DEF803461A46074B53F884
:102CE0002230984700F0A4F923461946024800F024
:102CF00043FC00BF10BD00BFC52C01001C04001028
:102D00002DE9304888B07546CDE9020101922B4685
:102D10001946244800F01CFC4FF000034FF000045B
:102D2000CDE90634DDE90234B4F1FF3F08BFB3F169
:102D3000FF3F06D14FF0FF334FF0FF34CDE90634AB
:102D40000BE0FDF7A7FD0A460146DDE9023413EB6F
:102D5000010B44EB020CCDE906BC01230593FDF702
:102D600099FD0A460146DDE90634A24208BF9942B0
:102D700034BF01230023DBB2002B08D001AB18467F
:102D8000FFF7D4FA0346002BE9D000230593059CF6
:102D90002B461946034800F0EFFB2346184608B0BF
:102DA000BDE83088012D01002DE9304888B0754616
:102DB000CDE9020101922B461946244800F0C8FBD8
:102DC0004FF000034FF00004CDE90634DDE9023492
:102DD000B4F1FF3F08BFB3F1FF3F06D14FF0FF331F
:102DE0004FF0FF34CDE906340BE0FDF753FD0A4602
:102DF0000146DDE9023413EB010B44EB020CCDE993
:102E000006BC01230593FDF745FD0A460146DDE9B1
:102E10000634A24208BF994234BF01230023DBB22B
:102E2000002B08D001AB1846FFF71AFB0346002B16
:102E3000E9D000230593059C2B461946034800F072
:102E40009BFB2346184608B0BDE83088A92D010039
:102E500010B582B0744623461946234800F078FB2B
:102E600000238DF807309DF80730204A52F82330B0
:102E70001A689DF807301D4951F8233042F00102CD
:102E80001A609DF80730194A52F823301A689DF8E5
:102E90000730164951F8233042F002021A609DF8BB
:102EA0000730124A52F823301A689DF807300F494C
:102EB00051F8233042F004021A609DF807300B4AA3
:102EC00052F823301A689DF80730084951F823302A
:102ED00042F008021A6023461946034800F04CFBF2
:102EE00000BF02B010BD00BF512E010078000010DD
:102EF00010B582B0744623461946234800F028FBDB
:102F000001238DF807309DF80730204A52F823300E
:102F10001A689DF807301D4951F8233042F001022C
:102F20001A609DF80730194A52F823301A689DF844
:102F30000730164951F8233042F002021A609DF81A
:102F40000730124A52F823301A689DF807300F49AB
:102F500051F8233042F004021A609DF807300B4A02
:102F600052F823301A689DF80730084951F8233089
:102F700042F008021A6023461946034800F0FCFAA2
:102F800000BF02B010BD00BFF12E0100780000109C
:102F900010B582B0744623461946234800F0D8FA8B
:102FA00002238DF807309DF80730204A52F823306D
:102FB0001A689DF807301D4951F8233042F001028C
:102FC0001A609DF80730194A52F823301A689DF8A4
:102FD0000730164951F8233042F002021A609DF87A
:102FE0000730124A52F823301A689DF807300F490B
:102FF00051F8233042F004021A609DF807300B4A62
:1030000052F823301A689DF80730084951F82330E8
:1030100042F008021A6023461946034800F0ACFA51
:1030200000BF02B010BD00BF912F0100780000105A
:1030300010B582B0744623461946234800F088FA3A
:1030400003238DF807309DF80730204A52F82330CB
:103050001A689DF807301D4951F8233042F00102EB
:103060001A609DF80730194A52F823301A689DF803
:103070000730164951F8233042F002021A609DF8D9
:103080000730124A52F823301A689DF807300F496A
:1030900051F8233042F004021A609DF807300B4AC1
:1030A00052F823301A689DF80730084951F8233048
:1030B00042F008021A6023461946034800F05CFA01
:1030C00000BF02B010BD00BF313001007800001019
:1030D00082B001900091019B012B5DD1009B4FF6C6
:1030E000FF72934258D12E4B1B6803F00103002B53
:1030F00052D12B4B01221A602A4B1B6818332A4AE3
:103100001360284B1B681C33274A5360254B1B68F0
:103110002033254A9360234B1B682433224AD36013
:10312000204B5B681833204A13611E4B5B681C33CD
:103130001D4A53611B4B5B6820331B4A9361194B3B
:103140005B682433184AD361164B9B681833164AC0
:103150001362144B9B681C33134A5362114B9B68D8
:103160002033114A93620F4B9B6824330E4AD3627B
:103170000C4BDB6818330C4A13630A4BDB681C33B7
:10318000094A5363074BDB682033074A9363054BB7
:10319000DB682433044AD36300BF02B0704700BF2A
:1031A000CC05001078000010DC03001008B54FF6C5
:1031B000FF710120FFF78CFF08BDFFFF82B00346BF
:1031C0008DF807309DF9073003F01F0205499DF97E
:1031D00007305B09012000FA02F241F8232000BF0A
:1031E00002B0704700E100E082B0034600918DF824
:1031F00007309DF90730002B0CDA009BDAB20D493D
:103200009DF9073003F00F03043B5201D2B20B4487
:103210001A760BE0009BDBB2074A9DF907100846BF
:103220005B01D9B213180A4683F8002300BF02B02D
:10323000704700BF00ED00E000E100E000B585B0A0
:10324000124B5B688DF80F309DF80F30104A52F822
:1032500023300293029B0F4A934210D19DF80F3006
:103260000093DD230C4A0D490D4802F00FFF0D4875
:1032700000F03EF900210120FDF7D2FEFEE7029B9F
:10328000984700BF05B05DF804FB00BF00ED00E00B
:10329000040100103D320100CC9E0100BC9E0100E3
:1032A000609D01000C9E010000B585B00291019364
:1032B00003468DF80F3013468DF80E309DF90F3010
:1032C00010330F49029A41F823209DF80E30002B4D
:1032D00008D09DF90F30002B04DB9DF90F30184604
:1032E000FFF76CFF019B002B06DB019A9DF90F3065
:1032F00011461846FFF778FF00BF05B05DF804FBE4
:103300000401001000B58DB00390039B1B680B9364
:10331000039B5B680A93039B9B680993039BDB6891
:103320000893039B1B690793039B5B690693039BAD
:103330009B690593039BDB6904930D4802F0A6FE8D
:103340000B990A9A0998089B00930346094802F0D2
:103350009DFE0799069A0598049B0093034606482C
:1033600002F094FE059B19460120FDF759FEFEE789
:10337000249E0100509E0100849E010030B583B060
:10338000754601902B461946094800F0E1F8019B6B
:10339000DBB219460748FEF7EFFF01242B4619461A
:1033A000034800F0E9F82346184603B030BD00BFDB
:1033B0007D330100D800001000B583B07346019042
:1033C0001946024800F0C4F800BFFDE7B933010018
:1033D00038B575462B461946054800F0B9F8012462
:1033E0002B461946024800F0C7F82346184638BD58
:1033F000D133010030B583B07546019000912B4662
:103400001946074800F0A4F84FF0FF342B46194640
:10341000034800F0B1F82346184603B030BD00BFA2
:10342000F533010030B585B0754601902B4619463D
:103430000F4800F08DF80F4B1B6803930D4B1A6873
:10344000019B13440C4A934201D900230393094B77
:103450001A68019B1344074A1360039C2B461946C4
:10346000034800F089F82346184605B030BD00BF78
:1034700025340100E80100100080002010B582B062
:10348000744603468DF8073023461946084800F075
:103490005FF8084B1B689DF80720104698472346A5
:1034A0001946034800F068F800BF02B010BD00BF25
:1034B0007D340100EC01001030B583B074460190FA
:1034C00023461946084800F043F8084B1B6801984A
:1034D0009847054623461946034800F04DF82B4609
:1034E000184603B030BD00BFB9340100EC01001034
:1034F00030B585B0754601902B461946124800F04C
:1035000027F800230393039B019A13441B78002B95
:103510000BD00E4B1B68039A01990A44127810468F
:103520009847039B01330393EDE7084B1B680A2080
:103530009847039C2B461946034800F01DF8234684
:10354000184605B030BD00BFF1340100EC01001099
:1035500082B001900091009A054B1B68591C0448E9
:103560000160044941F8232000BF02B0704700BF4A
:10357000D0060010D005001082B001900091044BDD
:103580001B68013B024A136000BF02B0704700BFD6
:10359000D006001038B575462B4619460548FFF78A
:1035A000D7FF054C2B4619460248FFF7E5FF234697
:1035B000184638BD95350100D005001038B5754660
:1035C0002B4619460648FFF7C3FF064B1C682B46DF
:1035D00019460348FFF7D0FF2346184638BD00BF01
:1035E000BD350100D006001082B00190019B03F1AF
:1035F0000802019B5A60019B4FF0FF329A60019BC9
:1036000003F10802019BDA60019B03F10802019BB0
:103610001A61019B00221A6000BF02B0704782B09D
:103620000190019B00221A6100BF02B0704784B074
:1036300001900091019B5B680393009B039A5A6081
:10364000039B9A68009B9A60039B9B68009A5A6050
:10365000039B009A9A60009B019A1A61019B1B6868
:103660005A1C019B1A6000BF04B0704784B00190DF
:103670000091009B1B680293029BB3F1FF3F03D1B3
:10368000019B1B6903930CE0019B0833039302E049
:10369000039B5B680393039B5B681B68029A9A42D7
:1036A000F6D2039B5A68009B5A60009B5B68009AA5
:1036B0009A60009B039A9A60039B009A5A60009B51
:1036C000019A1A61019B1B685A1C019B1A6000BF7A
:1036D00004B0704784B00190019B1B690393019B68
:1036E0005B68019A92689A60019B9B68019A526894
:1036F0005A60039B5B68019A9A4203D1019B9A68C6
:10370000039B5A60019B00221A61039B1B685A1E8F
:10371000039B1A60039B1B68184604B0704700B5F2
:103720008BB007900691059204930E9B002B1DD041
:103730000D9B002B1AD00E9B0993099B0D9A1A63BF
:10374000099B022283F85D2000230393099B0293C7
:1037500008AB01930C9B0093049B059A069907986C
:1037600000F052F8099800F0C9F801E0002308932E
:10377000089B18460BB05DF804FB00B58DB00790B0
:10378000069104931346ADF81630BDF816309B0031
:10379000184601F0FBFA0990099B002B0ED060201F
:1037A00001F0F4FA0B900B9B002B03D00B9B099AB2
:1037B0001A6305E0099801F0FAFA01E000230B937F
:1037C0000B9B002B18D00B9B002283F85D20BDF8CB
:1037D0001620002303930B9B02930F9B01930E9BD8
:1037E0000093049B0699079800F00EF80B9800F0E0
:1037F00085F801230A9302E04FF0FF330A930A9BF6
:1038000018460DB05DF804FB00B587B00390029137
:10381000019200930A9B186B019B9B001A46A521FD
:1038200005F0CBFA0A9B1A6B019B03F18043013B25
:103830009B0013440493049B23F007030493002389
:10384000059312E0029A059B134419780A9A059B86
:10385000134434330A461A70029A059B13441B78AA
:10386000002B06D0059B01330593059B0F2BE9D94F
:1038700000E000BF0A9B002283F84320089B042B32
:1038800001D9042308930A9B089ADA620A9B089AD2
:10389000DA640A9B00221A650A9B04331846FFF774
:1038A000BEFE0A9B18331846FFF7B9FE0A9B0A9A18
:1038B0001A61089BC3F105020A9B9A610A9B0A9A46
:1038C0005A620A9B00225A650A9B00229A650A9B4B
:1038D000002283F85C20009A0399049801F032F9E1
:1038E00002460A9B1A60099B002B02D0099B0A9A88
:1038F0001A6000BF07B05DF804FBFFFF00B583B09E
:10390000019001F0B7F92D4B1B6801332B4A13606E
:103910002B4B1B68002B09D1294A019B1360274BB5
:103920001B68012B10D100F01BFB0DE0254B1B6821
:10393000002B09D1224B1B68DA6A019BDB6A9A4291
:1039400002D81F4A019B13601F4B1B6801331E4A9C
:1039500013601D4B1A68019B5A64019BDB6A0122AC
:103960009A401A4B1B681343184A1360019BDA6A8A
:1039700013469B0013449B00154A1A44019B0433D1
:1039800019461046FFF753FE01F088F90D4B1B68EE
:10399000002B0ED00A4B1B68DA6A019BDB6A9A4245
:1039A00007D20C4B4FF080521A60BFF34F8FBFF31A
:1039B0006F8F00BF03B05DF804FB00BFAC070010C1
:1039C000D4060010B8070010C8070010B407001094
:1039D000D806001004ED00E000B58BB0002307937B
:1039E0000023069305AA06A907AB1846FFF75CF863
:1039F0000599069B079A02920193002300930023E6
:103A00000A4616491648FFF78AFE0246154B1A6009
:103A1000144B1B68002B02D00123099301E0002303
:103A20000993099B012B14D14FF0280383F31188CC
:103A3000BFF36F8FBFF34F8F08930B4B4FF0FF32E5
:103A40001A600A4B01221A60094B00221A6001F029
:103A5000E7F800BF0BB05DF804FB00BFEC9E01006F
:103A6000553F0100D0070010CC070010B807001028
:103A7000B0070010034B1B680133024A136000BFFC
:103A8000704700BFD407001000B585B00023039332
:103A90000023029301F0EEF8384B1B68013B374AD4
:103AA0001360364B1B68002B61D1354B1B68002B14
:103AB0005DD02EE0334BDB68DB680393039B183348
:103AC0001846FFF707FE039B04331846FFF702FE74
:103AD000039BDB6A01229A402B4B1B6813432A4A43
:103AE0001360039BDA6A13469B0013449B00274A2A
:103AF0001A44039B043319461046FFF798FD039BB5
:103B0000DA6A234B1B68DB6A9A4202D3214B0122FB
:103B10001A601C4B1B68002BCCD1039B002B01D0DF
:103B200000F0A6FA1C4B1B680193019B002B10D0E0
:103B300000F036F80346002B02D0164B01221A6023
:103B4000019B013B0193019B002BF1D1124B002201
:103B50001A60104B1B68002B09D0012302930F4BF6
:103B60004FF080521A60BFF34F8FBFF36F8F01F099
:103B700095F8029B184605B05DF804FBD4070010C9
:103B8000AC0700106C070010B4070010D806001036
:103B9000D4060010C0070010BC07001004ED00E0C0
:103BA00000B587B000230593484B1B68002B7CD1E0
:103BB000474B1B6801330493454A049B1360049BE5
:103BC000002B10D1434B1B680393434B1B68414AA6
:103BD0001360414A039B1360404B1B6801333F4A0B
:103BE000136000F045FA3E4B1B68049A9A424DD38D
:103BF000384B1B681B68002B01D1012300E0002318
:103C0000002B04D0364B4FF0FF321A603EE0314BB0
:103C10001B68DB68DB680293029B5B680193049A74
:103C2000019B9A4203D22E4A019B13602EE0029B15
:103C300004331846FFF74EFD029B9B6A002B04D00D
:103C4000029B18331846FFF745FD029BDB6A0122F1
:103C50009A40244B1B681343224A1360029BDA6A82
:103C600013469B0013449B001F4A1A44029B0433D3
:103C700019461046FFF7DBFC029BDA6A1B4B1B68F8
:103C8000DB6A9A42B4D301230593B1E7174B1B6853
:103C9000DA6A154913469B0013449B000B441B68CA
:103CA000012B07D90123059304E0114B1B68013355
:103CB0000F4A13600F4B1B68002B01D001230593A3
:103CC000059B184607B05DF804FB00BFD407001041
:103CD000B00700106407001068070010C407001048
:103CE000CC070010B4070010D8060010D40600104E
:103CF000BC070010C007001010B584B0294B1B682A
:103D0000002B03D0284B01221A6047E0264B0022EB
:103D10001A60FEF793FE03460C461A46234B1A60C0
:103D2000224B1A68224B1B689A4209D9214B1B6807
:103D3000596D1E4A10681E4A1268821A0A445A6552
:103D40001A4B1B681A4A13601B4B1B680193019B9B
:103D5000B3FA83F38DF803309DF80330C3F11F03EA
:103D60000393039A13469B0013449B00134A134486
:103D70000293029B5B685A68029B5A60029B5A68D6
:103D8000029B08339A4204D1029B5B685A68029BEB
:103D90005A60029B5B68DB68064A136000BF04B090
:103DA00010BD00BFD4070010C0070010DC070010D2
:103DB000D8070010D4060010B4070010D806001071
:103DC00000B583B001900091074B1B68183319466A
:103DD0000198FFF74BFC0121009800F0DDFA00BFCD
:103DE00003B05DF804FB00BFD406001000B585B039
:103DF0000190019BDB68DB680293029B1833184635
:103E0000FFF768FC1D4B1B68002B1CD1029B043381
:103E10001846FFF75FFC029BDB6A01229A40184BB1
:103E20001B681343164A1360029BDA6A13469B0011
:103E300013449B00134A1A44029B0433194610464C
:103E4000FFF7F5FB05E0029B183319460E48FFF714
:103E5000EEFB029BDA6A0D4B1B68DB6A9A4205D9BE
:103E6000012303930A4B01221A6001E0002303930C
:103E7000039B184605B05DF804FB00BFD407001093
:103E8000B4070010D80600106C070010D40600100C
:103E9000C007001082B00190054B1A68019B1A60A0
:103EA000044B1A68019B5A6000BF02B0704700BF04
:103EB000C4070010B007001000B587B00190009152
:103EC00000F0D8FE1D4B1B680493019B5B68049AAD
:103ED000D31A0393009B1B68B3F1FF3F02D1002369
:103EE000059323E0019B1A68154B1B689A4207D083
:103EF000019B5B68049A9A4202D30123059315E063
:103F0000009B1B68039A9A420BD2009B1A68039B82
:103F1000D21A009B1A600198FFF7BCFF002305939B
:103F200004E0009B00221A600123059300F0B6FE16
:103F3000059B184607B05DF804FB00BFB0070010F2
:103F4000C4070010024B01221A6000BF704700BF77
:103F5000C007001000B583B0019000F03FF8FCE707
:103F600000B583B0002301930CE0019A13469B0037
:103F700013449B00114A13441846FFF735FB019B7D
:103F800001330193019B042BEFD90D48FFF72CFB64
:103F90000C48FFF729FB0C48FFF726FB0B48FFF7FF
:103FA00023FB0B48FFF720FB0A4B054A1A600A4B1C
:103FB000044A1A6000BF03B05DF804FBD806001085
:103FC0003C070010500700106C070010800700101D
:103FD00098070010640700106807001000B583B050
:103FE00019E000F047FE104BDB68DB680193019B92
:103FF00004331846FFF76EFB0C4B1B68013B0B4A62
:1040000013600B4B1B68013B094A136000F046FE2E
:10401000019800F00FF8064B1B68002BE1D100BFA0
:1040200003B05DF804FB00BF80070010AC07001070
:104030009407001000B583B00190019B93F85D30A8
:10404000002B08D1019B1B6B184600F0B0FE0198B5
:1040500000F0ADFE07E0019B93F85D30012B02D12B
:10406000019800F0A4FE00BF03B05DF804FBFFFF61
:1040700082B00D4B1B681B68002B01D1012300E0AF
:104080000023002B04D0094B4FF0FF321A6008E0E8
:10409000054B1B68DB68DB680193019B5B68034A87
:1040A000136000BF02B0704764070010CC07001017
:1040B00000B585B00190019B029300230393019BFF
:1040C000002B6ED0029BDA6A384B1B68DB6A9A427F
:1040D0005ED2029B9B69002B06DB344B1B68DB6ABC
:1040E000C3F10502029B9A61029B5969029BDA6A3D
:1040F00013469B0013449B002D4A1344994201D15F
:10410000012300E00023002B3AD0029B0433184621
:10411000FFF7E0FA0346002B15D1029BDA6A244927
:1041200013469B0013449B000B441B68002B0AD1D1
:10413000029BDB6A012202FA03F3DA431D4B1B6880
:1041400013401C4A1360194B1B68DA6A029BDA623F
:10415000029BDB6A01229A40164B1B681343154AE7
:104160001360029BDA6A13469B0013449B00104ABB
:104170001A44029B043319461046FFF758FA04E02C
:104180000A4B1B68DA6A029BDA620123039308E098
:10419000029BDA6C054B1B68DB6A9A4201D2012351
:1041A0000393039B184605B05DF804FBD40600108A
:1041B000D8060010B407001000B585B00190019B2F
:1041C000029300230393019B002B4FD0029B1B6D96
:1041D0005A1E029B1A65029BDA6A029BDB6C9A42AA
:1041E00044D0029B1B6D002B40D1029B0433184628
:1041F000FFF770FA0346002B15D1029BDA6A1E49BD
:1042000013469B0013449B000B441B68002B0AD1F0
:10421000029BDB6A012202FA03F3DA43174B1B68A5
:104220001340164A1360029BDA6C029BDA62029B0F
:10423000DB6AC3F10502029B9A61029BDB6A0122E1
:104240009A400E4B1B6813430C4A1360029BDA6AB8
:1042500013469B0013449B00074A1A44029B0433F5
:1042600019461046FFF7E3F901230393039B184611
:1042700005B05DF804FB00BFD8060010B4070010BD
:1042800000B587B001900091019B04930123039333
:10429000019B002B68D0049BDB6C009A9A4202D9E8
:1042A000009B059302E0049BDB6C0593049BDB6A97
:1042B000059A9A4258D0049B1B6D039A9A4253D197
:1042C000049BDB6A0293049B059ADA62049B9B6958
:1042D000002B04DB059BC3F10502049B9A61049B40
:1042E0005969029A13469B0013449B00204A1344C9
:1042F000994201D1012300E00023002B34D0049B1C
:1043000004331846FFF7E6F90346002B15D1049B4A
:10431000DA6A174913469B0013449B000B441B6841
:10432000002B0AD1049BDB6A012202FA03F3DA4371
:10433000104B1B6813400F4A1360049BDB6A012279
:104340009A400C4B1B6813430A4A1360049BDA6AB9
:1043500013469B0013449B00054A1A44049B0433F4
:1043600019461046FFF763F900BF07B05DF804FB7C
:10437000D8060010B4070010064B1B68002B04D0B1
:10438000044B1B681A6D01321A65024B1B681846F4
:10439000704700BFD406001000B585B001900091B1
:1043A000284B1B680393284B1B6804331846FFF700
:1043B00091F90346002B0BD1234B1B68DB6A0122CA
:1043C00002FA03F3DA43214B1B6813401F4A1360C0
:1043D000019BB3F1FF3F0AD1009B002B07D01A4B82
:1043E0001B68043319461A48FFF721F926E0039A9F
:1043F000019B13440293144B1B68029A5A60029A61
:10440000039B9A4209D2134B1A680F4B1B68043363
:1044100019461046FFF72AF910E00F4B1A680A4BAD
:104420001B68043319461046FFF720F90B4B1B6835
:10443000029A9A4202D2094A029B136000BF05B059
:104440005DF804FBB0070010D4060010B40700109C
:10445000980700106807001064070010CC070010D0
:1044600000B585B001900091019B039300F002FC20
:10447000039B1A68039BDB6B0399096C01FB03F335
:104480001A44039B5A60039B00229A63039B1A6899
:10449000039B9A60039B1A68039BDB6B013B0399A8
:1044A000096C01FB03F31A44039BDA60039BFF22B0
:1044B00083F84420039BFF2283F84520009B002BB8
:1044C00014D1039B1B69002B1AD0039B1033184691
:1044D000FFF78CFC0346002B12D00D4B4FF080529F
:1044E0001A60BFF34F8FBFF36F8F09E0039B103348
:1044F0001846FFF779F8039B24331846FFF774F842
:1045000000F0CCFB0123184605B05DF804FB00BFAA
:1045100004ED00E000B58BB00590049113468DF8D2
:104520000F30049B002B02D10023099304E0059B6C
:10453000049A02FB03F30993099B5033184600F0D9
:1045400025FC0890089B002B10D0089B5033079344
:10455000089B002283F846209DF80F20089B0093BB
:104560001346079A0499059800F005F8089B184629
:104570000BB05DF804FB00B585B003900291019289
:104580008DF80330029B002B03D1069B069A1A601C
:1045900002E0069B019A1A60069B039ADA63069B67
:1045A000029A1A6401210698FFF75AFF069B9DF8AC
:1045B000032083F84C2000BF05B05DF804FBFFFF2B
:1045C00000B58BB0039002910192009300230993F0
:1045D000039B089300F04EFB089B9A6B089BDB6BD8
:1045E0009A4202D3009B022B29D1009A0299089883
:1045F00000F0BBF90790089B5B6A002B10D0089B6A
:1046000024331846FFF7F2FB0346002B13D03F4B31
:104610004FF080521A60BFF34F8FBFF36F8F0AE0E5
:10462000079B002B07D0394B4FF080521A60BFF325
:104630004F8FBFF36F8F00F031FB012361E0019BCF
:10464000002B03D100F02AFB00235AE0099B002B2A
:1046500005D105AB1846FFF71DFC0123099300F0B7
:104660001DFBFFF707FA00F005FB089B93F84430A9
:104670005BB2B3F1FF3F03D1089B002283F84420D3
:10468000089B93F845305BB2B3F1FF3F03D1089B21
:10469000002283F8452000F001FB01AA05AB11467A
:1046A0001846FFF709FC0346002B24D1089800F0B8
:1046B00031FA0346002B18D0089B1033019A11469B
:1046C0001846FFF77DFB089800F0B8F9FFF7DCF912
:1046D0000346002B7FF47EAF0C4B4FF080521A60E4
:1046E000BFF34F8FBFF36F8F74E7089800F0A6F900
:1046F000FFF7CAF96EE7089800F0A0F9FFF7C4F9D0
:10470000002318460BB05DF804FB00BF04ED00E089
:1047100000B58BB001900091019B0893EFF31182DB
:104720004FF0280383F31188BFF36F8FBFF34F8FD0
:1047300004920393049B0793089B9B6B0693089B2F
:10474000DB6B069A9A422BD2089B93F845308DF882
:104750001730069B5A1C089B9A639DF91730B3F1DA
:10476000FF3F12D1089B5B6A002B16D0089B2433B5
:104770001846FFF73BFB0346002B0ED0009B002B97
:104780000BD0009B01221A6007E09DF8173001331F
:10479000DBB25AB2089B83F845200123099301E05C
:1047A00000230993079B0293029B83F31188099BC3
:1047B00018460BB05DF804FB00B58BB0019000917A
:1047C00000230993019B07930023089300F052FAFA
:1047D000079B9B6B0693069B002B24D0069B5A1EBF
:1047E000079B9A63079B1B68002B04D1FFF7C4FD4E
:1047F0000246079B5A60079B1B69002B0FD0079B43
:1048000010331846FFF7F2FA0346002B07D04C4B43
:104810004FF080521A60BFF34F8FBFF36F8F00F0DD
:104820003DFA012387E0009B002B03D100F036FA0C
:10483000002380E0099B002B05D103AB1846FFF74E
:1048400029FB0123099300F029FAFFF713F900F07F
:1048500011FA079B93F844305BB2B3F1FF3F03D1E9
:10486000079B002283F84420079B93F845305BB2F6
:10487000B3F1FF3F03D1079B002283F8452000F0EE
:104880000DFA6A4603AB11461846FFF715FB0346BF
:10489000002B32D1079800F028F90346002B26D0D0
:1048A000079B1B68002B09D100F0E4F9079B5B68AC
:1048B0001846FFF7FDFB089000F0F0F9079B243342
:1048C000009A11461846FFF77BFA079800F0B6F8F1
:1048D000FFF7DAF80346002B7FF478AF184B4FF060
:1048E00080521A60BFF34F8FBFF36F8F6EE7079848
:1048F00000F0A4F8FFF7C8F868E7079800F09EF802
:10490000FFF7C2F8079800F0F0F80346002B3FF4D9
:104910005DAF089B002B0DD000F0ACF9079800F0BC
:1049200011F80590079B5B6805991846FFF7A8FCEE
:1049300000F0B4F9002318460BB05DF804FB00BF8B
:1049400004ED00E084B00190019B5B6A002B06D06F
:10495000019B1B6B1B68C3F10503039301E000235C
:104960000393039B184604B0704700B587B00390CB
:104970000291019200230593039B9B6B0493039B7D
:104980001B6C002B0DD1039B1B68002B4DD1039B8F
:104990005B681846FFF710FC0590039B00225A60E5
:1049A00043E0019B002B19D1039B9868039B1B6C70
:1049B0001A46029904F0F6F9039B9A68039B1B6C54
:1049C0001A44039B9A60039B9A68039B5B689A4214
:1049D0002BD3039B1A68039B9A6026E0039BD8683D
:1049E000039B1B6C1A46029904F0DCF9039BDA68FE
:1049F000039B1B6C5B421A44039BDA60039BDA68DF
:104A0000039B1B689A4207D2039B5A68039B1B6C4B
:104A10005B421A44039BDA60019B022B05D1049B85
:104A2000002B02D0049B013B0493049B5A1C039B64
:104A30009A63059B184607B05DF804FB00B585B086
:104A4000019000F017F9019B93F845308DF80F3075
:104A500013E0019B5B6A002B14D0019B24331846A2
:104A6000FFF7C4F90346002B01D0FFF76BFA9DF85E
:104A70000F30013BDBB28DF80F309DF90F30002B6A
:104A8000E7DC00E000BF019BFF2283F8452000F037
:104A900005F900F0EFF8019B93F844308DF80E30E3
:104AA00013E0019B1B69002B14D0019B10331846A7
:104AB000FFF79CF90346002B01D0FFF743FA9DF85E
:104AC0000E30013BDBB28DF80E309DF90E30002B1D
:104AD000E7DC00E000BF019BFF2283F8442000F0E8
:104AE000DDF800BF05B05DF804FB00B585B00190AE
:104AF00000F0C0F8019B9B6B002B02D101230393B4
:104B000001E00023039300F0C9F8039B184605B0A9
:104B10005DF804FB00B585B0019000F0ABF8019B97
:104B20009A6B019BDB6B9A4202D10123039301E054
:104B30000023039300F0B2F8039B184605B05DF81C
:104B400004FBFFFF84B0039002910192039B043B9E
:104B50000393039B4FF080721A60039B043B039303
:104B6000029B23F00102039B1A60039B043B039307
:104B70000B4A039B1A60039B143B0393019A039B0C
:104B80001A60039B043B0393039B6FF002021A60BD
:104B9000039B203B0393039B184604B0704700BF60
:104BA000A54B010082B0002300934FF0280383F34C
:104BB0001188BFF36F8FBFF34F8F019300BF009B2E
:104BC000002BFCD000BF02B07047FFFFFFFFFFFFCC
:104BD000074B19680868B0E8F04F80F30988BFF305
:104BE0006F8F4FF0000080F311887047AFF30080A3
:104BF000D406001000BF00BF08480068006880F3BA
:104C000008884FF0000080F3148862B661B6BFF3E5
:104C10004F8FBFF36F8F00DF00BF00BF08ED00E0D4
:104C200008B5114B1B68104A43F4780313600E4B10
:104C30001B680D4A43F078431360FDF74FFF0B4BA1
:104C400000221A6000F098F8094B1B68084A43F0EC
:104C500040431360FFF7D0FFFFF74EF8FFF7A2FFC6
:104C60000023184608BD00BF20ED00E0F001001051
:104C700034EF00E082B04FF0280383F31188BFF3D4
:104C80006F8FBFF34F8F0193034B1B680133024AB1
:104C9000136000BF02B07047F001001082B0084BF3
:104CA0001B68013B064A1360054B1B68002B04D1AF
:104CB00000230193019B83F3118800BF02B070476A
:104CC000F0010010FFFFFFFFFFFFFFFFFFFFFFFFEF
:104CD000EFF30980BFF36F8F154B1A681EF0100FAA
:104CE00008BF20ED108A20E9F04F10602DE909007F
:104CF0004FF0280080F31188BFF34F8FBFF36F8F01
:104D0000FEF7FAFF4FF0000080F3118809BC196824
:104D10000868B0E8F04F1EF0100F08BFB0EC108A22
:104D200080F30988BFF36F8F704700BFAFF3008037
:104D3000D406001000BF00BF00B583B04FF02803B9
:104D400083F31188BFF36F8FBFF34F8F0193FEF78B
:104D500027FF0346002B03D0064B4FF080521A600A
:104D600000230093009B83F3118800BF03B05DF81C
:104D700004FB00BF04ED00E0DFF80C00016841F423
:104D800070010160704700BF88ED00E000B585B09C
:104D90000190FEF76FFE019803F0F4FF03460393C2
:104DA000FEF772FE039B184605B05DF804FB00B5E4
:104DB00083B00190019B002B06D0FEF75BFE0198AB
:104DC00003F0E8FFFEF760FE00BF03B05DF804FBF0
:104DD00010B584B0744602910192009303468DF899
:104DE0000F30234619460548FEF7B2FB2346194605
:104DF0000248FEF7C1FB00BF04B010BDD14D010059
:104E000010B584B0744602910192009303468DF868
:104E10000F30234619460A48FEF79AFB9DF80F30DB
:104E2000002B04D09DF80F301846FEF727FB2346D1
:104E300019460348FEF7A0FB00BF04B010BD00BF39
:104E4000014E010030B585B07446019023461946E5
:104E50000C48FEF77DFB019B0393039B1B78002B03
:104E600003D0039B01330393F7E7039A019BD31A03
:104E70001D46234619460348FEF77EFB2B4618467F
:104E800005B030BD454E010030B583B075460346D0
:104E90008DF807302B4619460B48FEF759FB9DF855
:104EA00007302F2B05D99DF80730392B01D8012465
:104EB00000E000242B4619460348FEF75DFB23461D
:104EC000184603B030BD00BF894E010030B585B033
:104ED000754601902B4619461348FEF739FB00230F
:104EE0000393019B1B681B781846FFF7CDFF034611
:104EF000002B0FD0039A13469B0013445B00184607
:104F0000019B1B68591C019A11601B780344303BBC
:104F10000393E6E7039C2B4619460348FEF72CFB58
:104F20002346184605B030BDCD4E010030B589B0DE
:104F3000754603900291019200932B4619469148C1
:104F4000FEF706FB019B0593129B03F00203002B67
:104F50000ED10D9A109B9A420AD20D9B1F2B07D897
:104F60000D9B5A1C0D920C9A134430221A70EBE7D9
:104F7000129B03F00203002B13D1129B03F00103D9
:104F8000002B0ED00D9A119B9A420AD20D9B1F2B1B
:104F900007D80D9B5A1C0D920C9A134430221A709C
:104FA000E6E7129B03F01003002B58D0129B03F48A
:104FB0008063002B16D10D9B002B13D00D9A109BF4
:104FC0009A4203D00D9A119B9A420BD10D9B013B43
:104FD0000D930D9B002B05D00F9B102B02D10D9B29
:104FE000013B0D930F9B102B0FD1129B03F020035D
:104FF000002B0AD10D9B1F2B07D80D9B5A1C0D921D
:105000000C9A134478221A701FE00F9B102B0FD1BB
:10501000129B03F02003002B0AD00D9B1F2B07D8F7
:105020000D9B5A1C0D920C9A134458221A700CE0D6
:105030000F9B022B09D10D9B1F2B06D80D9B5A1CD1
:105040000D920C9A134462221A700D9B1F2B06D8E6
:105050000D9B5A1C0D920C9A134430221A700D9B12
:10506000002B14D00D9A119B9A4210D19DF8383024
:10507000002B09D1129B03F00403002B04D1129BD7
:1050800003F00803002B02D00D9B013B0D930D9BF9
:105090001F2B24D89DF83830002B07D00D9B5A1CAD
:1050A0000D920C9A13442D221A7018E0129B03F0F3
:1050B0000403002B07D00D9B5A1C0D920C9A13442D
:1050C0002B221A700BE0129B03F00803002B06D072
:1050D0000D9B5A1C0D920C9A134420221A70129B9D
:1050E00003F00203002B16D1129B03F00103002BE7
:1050F00011D10D9B0793079A119B9A420BD2019AEB
:10510000531C0193039C009B02992020A047079BFE
:1051100001330793EFE700230693069A0D9B9A420B
:1051200011D20D9A069BD31A013B0C9A134418789E
:10513000019A531C0193039C009B0299A047069B74
:1051400001330693E9E7129B03F00203002B0ED014
:10515000019A059BD31A119A9A4208D9019A531CB5
:105160000193039C009B02992020A047F0E7019C3B
:105170002B4619460348FEF7FFF92346184609B0A7
:1051800030BD00BF2D4F010030B597B074460B9075
:105190000A9109920893234619463348FEF7D8F935
:1051A000002315931A9B002B03D11F9B23F01003A0
:1051B0001F931F9B03F48063002B02D01A9B002BCC
:1051C00033D01A9B1C9AB3FBF2F21C9901FB02F23A
:1051D0009B1A8DF853309DF85330092B04D89DF855
:1051E00053303033DAB20DE01F9B03F02003002B65
:1051F00001D0412200E061229DF853301344DBB21C
:105200000A3BDAB2159B591C159116A90B4403F8F9
:10521000282C1A9A1C9BB2FBF3F31A931A9B002BAF
:1052200003D0159B1F2B00D8CBE71F9B06931E9B1B
:1052300005931D9B04931C9B03939DF86C30029374
:10524000159B01930CAB0093089B099A0A990B9844
:10525000FFF76CFE0546234619460348FEF78CF916
:105260002B46184617B030BD8951010030B597B0B4
:1052700075460B900A91099208932B4619463748B8
:10528000FEF766F900231593DDE91A34234303D1B1
:10529000229B23F010032293229B03F48063002BB4
:1052A00003D0DDE91A34234339D0DDE91A01DDE901
:1052B0001E2303F0BBFB1C4613468DF853309DF8AC
:1052C0005330092B04D89DF853303033DAB20DE057
:1052D000229B03F02003002B01D0412200E0612239
:1052E0009DF853301344DBB20A3BDAB2159B591CCC
:1052F000159116A90B4403F8282CDDE91E23DDE9DE
:105300001A0103F093FB03460C46CDE91A34DDE99C
:105310001A34234303D0159B1F2B00D8C5E71E9BCF
:10532000229A0692219A0592209A049203939DF85C
:1053300070300293159B01930CAB0093089B099A64
:105340000A990B98FFF7F2FD04462B4619460348CD
:10535000FEF712F92346184617B030BD6D52010012
:1053600030B59BB0754605900491039202938DED84
:10537000000B2B461946B748FEF7EAF8039B11933A
:10538000DDE9000103F002FB0346199300231893A3
:105390004FF0000310934FF09E430F9300238DF8BE
:1053A0005F30DDED197AF5EEC07AF1EE10FA0AD52C
:1053B00001238DF85F309FEDA87ADDED197A77EE45
:1053C000677ACDED197A209B03F48063002B01D11D
:1053D00006231E93189B1F2B0ED81E9B092B0BD93F
:1053E000189B5A1C18921AAA1344302203F8502C06
:1053F0001E9B013B1E93EDE7DDED197AFDEEE77A8A
:1054000017EE903A1693169B07EE903AF8EEE77A6D
:105410009DED197A37EE677A904A1E9B9B001344E4
:10542000D3ED007A67EE277ACDED0E7ADDED0E7AB8
:10543000FCEEE77A17EE903A1593159B07EE903A3B
:10544000F8EE677A9DED0E7A77EE677ACDED107AF9
:10545000DDED107AB6EE007AF4EEC77AF1EE10FACE
:1054600018DD159B01331593159B07EE903AB8EEA6
:10547000677A7A4A1E9B9B001344D3ED007AB4EE00
:10548000E77AF1EE10FA19DB00231593169B01332E
:10549000169313E0DDED107AB6EE007AF4EE477A5B
:1054A000F1EE10FA0AD1159B002B04D0159B03F0E6
:1054B0000103002B02D0159B01331593DDED197A02
:1054C0009FED677AF4EEC77AF1EE10FA01DD002461
:1054D00056E11E9B002B29D1169B07EE903AF8EE61
:1054E000E77A9DED197A77EE677ACDED107ADDEDEA
:1054F000107AB6EE007AF4EEC77AF1EE10FA03DD18
:10550000169B013316935FE0DDED107AB6EE007A5C
:10551000F4EE477AF1EE10FA56D1169B03F0010330
:10552000002B51D0169B013316934DE01E9B149314
:10553000189B1F2B27D8149B013B14931599494B9B
:10554000A3FB0123DA0813469B0013445B00CA1A2D
:10555000D3B23033D9B2189B5A1C18921AAA1344EA
:105560000A4603F8502C159B3E4AA2FB0323DB0896
:105570001593159B002B0CBF01230023DBB2002BDE
:1055800000D1D5E700BF189B1F2B06D8149B5A1ECD
:105590001492002B01D0012300E00023002B08D03F
:1055A000189B5A1C18921AAA1344302203F8502C44
:1055B000E9E7189B1F2B07D8189B5A1C18921AAAA8
:1055C00013442E2203F8502C189B1F2B28D8169A10
:1055D000254B83FB02139910D317C91A0B469B0066
:1055E0000B445B00D11ACBB23033D9B2189B5A1C92
:1055F00018921AAA13440A4603F8502C169B1A4A0A
:1056000082FB03129210DB17D31A1693169B002B02
:105610000CBF01230023DBB2002B00D1D4E700BF75
:10562000209B03F00203002B20D1209B03F00103F9
:10563000002B1BD0189A1F9B9A4217D2189B1F2B26
:1056400014D8189B5A1C18921AAA1344302203F833
:10565000502CE5E761530100000000001C9F010091
:105660000000004FCDCCCCCC67666666189A1F9BB5
:105670009A4210D19DF85F30002B09D1209B03F096
:105680000403002B04D1209B03F00803002B02D05D
:10569000189B013B1893189B1F2B27D89DF85F3050
:1056A000002B08D0189B5A1C18921AAA13442D22BA
:1056B00003F8502C1AE0209B03F00403002B08D0C1
:1056C000189B5A1C18921AAA13442B2203F8502C28
:1056D0000CE0209B03F00803002B07D0189B5A1CFA
:1056E00018921AAA1344202203F8502C209B03F08E
:1056F0000203002B16D1209B03F00103002B11D1D4
:10570000189B1393139A1F9B9A420BD2039A531C14
:105710000393059C029B04992020A047139B01330F
:105720001393EFE700231293129A189B9A4212D216
:10573000189A129BD31A013B1AAA134413F8500C5F
:10574000039A531C0393059C029B0499A047129B48
:1057500001331293E8E7209B03F00203002B0ED0E5
:10576000039A119BD31A1F9A9A4208D9039A531C81
:105770000393059C029B04992020A047F0E7039C1B
:105780002B4619460348FDF7F7FE234618461BB083
:1057900030BD00BF6153010070B5A0B076460D90DA
:1057A0000C910B920A9333461946A748FDF7D0FE99
:1057B00000231B930C9B002B01D1A44B0D930A9B40
:1057C0001B78002B00F048840A9B1B78252B0DD0FA
:1057D0000A9B18781B9A531C1B930D9C0B9B0C99CE
:1057E000A0470A9B01330A9300F034BC0A9B0133A3
:1057F0000A9300231F930A9B1B78203B102B57D83A
:1058000001A252F823F000BF89580100B1580100ED
:10581000B15801009D580100B1580100B158010074
:10582000B1580100B1580100B1580100B158010050
:10583000B158010075580100B158010061580100CC
:10584000B1580100B15801004D5801001F9B43F0B1
:1058500001031F930A9B01330A9301231C932AE03F
:105860001F9B43F002031F930A9B01330A930123FA
:105870001C9320E01F9B43F004031F930A9B0133FA
:105880000A9301231C9316E01F9B43F008031F9308
:105890000A9B01330A9301231C930CE01F9B43F0E6
:1058A00010031F930A9B01330A9301231C9302E008
:1058B00000231C9300BF1C9B002B00D09BE7002300
:1058C0001E930A9B1B781846FFF7DEFA0346002B4F
:1058D00005D00AAB1846FFF7F9FA1E9018E00A9BAC
:1058E0001B782A2B14D1249B1A1D24921B68169313
:1058F000169B002B07DA1F9B43F002031F93169B96
:105900005B421E9301E0169B1E930A9B01330A9390
:1059100000231D930A9B1B782E2B24D11F9B43F43D
:1059200080631F930A9B01330A930A9B1B781846D6
:10593000FFF7AAFA0346002B05D00AAB1846FFF77B
:10594000C5FA1D900FE00A9B1B782A2B0BD1249BD4
:105950001A1D24921B681593159B23EAE3731D936C
:105960000A9B01330A930A9B1B78683B122B67D86A
:1059700001A252F823F000BFEB590100415A010087
:10598000215A0100415A0100C5590100415A010044
:10599000415A0100415A0100415A0100415A010097
:1059A000415A0100415A0100115A0100415A0100B7
:1059B000415A0100415A0100415A0100415A010077
:1059C000315A01001F9B43F480731F930A9B0133DC
:1059D0000A930A9B1B786C2B34D11F9B43F40073F2
:1059E0001F930A9B01330A932CE01F9B43F0800313
:1059F0001F930A9B01330A930A9B1B78682B27D1BC
:105A00001F9B43F040031F930A9B01330A931FE03F
:105A10001F9B43F480731F930A9B01330A9318E082
:105A20001F9B43F400731F930A9B01330A9310E0FA
:105A30001F9B43F480731F930A9B01330A9308E072
:105A400000BF06E000BF04E099570100D14D0100FE
:105A500000BF0A9B1B78253B532B00F2EE8201A26C
:105A600052F823F0236001003B6001003B6001001D
:105A70003B6001003B6001003B6001003B600100B6
:105A80003B6001003B6001003B6001003B600100A6
:105A90003B6001003B6001003B6001003B60010096
:105AA0003B6001003B6001003B6001003B60010086
:105AB0003B6001003B6001003B6001003B60010076
:105AC0003B6001003B6001003B6001003B60010066
:105AD0003B6001003B6001003B6001003B60010056
