:020000021000EC
:1000000000000110695B0100C561010019020100D7
:10001000C5610100C5610100C56101006A1BF7EF00
:10002000000000000000000000000000E165010089
:10003000C56101000000000011660100C5610100FA
:10004000C5610100C5610100C5610100C561010014
:10005000C5610100C5610100C5610100C561010004
:10006000C5610100C5610100C5610100C5610100F4
:10007000C561010000000000C5610100C56101000B
:10008000C5610100C5610100C5610100C5610100D4
:10009000C5610100C5610100C5610100C5610100C4
:1000A000C5610100C5610100C5610100C5610100B4
:1000B000C5610100C5610100C5610100C5610100A4
:1000C000C5610100C5610100C5610100C561010094
:1000D000C5610100C5610100C5610100C561010084
:1000E000C5610100CCBA0100000000104406000008
:1000F000CCBA0100000000200000000048060010FB
:10010000B80F0000000000200000000086B00023AF
:100110000593059A13465B0013449B001D4A134444
:100120001D4A934233D21B49059A13465B00134480
:100130009B000B441B6803931649059A13465B000A
:1001400013449B000B445B6802931249059A1346C3
:100150005B0013449B000B4408331B68019300238E
:100160000493049A019B9A420DD2049B9B00039A2C
:100170001A44049B9B0002990B4412681A60049B6A
:1001800001330493EDE7059B01330593C1E700BFFD
:1001900006B07047E4000100FC00010084B00023B9
:1001A0000393039BDB00134A1344134A93421ED26A
:1001B000104A039B52F8333001930E4A039BDB0035
:1001C00013445B68009300230293029A009B9A42B7
:1001D00009D2029B9B00019A134400221A60029BE1
:1001E00001330293F1E7039B01330393D9E700BF87
:1001F00004B07047FC0001000C010100DFF814009E
:10020000016841F470010160BFF34F8FBFF36F8F3E
:1002100000BF704788ED00E01EF0040F0CBFEFF345
:100220000880EFF309808169004A10478D62010060
:1002300000BF7047FFFFFFFFFFFFFFFFFFFFFFFF54
:10024000FFFFFFFFFFFFFFFFFFFFFFFFFFFFFFFFBE
:10025000FFFFFFFFFFFFFFFFFFFFFFFFFFFFFFFFAE
:10026000FFFFFFFFFFFFFFFFFFFFFFFFFFFFFFFF9E
:10027000FFFFFFFFFFFFFFFFFFFFFFFFFFFFFFFF8E
:10028000FFFFFFFFFFFFFFFFFFFFFFFFFFFFFFFF7E
:10029000FFFFFFFFFFFFFFFFFFFFFFFFFFFFFFFF6E
:1002A000FFFFFFFFFFFFFFFFFFFFFFFFFFFFFFFF5E
:1002B000FFFFFFFFFFFFFFFFFFFFFFFFFFFFFFFF4E
:1002C000FFFFFFFFFFFFFFFFFFFFFFFFFFFFFFFF3E
:1002D000FFFFFFFFFFFFFFFFFFFFFFFFFFFFFFFF2E
:1002E000FFFFFFFFFFFFFFFFFFFFFFFFFFFFFFFF1E
:1002F000FFFFFFFFFFFFFFFFFFFFFFFFFFFFFFFF0E
:10030000F8B500BFF8BC08BC9E4670474D0301001D
:100310007D4C010035610100298D0100F8B500BF59
:10032000F8BC08BC9E46704710B5054C237833B91D
:10033000044B13B10448AFF300800123237010BDB8
:100340004806001000000000CCBA010008B5034BBD
:100350001BB103490348AFF3008008BD0000000053
:100360004C060010CCBA010030B583B07546019040
:100370000B468DF8033013468DF802302B46194694
:100380000A4806F07DF8019B9DF803201A70019B36
:100390009DF802205A70019C2B461946034806F02E
:1003A00083F82346184603B030BD00BF690301003F
:1003B00010B582B07446019023461946294806F0CC
:1003C0005FF8019B1B78052B44D801A252F823F05B
:1003D000E9030100FB0301000D0401001F040100FB
:1003E0003104010043040100019B5B781A4601239C
:1003F00003FA02F21C4B9A612CE0019B5B781A46CF
:10040000012303FA02F2194B9A6123E0019B5B7806
:100410001A46012303FA02F2154B9A611AE0019B76
:100420005B781A46012303FA02F2124B9A6111E03B
:10043000019B5B781A46012303FA02F20E4B9A6184
:1004400008E0019B5B781A46012303FA02F20B4B8A
:100450009A6100BF23461946024806F025F800BFFE
:1004600002B010BDB10301000080092020800920E6
:10047000408009206080092080800920A080092018
:1004800010B582B07446019023461946294805F0FC
:10049000F7FF019B1B78052B44D801A252F823F0EB
:1004A000B9040100CB040100DD040100EF040100E8
:1004B0000105010013050100019B5B781A46012329
:1004C00003FA02F21C4BDA612CE0019B5B781A46BE
:1004D000012303FA02F2194BDA6123E0019B5B78F6
:1004E0001A46012303FA02F2154BDA611AE0019B66
:1004F0005B781A46012303FA02F2124BDA6111E02B
:10050000019B5B781A46012303FA02F20E4BDA6173
:1005100008E0019B5B781A46012303FA02F20B4BB9
:10052000DA6100BF23461946024805F0BDFF00BF4F
:1005300002B010BD81040100008009202080092044
:10054000408009206080092080800920A080092047
:1005500070B582B076460190334619463E4805F0A4
:100560008FFF019B1B78052B68D801A252F823F05E
:1005700089050100A7050100C5050100E30501008B
:10058000010601001F060100344B5B69019A527895
:10059000114601228A401340002B14BF012300237F
:1005A000DCB200254BE02E4B5B69019A5278114674
:1005B00001228A401340002B14BF01230023DCB228
:1005C00000253CE0274B5B69019A527811460122D5
:1005D0008A401340002B14BF01230023DCB2002506
:1005E0002DE0214B5B69019A5278114601228A4025
:1005F0001340002B14BF01230023DCB200251EE0B2
:100600001A4B5B69019A5278114601228A401340C5
:10061000002B14BF01230023DCB200250FE0144B94
:100620005B69019A5278114601228A401340002BDF
:1006300014BF01230023DCB2002500E0012533466E
:100640001946054805F030FF012D00D100E0234692
:10065000184602B070BD00BF51050100008009209E
:1006600020800920408009206080092080800920A6
:10067000A080092010B582B0744601902346194627
:10068000414805F0FDFE019B1B78052B74D801A2A3
:1006900052F823F0AD060100CF060100F10601007B
:1006A0001307010035070100570701000198FFF704
:1006B0004FFF034683F00103DBB2002B03D0019808
:1006C000FFF776FE58E00198FFF7DAFE54E0019854
:1006D000FFF73EFF034683F00103DBB2002B03D09C
:1006E0000198FFF765FE47E00198FFF7C9FE43E078
:1006F0000198FFF72DFF034683F00103DBB2002BC7
:1007000003D00198FFF754FE36E00198FFF7B8FEDA
:1007100032E00198FFF71CFF034683F00103DBB2D0
:10072000002B03D00198FFF743FE25E00198FFF767
:10073000A7FE21E00198FFF70BFF034683F00103BA
:10074000DBB2002B03D00198FFF732FE14E00198D2
:10075000FFF796FE10E00198FFF7FAFE034683F0DC
:100760000103DBB2002B03D00198FFF721FE02E06A
:100770000198FFF785FE00BF23461946024805F0A1
:1007800093FE00BF02B010BD7506010010B582B027
:1007900074460190234619462D4805F071FE019BD1
:1007A0001B78002B02D0012B21D049E0019B5B7804
:1007B0001D2B0CD1274B5B6F264A23F01803536780
:1007C000244B5B6F234A43F0080353670FE0019B00
:1007D0005B781E2B0BD11F4B9B6F1E4A23F0180317
:1007E00093671C4B9B6F1B4A43F008039367019B65
:1007F0005B78132B10D1174BD3F8CC30154A23F06C
:100800001803C2F8CC30134BD3F8CC30114A43F064
:100810000803C2F8CC3013E0019B5B780F2B0FD19B
:100820000C4BD3F8BC300B4A23F01803C2F8BC3091
:10083000084BD3F8BC30074A43F00803C2F8BC3079
:1008400023461946024805F02FFE00BF02B010BD36
:100850008D07010000C0024030B583B0754601909D
:100860002B461946074805F00BFE074A019B1A6004
:10087000019C2B461946034805F016FE23461846F0
:1008800003B030BD590801005C9D010030B583B054
:10089000754601900B468DF8033013468DF80230F3
:1008A0002B4619460D4805F0EBFD019B1846FFF756
:1008B000D3FF0B4A019B1A60019B9DF803201A711C
:1008C000019B9DF802205A71019C2B461946034852
:1008D00005F0EAFD2346184603B030BD8D0801003F
:1008E000209D0100F0B585B0774603900B468DF84A
:1008F0000B303B461946174805F0C2FD164B1B68E6
:10090000039A12791046039A5279114642010A4419
:1009100053F822109DF80B3003F007020E4B1C68B1
:10092000039B1B791E46039B5B791D4603230093A3
:1009300013460022039800F067FA024673012B4425
:1009400044F823203B461946024805F0ADFD00BFA0
:1009500005B0F0BDE508010000000010F0B587B05B
:10096000774603900B468DF80B303B4619461948E5
:1009700005F086FD9DF80B308DF81730164B1B687F
:10098000039A12791046039A5279114642010A4499
:1009900053F822109DF8173003F003020E4B1C6829
:1009A000039B1B791E46039B5B791D460223009324
:1009B00013460322039800F027FA024673012B44E2
:1009C00044F823203B461946024805F06DFD00BF60
:1009D00007B0F0BD5D09010000000010F0B585B062
:1009E000774603900B468DF80B303B461946164868
:1009F00005F046FD154B1B68039A12791046039AC1
:100A00005279114642010A4453F822109DF80B20F6
:100A10000E4B1C68039B1B791E46039B5B791D468E
:100A20000123009313460522039800F0EDF90246D6
:100A300073012B4444F823203B461946024805F035
:100A400033FD00BF05B0F0BDDD090100000000105E
:100A5000F0B585B0774603900B468DF80B303B46DA
:100A60001946164805F00CFD154B1B68039A1279C0
:100A70001046039A5279114642010A4453F8221053
:100A80009DF80B200E4B1C68039B1B791E46039B95
:100A90005B791D460123009313460622039800F05C
:100AA000B3F9024673012B4444F823203B46194610
:100AB000024805F0F9FC00BF05B0F0BD510A010085
:100AC00000000010F0B585B0774603900B468DF816
:100AD0000B303B461946184805F0D2FC174B1B68F3
:100AE000039A12791046039A5279114642010A4438
:100AF00053F822109DF80B3083F00103DBB21A4645
:100B00000E4B1C68039B1B791E46039B5B791D469D
:100B10000123009313460722039800F075F902465B
:100B200073012B4444F823203B461946024805F044
:100B3000BBFC00BF05B0F0BDC50A010000000010FD
:100B4000F0B585B0774603900B468DF80B303B46E9
:100B50001946184805F094FC174B1B68039A127944
:100B60001046039A5279114642010A4453F8221062
:100B70009DF80B3083F00103DBB21A460E4B1C6864
:100B8000039B1B791E46039B5B791D460123009343
:100B900013460822039800F037F9024673012B44EC
:100BA00044F823203B461946024805F07DFC00BF6F
:100BB00005B0F0BD410B010000000010F0B585B09C
:100BC000774603900B468DF80B303B461946164886
:100BD00005F056FC154B1B68039A12791046039AD0
:100BE0005279114642010A4453F822109DF80B2015
:100BF0000E4B1C68039B1B791E46039B5B791D46AD
:100C00000123009313460922039800F0FDF80246E1
:100C100073012B4444F823203B461946024805F053
:100C200043FC00BF05B0F0BDBD0B0100000000108B
:100C3000F0B585B0774603900B468DF80B303B46F8
:100C40001946184805F01CFC174B1B68039A1279CB
:100C50001046039A5279114642010A4453F8221071
:100C60009DF80B3083F00103DBB21A460E4B1C6873
:100C7000039B1B791E46039B5B791D460123009352
:100C800013460822039800F0BFF8024673012B4474
:100C900044F823203B461946024805F005FC00BFF6
:100CA00005B0F0BD310C010000000010F0B585B0BA
:100CB000774603900B468DF80B303B461946164895
:100CC00005F0DEFB154B1B68039A12791046039A58
:100CD0005279114642010A4453F822109DF80B2024
:100CE0000E4B1C68039B1B791E46039B5B791D46BC
:100CF0000123009313460922039800F085F8024669
:100D000073012B4444F823203B461946024805F062
:100D1000CBFB00BF05B0F0BDAD0C01000000001022
:100D2000F0B585B0774603900B468DF80B303B4607
:100D30001946164805F0A4FB154B1B68039A127957
:100D40001046039A5279114642010A4453F8221080
:100D50009DF80B200E4B1C68039B1B791E46039BC2
:100D60005B791D460123009313460A22039800F085
:100D70004BF8024673012B4444F823203B461946A6
:100D8000024805F091FB00BF05B0F0BD210D010048
:100D900000000010F0B585B0774603900B468DF843
:100DA0000B303B461946164805F06AFB154B1B688D
:100DB000039A12791046039A5279114642010A4465
:100DC00053F822109DF80B200E4B1C68039B1B79D7
:100DD0001E46039B5B791D46012300931346102298
:100DE000039800F011F8024673012B4444F82320C5
:100DF0003B461946024805F057FB00BF05B0F0BD61
:100E0000950D01000000001030B587B075460390C5
:100E10000291019200932B461946134805F030FBCE
:100E20000A9BC3F120034FF0FF3222FA03F305932C
:100E3000059A019B02FA03F3DB43029A13400293E3
:100E4000009A059B1A40019B02FA03F3029A13438E
:100E50000293029C2B461946034805F025FB2346C6
:100E6000184607B030BD00BF090E010030B583B091
:100E7000754601902B461946064805F001FB019B7B
:100E80001C792B461946034805F00EFB23461846ED
:100E900003B030BD6D0E010030B583B075460190D2
:100EA0002B461946064805F0EBFA019B5C792B4668
:100EB0001946034805F0F8FA2346184603B030BD3A
:100EC000990E010000B58BB0034600918DF80730F4
:100ED00005F00CFB03461946314806F04DFD05F0C0
:100EE000F1FA079005F002FB069000230993069B98
:100EF000013B099A9A420DD2099B9B00079A134421
:100F00001B681A460999274806F036FD099B0133EC
:100F10000993ECE7009B002B06D0069B013B009A4F
:100F20001946204806F028FD9DF80730002B33D0E5
:100F30001D4A03AB07CA83E807001C4805F070FA96
:100F400003AB19461A4806F017FD00230893069BC9
:100F5000013B089A9A4212D2089B002B02D0202013
:100F600005F042FA089B9B00079A13441B68194638
:100F7000104806F001FD089B01330893E7E7009B4A
:100F8000002B03D000990C4806F0F6FC0B4805F046
:100F900047FA0B4805F044FA00BF0BB05DF804FBBC
:100FA0006C920100809201005C930100909201001C
:100FB000C8920100F0920100F89201000093010034
:100FC0000893010070B5764633461946074805F088
:100FD00057FA074BD3E9004533461946034805F055
:100FE00063FA23462C461846214670BDC50F010002
:100FF0006806001070B57446234619460C4805F083
:101000003FFA0C4B1B6898474FF47A724FF000037D
:1010100007F034FF02460B4615461E462346194686
:10102000034805F041FA2B4634461846214670BD68
:10103000F50F01000400001030B583B07546019033
:101040002B461946064805F01BFA00242B46194684
:10105000034805F029FA2346184603B030BD00BF07
:101060003910010038B5744623461946074805F083
:1010700007FA0020FFF7E0FF03461D462346194606
:10108000024805F011FA2B46184638BD65100100DC
:10109000F0B589B07546CDE900012B4619462B48BD
:1010A00005F0EEF9DDE90034CDE906348DF808608D
:1010B0002B461946264805F0E3F94FF000034FF0A0
:1010C0000004CDE90434DDE90634B4F1FF3F08BF84
:1010D000B3F1FF3F06D14FF0FF334FF0FF34CDE9BE
:1010E00004340AE0FFF786FF0A460146DDE90634CC
:1010F0005E1844EB0207CDE9046701230393FFF771
:1011000079FF0A460146DDE90434A24208BF99424C
:1011100034BF01230023DBB2002B08D002AB1846FA
:10112000FFF78AFF0346002BE9D000230393039CBB
:101130002B461946064805F0B7F92B4619460348D1
:1011400005F0B2F92346184609B0F0BD9110010030
:101150006149010010B582B07446CDE90001234613
:101160001946074805F08CF9DDE90001FFF790FF0B
:1011700023461946024805F097F900BF02B010BD9A
:101180005511010030B583B0754601902B461946C4
:10119000074805F075F9074A019B1A60019C2B4628
:1011A0001946034805F080F92346184603B030BDC0
:1011B00085110100D89C010030B583B075460190BF
:1011C0000B468DF8033013468DF802302B46194636
:1011D000164805F055F9019B1846FFF7D3FF144A4E
:1011E000019B1A60019B00221A71019B03F10C0202
:1011F000019B9A60019B0C339DF802209DF803101F
:101200001846FFF743FB9DF80330022B01D1012262
:1012100000E00022019B1A71019C2B4619460348ED
:1012200005F042F92346184603B030BDB91101005C
:10123000909C010030B583B0754601902B4619464D
:10124000194805F01DF9019B9A68019B9B681B6872
:101250001B68002110469847019B9A68019B9B6878
:101260001B6830331B681046984703461A46012313
:101270009340DC43019B9A68019B9B681B682C335D
:101280001B681046984703461A46084B53F822300D
:101290001A6821460A401A602B461946024805F092
:1012A00003F900BF03B030BD351201000800001083
:1012B00030B583B0754601902B461946194805F0A4
:1012C000DFF8019B9A68019B9B681B681B680021E3
:1012D00010469847019B9A68019B9B681B683033B6
:1012E0001B681046984703461A46012303FA02F486
:1012F000019B9A68019B9B681B682C331B681046F6
:10130000984703461A46084B53F822301A6821467C
:101310000A431A602B461946024805F0C5F800BF7B
:1013200003B030BDB11201000800001010B582B04A
:10133000744601900B468DF80330234619460B483E
:1013400005F09EF89DF80330002B03D00198FFF7BD
:10135000AFFF02E00198FFF76DFF234619460348EF
:1013600005F0A2F800BF02B010BD00BF2D130100B0
:1013700030B583B0754601902B461946134805F0E9
:101380007FF8019B9A68019B9B681B6830331B6840
:101390001046984703461A46012393401C46019B7A
:1013A0009A68019B9B681B682C331B681046984702
:1013B00003461A46064B53F822309C612B461946C9
:1013C000024805F071F800BF03B030BD7113010091
:1013D0000800001030B583B0754601902B461946C1
:1013E000134805F04DF8019B9A68019B9B681B68A8
:1013F00030331B681046984703461A460123934032
:101400001C46019B9A68019B9B681B682C331B68D8
:101410001046984703461A46064B53F82230DC61C3
:101420002B461946024805F03FF800BF03B030BD17
:10143000D51301000800001010B582B07446019069
:101440000B468DF80330234619460B4805F018F873
:101450009DF80330002B03D00198FFF789FF02E0CD
:101460000198FFF7B7FF23461946034805F01CF81B
:1014700000BF02B010BD00BF3914010030B583B009
:10148000754601902B461946154804F0F9FF019B5B
:101490009A68019B9B681B6830331B68104698470D
:1014A00003461A46012303FA02F4019B9A68019B42
:1014B0009B681B682C331B681046984703461A46E6
:1014C000084B53F822305A6921464A405A612B464C
:1014D0001946034804F0E8FF00BF03B030BD00BF69
:1014E0007D1401000800001030B585B075460190EC
:1014F0002B461946184804F0C3FF019B9A68019BCC
:101500009B681B682C331B681046984703461A4695
:10151000124B53F822305C69019B9A68019B9B68CF
:101520001B6830331B6810469847034624FA03F3C0
:1015300003F00103002B14BF012300238DF80F30AB
:101540009DF80F402B461946034804F0ADFF234693
:10155000184605B030BD00BFE914010008000010B6
:1015600030B583B0754601902B461946164804F0F5
:1015700087FF019B9A68019B9B681B682C331B6843
:101580001046984703461A46104B53F822305C69C0
:10159000019B9A68019B9B681B6830331B6810464F
:1015A0009847034624FA03F303F00103002B14BF0A
:1015B00001230023DCB22B461946034804F074FFD4
:1015C0002346184603B030BD611501000800001025
:1015D00030B583B0754601902B461946064804F095
:1015E0004FFF019B9C682B461946034804F05CFFA3
:1015F0002346184603B030BDD115010030B587B081
:10160000754603902B461946174804F039FF039B93
:101610001B79012B94BF01230023DBB28DF8173017
:101620009DF8173083F00103DBB2002B10D0039B31
:101630009A68039B9B681B682C331B68104698476D
:1016400003460093A623094A09490A4806F094F97B
:101650009DF817402B461946034804F025FF234602
:10166000184607B030BD00BFFD1501002C9F0100DA
:10167000449A01006893010070B582B076460190EB
:10168000009133461946114804F0FAFE0198FFF71D
:10169000B5FF009C019B1B791D46019B9A68019B2D
:1016A0009B681B6830331B681046984703461946F1
:1016B000074A6B010B4442F823403346194603485E
:1016C00004F0F2FE00BF02B070BD00BF7916010049
:1016D0007006001030B583B0754601902B46194650
:1016E0000F4804F0CDFE019B1B791C46019B9A68B4
:1016F000019B9B681B6830331B6810469847034664
:101700001946084A63010B44002142F823102B4676
:101710001946034804F0C8FE00BF03B030BD00BF47
:10172000D51601007006001030B583B0754603462B
:101730008DF807302B461946064804F0A1FE9DF8A7
:1017400007402B461946034804F0AEFE23461846D0
:1017500003B030BD2917010010B584B07446039062
:101760000B468DF80B3023461946194804F088FEC5
:101770000398FFF743FF9DF80B30012B08D0012B96
:1017800002D3022B08D00EE0039800F0B1F817E066
:10179000039800F0EBF813E0039800F0A9F8039821
:1017A00000F0E4F80CE09DF80B301846FFF7BCFFA2
:1017B00003460093D223074A0749084806F0DCF89D
:1017C00023461946024804F06FFE00BF04B010BD66
:1017D00059170100489F0100509A0100F893010039
:1017E00010B584B0744603900B468DF80B30234639
:1017F0001946194804F044FE0398FFF7FFFE9DF8D0
:101800000B30012B08D0012B02D3022B08D00EE0A5
:10181000039800F0E9F817E0039800F023F913E0CB
:10182000039800F0E1F8039800F01CF90CE09DF833
:101830000B301846FFF778FF03460093F223074A60
:101840000749084806F098F823461946024804F06C
:101850002BFE00BF04B010BDE1170100F09E010097
:101860005C9A0100F893010010B584B074460390AF
:10187000029113468DF80730234619460B4804F0B1
:10188000FFFD0398FFF7BAFE02990398FFF7F4FEF5
:101890009DF8073019460398FFF75EFF2346194667
:1018A000024804F001FE00BF04B010BD6918010039
:1018B00010B582B074460190234619460B4804F0D7
:1018C000DFFD0198FFF79AFE0198FFF703FF0198EB
:1018D00000F08AF8019800F0C5F82346194603483D
:1018E00004F0E2FD00BF02B010BD00BFB11801005E
:1018F00030B583B0754601902B461946194804F05F
:10190000BFFD019B9A68019B9B681B6830331B6875
:101910001046984703461A46012303FA02F0019B3A
:101920001B791946104A0B469B000B449B0013443D
:101930000C331B681A680446019B1B7918460A4938
:1019400003469B0003449B000B440C331B6822435B
:101950001A602B461946034804F0A6FD00BF03B0E9
:1019600030BD00BFF11801002000001030B583B079
:10197000754601902B461946194804F081FD019BDC
:101980009A68019B9B681B6830331B681046984718
:1019900003461A46012303FA02F0019B1B791946FC
:1019A000104A0B469B000B449B00134410331B68EA
:1019B0001A680446019B1B7918460A4903469B0096
:1019C00003449B000B4410331B6822431A602B46D0
:1019D0001946034804F068FD00BF03B030BD00BFE6
:1019E0006D1901002000001030B583B075460190DC
:1019F0002B461946194804F043FD019B9A68019B48
:101A00009B681B6830331B681046984703461A468C
:101A100001239340D843019B1B791946104A0B467A
:101A20009B000B449B0013440C331B681A6804464C
:101A3000019B1B7918460A4903469B0003449B00FF
:101A40000B440C331B6822401A602B46194603488E
:101A500004F02AFD00BF03B030BD00BFE91901004A
:101A60002000001030B583B0754601902B46194612
:101A7000194804F005FD019B9A68019B9B681B684F
:101A800030331B681046984703461A46012393409B
:101A9000D843019B1B791946104A0B469B000B4407
:101AA0009B00134410331B681A680446019B1B7982
:101AB00018460A4903469B0003449B000B4410331D
:101AC0001B6822401A602B461946034804F0ECFCC0
:101AD00000BF03B030BD00BF651A01002000001038
:101AE00082B00190034A019B1A60019B184602B024
:101AF000704700BF6C9C010000B583B00190019B52
:101B00001846FFF7EDFF044A019B1A60019B184637
:101B100003B05DF804FB00BF489C010000B585B030
:101B200001900B468DF803300023039300210198A8
:101B300000F0CEF89DF803300C2B16D99DF8033039
:101B40009BB21A460C21019800F0ACF903904FF4B7
:101B50008071019800F0D6F89DF80330104A02FB1E
:101B600003F31A460F4B1A6006E00021019800F0BB
:101B7000C9F80C4B0C4A1A600121019800F04AFA8E
:101B8000019B1B6804331B680121019898470021C1
:101B9000019800F073FA039B184605B05DF804FB4A
:101BA00040420F004C000010001BB70000B583B08E
:101BB00001900B468DF803309DF80330042B0DD9AE
:101BC000AE230B4A0B490C4805F0D6FE0B4804F037
:101BD00027FC00210120FFF775F9FEE7084B1B6881
:101BE0009DF80320C3F8A82100BF03B05DF804FBF3
:101BF000B09D0100689A0100989401003895010099
:101C00004800001082B00190034B1B68D3F8A83144
:101C1000184602B0704700BF4800001082B0019023
:101C2000024B1B68184602B0704700BF4C00001002
:101C300000B585B00190019B1B6808331B680198B3
:101C40009847029000230393029B002B0AD0019B2C
:101C50001B680C331B68019898470246029BB2FB35
:101C6000F3F30393039B184605B05DF804FBFFFFF5
:101C700084B001900091094B1B68D3F8C430009ADE
:101C80001268012101FA02F213430393034B1B680C
:101C9000039AC3F8C42000BF04B070474800001086
:101CA00084B001900091094B1B68D3F8C430009AAE
:101CB0001268012101FA02F213400393034B1B68DF
:101CC000039AC3F8C42000BF04B070474800001056
:101CD00084B001900B46ADF80230BDF8023003939A
:101CE000074B1B68D3F80C3123F00101044B1B6830
:101CF000039A0A43C3F80C2100BF04B0704700BF29
:101D00004800001082B001900B46ADF80230084B3D
:101D10001B68D3F8043123F48071BDF80220044B12
:101D20001B680A43C3F8042100BF02B0704700BF1C
:101D30004800001082B001900B46ADF80230084B0D
:101D40001B68D3F8083123F44071BDF80220044B1E
:101D50001B680A43C3F8082100BF02B0704700BFE8
:101D60004800001082B001900B46ADF80230084BDD
:101D70001B68D3F8B43123F44071BDF80220044B42
:101D80001B680A43C3F8B42100BF02B0704700BF0C
:101D90004800001000B587B001900B46ADF8023046
:101DA0001346ADF80030BDF80030B3F5C07F03D264
:101DB000BDF800300C2B0DD8FF23344A3449354888
:101DC00005F0DAFD344804F02BFB00210120FFF779
:101DD00079F8FEE701238DF81730BDF80030BDF823
:101DE0000220B3FBF2F102FB01F29B1A9BB2002B23
:101DF00009D0BDF80020BDF80230B2FBF3F39BB26E
:101E00000133049307E0BDF80020BDF80230B2FBB7
:101E1000F3F39BB204930123ADF80E309DF8173015
:101E2000002B2ED0049B9BB2BDF8022012FB03F3C3
:101E30009BB2BDF80E2012FB03F39BB25B00ADF822
:101E40000C30BDF80C309B2B03D900238DF81730D4
:101E5000E4E7BDF80E305B00ADF80E30BDF80E3093
:101E6000072BDBD940F21B13084A0C490C4805F03C
:101E700083FD094804F0D4FA00210120FFF722F87D
:101E8000FEE7049B184607B05DF804FB589E01006E
:101E9000809A01005095010038950100989A010040
:101EA0004096010010B58AB001900B46ADF80230A3
:101EB0001346ADF800300123ADF81A30FFF79AF859
:101EC0000A46014611F57A7342F10004CDE9043463
:101ED000FFF790F8CDE90801BDF80020BDF8023009
:101EE00019460198FFF756FF0390BDF80220039BA7
:101EF00002FB03F3079300210198FFF7E9FE00219D
:101F00000198FFF7FFFE00210198FFF713FF002162
:101F10000198FFF727FF3A4B1B68D3F8843023F072
:101F20001F01039B5A1E364B1B680A43C3F88420CB
:101F3000334B1B68D3F8843023F06002BDF81A30AD
:101F40005B0119462E4B1B680A43C3F884202C4BB7
:101F50001B68D3F880202A4B1B6842F00102C3F8AB
:101F60008020274B1B68AA22C3F88C20244B1B68B7
:101F70005522C3F88C20224B1B68D3F8883003F419
:101F80008063002B09D1DDE90812DDE90434A242A7
:101F900008BF994201D2012300E00023002B04D0A6
:101FA000FFF728F8CDE90801E5E7154B1B68D3F8E2
:101FB000883003F48063002B09D1DDE90812DDE9E4
:101FC0000434A24208BF994201D3012300E0002358
:101FD000002B0ED040F243130A4A0B490B4805F080
:101FE000CBFC0B4804F01CFA00210120FEF76AFF2D
:101FF000FEE7BDF80030079AD31A18460AB010BDA4
:1020000048000010FC9D0100B09A0100E896010014
:102010003895010000B583B001900B468DF8033070
:102020009DF803301F2B0ED940F26F130E4A0F4953
:102030000F4805F0A1FC0F4804F0F2F9002101203F
:10204000FEF740FFFEE70C4B1B68D3F8043123F08A
:102050001F019DF80320084B1B680A43C3F80421A5
:1020600000BF03B05DF804FBB49E0100C89A0100F4
:1020700090970100389501004800001082B001904F
:102080000B468DF80330084B1B68D3F8003123F062
:1020900001019DF80320044B1B680A43C3F800218B
:1020A00000BF02B0704700BF4800001030B583B0D9
:1020B000754601902B461946064804F0E1F9019C4B
:1020C0002B461946034804F0EFF92346184603B09F
:1020D00030BD00BFAD20010030B583B07546019022
:1020E0002B461946074804F0CBF9074A019B1A60B2
:1020F000019C2B461946034804F0D6F9234618469E
:1021000003B030BDD9200100209C010030B583B060
:102110007546019000912B461946084804F0B0F925
:10212000074A019B1A60019C2B461946034804F09C
:10213000BBF92346184603B030BD00BF0D21010096
:102140005C9D010030B583B07546019000912B462F
:1021500019460F4804F094F9019B009A114618465D
:10216000FFF7D4FF0B4A019B1A60009B1A79019B71
:102170001A71009B5A79019B5A71019C2B46194692
:10218000034804F091F92346184603B030BD00BF60
:1021900045210100209D010030B583B075460190B6
:1021A00000912B461946314804F06AF9019B184604
:1021B000FFF792FF019B04331846FFF79DFC2C4A62
:1021C000019B1A602B4A019B5A60019B03F1140288
:1021D000019B9A60019B03F11C02019BDA60019B49
:1021E00003F12402019B1A61019B03F1140400987E
:1021F000FFF75CFF024613465B001344DB001E4AF8
:10220000134419462046FFF79DFF019B03F11C0470
:102210000098FFF74BFF024613465B001344DB00B8
:102220000833154A134419462046FFF78BFF019BDC
:1022300003F124040098FFF739FF024613465B00C0
:102240001344DB0010330C4A134419462046FFF7B1
:1022500079FF019B009ADA62019C2B4619460348DC
:1022600004F022F92346184603B030BD992101003D
:10227000D49B0100FC9B0100E49A010070B586B07C
:102280007646019033461946304804F0F9F8019B30
:10229000DB6A1846FFF70AFF03460593019B181DEA
:1022A000019B5B6814331B68059A920028490A4415
:1022B00011469847019B9868019B9B681B681B68A7
:1022C0002449059A0A44127811469847019BD86818
:1022D000019BDB681B681B681E49059A0A4412783B
:1022E00011469847019B1869019B1B691B681B6875
:1022F0001849059A0A44127811469847164A059BD0
:1023000052F823305B681449059A51F8224004932F
:102310000123039333461946104804F0B1F8012213
:10232000039B02FA03F31A46049B42EA0305334671
:1023300019460A4804F0B8F8656033461946034860
:1023400004F0B2F800BF06B070BD00BF7D220100EE
:102350002C9B0100E09A0100500000100D4A010082
:1023600030B585B0754601902B461946174804F0E4
:1023700087F8019BDB6A1846FFF798FE0246144B6C
:1023800053F82230DB680393042302932B4619464B
:10239000104804F075F80122029B02FA03F31A4672
:1023A000039B1340002B14BF01230023DCB22B46F8
:1023B0001946084804F078F82B461946034804F0FB
:1023C00073F82346184605B030BD00BF61230100F5
:1023D00050000010494A010030B585B075460190A3
:1023E0000B46ADF802302B461946144804F048F865
:1023F000019BDB6A1846FFF759FE03460393104A18
:10240000039B52F82330BDF802209A600198FFF731
:10241000A7FF0346002B01D000BFF7E7084A039B44
:1024200052F823309B689CB22B461946034804F0AF
:102430003BF82346184605B030BD00BFD923010044
:102440005000001010B586B074460390234619461C
:10245000124804F015F801238DF8173000238DF889
:10246000163000238DF8153030238DF814300723F3
:1024700000220021039800F05BF830230093002332
:1024800000220121039800F009FA23461946034867
:1024900004F00AF800BF06B010BD00BF45240100DB
:1024A00030B583B0754603468DF807302B46194684
:1024B000064803F0E5FF9DF807402B461946034800
:1024C00003F0F2FF2346184603B030BDA1240100FB
:1024D00030B583B0754603468DF807302B46194654
:1024E000064803F0CDFF9DF807402B4619460348E8
:1024F00003F0DAFF2346184603B030BDD1240100B3
:1025000030B583B0754603468DF807302B46194623
:10251000064803F0B5FF9DF807402B4619460348CF
:1025200003F0C2FF2346184603B030BD0125010069
:1025300070B598B074460190084611461A46034695
:102540008DF803300B468DF8023013468DF80130BC
:1025500023461946754803F093FF019BDB6A184632
:10256000FFF7A4FD03461793019B181D179B9B00C3
:102570006F4A13441946FFF77BFB9DF80230022B8C
:1025800002D107238DF801306A4A179B52F8233095
:102590001E689DF801301846FFF782FF0346194672
:1025A000644A179B52F8235008960B468DF81F304B
:1025B0000023069304230593234619465E4803F03F
:1025C0005FFF4FF0FF33049320230393059BC3F178
:1025D00020034FF0FF3222FA03F30293029A069B84
:1025E00002FA03F3DB43089A134008939DF81F2077
:1025F000029B1A40069B02FA03F3089A13430893BE
:10260000089E234619464C4803F04EFF2E60494A67
:10261000179B52F823301E689DF802301846FFF7CA
:1026200057FF03461946434A179B52F823500F960B
:102630000B468DF83B3004230D9302230C93234665
:1026400019463D4803F01CFF4FF0FF330B93202346
:102650000A930C9BC3F120034FF0FF3222FA03F3DD
:102660000993099A0D9B02FA03F3DB430F9A134077
:102670000F939DF83B20099B1A400D9B02FA03F330
:102680000F9A13430F930F9E234619462A4803F0CF
:102690000BFF2E60274A179B52F823305E689DF887
:1026A00003301846FFF72CFF03461946214A179BB3
:1026B00052F8235016960B468DF857300223149388
:1026C00001231393234619461B4803F0D9FE4FF00C
:1026D000FF33129320231193139BC3F120034FF078
:1026E000FF3222FA03F31093109A149B02FA03F3B9
:1026F000DB43169A134016939DF85720109B1A40FF
:10270000149B02FA03F3169A13431693169E23465C
:102710001946094803F0C8FE6E602346194603486F
:1027200003F0C2FE00BF18B070BD00BF312501002C
:102730002C9B0100500000108D4A010070B596B02E
:102740007446019023461946504803F099FE002331
:10275000ADF85630019BDB6A1846FFF7A7FC03462D
:102760001493019B181D149B9B00494A134419465E
:10277000FFF77EFA474A149B52F823301B680793F1
:10278000002306930423059323461946424803F089
:1027900077FE4FF0FF33049320230393059BC3F18F
:1027A00020034FF0FF3222FA03F30293079A069BAD
:1027B000DA40029B02EA030523461946364803F035
:1027C00073FEADB2334A149B52F823301B680D934D
:1027D00004230C9302230B93234619462E4803F03F
:1027E0004FFE4FF0FF330A93202309930B9BC3F155
:1027F00020034FF0FF3222FA03F308930D9A0C9B4B
:10280000DA40089B02EA030623461946224803F0F1
:102810004BFEB3B25B019BB22B449DB21D4A149B8D
:1028200052F823305B681393022312930123119310
:1028300023461946184803F023FE4FF0FF33109348
:1028400020230F93119BC3F120034FF0FF3222FA94
:1028500003F30E93139A129BDA400E9B02EA0306CF
:10286000234619460C4803F01FFEB3B21B029BB26D
:102870002B44ADF85630BDF8565023461946034850
:1028800003F012FE2B46184616B070BD3D2701001E
:102890002C9B010050000010014B010070B598B056
:1028A00074460190084611461A4603468DF80330D7
:1028B0000B468DF8023013468DF801302346194639
:1028C0006C4803F0DDFD019BDB6A1846FFF7EEFB69
:1028D00003461793019B181D179B9B00664A1344E0
:1028E0001946FFF7C5F9654A179B52F823301B6854
:1028F0006249179A51F8225008939DF803308DF8D9
:102900001F300623069301230593234619465C488E
:1029100003F0B6FD4FF0FF33049320230393059B90
:10292000C3F120034FF0FF3222FA03F30293029A1D
:10293000069B02FA03F3DB43089A134008939DF8C1
:102940001F20029B1A40069B02FA03F3089A1343C6
:102950000893089E23461946494803F0A5FD2E60BA
:10296000464A179B52F823301B684449179A51F87E
:1029700022500F939DF802308DF83B3007230D93C2
:1029800001230C93234619463D4803F079FD4FF08F
:10299000FF330B9320230A930C9BC3F120034FF0CA
:1029A000FF3222FA03F30993099A0D9B02FA03F30B
:1029B000DB430F9A13400F939DF83B20099B1A406D
:1029C0000D9B02FA03F30F9A13430F930F9E2346B6
:1029D00019462B4803F068FD2E60284A179B52F8D1
:1029E00023301B682549179A51F8225016939DF8F9
:1029F00001308DF85730082314930823139323468E
:102A00001946204803F03CFD4FF0FF33129320237A
:102A10001193139BC3F120034FF0FF3222FA03F30B
:102A20001093109A149B02FA03F3DB43169A134097
:102A300016939DF85720109B1A40149B02FA03F33B
:102A4000169A13431693169E234619460D4803F013
:102A50002BFD2E60094A179B52F823309DF87020F9
:102A60001A6123461946034803F01EFD00BF18B043
:102A700070BD00BF9D2801002C9B0100500000107C
:102A8000554B01008D4A010070B594B07446019019
:102A900023461946584803F0F3FC00231393019B87
:102AA000DB6A1846FFF702FB03461293019B181DD1
:102AB000129B9B00514A13441946FFF7D9F8504A1C
:102AC000129B52F823301B690793002306930823B7
:102AD0000593234619464B4803F0D2FC4FF0FF33D1
:102AE000049320230393059BC3F120034FF0FF328F
:102AF00022FA03F30293079A069BDA40029B02EA4A
:102B00000305234619463F4803F0CEFC3C4A129B7E
:102B100052F823301B680D9308230C9308230B9362
:102B200023461946374803F0ABFC4FF0FF330A93B6
:102B3000202309930B9BC3F120034FF0FF3222FAAD
:102B400003F308930D9A0C9BDA40089B02EA0306F4
:102B5000234619462B4803F0A7FC33021D44284A9C
:102B6000129B52F823301B680F9307230E932346C2
:102B70001946254803F084FC01220E9B02FA03F358
:102B80001A460F9B1340002B14BF01230023DEB213
:102B9000234619461C4803F087FC33461B041D449A
:102BA000174A129B52F823301B6811930623109387
:102BB00023461946144803F063FC0122109B02FAD5
:102BC00003F31A46119B1340002B14BF012300236B
:102BD000DEB2234619460C4803F066FC33469B04DC
:102BE0002B441393139D23461946034803F05CFCC2
:102BF0002B46184614B070BD892A01002C9B010099
:102C000050000010014B0100494A010030B583B06B
:102C100075460190084611461A4603468DF8033062
:102C20000B468DF8023013468DF801302B461946BD
:102C30001A4803F025FC019A13789DF8201061F3DF
:102C400000031370019A13789DF8031061F3410398
:102C50001370019A13789DF8021061F382031370C8
:102C6000019A13789DF8011061F3C3031370019A60
:102C700013786FF307131370019B9DF81C205A7093
:102C8000019B9DF818209A70019C2B461946034819
:102C900003F00AFC2346184603B030BD0D2C01009A
:102CA00030B583B0754601902B461946154803F0A0
:102CB000E7FB019A13786FF300031370019A1378FE
:102CC0006FF341031370019A13786FF3820313704B
:102CD000019A13786FF3C3031370019A13786FF39B
:102CE00007131370019B00225A70019B00229A70F7
:102CF000019C2B461946034803F0D6FB2346184691
:102D000003B030BDA12C010010B582B07446019013
:102D100023461946054803F0B3FB234619460348EA
:102D200003F0C2FB00BF02B010BD00BF092D0100BF
:102D300010B582B07446019023461946054803F049
:102D40009FFB23461946034803F0AEFB00BF02B0C9
:102D500010BD00BF312D010010B582B07446019046
:102D600023461946054803F08BFB234619460348C2
:102D700003F09AFB00BF02B010BD00BF592D010047
:102D800030B583B0754601902B461946074803F0CD
:102D900077FB074A019B1A60019C2B4619460348A2
:102DA00003F082FB2346184603B030BD812D01009D
:102DB000A89B010030B583B0754601902B4619469B
:102DC0001F4803F05DFB019B1846FFF7D9FF1D4A22
:102DD000019B1A60019B03F11002019B5A60019B49
:102DE00003F14002019B9A60019B03F15402019B95
:102DF000DA60019B103301211846FFF7CDF9019BE2
:102E00004033162201211846FEF7D6F9019B5433B0
:102E1000192201211846FEF7CFF9019B683340F2D1
:102E2000C1620021184606F0D5F9019C2B461946CF
:102E3000034803F039FB2346184603B030BD00BFFA
:102E4000B52D01007C9B010030B583B07546019023
:102E50002B461946064803F013FB80242B461946DF
:102E6000034803F021FB2346184603B030BD00BFE2
:102E7000492E010030B583B0754601902B461946A6
:102E8000064803F0FDFA40242B461946034803F098
:102E90000BFB2346184603B030BD00BF752E010062
:102EA00010B588B07446059023461946154803F0BE
:102EB000E7FA07A80123029301230193012300935A
:102EC000012301220121FFF7A1FE06AB07AA126828
:102ED000114619800233120C1A702346194609480C
:102EE00003F0E2FA00239DF8182062F307039DF82F
:102EF000192062F30F239DF81A2062F31743184636
:102F000008B010BDA12E010010B586B07446039024
:102F1000029101920093234619461E4803F0B0FA2D
:102F2000039BDB68019AD2B211461846FEF784FA79
:102F3000039B9B681846FEF74DFA00230593059AFC
:102F4000009B9A4218D2009A059BD31A03F10053B2
:102F5000013BDB00029A22FA03F38DF81330039B46
:102F60005B689DF8132092B211461846FFF734FAB9
:102F7000059B01330593E2E7039B9B681846FEF728
:102F8000F7F923461946034803F08EFA00BF06B04E
:102F900010BD00BF092F010010B582B0744601902A
:102FA00023461946374803F06BFA01230022AE216D
:102FB0000198FFF7A9FF022300224DF280510198EA
:102FC000FFF7A2FF022300224AF63F010198FFF714
:102FD0009BFF022300224FF453410198FFF794FF17
:102FE0000123002240210198FFF78EFF02230022D7
:102FF00048F614510198FFF787FF01230022A12111
:103000000198FFF781FF01230022C8210198FFF7F3
:103010007BFF022300224DF612210198FFF774FF77
:103020000223002248F2CF110198FFF76DFF02231F
:1030300000224DF6F1110198FFF766FF02230022EE
:103040004DF640310198FFF75FFF019800F05EF800
:1030500001230022A4210198FFF756FF012300223B
:10306000A6210198FFF750FF01230022AF2101980C
:10307000FFF74AFF23461946024803F015FA00BF3E
:1030800002B010BD992F010010B584B074460390B2
:10309000234619461C4803F0F3F9039B9B68184626
:1030A000FEF706F9039BDB681846FEF701F9039B60
:1030B0009B681846FEF75CF9039BDB681846FEF731
:1030C00057F9039B5868072300220021FFF730FAC5
:1030D000039B586810230093012300220021FFF76F
:1030E000DDFB039B5B681846FFF7C8F8039800F008
:1030F00037F80398FFF750FF23461946024803F0BC
:10310000D3F900BF04B010BD8930010010B582B002
:1031100074460190234619460E4803F0B1F9022384
:1031200000224FF400510198FFF7EEFE0323002226
:1031300009490198FFF7E8FE032300220749019897
:10314000FFF7E2FE23461946024803F0ADF900BF3F
:1031500002B010BD0D3101007F00210007002200E8
:1031600010B582B07446019023461946094803F011
:1031700087F9019B683340F2C1620021184606F0CE
:1031800029F823461946034803F08EF900BF02B020
:1031900010BD00BF6131010010B58CB074460390C2
:1031A000029101920093234619461F4803F068F9E3
:1031B000019B03F007030B93019BDB100A93012291
:1031C0000B9B02FA03F3DB4309939DF80230002BBB
:1031D00014BF012300238DF823309DF823200B9B7F
:1031E00002FA03F307930A9A13465B0113449B0008
:1031F0001344029A13446833039A13440693069BBC
:103200001B781A46099B1340079A13430593059BA5
:10321000DAB2069B1A7023461946034803F044F9B4
:1032200000BF0CB010BD00BF9931010010B584B0D3
:103230007446019023461946184803F021F9019875
:10324000FFF764FF00230393039B072B1ED8002383
:103250000293029B7F2B15D80199039A13465B01B9
:1032600013449B001344CA18029B134468331B7811
:103270001946012301220198FFF746FE029B013304
:103280000293E6E7039B01330393DDE723461946E8
:10329000024803F009F900BF04B010BD2D3201004F
:1032A00030B583B07546019000912B4619461E48F3
:1032B00003F0E6F8019B009A1A60019B043318465C
:1032C000FFF7EEFC019B00229A60019B0022DA606E
:1032D000009B1B681B68009898470246019B9A60F8
:1032E000009B1B6804331B68009898470246019BAB
:1032F000DA60009B1B6808331B68019C00989847A4
:1033000003461A462271C3F307226271C3F30743CF
:10331000A371019C2B461946034803F0C5F82346C8
:10332000184603B030BD00BFA132010010B582B015
:1033300074460190234619460E4803F0A1F8019BFC
:103340001A68019B1B681B680C331B681046984762
:10335000019B1A68019B1B681B6810331B68104691
:10336000984723461946034803F09EF800BF02B071
:1033700010BD00BF2D33010010B58EB0744607900C
:10338000069105928DF8133023461946374803F00D
:1033900077F89DF813300B93079A0AAB0432126842
:1033A000114619800233120C1A7009A801230293E6
:1033B0000123019300230093002300220021FFF743
:1033C00025FC00230D930D9B072B3DDC00230C9364
:1033D0000C9B072B34DC264A0B9BDB001A440D9B0D
:1033E00013441B781A460C9B42FA03F303F00103C3
:1033F000002B09D0079B04330AAA126811461980D2
:103400000233120C1A700CE09DF84030002B08D0EB
:10341000079B043309AA1268114619800233120C63
:103420001A70069A0C9B13441946059A0D9B134477
:103430001A46079800F01EF80C9B01330C93C7E75F
:103440000D9B01330D93BEE7079B04330AAA126854
:10345000114619800233120C1A702346194603488C
:1034600003F022F800BF0EB010BD00BF7933010099
:103470005C00001030B585B0754603900291019252
:103480002B461946104802F0FBFF039B9B68029AEB
:103490009A4210D8039BDB68019A9A420BD8039B8F
:1034A0001868039B1B681B681C331C680299019AEF
:1034B000039B5B68A0472B461946034802F0F4FFC4
:1034C00000BF05B030BD00BF7534010010B582B03B
:1034D0007446019023461946094802F0D1FF019B2A
:1034E0001A68019B1B681B6820331B6810469847AD
:1034F00023461946024802F0D7FF00BF02B010BDB4
:10350000CD34010010B582B07446019023461946AF
:10351000094802F0B5FF019B1A68019B1B681B68F4
:1035200018331B681046984723461946024802F094
:10353000BBFF00BF02B010BD0535010010B582B061
:1035400074460190234619460E4802F099FF019BEC
:1035500003F22C731846FFF7E9FE019B03F22C736C
:103560001846FFF7CFFF019B03F22C731846FFF7B5
:10357000ADFF23461946034802F096FF00BF02B094
:1035800010BD00BF3D3501000EB430B5C6B0754664
:1035900001AB18602B461946504802F071FF4AAA49
:1035A00002AB1A6002AB03A81B68499A4FF4807102
:1035B00004F008FA0346449300234593459A449B3C
:1035C0009A4253D203AA459B13441B788DF80F31BE
:1035D0009DF80F310A2B0ED101AB1B680022C3F8F6
:1035E000402701AB1B68D3F83C375A1C01AB1B6862
:1035F000C3F83C2736E001AB1B68D3F83C2701AB8E
:103600001B68D3F84437134403F0070201AB1B686F
:10361000D3F8403701A9096812010A44134403F59D
:10362000E9639DF80F211A7001AB1B68D3F840378E
:103630005A1C01AB1B68C3F8402701AB1B68D3F8C9
:1036400040370F2B0DD901AB1B680022C3F8402770
:1036500001AB1B68D3F83C375A1C01AB1B68C3F89D
:103660003C2700BF459B01334593A7E701AB186892
:1036700000F05AF801AB1B68D3F83C37072B1FD971
:1036800001AB1B68D3F84437013303F0070201ABE9
:103690001B68C3F8442701AB1B680722C3F83C270B
:1036A00001AB1B68D3F83C2701AB1B68D3F8443748
:1036B000134403F0070201AB1146186800F082F8CA
:1036C000459C2B461946054802F0EEFE2346184657
:1036D00046B0BDE8304003B0704700BF89350100F7
:1036E00030B585B075460390029101922B4619467C
:1036F0000C4802F0C5FE039B029AC3F84027039BC7
:10370000019AC3F83C27039B0022C3F84427039C7B
:103710002B461946034802F0C7FE2346184605B05B
:1037200030BD00BFE136010030B589B07546039069
:103730002B461946224802F0A3FE00230793079B5D
:10374000072B2CD800230693069B0F2B23D8069B10
:10375000DB000593079BDB000493039B03F22C70B3
:103760000599049C039BD3F84427079B134403F05B
:103770000703039A1B011A44069B134403F5E963EC
:103780001A780123009313462246FFF7F5FD069BA6
:1037900001330693D8E7079B01330793CFE7039BD9
:1037A00003F22C731846FFF791FE039C2B46194633
:1037B000034802F079FE2346184609B030BD00BF29
:1037C0002937010010B584B074460190009123465A
:1037D00019460F4802F054FE00230393039B0F2B5E
:1037E0000DD8019A009B1B011A44039B134403F557
:1037F000E96320221A70039B01330393EEE723460B
:103800001946034802F050FE00BF04B010BD00BFCF
:10381000C537010010B582B07446019023461946A1
:10382000114802F02DFE019B03F22C731846FFF79E
:1038300069FE019B03F5E96380220021184605F02B
:10384000C9FC002200210198FFF74AFF019B03F207
:103850002C731846FFF73AFE23461946024802F039
:1038600023FE00BF02B010BD1538010030B583B093
:10387000754601902B461946164802F001FE019B41
:103880001846FFF797FA019B03F22C73019A114631
:103890001846FFF705FD019B0022C3F83C27019B5A
:1038A0000022C3F84027019B0022C3F84427019B54
:1038B00003F5E96380220021184605F08BFC019C8A
:1038C0002B461946034802F0EFFD2346184603B085
:1038D00030BD00BF6D38010000B583B07346194696
:1038E000194802F0CDFD2F23184A1949194804F050
:1038F00043F81948FFF722FE1848FCF747FF18481D
:10390000FCF744FF01238DF807309DF80730002BAA
:1039100001D000F02FF8134B1B68012BF5D1124B8F
:103920001B68052BF1D1114B1B6803F00303002B1F
:10393000EBD10F4B1B68052BE7D100238DF8073027
:1039400000F0DEF8E1E700BFD9380100909D0100EA
:10395000389B01002C980100F40B00108807001020
:1039600080070010900700109407001098070010BF
:103970009C07001010B57446234619464A4802F0C9
:103980007FFD4A48FCF7E4FD0346002B1CD04FF0B6
:103990000A004FF00001FDF7DDFB4448FCF7D8FDBD
:1039A000034683F00103DBB2002B0DD05E23404AB7
:1039B0004049414803F0E0FF4048FCF75BFE404BC4
:1039C0001B6801333E4A13603E48FCF7C1FD0346C5
:1039D000002B1CD04FF00A004FF00001FDF7BAFB9E
:1039E0003848FCF7B5FD034683F00103DBB2002B3A
:1039F0000DD069232E4A3449344803F0BDFF3448C2
:103A0000FCF738FE334B1B680133324A13603248EF
:103A1000FCF79EFD0346002B1CD04FF00A004FF030
:103A20000001FDF797FB2C48FCF792FD034683F05D
:103A30000103DBB2002B0DD074231D4A274928480F
:103A400003F09AFF2748FCF715FE274B1B6801334C
:103A5000254A13602548FCF77BFD0346002B1CD04C
:103A60004FF00A004FF00001FDF774FB1F48FCF710
:103A70006FFD034683F00103DBB2002B0DD07E23E4
:103A80000B4A1B491B4803F077FF1B48FCF7F2FD6C
:103A90001A4B1B680133194A136023461946024822
:103AA00002F002FD00BF10BD75390100880700104B
:103AB0009C9D0100449B0100049901008C070010AB
:103AC0009007001080070010509B010050990100E2
:103AD0008407001094070010780700105C9B010019
:103AE0009C9901007C0700109807001070070010D7
:103AF000689B0100E8990100740700109C07001002
:103B000010B5744623461946764802F0B9FC764B48
:103B10003F221A70754B3F221A707548FCF718FD4A
:103B20000346002B48D04FF096004FF00001FDF700
:103B300011FB704B1B6801336E4A13606D4B1B68A1
:103B4000022B11DD6C496D48FFF71EFD6C4B1B68A5
:103B5000664A2D21D1546A4B1B680133684A1360B1
:103B6000644B4FF0FF321A606148FCF7F1FC0346EA
:103B700083F00103DBB2002B0AD05E4B1B68002BE5
:103B800006D05C4B1B68B3F1FF3F01D0012300E07E
:103B90000023002B10D05B495848FFF7F5FC584B29
:103BA0001B68524A2E21D154554B1B680133544A8D
:103BB0001360504B00221A605348FCF7C9FC0346BF
:103BC000002B42D04FF00A004FF00001FDF7C2FA7F
:103BD0004D48FCF7BDFC034683F00103DBB2002B2C
:103BE00033D04A4B01221A60484B1A68444B1B6879
:103BF0009A420EDC454B1B683C4AD35C184602F0E7
:103C0000F3FB00F08FF8414B1B6801333F4A136010
:103C1000EAE70A2002F0E8FB3C4B01221A603B4B2A
:103C20001A683B4B1B689A420CDC384B1B682E4AC7
:103C3000D35C184602F0D8FB344B1B680133334A7F
:103C40001360ECE72D48FFF7E5FD3248FCF780FCF8
:103C50000346002B1CD04FF00A004FF00001FDF787
:103C600079FA2C48FCF774FC034683F00103DBB2BD
:103C7000002B0DD028492148FFF786FC204B1B68FC
:103C80001A4A2621D1541E4B1B6801331C4A13606B
:103C90002248FCF75DFC0346002B1CD04FF00A00C5
:103CA0004FF00001FDF756FA1C48FCF751FC0346A3
:103CB00083F00103DBB2002B0DD019490F48FFF749
:103CC00063FC0F4B1B68094A7C21D1540C4B1B68C9
:103CD00001330B4A136023461946024802F0E4FB05
:103CE00000BF10BD013B0100900B0010A8070010A1
:103CF00070070010A4070010349A0100F40B0010A4
:103D00005C040010389A010078070010A00700102A
:103D100060040010800700103C9A01008807001022
:103D2000409A010010B5744623461946934802F0A4
:103D3000A7FB934B1B68934AD35C7C2B09D1924B16
:103D40001B68924A2021D1548F4B1B6801338E4A45
:103D500013608B4B1B68033B8A4AD35C262B0DD028
:103D6000874B1B68033B874AD35C7C2B06D0844B74
:103D70001B68033B834AD35C3F2B1DD1804B1B68E0
:103D8000023B804AD35C2E2B16D17D4B1B68013B36
:103D90007C4AD35C2D2B0FD1794B1B68794AD35CBD
:103DA000262B09D1784B1B68784A6121D154764B78
:103DB0001B680133744A1360714B1B68053B714AE1
:103DC000D35C262B0DD06E4B1B68053B6D4AD35C34
:103DD0007C2B06D06A4B1B68053B6A4AD35C3F2BA1
:103DE0002BD1674B1B68043B664AD35C2D2B24D137
:103DF000634B1B68033B634AD35C2E2B1DD1604B86
:103E00001B68023B5F4AD35C2E2B16D15C4B1B68B0
:103E1000013B5C4AD35C2E2B0FD1594B1B68594A8E
:103E2000D35C262B09D1584B1B68584A6221D154C8
:103E3000554B1B680133544A1360514B1B68053BBB
:103E4000504AD35C262B0DD04D4B1B68053B4D4A89
:103E5000D35C7C2B06D04A4B1B68053B494AD35C9C
:103E60003F2B2BD1464B1B68043B464AD35C2D2B82
:103E700024D1434B1B68033B424AD35C2E2B1DD1FC
:103E80003F4B1B68023B3F4AD35C2D2B16D13C4B6A
:103E90001B68013B3B4AD35C2E2B0FD1384B1B6870
:103EA000384AD35C262B09D1374B1B68374A63212C
:103EB000D154354B1B680133334A1360304B1B68B8
:103EC000043B304AD35C262B0DD02D4B1B68043BA2
:103ED0002C4AD35C7C2B06D0294B1B68043B294A17
:103EE000D35C3F2B24D1264B1B68033B254AD35C74
:103EF0002D2B1DD1224B1B68023B224AD35C2E2B5B
:103F000016D11F4B1B68013B1E4AD35C2E2B0FD1D1
:103F10001B4B1B681B4AD35C262B09D11A4B1B6811
:103F20001A4A6421D154184B1B680133164A136096
:103F3000134B1B68023B134AD35C262B0DD0104B4E
:103F40001B68023B0F4AD35C3F2B06D00C4B1B680F
:103F5000023B0C4AD35C7C2B22D1094B1B68013BF2
:103F6000084AD35C2E2B1BD1054B1B68054AD35C3A
:103F7000262B15D1044B1B680AE000BF253D01002C
:103F8000A0070010A807001060040010900B00109C
:103F9000934A6521D154934B1B680133914A1360B6
:103FA000914B1B68053B914AD35C262B0DD08E4B61
:103FB0001B68053B8D4AD35C7C2B06D08A4B1B6863
:103FC000053B8A4AD35C3F2B2BD1874B1B68043BB4
:103FD000864AD35C2E2B24D1834B1B68033B834A38
:103FE000D35C2E2B1DD1804B1B68023B7F4AD35CD8
:103FF0002D2B16D17C4B1B68013B7C4AD35C2E2BAE
:104000000FD1794B1B68794AD35C262B09D1754BAC
:104010001B68734A6621D154724B1B680133714A85
:104020001360714B1B68053B704AD35C262B0DD087
:104030006D4B1B68053B6D4AD35C7C2B06D06A4BED
:104040001B68053B694AD35C3F2B2BD1664B1B6831
:10405000043B664AD35C2E2B24D1634B1B68033B85
:10406000624AD35C2E2B1DD15F4B1B68023B5F4A1B
:10407000D35C2E2B16D15C4B1B68013B5B4AD35C97
:104080002E2B0FD1584B1B68584AD35C262B09D1D5
:10409000544B1B68524A6821D154524B1B68013360
:1040A000504A1360504B1B68033B504AD35C262B8D
:1040B0000DD04D4B1B68033B4C4AD35C7C2B06D088
:1040C000494B1B68033B494AD35C3F2B1DD1464BF0
:1040D0001B68023B454AD35C2E2B16D1424B1B6812
:1040E000013B424AD35C2E2B0FD13F4B1B683F4A0A
:1040F000D35C262B09D13B4B1B68394A6921D1542B
:10410000384B1B680133374A1360374B1B68053B3C
:10411000364AD35C262B0DD0334B1B68053B334A04
:10412000D35C7C2B06D0304B1B68053B2F4AD35CFD
:104130003F2B2BD12C4B1B68043B2C4AD35C2E2BE2
:1041400024D1294B1B68033B284AD35C2D2B1DD15E
:10415000254B1B68023B254AD35C2D2B16D1224BE5
:104160001B68013B214AD35C2D2B0FD11E4B1B68D2
:104170001E4AD35C262B09D11A4B1B68184A6A21A8
:10418000D154184B1B680133164A1360164B1B6839
:10419000043B164AD35C262B0DD0134B1B68043B03
:1041A000124AD35C7C2B06D00F4B1B68043B0F4A92
:1041B000D35C3F2B2DD10C4B1B68033B0B4AD35CCC
:1041C0002D2B26D1084B1B68023B084AD35C2E2BB3
:1041D0001FD1054B1B68013B044AD35C2D2B07E024
:1041E000900B001060040010A0070010A80700103A
:1041F0000FD1934B1B68934AD35C262B09D1924B6A
:104200001B68924A6B21D1548F4B1B6801338E4A35
:1042100013608B4B1B68053B8A4AD35C262B0DD061
:10422000874B1B68053B874AD35C7C2B06D0844BAD
:104230001B68053B834AD35C3F2B2BD1804B1B680B
:10424000043B804AD35C2E2B24D17D4B1B68033B5F
:104250007C4AD35C2D2B1DD1794B1B68023B794ADC
:10426000D35C2E2B16D1764B1B68013B754AD35C71
:104270002E2B0FD1724B1B68724AD35C262B09D1AF
:10428000714B1B68714A6C21D1546F4B1B68013311
:104290006D4A13606A4B1B68033B6A4AD35C262B4A
:1042A0000DD0674B1B68033B664AD35C7C2B06D062
:1042B000634B1B68033B634AD35C3F2B1DD1604BB0
:1042C0001B68023B5F4AD35C2D2B16D15C4B1B68ED
:1042D000013B5C4AD35C2D2B0FD1594B1B68594ACB
:1042E000D35C262B09D1584B1B68584A6D21D154F9
:1042F000554B1B680133544A1360514B1B68033BF9
:10430000504AD35C262B0DD04D4B1B68033B4D4AC6
:10431000D35C7C2B06D04A4B1B68033B494AD35CD9
:104320003F2B1DD1464B1B68023B464AD35C2D2BCD
:1043300016D1434B1B68013B424AD35C2E2B0FD155
:104340003F4B1B683F4AD35C262B09D13E4B1B6871
:104350003E4A6E21D1543C4B1B6801333A4A1360EC
:10436000374B1B68043B374AD35C262B0DD0344BAC
:104370001B68043B334AD35C7C2B06D0304B1B6854
:10438000043B304AD35C3F2B24D12D4B1B68033BAD
:104390002C4AD35C2D2B1DD1294B1B68023B294A8B
:1043A000D35C2D2B16D1264B1B68013B254AD35CD1
:1043B0002D2B0FD1224B1B68224AD35C262B09D10F
:1043C000214B1B68214A6F21D1541F4B1B680133BD
:1043D0001D4A13601A4B1B68053B1A4AD35C262BF7
:1043E0000DD0174B1B68053B164AD35C7C2B06D0BF
:1043F000134B1B68053B134AD35C3F2B34D1104B46
:104400001B68043B0F4AD35C2E2B2DD10C4B1B6831
:10441000033B0C4AD35C2D2B26D1094B1B68023B76
:10442000084AD35C2D2B1FD1054B1B68013B054A65
:10443000D35C2E2B18D1024B1B68024AD35C07E0D9
:10444000A0070010A807001060040010900B0010D7
:10445000262B09D1924B1B68924A7021D154904B64
:104460001B6801338E4A13608F4B1B68053B8F4AD4
:10447000D35C262B0DD08C4B1B68053B8B4AD35C41
:104480007C2B06D0884B1B68053B884AD35C3F2BAE
:104490002BD1854B1B68043B844AD35C2D2B24D144
:1044A000814B1B68033B814AD35C2D2B1DD17E4B76
:1044B0001B68023B7D4AD35C2E2B16D17A4B1B68BE
:1044C000013B7A4AD35C2D2B0FD1774B1B68774A7F
:1044D000D35C262B09D1724B1B68724A7121D154CF
:1044E0006F4B1B6801336E4A13606F4B1B68043BB4
:1044F0006E4AD35C262B0DD06B4B1B68043B6B4A7A
:10450000D35C7C2B06D0684B1B68043B674AD35CAA
:104510003F2B24D1644B1B68033B644AD35C2E2B96
:104520001DD1614B1B68023B604AD35C2D2B16D119
:104530005D4B1B68013B5D4AD35C2E2B0FD15A4B60
:104540001B685A4AD35C262B09D1554B1B68554A28
:104550007221D154524B1B680133514A1360524BA4
:104560001B68043B514AD35C262B0DD04E4B1B6875
:10457000043B4E4AD35C7C2B06D04B4B1B68043B60
:104580004A4AD35C3F2B24D1474B1B68033B474A25
:10459000D35C2E2B1DD1444B1B68023B434AD35C9A
:1045A0002E2B16D1404B1B68013B404AD35C2E2B6F
:1045B0000FD13D4B1B683D4AD35C262B09D1384BAC
:1045C0001B68384A7321D154354B1B680133344A78
:1045D0001360354B1B68023B344AD35C262B0DD04D
:1045E000314B1B68023B314AD35C3F2B06D02E4B2C
:1045F0001B68023B2D4AD35C7C2B16D12A4B1B68CF
:10460000013B2A4AD35C2D2B0FD1274B1B68274A2D
:10461000D35C262B09D1224B1B68224A7421D1542A
:104620001F4B1B6801331E4A13601F4B1B68043B62
:104630001E4AD35C262B0DD01B4B1B68043B1B4A28
:10464000D35C7C2B06D0184B1B68043B174AD35C09
:104650003F2B2DD1144B1B68033B144AD35C2E2BEC
:1046600026D1114B1B68023B104AD35C2E2B1FD165
:104670000D4B1B68013B0D4AD35C2D2B18D10A4B07
:104680001B680A4AD35C262B12D1054B1B68054ACE
:104690007521D154024B1B680133014A136007E0B6
:1046A00060040010900B0010A0070010A807001075
:1046B000934B1B68053B934AD35C262B0DD0904B44
:1046C0001B68053B8F4AD35C7C2B06D08C4B1B6848
:1046D000053B8C4AD35C3F2B2BD1894B1B68043B99
:1046E000884AD35C2E2B24D1854B1B68033B854A1B
:1046F000D35C2E2B1DD1824B1B68023B814AD35CBD
:104700002E2B16D17E4B1B68013B7E4AD35C2D2B92
:104710000FD17B4B1B687B4AD35C262B09D17A4B8C
:104720001B687A4A7621D154774B1B680133764A4D
:104730001360734B1B68043B724AD35C262B0DD06D
:104740006F4B1B68043B6F4AD35C7C2B06D06C4BD1
:104750001B68043B6B4AD35C3F2B24D1684B1B681E
:10476000033B684AD35C2E2B1DD1654B1B68023B73
:10477000644AD35C2D2B16D1614B1B68013B614A07
:10478000D35C2D2B0FD15E4B1B685E4AD35C262B6E
:1047900009D15D4B1B685D4A7721D1545A4B1B6888
:1047A0000133594A1360564B1B68053B554AD35C8D
:1047B000262B0DD0524B1B68053B524AD35C7C2BF9
:1047C00006D04F4B1B68053B4E4AD35C3F2B2BD189
:1047D0004B4B1B68043B4B4AD35C2D2B24D1484BDD
:1047E0001B68033B474AD35C2E2B1DD1444B1B68EF
:1047F000023B444AD35C2E2B16D1414B1B68013B34
:10480000404AD35C2D2B0FD13D4B1B683D4AD35CF6
:10481000262B09D13C4B1B683C4A7821D1543A4B9A
:104820001B680133384A1360354B1B68053B354A1A
:10483000D35C262B0DD0324B1B68053B314AD35C31
:104840007C2B06D02E4B1B68053B2E4AD35C3F2B9E
:104850002BD12B4B1B68043B2A4AD35C2D2B24D134
:10486000274B1B68033B274AD35C2E2B1DD1244BBF
:104870001B68023B234AD35C2D2B16D1204B1B68AF
:10488000013B204AD35C2D2B0FD11D4B1B681D4AC9
:10489000D35C262B09D11C4B1B681C4A7921D154AF
:1048A000194B1B680133184A1360154B1B68053BF5
:1048B000144AD35C262B0DD0114B1B68053B114AC3
:1048C000D35C7C2B06D00E4B1B68053B0D4AD35C9A
:1048D0003F2B34D10A4B1B68043B0A4AD35C2D2B77
:1048E0002DD1074B1B68033B064AD35C2D2B26D1E9
:1048F000034B1B68023B034AD35C2E2B1FD107E0FE
:10490000A0070010A807001060040010900B001012
:104910000E4B1B68013B0E4AD35C2E2B0FD10B4B69
:104920001B680B4AD35C262B09D10A4B1B680A4A29
:104930007A21D154074B1B680133064A1360234682
:104940001946064801F0B0FD00BF10BDA0070010D9
:10495000A807001060040010900B0010253D010016
:104960002DE9304888B07546CDE902018DF8042064
:104970002B461946244801F083FD4FF000034FF009
:104980000004CDE90634DDE90234B4F1FF3F08BF8D
:10499000B3F1FF3F06D14FF0FF334FF0FF34CDE9C5
:1049A00006340BE0FCF726FB0A460146DDE902343B
:1049B00013EB010B44EB020CCDE906BC012305937C
:1049C000FCF718FB0A460146DDE90634A24208BF9F
:1049D000994234BF01230023DBB2002B08D001AB86
:1049E0001846FCF729FB0346002BE9D0002305936A
:1049F000059C2B461946044801F056FD23461846EF
:104A000008B0BDE8308800BF6149010030B583B00F
:104A10007546019000912B4619460A4801F030FD79
:104A20000122009B02FA03F31A46019B42EA0304A7
:104A30002B461946034801F037FD2346184603B0BC
:104A400030BD00BF0D4A010030B583B075460190FE
:104A500000912B4619460C4801F012FD0122009BE3
:104A600002FA03F31A46019B1340002B14BF0123E3
:104A70000023DCB22B461946034801F015FD2346FE
:104A8000184603B030BD00BF494A010030B589B0B7
:104A900075460390019200930B468DF80B302B4620
:104AA0001946164801F0ECFC4FF0FF330793202322
:104AB0000693009BC3F120034FF0FF3222FA03F369
:104AC0000593059A019B02FA03F3DB43039A134013
:104AD00003939DF80B20059B1A40019B02FA03F3F8
:104AE000039A13430393039C2B461946034801F092
:104AF000DBFC2346184609B030BD00BF8D4A0100DB
:104B000030B589B075460390029101922B46194643
:104B10000F4801F0B5FC4FF0FF33079320230693B5
:104B2000019BC3F120034FF0FF3222FA03F30593F8
:104B3000039A029BDA40059B02EA03042B461946BE
:104B4000034801F0B1FC2346184609B030BD00BF50
:104B5000014B010030B589B0754603900192009376
:104B60000B468DF80B302B461946164801F088FC91
:104B70004FF0FF33079320230693009BC3F12003DC
:104B80004FF0FF3222FA03F30593059A019B02FAD4
:104B900003F3DB43039A134003939DF80B20059B1B
:104BA0001A40019B02FA03F3039A13430393039CF5
:104BB0002B461946034801F077FC2346184609B0F6
:104BC00030BD00BF554B010010B582B07446019056
:104BD0000091234619461F4801F052FC019B012B0E
:104BE0002FD1009B4FF6FF7293422AD11D22002144
:104BF0001948FBF7B9FB122201211848FBF7B4FB57
:104C00001E2200211648FBF7AFFB18220121154890
:104C1000FBF7AAFB0F2201211348FBF7A5FB1A2281
:104C200001211248FBF7A0FB132201211048FBF7DA
:104C30009BFB032202210F48FBF796FB0E48FEF771
:104C400015FE23461946034801F02EFC00BF02B0B2
:104C500010BD00BFC94B01007007001074070010A1
:104C6000780700107C0700108007001084070010F0
:104C7000880700108C070010F40B001010B5744664
:104C800023461946064801F0FBFB4FF6FF71012051
:104C9000FFF79AFF23461946014801F005FC10BDB5
:104CA0007D4C010010B582B0744601902346194630
:104CB000064801F0E5FB064A019B136023461946AE
:104CC000024801F0F1FB00BF02B010BDA54C01008D
:104CD0000400001010B57446234619460A4801F036
:104CE000CFFB0A4B1B6800225A60084B1B6800224E
:104CF0009A60064B1B6800221A6023461946024838
:104D000001F0D2FB00BF10BDD54C010064040010BF
:104D100010B5744623461946084801F0B1FB084B0C
:104D20001B68002B02D0064B1B6898472346194688
:104D3000024801F0B9FB00BF10BD00BF114D0100DA
:104D4000BC13001010B582B0744601900091234648
:104D50001946074801F094FB064A009B136023465E
:104D60001946034801F0A0FB00BF02B010BD00BF10
:104D7000454D0100BC13001030B585B0754601905B
:104D80002B461946204801F07BFB00238DF80F309D
:104D90001E4B1B685B68002B14BF01230023DBB292
:104DA000002B1ED0194B1B6800229A60174B1B6802
:104DB0001A68164B1B6842F002021A60134B1B68FC
:104DC0001A68124B1B6842F001021A600F4B1B68F5
:104DD0001A680E4B1B6842F004021A6001238DF81A
:104DE0000F304FF0FF33012209494FF0FF3001F03F
:104DF0001FFA9DF80F402B461946034801F054FB5B
:104E00002346184605B030BD794D010064040010FA
:104E1000114D010030B585B07546019000912B46CB
:104E200019461F4801F02CFB009B012B01D80024E0
:104E30002DE0019B1A1D019B5B680C331B6810461B
:104E400098470246009BB2FBF3F3013B0393019B9F
:104E50001A1D019B5B680C331B681046984703467C
:104E6000009AB3FBF2F2009901FB02F29B1A029343
:104E7000039BB3F1807F05D36FF07F4303936FF003
:104E80007F430293074B1B68039A5A60029C2B4690
:104E90001946034801F008FB2346184605B030BD0B
:104EA000154E01006404001030B583B0754603460A
:104EB0008DF807302B461946064801F0E1FA9DF8B7
:104EC00007402B461946034801F0EEFA23461846E0
:104ED00003B030BDA94E010010B5744623461946F3
:104EE000044801F0CDFA23461946024801F0DCFAE5
:104EF00000BF10BDD94E010010B586B074460390B6
:104F0000029101920093234619463E4801F0B8FAF7
:104F1000039B181D039B5B6814331B68039A127A6A
:104F2000920039490A4411469847029B002B0DD143
:104F30008423364A3649374802F01EFD364801F0D0
:104F40006FFA00210120FBF7BDFFFEE7039B1A1D4E
:104F5000039B5B6810331B68104698470246029B10
:104F6000B2FBF3F30593039B1B7A1A462B4B53F8C2
:104F70002230DA68039B1B7A1946284B53F82130FC
:104F800002F00102DA60039B1B7A1A46234B53F8A6
:104F90002230D968059B5A00039B1B7A18461F4B89
:104FA00053F820300A43DA60039B1B7A1A461B4BE6
:104FB00053F822305A68039B1B7A1946174B53F853
:104FC000213042F001025A60039B1B7A1946144AB1
:104FD000019B42F82130039B1B7A1A46114B9856CD
:104FE000039B1B7A1A46104B53F82210009B012298
:104FF00001F01EF923461946024801F055FA00BF98
:1050000006B010BDF94E010034A5010034A6010020
:1050100058A5010014A4010020A10100680400109B
:105020000014001044A5010048A5010030B583B06C
:10503000754603468DF807302B461946064801F0A1
:105040001FFA9DF807402B461946034801F02CFA39
:105050002346184603B030BD2D50010070B586B010
:1050600076460390029111461A460B468DF807309A
:1050700013468DF8063033461946324801F000FADF
:105080009DF806301846FFF7D1FF03468DF817301C
:10509000039B1B7A1A462C4B53F822305A699DF811
:1050A0001730072101FA03F3DB431946039B1B7AF0
:1050B0001846254B53F820300A405A61039B1B7A4F
:1050C0001A46214B53F822305A699DF807109DF873
:1050D000173001FA03F31946039B1B7A18461A4B43
:1050E00053F820300A435A61039B1B7A18469DF8F7
:1050F0001730164AA2FB03235B08DBB21946144A99
:1051000083000B4452F823301968029B5A08039B12
:105110001B7A1D469DF817300C48A0FB03035B0863
:10512000DBB21C460A48AB00234450F823300A4344
:105130001A6033461946034801F0B6F900BF06B0BD
:1051400070BD00BF5D50010068040010ABAAAAAAA0
:10515000C013001030B583B0754601902B46194638
:10516000094801F08DF9019B1B7A1A46074B53F849
:1051700022309C682B461946034801F095F92346D6
:10518000184603B030BD00BF55510100680400103F
:1051900010B588B0744601900091234619462D48F9
:1051A00001F06EF980238DF81F30009B07EE903AD6
:1051B000F8EE677ACDED067A02AB9DED060A01990D
:1051C000184600F02DFB029B1B0A8DF81730029B3E
:1051D0008DF81630049BDBB21B01DAB2039BDBB205
:1051E00003F00F03DBB213438DF81530019B1B7ADC
:1051F0001A46194B53F8223080221A73019B1B7AEE
:105200001A46154B53F822309DF817201A71019B4E
:105210001B7A1A46104B53F822309DF816201A704C
:10522000019B1B7A1A460C4B53F822309DF815202F
:1052300083F82820019B1B7A1A46074B53F822302B
:1052400003221A7323461946024801F02DF900BFC4
:1052500008B010BD915101007804001030B585B040
:105260007546019000912B461946304801F008F927
:1052700007238DF80F30019B181D019B5B681433C9
:105280001B68019A127A920029490A4411469847EC
:10529000019B1869019B1B691B681B68019A127AA4
:1052A0001146244A525C11469847019BD868019BDD
:1052B000DB681B681B68019A127A11461E4A525C11
:1052C00011469847019B1A69019B1B691B680433AF
:1052D0001B68022110469847019BDA68019BDB6836
:1052E0001B6804331B6802211046984700990198F7
:1052F000FFF74EFF019B1B7A1A46104B53F82230E2
:105300001B7ADAB2019B1B7A19460C4B53F82130F9
:1053100042F00702D2B21A7201242B461946034802
:1053200001F0C2F82346184605B030BD5D520100B9
:105330006CA5010068A5010064A5010078040010B7
:1053400030B583B0754601902B4619460D4801F0E3
:1053500097F8019B1B681B7A1A460B4B53F82230B7
:105360001B7DDBB203F02003002B14BF01230023BD
:10537000DCB22B461946034801F096F8234618463E
:1053800003B030BD41530100780400102DE93048CE
:105390008AB0754601900B468DF803302B461946AE
:1053A000314801F06DF8019B1B7A1A462F4B53F8D8
:1053B00022309DF803201A70019B04934FF0FF33B5
:1053C0004FF0FF34CDE90834049B03932B46194674
:1053D000274801F055F84FF000034FF00004CDE9E5
:1053E0000634DDE90834B4F1FF3F08BFB3F1FF3FF5
:1053F00006D14FF0FF334FF0FF34CDE906340BE018
:10540000FBF7F8FD0A460146DDE9083413EB010B12
:1054100044EB020CCDE906BC01230593FBF7EAFD42
:105420000A460146DDE90634A24208BF994234BF6C
:1054300001230023DBB2002B08D003AB1846FFF793
:105440007FFF0346002BE9D0002305932B46194626
:10545000074801F029F82B461946034801F024F8C3
:1054600000BF0AB0BDE830888D53010078040010F9
:10547000895C010030B583B0754601902B46194612
:105480000D4800F0FDFF019B1B681B7A1A460B4B71
:1054900053F822301B7DDBB203F00103002B14BF55
:1054A00001230023DCB22B461946034800F0FCFF21
:1054B0002346184603B030BD75540100780400102F
:1054C0002DE930488CB07546019000912B46194665
:1054D000364800F0D5FFFF238DF82F30019B049351
:1054E000009B4FF00004CDE90834049B03932B4646
:1054F00019462F4800F0C4FF4FF000034FF000049E
:10550000CDE90634DDE90834B4F1FF3F08BFB3F15B
:10551000FF3F06D14FF0FF334FF0FF34CDE90634A3
:105520000BE0FBF767FD0A460146DDE9083413EBA3
:10553000010B44EB020CCDE906BC01230593FBF7FC
:1055400059FD0A460146DDE90634A24208BF9942E8
:1055500034BF01230023DBB2002B08D003AB184675
:10556000FFF788FF0346002BE9D000230593059C35
:105570002B4619460E4800F097FF0A940A9B002B11
:1055800008D1019B1B7A1A460A4B53F822301B782C
:105590008DF82F309DF82F402B461946034800F018
:1055A00083FF234618460CB0BDE83088C154010083
:1055B000315D01007804001010B58AB07446039084
:1055C00002918DED010A23461946384800F058FF34
:1055D000039B00221A60039B00225A60039B012256
:1055E0009A6000238DF8273000230893089B0E2B28
:1055F00052DC9DF82730002B4ED1089B01330793D6
:10560000079B0E2B44DC9DF82730002B40D1089BD4
:1056100007EE903AF8EEE77ACDED067A079B07EEB3
:10562000903AF8EEE77ACDED057ADDED066A9DED6C
:10563000057AC6EE877AB7EE007A77EE877ACDEDF7
:10564000047ADDED047A9FED1A7A77EE877A9DED84
:10565000017AB4EEE77AF1EE10FA15D8DDED047AAE
:105660009FED137A77EEC77A9DED017AB4EEE77A73
:10567000F1EE10FA08DB089A039B5A60079A039B25
:105680009A6001238DF82730079B01330793B7E712
:10569000089B01330893A9E700BF23461946034836
:1056A00000F002FF00BF03980AB010BDB955010019
:1056B000CDCC4C3D10B52DED028B86B074460390D9
:1056C0008DED020ACDED010A23461946154800F07A
:1056D000D7FE039B1A1D039B5B6810331B681046A3
:1056E000984707EE900AF8EE677ACDED057ADDED82
:1056F000027AB3EE007A27EE877ADDED017A67EE63
:10570000277A9DED057A87EE278A234619460548B4
:1057100000F0CAFEF0EE487AB0EE670A06B0BDECC3
:10572000028B10BDB556010010B52DED028B86B071
:10573000744603908DED020ACDED010A2346194609
:10574000154800F09DFE039B1A1D039B5B681033F8
:105750001B681046984707EE900AF8EE677ACDED81
:10576000057ADDED027AB3EE007A27EE877ADDED79
:10577000017A67EE277A9DED057A87EE278A234620
:105780001946054800F090FEF0EE487AB0EE670A40
:1057900006B0BDEC028B10BD2957010030B587B0B3
:1057A000754601908DED000A2B461946194800F008
:1057B00067FE00238DF817309DED000A03F0DEFA36
:1057C0008DED040A9DED007ADDED047A77EE677ABF
:1057D000CDED037ADDED037A9FED0F7AF4EEC77A13
:1057E000F1EE10FA0BDBDDED037A9FED0C7AF4EEAF
:1057F000C77AF1EE10FA02D801238DF817309DF820
:1058000017402B461946034800F04EFE2346184623
:1058100007B030BD9D570100CDCC4CBDCDCC4C3D2B
:1058200030B58FB07546079006918DED050A2B4671
:105830001946744800F024FE00230D93079B0022B4
:105840001A60079B00225A60079B01229A604FF062
:1058500000030C934FF07F530B934FF07E530A934A
:105860004FF0804309930D9B042B00F0C1800D9BEA
:10587000042B00F2BB8001A252F823F091580100E2
:10588000ED5801004D590100BD590100ED590100CD
:10589000F7EE000A9DED050A0698FFF70BFF8DED68
:1058A0000C0ADDED0C7AB7EE007AF4EEC77AF1EE71
:1058B00010FA05D5079B00221A6004230D9396E089
:1058C0009DED0C0A0698FFF769FF0346002B0AD0EE
:1058D000DDED0C7AFCEEE77A17EE902A079B1A6052
:1058E00004230D9383E001230D9380E0DDED0B0A8B
:1058F0009DED050A0698FFF7DDFEF0EE407AB0EE6A
:10590000670A03F03BFA8DED0C0ADDED0C0A9DED04
:10591000050A0698FFF708FF8DED0B0ADDED0B7AFF
:105920009FED397AF4EEC77AF1EE10FA0BDBDDED7C
:105930000B7A9FED367AF4EEC77AF1EE10FA02D8C0
:1059400003230D9353E002230D9350E0DDED097A1C
:10595000B7EE007A77EE877ACDED097ADDED0A7A37
:10596000B2EE0E7AF4EEC77AF1EE10FA02DD0423FD
:105970000D933CE0DDED097AB2EE0E7AF4EEC77AD3
:10598000F1EE10FA0FDDDDED0A7AB7EE007A77EE70
:10599000877ACDED0A7ADDED0A7AB7EE007A77EEF6
:1059A000877ACDED097ADDED0A6A9DED097AC6EEBA
:1059B000877ACDED0B7A01230D9318E0079C6B4697
:1059C0009DED0B0A06991846FFF7F6FD6B4693E826
:1059D000070084E80700DDED0C7AFCEEE77A17EEAD
:1059E000902A079B1A6004230D9300E000BF3AE75A
:1059F00000BF2B461946034800F056FD00BF07982C
:105A00000FB030BD21580100CDCC8C3F3333F33F74
:105A100038B575462B4619460A4800F031FD0A4B49
:105A20001B7A1A46094B53F822309C682B461946BC
:105A3000044800F039FD23464FF000041846214683
:105A400038BD00BF55510100E80400106804001083
:105A500038B575462B4619460A4800F011FD0A4B29
:105A60001B7A1A46094B53F822309C682B4619467C
:105A7000044800F019FD23464FF000041846214663
:105A800038BD00BF55510100E80400106804001043
:105A900000B583B04FF47A712248FFF7BBF9214873
:105AA000FFF76AF903468DF807309DF8073083F059
:105AB0000103DBB2002B05D0AD231B4A1B491C4858
:105AC00001F05AFF30211B48FCF728F80346002B51
:105AD00014BF01230023DBB2002B01D000BFF1E78C
