:020000021000EC
:1000000000000110C9230100252A01001902010086
:10001000252A0100252A0100252A01008A31F8EF4E
:10002000000000000000000000000000412E010060
:10003000252A010000000000712E0100252A010080
:10004000252A0100252A0100252A0100252A010070
:10005000252A0100252A0100252A0100252A010060
:10006000252A0100252A0100252A0100252A010050
:10007000252A010000000000252A0100252A010090
:10008000252A0100252A0100252A0100252A010030
:10009000252A0100252A0100252A0100252A010020
:1000A000252A0100252A0100252A0100252A010010
:1000B000252A0100252A0100252A0100252A010000
:1000C000252A0100252A0100252A0100252A0100F0
:1000D000252A0100252A0100252A0100252A0100E0
:1000E000252A010050930100000000103C0200008E
:1000F00050930100000000200000000040020010AA
:100100006C030000000000200000000086B0002307
:100110000593059A13465B0013449B001D4A134444
:100120001D4A934233D21B49059A13465B00134480
:100130009B000B441B6803931649059A13465B000A
:1001400013449B000B445B6802931249059A1346C3
:100150005B0013449B000B4408331B68019300238E
:100160000493049A019B9A420DD2049B9B00039A2C
:100170001A44049B9B0002990B4412681A60049B6A
:1001800001330493EDE7059B01330593C1E700BFFD
:1001900006B07047E4000100FC00010084B00023B9
:1001A0000393039BDB00134A1344134A93421ED26A
:1001B000104A039B52F8333001930E4A039BDB0035
:1001C00013445B68009300230293029A009B9A42B7
:1001D00009D2029B9B00019A134400221A60029BE1
:1001E00001330293F1E7039B01330393D9E700BF87
:1001F00004B07047FC0001000C010100DFF814009E
:10020000016841F470010160BFF34F8FBFF36F8F3E
:1002100000BF704788ED00E01EF0040F0CBFEFF345
:100220000880EFF309808169004A1047ED2A010038
:1002300000BF7047FFFFFFFFFFFFFFFFFFFFFFFF54
:10024000FFFFFFFFFFFFFFFFFFFFFFFFFFFFFFFFBE
:10025000FFFFFFFFFFFFFFFFFFFFFFFFFFFFFFFFAE
:10026000FFFFFFFFFFFFFFFFFFFFFFFFFFFFFFFF9E
:10027000FFFFFFFFFFFFFFFFFFFFFFFFFFFFFFFF8E
:10028000FFFFFFFFFFFFFFFFFFFFFFFFFFFFFFFF7E
:10029000FFFFFFFFFFFFFFFFFFFFFFFFFFFFFFFF6E
:1002A000FFFFFFFFFFFFFFFFFFFFFFFFFFFFFFFF5E
:1002B000FFFFFFFFFFFFFFFFFFFFFFFFFFFFFFFF4E
:1002C000FFFFFFFFFFFFFFFFFFFFFFFFFFFFFFFF3E
:1002D000FFFFFFFFFFFFFFFFFFFFFFFFFFFFFFFF2E
:1002E000FFFFFFFFFFFFFFFFFFFFFFFFFFFFFFFF1E
:1002F000FFFFFFFFFFFFFFFFFFFFFFFFFFFFFFFF0E
:10030000F8B500BFF8BC08BC9E4670474903010021
:1003100095290100396E0100F8B500BFF8BC08BC92
:100320009E46704710B5054C237833B9044B13B182
:100330000448AFF300800123237010BD4002001079
:10034000000000005093010008B5034B1BB10349A6
:100350000348AFF3008008BD000000004402001015
:100360005093010030B583B0754601900B468DF86F
:10037000033013468DF802302B4619460A4802F026
:10038000AFFC019B9DF803201A70019B9DF8022091
:100390005A70019C2B461946034802F0B5FC2346CF
:1003A000184603B030BD00BF6503010010B582B030
:1003B0007446019023461946294802F091FC019B9E
:1003C0001B78052B44D801A252F823F0E503010065
:1003D000F7030100090401001B0401002D040100C2
:1003E0003F040100019B5B781A46012303FA02F2E5
:1003F0001C4B9A612CE0019B5B781A46012303FA9F
:1004000002F2194B9A6123E0019B5B781A460123A3
:1004100003FA02F2154B9A611AE0019B5B781A46C7
:10042000012303FA02F2124B9A6111E0019B5B78FF
:100430001A46012303FA02F20E4B9A6108E0019B6F
:100440005B781A46012303FA02F20B4B9A6100BF54
:1004500023461946024802F057FC00BF02B010BD07
:10046000AD03010000800920208009204080092080
:100470006080092080800920A080092010B582B00A
:100480007446019023461946294802F029FC019B35
:100490001B78052B44D801A252F823F0B5040100C3
:1004A000C7040100D9040100EB040100FD040100B0
:1004B0000F050100019B5B781A46012303FA02F243
:1004C0001C4BDA612CE0019B5B781A46012303FA8E
:1004D00002F2194BDA6123E0019B5B781A46012393
:1004E00003FA02F2154BDA611AE0019B5B781A46B7
:1004F000012303FA02F2124BDA6111E0019B5B78EF
:100500001A46012303FA02F20E4BDA6108E0019B5E
:100510005B781A46012303FA02F20B4BDA6100BF43
:1005200023461946024802F0EFFB00BF02B010BD9F
:100530007D040100008009202080092040800920DE
:100540006080092080800920A080092070B582B0D9
:1005500076460190334619463E4802F0C1FB019BA6
:100560001B78052B68D801A252F823F085050100FD
:10057000A3050100C1050100DF050100FD05010023
:100580001B060100344B5B69019A52781146012227
:100590008A401340002B14BF01230023DCB2002546
:1005A0004BE02E4B5B69019A5278114601228A403A
:1005B0001340002B14BF01230023DCB200253CE0D4
:1005C000274B5B69019A5278114601228A401340F9
:1005D000002B14BF01230023DCB200252DE0214BAA
:1005E0005B69019A5278114601228A401340002B20
:1005F00014BF01230023DCB200251EE01A4B5B6907
:10060000019A5278114601228A401340002B14BFF0
:1006100001230023DCB200250FE0144B5B69019A33
:100620005278114601228A401340002B14BF012347
:100630000023DCB2002500E00125334619460548B9
:1006400002F062FB012D00D100E02346184602B003
:1006500070BD00BF4D0501000080092020800920E9
:10066000408009206080092080800920A080092026
:1006700010B582B074460190234619463E4802F0F8
:100680002FFB019B1B78052B6ED801A252F823F09B
:10069000A9060100C9060100E906010009070100D9
:1006A00029070100490701000198FFF74FFF0346A2
:1006B00083F00103DBB2002B03D00198FFF776FE35
:1006C00002E00198FFF7DAFE0198FFF73FFF0346CB
:1006D00083F00103DBB2002B03D00198FFF766FE25
:1006E00002E00198FFF7CAFE0198FFF72FFF0346CB
:1006F00083F00103DBB2002B03D00198FFF756FE15
:1007000002E00198FFF7BAFE0198FFF71FFF0346CA
:1007100083F00103DBB2002B03D00198FFF746FE04
:1007200002E00198FFF7AAFE0198FFF70FFF0346CA
:1007300083F00103DBB2002B03D00198FFF736FEF4
:1007400002E00198FFF79AFE0198FFF7FFFE0346CB
:1007500083F00103DBB2002B03D00198FFF726FEE4
:1007600002E00198FFF78AFE23461946024802F08C
:10077000CBFA00BF02B010BD7106010000B58BB00E
:1007800073461946254802F0ABFA08AB1D2200213A
:100790001846FFF7E7FD07AB122201211846FFF7C5
:1007A000E1FD06AB1E2200211846FFF7DBFD05AB7D
:1007B000182201211846FFF7D5FD04AB0F220121B5
:1007C0001846FFF7CFFD03AB1A2201211846FFF7A9
:1007D000C9FD02AB132201211846FFF7C3FD01AB8F
:1007E000032202211846FFF7BDFD0023099308AB41
:1007F0001846FFF7ABFE0346002BF8D008AB1846AF
:10080000FFF7A4FE034683F00103DBB2002BEED01A
:1008100007AB1846FFF72CFFE9E700BF7D07010093
:1008200000B58BB0034600918DF8073002F08EFAC8
:1008300003461946314803F0ADFC02F073FA079005
:1008400002F084FA069000230993069B013B099A63
:100850009A420DD2099B9B00079A13441B681A46C3
:100860000999274803F096FC099B01330993ECE7AB
:10087000009B002B06D0069B013B009A194620489E
:1008800003F088FC9DF80730002B33D01D4A03ABE2
:1008900007CA83E807001C4802F0F2F903AB1946C7
:1008A0001A4803F077FC00230893069B013B089A43
:1008B0009A4212D2089B002B02D0202002F0C4F9E9
:1008C000089B9B00079A13441B681946104803F0C5
:1008D00061FC089B01330893E7E7009B002B03D0E2
:1008E00000990C4803F056FC0B4802F0C9F90B487C
:1008F00002F0C6F900BF0BB05DF804FB7C73010089
:10090000907301006C740100A0730100D8730100A2
:1009100000740100087401001074010018740100D3
:1009200070B5764633461946074802F0D9F9074BA9
:10093000D3E9004533461946034802F0E5F923465A
:100940002C461846214670BD2109010060020010A6
:1009500010B582B07446019023461946064802F04D
:10096000BFF9064A019B136023461946024802F06C
:10097000CBF900BF02B010BD51090100000000100A
:1009800070B57446234619460C4802F0A9F90C4B81
:100990001B6898474FF47A724FF0000306F0F6FA9E
:1009A00002460B4615461E4623461946034802F0EA
:1009B000ABF92B4634461846214670BD810901002B
:1009C0000000001000B585B001900B468DF8033093
:1009D000002303930021019800F0CEF89DF8033026
:1009E0000C2B16D99DF803309BB21A460C210198A6
:1009F00000F0ACF903904FF48071019800F0D6F844
:100A00009DF80330104A02FB03F31A460F4B1A609D
:100A100006E00021019800F0C9F80C4B0C4A1A605E
:100A20000121019800F04AFA019B1B6804331B68FE
:100A30000121019898470021019800F073FA039B67
:100A4000184605B05DF804FB40420F000800001096
:100A5000001BB70000B583B001900B468DF8033042
:100A60009DF80330042B0DD9AE230B4A0B490C48DB
:100A700003F090FB0B4802F003F900210120FFF77F
:100A8000CFFEFEE7084B1B689DF80320C3F8A821A2
:100A900000BF03B05DF804FB047B01002C7901006A
:100AA00078740100187501000400001082B00190F4
:100AB000034B1B68D3F8A831184602B0704700BF3B
:100AC0000400001082B00190024B1B68184602B06F
:100AD000704700BF0800001000B585B00190019B71
:100AE0001B6808331B680198984702900023039302
:100AF000029B002B0AD0019B1B680C331B680198DA
:100B000098470246029BB2FBF3F30393039B1846FC
:100B100005B05DF804FBFFFF84B001900091094B24
:100B20001B68D3F8C430009A1268012101FA02F25E
:100B300013430393034B1B68039AC3F8C42000BFFD
:100B400004B070470400001084B001900091094B7C
:100B50001B68D3F8C430009A1268012101FA02F22E
:100B600013400393034B1B68039AC3F8C42000BFD0
:100B700004B070470400001084B001900B46ADF83B
:100B80000230BDF802300393074B1B68D3F80C31D9
:100B900023F00101044B1B68039A0A43C3F80C219C
:100BA00000BF04B0704700BF0400001082B0019085
:100BB0000B46ADF80230084B1B68D3F8043123F420
:100BC0008071BDF80220044B1B680A43C3F804215E
:100BD00000BF02B0704700BF0400001082B0019057
:100BE0000B46ADF80230084B1B68D3F8083123F4EC
:100BF0004071BDF80220044B1B680A43C3F808216A
:100C000000BF02B0704700BF0400001082B0019026
:100C10000B46ADF80230084B1B68D3F8B43123F40F
:100C20004071BDF80220044B1B680A43C3F8B4218D
:100C300000BF02B0704700BF0400001000B587B0CD
:100C400001900B46ADF802301346ADF80030BDF808
:100C50000030B3F5C07F03D2BDF800300C2B0DD8A7
:100C6000FF23344A3449354803F094FA344802F0FB
:100C700007F800210120FFF7D3FDFEE701238DF8DF
:100C80001730BDF80030BDF80220B3FBF2F102FBD3
:100C900001F29B1A9BB2002B09D0BDF80020BDF8D1
:100CA0000230B2FBF3F39BB20133049307E0BDF8CB
:100CB0000020BDF80230B2FBF3F39BB20493012392
:100CC000ADF80E309DF81730002B2ED0049B9BB250
:100CD000BDF8022012FB03F39BB2BDF80E2012FBFD
:100CE00003F39BB25B00ADF80C30BDF80C309B2BCE
:100CF00003D900238DF81730E4E7BDF80E305B0010
:100D0000ADF80E30BDF80E30072BDBD940F21B13C7
:100D1000084A0C490C4803F03DFA094801F0B0FFBD
:100D200000210120FFF77CFDFEE7049B184607B079
:100D30005DF804FBAC7B01004479010030750100D3
:100D4000187501005C7901002076010010B58AB0A9
:100D500001900B46ADF802301346ADF80030012388
:100D6000ADF81A30FFF70CFE0A46014611F57A730A
:100D700042F10004CDE90434FFF702FECDE9080199
:100D8000BDF80020BDF8023019460198FFF756FF64
:100D90000390BDF80220039B02FB03F3079300219D
:100DA0000198FFF7E9FE00210198FFF7FFFE0021FF
:100DB0000198FFF713FF00210198FFF727FF3A4B37
:100DC0001B68D3F8843023F01F01039B5A1E364B57
:100DD0001B680A43C3F88420334B1B68D3F8843064
:100DE00023F06002BDF81A305B0119462E4B1B68D8
:100DF0000A43C3F884202C4B1B68D3F880202A4B6D
:100E00001B6842F00102C3F88020274B1B68AA220E
:100E1000C3F88C20244B1B685522C3F88C20224B2E
:100E20001B68D3F8883003F48063002B09D1DDE917
:100E30000812DDE90434A24208BF994201D201231D
:100E400000E00023002B04D0FFF79AFDCDE9080154
:100E5000E5E7154B1B68D3F8883003F48063002B5B
:100E600009D1DDE90812DDE90434A24208BF994244
:100E700001D3012300E00023002B0ED040F24313E6
:100E80000A4A0B490B4803F085F90B4801F0F8FEBC
:100E900000210120FFF7C4FCFEE7BDF80030079AEF
:100EA000D31A18460AB010BD04000010507B010090
:100EB00074790100C87601001875010000B583B08F
:100EC00001900B468DF803309DF803301F2B0ED98F
:100ED00040F26F130E4A0F490F4803F05BF90F48B9
:100EE00001F0CEFE00210120FFF79AFCFEE70C4B3B
:100EF0001B68D3F8043123F01F019DF80320084B31
:100F00001B680A43C3F8042100BF03B05DF804FB6B
:100F1000087C01008C7901007077010018750100D0
:100F20000400001082B001900B468DF80330084B8E
:100F30001B68D3F8003123F001019DF80320044B16
:100F40001B680A43C3F8002100BF02B0704700BF0E
:100F50000400001010B57446234619460A4801F0F3
:100F6000BFFE0A4B1B6800225A60084B1B68002218
:100F70009A60064B1B6800221A60234619460248F5
:100F800001F0C2FE00BF10BD550F01000C000010A3
:100F900010B5744623461946084801F0A1FE084BD7
:100FA0001B68002B02D0064B1B6898472346194646
:100FB000024801F0A9FE00BF10BD00BF910F010063
:100FC0006802001010B582B074460190009123466B
:100FD0001946074801F084FE064A009B1360234629
:100FE0001946034801F090FE00BF02B010BD00BFDB
:100FF000C50F01006802001030B585B0754601903C
:101000002B461946204801F06BFE00238DF80F3067
:101010001E4B1B685B68002B14BF01230023DBB24F
:10102000002B1ED0194B1B6800229A60174B1B68BF
:101030001A68164B1B6842F002021A60134B1B68B9
:101040001A68124B1B6842F001021A600F4B1B68B2
:101050001A680E4B1B6842F004021A6001238DF8D7
:101060000F304FF0FF33012209494FF0FF3001F0FC
:101070000FFD9DF80F402B461946034801F044FE32
:101080002346184605B030BDF90F01000C000010D2
:10109000910F010030B585B07546019000912B4647
:1010A00019461F4801F01CFE009B012B01D80024AB
:1010B0002DE0019B1A1D019B5B680C331B681046D9
:1010C00098470246009BB2FBF3F3013B0393019B5D
:1010D0001A1D019B5B680C331B681046984703463A
:1010E000009AB3FBF2F2009901FB02F29B1A029301
:1010F000039BB3F1807F05D36FF07F4303936FF0C1
:101100007F430293074B1B68039A5A60029C2B464D
:101110001946034801F0F8FD2346184605B030BDD6
:10112000951001000C000010F0B585B077460390D3
:101130000B468DF80B303B461946174801F0D0FDA1
:10114000164B1B68039A12791046039A527911467E
:1011500042010A4453F822109DF80B3003F00702B5
:101160000E4B1C68039B1B791E46039B5B791D4637
:101170000323009313460022039800F067FA024607
:1011800073012B4444F823203B461946024801F0E2
:10119000BBFD00BF05B0F0BD29110100100000101B
:1011A000F0B587B0774603900B468DF80B303B4681
:1011B0001946194801F094FD9DF80B308DF8173051
:1011C000164B1B68039A12791046039A52791146FE
:1011D00042010A4453F822109DF8173003F003022D
:1011E0000E4B1C68039B1B791E46039B5B791D46B7
:1011F0000223009313460322039800F027FA0246C5
:1012000073012B4444F823203B461946024801F061
:101210007BFD00BF07B0F0BDA11101001000001060
:10122000F0B585B0774603900B468DF80B303B4602
:101230001946164801F054FD154B1B68039A1279A4
:101240001046039A5279114642010A4453F822107B
:101250009DF80B200E4B1C68039B1B791E46039BBD
:101260005B791D460123009313460522039800F085
:10127000EDF9024673012B4444F823203B461946FE
:10128000024801F041FD00BF05B0F0BD2112010090
:1012900010000010F0B585B0774603900B468DF82E
:1012A0000B303B461946164801F01AFD154B1B68DA
:1012B000039A12791046039A5279114642010A4460
:1012C00053F822109DF80B200E4B1C68039B1B79D2
:1012D0001E46039B5B791D4601230093134606229D
:1012E000039800F0B3F9024673012B4444F823201D
:1012F0003B461946024801F007FD00BF05B0F0BDAE
:101300009512010010000010F0B585B077460390EB
:101310000B468DF80B303B461946184801F0E0FCAF
:10132000174B1B68039A12791046039A527911469B
:1013300042010A4453F822109DF80B3083F0010358
:10134000DBB21A460E4B1C68039B1B791E46039B9F
:101350005B791D460123009313460722039800F092
:1013600075F9024673012B4444F823203B46194685
:10137000024801F0C9FC00BF05B0F0BD091301002F
:1013800010000010F0B585B0774603900B468DF83D
:101390000B303B461946184801F0A2FC174B1B685E
:1013A000039A12791046039A5279114642010A446F
:1013B00053F822109DF80B3083F00103DBB21A467C
:1013C0000E4B1C68039B1B791E46039B5B791D46D5
:1013D0000123009313460822039800F037F90246D0
:1013E00073012B4444F823203B461946024801F080
:1013F0008BFC00BF05B0F0BD85130100100000108C
:10140000F0B585B0774603900B468DF80B303B4620
:101410001946164801F064FC154B1B68039A1279B3
:101420001046039A5279114642010A4453F8221099
:101430009DF80B200E4B1C68039B1B791E46039BDB
:101440005B791D460123009313460922039800F09F
:10145000FDF8024673012B4444F823203B4619460D
:10146000024801F051FC00BF05B0F0BD01140100BD
:1014700010000010F0B585B0774603900B468DF84C
:101480000B303B461946184801F02AFC174B1B68E5
:10149000039A12791046039A5279114642010A447E
:1014A00053F822109DF80B3083F00103DBB21A468B
:1014B0000E4B1C68039B1B791E46039B5B791D46E4
:1014C0000123009313460822039800F0BFF8024658
:1014D00073012B4444F823203B461946024801F08F
:1014E00013FC00BF05B0F0BD751401001000001022
:1014F000F0B585B0774603900B468DF80B303B4630
:101500001946164801F0ECFB154B1B68039A12793B
:101510001046039A5279114642010A4453F82210A8
:101520009DF80B200E4B1C68039B1B791E46039BEA
:101530005B791D460123009313460922039800F0AE
:1015400085F8024673012B4444F823203B46194694
:10155000024801F0D9FB00BF05B0F0BDF114010055
:1015600010000010F0B585B0774603900B468DF85B
:101570000B303B461946164801F0B2FB154B1B6871
:10158000039A12791046039A5279114642010A448D
:1015900053F822109DF80B200E4B1C68039B1B79FF
:1015A0001E46039B5B791D460123009313460A22C6
:1015B000039800F04BF8024673012B4444F82320B3
:1015C0003B461946024801F09FFB00BF05B0F0BD45
:1015D0006515010010000010F0B585B07746039046
:1015E0000B468DF80B303B461946164801F078FB48
:1015F000154B1B68039A12791046039A52791146CB
:1016000042010A4453F822109DF80B200E4B1C682F
:10161000039B1B791E46039B5B791D4601230093A8
:1016200013461022039800F011F8024673012B4470
:1016300044F823203B461946024801F065FB00BFF1
:1016400005B0F0BDD91501001000001030B587B00D
:10165000754603900291019200932B461946134858
:1016600001F03EFB0A9BC3F120034FF0FF3222FA48
:1016700003F30593059A019B02FA03F3DB43029AF5
:1016800013400293009A059B1A40019B02FA03F350
:10169000029A13430293029C2B461946034801F019
:1016A00033FB2346184607B030BD00BF4D1601007E
:1016B00030B583B0754601902B461946064801F0B7
:1016C0000FFB019B1C792B461946034801F01CFBBC
:1016D0002346184603B030BDB116010030B583B0C3
:1016E000754601902B461946064801F0F9FA019B10
:1016F0005C792B461946034801F006FB2346184641
:1017000003B030BDDD16010030B583B07546034629
:101710008DF807302B461946064801F0E1FA9DF88E
:1017200007402B461946034801F0EEFA23461846B7
:1017300003B030BD0917010010B5744623461946A1
:10174000044801F0CDFA23461946024801F0DCFABC
:1017500000BF10BD3917010010B586B07446039064
:10176000029101920093234619463E4801F0B8FACF
:10177000039B181D039B5B6814331B68039A127A42
:10178000920039490A4411469847029B002B0DD11B
:101790008423364A3649374802F0FCFC364801F0CB
:1017A0006FFA00210120FFF73BF8FEE7039B1A1DAB
:1017B000039B5B6810331B68104698470246029BE8
:1017C000B2FBF3F30593039B1B7A1A462B4B53F89A
:1017D0002230DA68039B1B7A1946284B53F82130D4
:1017E00002F00102DA60039B1B7A1A46234B53F87E
:1017F0002230D968059B5A00039B1B7A18461F4B61
:1018000053F820300A43DA60039B1B7A1A461B4BBD
:1018100053F822305A68039B1B7A1946174B53F82A
:10182000213042F001025A60039B1B7A1946144A88
:10183000019B42F82130039B1B7A1A46114B9856A4
:10184000039B1B7A1A46104B53F82210009B01226F
:1018500001F01EF923461946024801F055FA00BF6F
:1018600006B010BD59170100A4790100447C0100A5
:10187000C87901000C7801001875010014000010EF
:10188000AC020010B4790100B879010030B583B022
:10189000754603468DF807302B461946064801F079
:1018A0001FFA9DF807402B461946034801F02CFA11
:1018B0002346184603B030BD8D18010070B586B0C0
:1018C00076460390029111461A460B468DF8073072
:1018D00013468DF8063033461946324801F000FAB7
:1018E0009DF806301846FFF7D1FF03468DF81730F4
:1018F000039B1B7A1A462C4B53F822305A699DF8E9
:101900001730072101FA03F3DB431946039B1B7AC7
:101910001846254B53F820300A405A61039B1B7A26
:101920001A46214B53F822305A699DF807109DF84A
:10193000173001FA03F31946039B1B7A18461A4B1A
:1019400053F820300A435A61039B1B7A18469DF8CE
:101950001730164AA2FB03235B08DBB21946144A70
:1019600083000B4452F823301968029B5A08039BEA
:101970001B7A1D469DF817300C48A0FB03035B083B
:10198000DBB21C460A48AB00234450F823300A431C
:101990001A6033461946034801F0B6F900BF06B095
:1019A00070BD00BFBD18010014000010ABAAAAAAA8
:1019B0006C02001030B583B0754601902B46194675
:1019C000094801F08DF9019B1B7A1A46074B53F821
:1019D00022309C682B461946034801F095F92346AE
:1019E000184603B030BD00BFB51901001400001047
:1019F00010B588B0744601900091234619462D48D1
:101A000001F06EF980238DF81F30009B07EE903AAD
:101A1000F8EE677ACDED067A02AB9DED060A0199E4
:101A2000184600F02DFB029B1B0A8DF81730029B15
:101A30008DF81630049BDBB21B01DAB2039BDBB2DC
:101A400003F00F03DBB213438DF81530019B1B7AB3
:101A50001A46194B53F8223080221A73019B1B7AC5
:101A60001A46154B53F822309DF817201A71019B26
:101A70001B7A1A46104B53F822309DF816201A7024
:101A8000019B1B7A1A460C4B53F822309DF8152007
:101A900083F82820019B1B7A1A46074B53F8223003
:101AA00003221A7323461946024801F02DF900BF9C
:101AB00008B010BDF11901002400001030B585B048
:101AC0007546019000912B461946304801F008F9FF
:101AD00007238DF80F30019B181D019B5B681433A1
:101AE0001B68019A127A920029490A4411469847C4
:101AF000019B1869019B1B691B681B68019A127A7C
:101B00001146244A525C11469847019BD868019BB4
:101B1000DB681B681B68019A127A11461E4A525CE8
:101B200011469847019B1A69019B1B691B68043386
:101B30001B68022110469847019BDA68019BDB680D
:101B40001B6804331B6802211046984700990198CE
:101B5000FFF74EFF019B1B7A1A46104B53F82230B9
:101B60001B7ADAB2019B1B7A19460C4B53F82130D1
:101B700042F00702D2B21A7201242B4619460348DA
:101B800001F0C2F82346184605B030BDBD1A010069
:101B9000DC790100D8790100D4790100240000101B
:101BA00030B583B0754601902B4619460D4801F0BB
:101BB00097F8019B1B681B7A1A460B4B53F822308F
:101BC0001B7DDBB203F02003002B14BF0123002395
:101BD000DCB22B461946034801F096F82346184616
:101BE00003B030BDA11B0100240000102DE93048D6
:101BF0008AB0754601900B468DF803302B46194686
:101C0000314801F06DF8019B1B7A1A462F4B53F8AF
:101C100022309DF803201A70019B04934FF0FF338C
:101C20004FF0FF34CDE90834049B03932B4619464B
:101C3000274801F055F84FF000034FF00004CDE9BC
:101C40000634DDE90834B4F1FF3F08BFB3F1FF3FCC
:101C500006D14FF0FF334FF0FF34CDE906340BE0EF
:101C6000FEF78EFE0A460146DDE9083413EB010B50
:101C700044EB020CCDE906BC01230593FEF780FE80
:101C80000A460146DDE90634A24208BF994234BF44
:101C900001230023DBB2002B08D003AB1846FFF76B
:101CA0007FFF0346002BE9D0002305932B461946FE
:101CB000074801F029F82B461946034801F024F89B
:101CC00000BF0AB0BDE83088ED1B01002400001001
:101CD000E924010030B583B0754601902B461946C2
:101CE0000D4800F0FDFF019B1B681B7A1A460B4B49
:101CF00053F822301B7DDBB203F00103002B14BF2D
:101D000001230023DCB22B461946034800F0FCFFF8
:101D10002346184603B030BDD51C01002400001036
:101D20002DE930488CB07546019000912B4619463C
:101D3000364800F0D5FFFF238DF82F30019B049328
:101D4000009B4FF00004CDE90834049B03932B461D
:101D500019462F4800F0C4FF4FF000034FF0000475
:101D6000CDE90634DDE90834B4F1FF3F08BFB3F133
:101D7000FF3F06D14FF0FF334FF0FF34CDE906347B
:101D80000BE0FEF7FDFD0A460146DDE9083413EBE2
:101D9000010B44EB020CCDE906BC01230593FEF7D1
:101DA000EFFD0A460146DDE90634A24208BF99422A
:101DB00034BF01230023DBB2002B08D003AB18464D
:101DC000FFF788FF0346002BE9D000230593059C0D
:101DD0002B4619460E4800F097FF0A940A9B002BE9
:101DE00008D1019B1B7A1A460A4B53F822301B7804
:101DF0008DF82F309DF82F402B461946034800F0F0
:101E000083FF234618460CB0BDE83088211D010031
:101E1000912501002400001010B58AB0744603908B
:101E200002918DED010A23461946384800F058FF0B
:101E3000039B00221A60039B00225A60039B01222D
:101E40009A6000238DF8273000230893089B0E2BFF
:101E500052DC9DF82730002B4ED1089B01330793AD
:101E6000079B0E2B44DC9DF82730002B40D1089BAC
:101E700007EE903AF8EEE77ACDED067A079B07EE8B
:101E8000903AF8EEE77ACDED057ADDED066A9DED44
:101E9000057AC6EE877AB7EE007A77EE877ACDEDCF
:101EA000047ADDED047A9FED1A7A77EE877A9DED5C
:101EB000017AB4EEE77AF1EE10FA15D8DDED047A86
:101EC0009FED137A77EEC77A9DED017AB4EEE77A4B
:101ED000F1EE10FA08DB089A039B5A60079A039BFD
:101EE0009A6001238DF82730079B01330793B7E7EA
:101EF000089B01330893A9E700BF2346194603480E
:101F000000F002FF00BF03980AB010BD191E0100C7
:101F1000CDCC4C3D10B52DED028B86B074460390B0
:101F20008DED020ACDED010A23461946154800F051
:101F3000D7FE039B1A1D039B5B6810331B6810467A
:101F4000984707EE900AF8EE677ACDED057ADDED59
:101F5000027AB3EE007A27EE877ADDED017A67EE3A
:101F6000277A9DED057A87EE278A2346194605488C
:101F700000F0CAFEF0EE487AB0EE670A06B0BDEC9B
:101F8000028B10BD151F010010B52DED028B86B020
:101F9000744603908DED020ACDED010A23461946E1
:101FA000154800F09DFE039B1A1D039B5B681033D0
:101FB0001B681046984707EE900AF8EE677ACDED59
:101FC000057ADDED027AB3EE007A27EE877ADDED51
:101FD000017A67EE277A9DED057A87EE278A2346F8
:101FE0001946054800F090FEF0EE487AB0EE670A18
:101FF00006B0BDEC028B10BD891F010030B587B063
:10200000754601908DED000A2B461946194800F0DF
:1020100067FE00238DF817309DED000A04F036FFAF
:102020008DED040A9DED007ADDED047A77EE677A96
:10203000CDED037ADDED037A9FED0F7AF4EEC77AEA
:10204000F1EE10FA0BDBDDED037A9FED0C7AF4EE86
:10205000C77AF1EE10FA02D801238DF817309DF8F7
:1020600017402B461946034800F04EFE23461846FB
:1020700007B030BDFD1F0100CDCC4CBDCDCC4C3DDB
:1020800030B58FB07546079006918DED050A2B4649
:102090001946744800F024FE00230D93079B00228C
:1020A0001A60079B00225A60079B01229A604FF03A
:1020B00000030C934FF07F530B934FF07E530A9322
:1020C0004FF0804309930D9B042B00F0C1800D9BC2
:1020D000042B00F2BB8001A252F823F0F120010092
:1020E0004D210100AD2101001D2201004D22010002
:1020F000F7EE000A9DED050A0698FFF70BFF8DED40
:102100000C0ADDED0C7AB7EE007AF4EEC77AF1EE48
:1021100010FA05D5079B00221A6004230D9396E060
:102120009DED0C0A0698FFF769FF0346002B0AD0C5
:10213000DDED0C7AFCEEE77A17EE902A079B1A6029
:1021400004230D9383E001230D9380E0DDED0B0A62
:102150009DED050A0698FFF7DDFEF0EE407AB0EE41
:10216000670A04F093FE8DED0C0ADDED0C0A9DED7F
:10217000050A0698FFF708FF8DED0B0ADDED0B7AD7
:102180009FED397AF4EEC77AF1EE10FA0BDBDDED54
:102190000B7A9FED367AF4EEC77AF1EE10FA02D898
:1021A00003230D9353E002230D9350E0DDED097AF4
:1021B000B7EE007A77EE877ACDED097ADDED0A7A0F
:1021C000B2EE0E7AF4EEC77AF1EE10FA02DD0423D5
:1021D0000D933CE0DDED097AB2EE0E7AF4EEC77AAB
:1021E000F1EE10FA0FDDDDED0A7AB7EE007A77EE48
:1021F000877ACDED0A7ADDED0A7AB7EE007A77EECE
:10220000877ACDED097ADDED0A6A9DED097AC6EE91
:10221000877ACDED0B7A01230D9318E0079C6B466E
:102220009DED0B0A06991846FFF7F6FD6B4693E8FD
:10223000070084E80700DDED0C7AFCEEE77A17EE84
:10224000902A079B1A6004230D9300E000BF3AE731
:1022500000BF2B461946034800F056FD00BF079803
:102260000FB030BD81200100CDCC8C3F3333F33F24
:1022700038B575462B4619460A4800F031FD0A4B21
:102280001B7A1A46094B53F822309C682B46194694
:10229000044800F039FD23464FF00004184621465B
:1022A00038BD00BFB51901009400001014000010E3
:1022B00038B575462B4619460A4800F011FD0A4B01
:1022C0001B7A1A46094B53F822309C682B46194654
:1022D000044800F019FD23464FF00004184621463B
:1022E00038BD00BFB51901009400001014000010A3
:1022F00000B583B04FF47A712248FEF7CBFE214837
:10230000FEF77AFE03468DF807309DF8073083F01C
:102310000103DBB2002B05D0AD231B4A1B491C482F
:1023200001F038FF30211B48FEF74CFB0346002B21
:1023300014BF01230023DBB2002B01D000BFF1E763
:1023400001211448FEF786FBFEF704FE4FF47A7174
:102350000C48FEF79FFE0B48FEF74EFE4FF0FF3392
:102360000D4A0E490E48FFF7F7F90E48FEF7F0FA4E
:102370004FF416410C48FFF7A1FB00BF03B05DF816
:1023800004FB00BF88000010847C0100EC79010090
:10239000CC780100900000103917010040420F0076
:1023A00094000010712201007400001008B5FDF7C0
:1023B000ADFEFDF7F3FEFDF721FF04F06FFFFFF721
:1023C00097FF00BF08BDFFFF80B584B000AF094B89
:1023D000FB60FB683B603B6883F30988FB687B60BC
:1023E0007B6883F30888FFF7E1FFFEF7C7F9B86061
:1023F000FEE700BF0000011010B5744623461946E1
:102400000A4800F06DFC0020FFF77EF903461A46EB
:10241000074B53F82230984700F00EF9234619462F
:10242000024800F071FC00BF10BD00BFF92301009D
:10243000AC02001010B57446234619460A4800F055
:102440004FFC0120FFF760F903461A46074B53F88B
:102450002230984700F040F923461946024800F020
:1024600053FC00BF10BD00BF35240100AC020010BA
:1024700010B57446234619460A4800F031FC022084
:10248000FFF742F903461A46074B53F822309847A4
:1024900000F072F923461946024800F035FC00BFEF
:1024A00010BD00BF71240100AC02001010B57446CD
:1024B000234619460A4800F013FC0320FFF724F9CD
:1024C00003461A46074B53F82230984700F0A4F908
:1024D00023461946024800F017FC00BF10BD00BF9C
:1024E000AD240100AC0200102DE9304888B07546DB
:1024F000CDE9020101922B461946244800F0F0FB79
:102500004FF000034FF00004CDE90634DDE902345A
:10251000B4F1FF3F08BFB3F1FF3F06D14FF0FF33E7
:102520004FF0FF34CDE906340BE0FEF729FA0A46F6
:102530000146DDE9023413EB010B44EB020CCDE95B
:1025400006BC01230593FEF71BFA0A460146DDE9A6
:102550000634A24208BF994234BF01230023DBB2F4
:10256000002B08D001AB1846FFF71AFB0346002BDF
:10257000E9D000230593059C2B461946034800F03B
:10258000C3FB2346184608B0BDE83088E9240100A3
:102590002DE9304888B07546CDE9020101922B46FD
:1025A0001946244800F09CFB4FF000034FF0000454
:1025B000CDE90634DDE90234B4F1FF3F08BFB3F1E1
:1025C000FF3F06D14FF0FF334FF0FF34CDE9063423
:1025D0000BE0FEF7D5F90A460146DDE9023413EBBC
:1025E000010B44EB020CCDE906BC01230593FEF779
:1025F000C7F90A460146DDE90634A24208BF9942FE
:1026000034BF01230023DBB2002B08D001AB1846F6
:10261000FFF760FB0346002BE9D000230593059CE0
:102620002B461946034800F06FFB2346184608B0B6
:10263000BDE830889125010010B582B0744623466C
:102640001946234800F04CFB00238DF807309DF815
:102650000730204A52F823301A689DF807301D4988
:1026600051F8233042F001021A609DF80730194AF0
:1026700052F823301A689DF80730164951F8233074
:1026800042F002021A609DF80730124A52F82330D5
:102690001A689DF807300F4951F8233042F00402C0
:1026A0001A609DF807300B4A52F823301A689DF8DB
:1026B0000730084951F8233042F008021A602346D7
:1026C0001946034800F020FB00BF02B010BD00BF58
:1026D000392601001400001010B582B0744623465C
:1026E0001946234800F0FCFA01238DF807309DF8C5
:1026F0000730204A52F823301A689DF807301D49E8
:1027000051F8233042F001021A609DF80730194A4F
:1027100052F823301A689DF80730164951F82330D3
:1027200042F002021A609DF80730124A52F8233034
:102730001A689DF807300F4951F8233042F004021F
:102740001A609DF807300B4A52F823301A689DF83A
:102750000730084951F8233042F008021A60234636
:102760001946034800F0D0FA00BF02B010BD00BF08
:10277000D92601001400001010B582B0744623461B
:102780001946234800F0ACFA02238DF807309DF873
:102790000730204A52F823301A689DF807301D4947
:1027A00051F8233042F001021A609DF80730194AAF
:1027B00052F823301A689DF80730164951F8233033
:1027C00042F002021A609DF80730124A52F8233094
:1027D0001A689DF807300F4951F8233042F004027F
:1027E0001A609DF807300B4A52F823301A689DF89A
:1027F0000730084951F8233042F008021A60234696
:102800001946034800F080FA00BF02B010BD00BFB7
:10281000792701001400001010B582B074462346D9
:102820001946234800F05CFA03238DF807309DF821
:102830000730204A52F823301A689DF807301D49A6
:1028400051F8233042F001021A609DF80730194A0E
:1028500052F823301A689DF80730164951F8233092
:1028600042F002021A609DF80730124A52F82330F3
:102870001A689DF807300F4951F8233042F00402DE
:102880001A609DF807300B4A52F823301A689DF8F9
:102890000730084951F8233042F008021A602346F5
:1028A0001946034800F030FA00BF02B010BD00BF67
:1028B000192801001400001082B001900091019BC2
:1028C000012B5DD1009B4FF6FF72934258D12E4BE6
:1028D0001B6803F00103002B52D12B4B01221A601D
:1028E0002A4B1B6818332A4A1360284B1B681C3379
:1028F000274A5360254B1B682033254A9360234B9E
:102900001B682433224AD360204B5B681833204A6B
:1029100013611E4B5B681C331D4A53611B4B5B6884
:1029200020331B4A9361194B5B682433184AD361E7
:10293000164B9B681833164A1362144B9B681C3362
:10294000134A5362114B9B682033114A93620F4B19
:102950009B6824330E4AD3620C4BDB6818330C4A55
:1029600013630A4BDB681C33094A5363074BDB686C
:102970002033074A9363054BDB682433044AD3634F
:1029800000BF02B0704700BFBC020010140000106E
:102990006C02001008B54FF6FF710120FFF78CFFA5
:1029A00008BDFFFF82B003468DF807309DF9073060
:1029B00003F01F0205499DF907305B09012000FA69
:1029C00002F241F8232000BF02B0704700E100E0AE
:1029D00082B0034600918DF807309DF90730002B37
:1029E0000CDA009BDAB20D499DF9073003F00F03B2
:1029F000043B5201D2B20B441A760BE0009BDBB2CF
:102A0000074A9DF9071008465B01D9B213180A4618
:102A100083F8002300BF02B0704700BF00ED00E064
:102A200000E100E000B585B0124B5B688DF80F3017
:102A30009DF80F30104A52F823300293029B0F4A40
:102A4000934210D19DF80F300093DD230C4A0D49BD
:102A50000D4801F09FFB0D4800F012F90021012004
:102A6000FDF7DEFEFEE7029B984700BF05B05DF86C
:102A700004FB00BF00ED00E0A0000010252A0100CB
:102A8000007F0100F07E0100947D0100407E010086
:102A900000B585B00291019303468DF80F301346BF
:102AA0008DF80E309DF90F3010330F49029A41F81E
:102AB00023209DF80E30002B08D09DF90F30002BFD
:102AC00004DB9DF90F301846FFF76CFF019B002BCC
:102AD00006DB019A9DF90F3011461846FFF778FF83
:102AE00000BF05B05DF804FBA000001000B58DB07C
:102AF0000390039B1B680B93039B5B680A93039BE8
:102B00009B680993039BDB680893039B1B690793EE
:102B1000039B5B690693039B9B690593039BDB699E
:102B200004930D4801F036FB0B990A9A0998089B0B
:102B300000930346094801F02DFB0799069A059872
:102B4000049B00930346064801F024FB059B1946AD
:102B50000120FDF765FEFEE7587E0100847E01003E
:102B6000B87E010030B583B0754601902B461946FA
:102B7000094800F0B5F8019BDBB219460748FFF79A
:102B800035F801242B461946034800F0BDF82346CA
:102B9000184603B030BD00BF652B01007400001063
:102BA00000B583B0734601901946024800F098F8CA
:102BB00000BFFDE7A12B010038B575462B4619462D
:102BC000054800F08DF801242B461946024800F014
:102BD0009BF82346184638BDB92B010030B583B0A9
:102BE0007546019000912B461946074800F078F889
:102BF0004FF0FF342B461946034800F085F8234672
:102C0000184603B030BD00BFDD2B010010B582B007
:102C1000744603468DF8073023461946084800F0ED
:102C20005FF8084B1B689DF807201046984723461D
:102C30001946034800F068F800BF02B010BD00BF9D
:102C40000D2C01008401001030B583B07446019052
:102C500023461946084800F043F8084B1B680198C2
:102C60009847054623461946034800F04DF82B4681
:102C7000184603B030BD00BF492C0100840100108C
:102C800030B585B0754601902B461946124800F0C4
:102C900027F800230393039B019A13441B78002B0E
:102CA0000BD00E4B1B68039A01990A441278104608
:102CB0009847039B01330393EDE7084B1B680A20F9
:102CC0009847039C2B461946034800F01DF82346FD
:102CD000184605B030BD00BF812C010084010010F2
:102CE00082B001900091009A054B1B68591C044862
:102CF0000160044941F8232000BF02B0704700BFC3
:102D0000C0030010C002001082B001900091044B7B
:102D10001B68013B024A136000BF02B0704700BF4E
:102D2000C003001038B575462B4619460548FFF715
:102D3000D7FF054C2B4619460248FFF7E5FF23460F
:102D4000184638BD252D0100C002001038B5754663
:102D50002B4619460648FFF7C3FF064B1C682B4657
:102D600019460348FFF7D0FF2346184638BD00BF79
:102D70004D2D0100C003001010B584B0294B1B6815
:102D8000002B03D0284B01221A6047E0264B00227B
:102D90001A60FFF78DFA03460C461A46234B1A6059
:102DA000224B1A68224B1B689A4209D9214B1B6897
:102DB000596D1E4A10681E4A1268821A0A445A65E2
:102DC0001A4B1B681A4A13601B4B1B680193019B2B
:102DD000B3FA83F38DF803309DF80330C3F11F037A
:102DE0000393039A13469B0013449B00134A134416
:102DF0000293029B5B685A68029B5A60029B5A6866
:102E0000029B08339A4204D1029B5B685A68029B7A
:102E10005A60029B5B68DB68064A136000BF04B01F
:102E200010BD00BF34040010300400103C0400103A
:102E300038040010C40300102C040010C803001054
:102E4000074B19680868B0E8F04F80F30988BFF3B2
:102E50006F8F4FF0000080F311887047AFF3008050
:102E6000C403001000BF00BFFFFFFFFFFFFFFFFF15
:102E7000EFF30980BFF36F8F154B1A681EF0100F28
:102E800008BF20ED108A20E9F04F10602DE90900FD
:102E90004FF0280080F31188BFF34F8FBFF36F8F7F
:102EA000FFF76AFF4FF0000080F3118809BC196832
:102EB0000868B0E8F04F1EF0100F08BFB0EC108AA1
:102EC00080F30988BFF36F8F704700BFAFF30080B6
:102ED000C403001000BF00BF10B584B07446029157
:102EE0000192009303468DF80F302346194605489A
:102EF000FFF7F6FE234619460248FFF705FF00BF1D
:102F000004B010BDD92E010010B584B074460291F2
:102F10000192009303468DF80F30234619460A4864
:102F2000FFF7DEFE9DF80F30002B04D09DF80F3028
:102F30001846FFF76BFE234619460348FFF7E4FEE9
:102F400000BF04B010BD00BF092F010030B585B02F
:102F500074460190234619460C48FFF7C1FE019BB9
:102F60000393039B1B78002B03D0039B0133039334
:102F7000F7E7039A019BD31A1D46234619460348D7
:102F8000FFF7C2FE2B46184605B030BD4D2F01009D
:102F900030B583B0754603468DF807302B46194689
:102FA0000B48FFF79DFE9DF807302F2B05D99DF8A4
:102FB0000730392B01D8012400E000242B461946A4
:102FC0000348FFF7A1FE2346184603B030BD00BFFB
:102FD000912F010030B585B0754601902B461946FA
:102FE0001348FFF77DFE00230393019B1B681B78AA
:102FF0001846FFF7CDFF0346002B0FD0039A134668
:103000009B0013445B001846019B1B68591C019AE6
:1030100011601B780344303B0393E6E7039C2B4687
:1030200019460348FFF770FE2346184605B030BD29
:10303000D52F010030B589B07546039002910192F9
:1030400000932B4619469148FFF74AFE019B0593D2
:10305000129B03F00203002B0ED10D9A109B9A4293
:103060000AD20D9B1F2B07D80D9B5A1C0D920C9A50
:10307000134430221A70EBE7129B03F00203002B7B
:1030800013D1129B03F00103002B0ED00D9A119B5C
:103090009A420AD20D9B1F2B07D80D9B5A1C0D92EA
:1030A0000C9A134430221A70E6E7129B03F01003C7
:1030B000002B58D0129B03F48063002B16D10D9B7C
:1030C000002B13D00D9A109B9A4203D00D9A119B9E
:1030D0009A420BD10D9B013B0D930D9B002B05D00C
:1030E0000F9B102B02D10D9B013B0D930F9B102BBF
:1030F0000FD1129B03F02003002B0AD10D9B1F2B35
:1031000007D80D9B5A1C0D920C9A134478221A7002
:103110001FE00F9B102B0FD1129B03F02003002BFD
:103120000AD00D9B1F2B07D80D9B5A1C0D920C9A91
:10313000134458221A700CE00F9B022B09D10D9BEF
:103140001F2B06D80D9B5A1C0D920C9A1344622219
:103150001A700D9B1F2B06D80D9B5A1C0D920C9AB2
:10316000134430221A700D9B002B14D00D9A119B22
:103170009A4210D19DF83830002B09D1129B03F0F0
:103180000403002B04D1129B03F00803002B02D090
:103190000D9B013B0D930D9B1F2B24D89DF83830C0
:1031A000002B07D00D9B5A1C0D920C9A13442D2214
:1031B0001A7018E0129B03F00403002B07D00D9B3C
:1031C0005A1C0D920C9A13442B221A700BE0129B7E
:1031D00003F00803002B06D00D9B5A1C0D920C9A8D
:1031E000134420221A70129B03F00203002B16D105
:1031F000129B03F00103002B11D10D9B0793079A3B
:10320000119B9A420BD2019A531C0193039C009B81
:1032100002992020A047079B01330793EFE7002383
:103220000693069A0D9B9A4211D20D9A069BD31AC9
:10323000013B0C9A13441878019A531C0193039C88
:10324000009B0299A047069B01330693E9E7129B76
:1032500003F00203002B0ED0019A059BD31A119A9A
:103260009A4208D9019A531C0193039C009B02992E
:103270002020A047F0E7019C2B4619460348FFF7A2
:1032800043FD2346184609B030BD00BF353001006C
:1032900030B597B074460B900A9109920893234673
:1032A00019463348FFF71CFD002315931A9B002B8A
:1032B00003D11F9B23F010031F931F9B03F4806314
:1032C000002B02D01A9B002B33D01A9B1C9AB3FB05
:1032D000F2F21C9901FB02F29B1A8DF853309DF813
:1032E0005330092B04D89DF853303033DAB20DE057
:1032F0001F9B03F02003002B01D0412200E061223C
:103300009DF853301344DBB20A3BDAB2159B591CCB
:10331000159116A90B4403F8282C1A9A1C9BB2FB92
:10332000F3F31A931A9B002B03D0159B1F2B00D885
:10333000CBE71F9B06931E9B05931D9B04931C9B31
:1033400003939DF86C300293159B01930CAB009393
:10335000089B099A0A990B98FFF76CFE05462346CD
:1033600019460348FFF7D0FC2B46184617B030BD6E
:103370009132010030B597B075460B900A910992D1
:1033800008932B4619463748FFF7AAFC00231593EC
:10339000DDE91A34234303D1229B23F01003229347
:1033A000229B03F48063002B03D0DDE91A3423430E
:1033B00039D0DDE91A01DDE91E2303F0E7FD1C46E3
:1033C00013468DF853309DF85330092B04D89DF8DF
:1033D00053303033DAB20DE0229B03F02003002B90
:1033E00001D0412200E061229DF853301344DBB24A
:1033F0000A3BDAB2159B591C159116A90B4403F828
:10340000282CDDE91E23DDE91A0103F0BFFD034688
:103410000C46CDE91A34DDE91A34234303D0159B59
:103420001F2B00D8C5E71E9B229A0692219A05926F
:10343000209A049203939DF870300293159B019398
:103440000CAB0093089B099A0A990B98FFF7F2FDC1
:1034500004462B4619460348FFF756FC23461846F8
:1034600017B030BD7533010030B59BB0754605907F
:103470000491039202938DED000B2B461946B74839
:10348000FFF72EFC039B1193DDE9000103F02EFDF5
:1034900003461993002318934FF0000310934FF045
:1034A0009E430F9300238DF85F30DDED197AF5EE22
:1034B000C07AF1EE10FA0AD501238DF85F309FED46
:1034C000A87ADDED197A77EE677ACDED197A209B2F
:1034D00003F48063002B01D106231E93189B1F2B3E
:1034E0000ED81E9B092B0BD9189B5A1C18921AAA8E
:1034F0001344302203F8502C1E9B013B1E93EDE732
:10350000DDED197AFDEEE77A17EE903A1693169BE9
:1035100007EE903AF8EEE77A9DED197A37EE677A82
:10352000904A1E9B9B001344D3ED007A67EE277AE6
:10353000CDED0E7ADDED0E7AFCEEE77A17EE903ADD
:103540001593159B07EE903AF8EE677A9DED0E7A8B
:1035500077EE677ACDED107ADDED107AB6EE007A6F
:10356000F4EEC77AF1EE10FA18DD159B01331593CE
:10357000159B07EE903AB8EE677A7A4A1E9B9B003D
:103580001344D3ED007AB4EEE77AF1EE10FA19DBCA
:1035900000231593169B0133169313E0DDED107A8B
:1035A000B6EE007AF4EE477AF1EE10FA0AD1159BE6
:1035B000002B04D0159B03F00103002B02D0159BB8
:1035C00001331593DDED197A9FED677AF4EEC77A32
:1035D000F1EE10FA01DD002456E11E9B002B29D1EB
:1035E000169B07EE903AF8EEE77A9DED197A77EEA2
:1035F000677ACDED107ADDED107AB6EE007AF4EE52
:10360000C77AF1EE10FA03DD169B013316935FE0E3
:10361000DDED107AB6EE007AF4EE477AF1EE10FAAC
:1036200056D1169B03F00103002B51D0169B01339A
:1036300016934DE01E9B1493189B1F2B27D8149BA9
:10364000013B14931599494BA3FB0123DA08134658
:103650009B0013445B00CA1AD3B23033D9B2189B13
:103660005A1C18921AAA13440A4603F8502C159BA8
:103670003E4AA2FB0323DB081593159B002B0CBFCE
:1036800001230023DBB2002B00D1D5E700BF189B3C
:103690001F2B06D8149B5A1E1492002B01D0012315
:1036A00000E00023002B08D0189B5A1C18921AAA7D
:1036B0001344302203F8502CE9E7189B1F2B07D83E
:1036C000189B5A1C18921AAA13442E2203F8502C45
:1036D000189B1F2B28D8169A254B83FB0213991091
:1036E000D317C91A0B469B000B445B00D11ACBB20F
:1036F0003033D9B2189B5A1C18921AAA13440A469E
:1037000003F8502C169B1A4A82FB03129210DB1707
:10371000D31A1693169B002B0CBF01230023DBB298
:10372000002B00D1D4E700BF209B03F00203002B45
:1037300020D1209B03F00103002B1BD0189A1F9B64
:103740009A4217D2189B1F2B14D8189B5A1C1892F8
:103750001AAA1344302203F8502CE5E7693401001B
:1037600000000000207F01000000004FCDCCCCCC39
:1037700067666666189A1F9B9A4210D19DF85F3063
:10378000002B09D1209B03F00403002B04D1209BC4
:1037900003F00803002B02D0189B013B1893189BE1
:1037A0001F2B27D89DF85F30002B08D0189B5A1C80
:1037B00018921AAA13442D2203F8502C1AE0209BC9
:1037C00003F00403002B08D0189B5A1C18921AAA65
:1037D00013442B2203F8502C0CE0209B03F0080329
:1037E000002B07D0189B5A1C18921AAA13442022A7
:1037F00003F8502C209B03F00203002B16D1209BD2
:1038000003F00103002B11D1189B1393139A1F9BF4
:103810009A420BD2039A531C0393059C029B049972
:103820002020A047139B01331393EFE7002312934B
:10383000129A189B9A4212D2189A129BD31A013BE1
:103840001AAA134413F8500C039A531C0393059CB3
:10385000029B0499A047129B01331293E8E7209B37
:1038600003F00203002B0ED0039A119BD31A1F9A68
:103870009A4208D9039A531C0393059C029B04990E
:103880002020A047F0E7039C2B4619460348FFF78A
:103890003BFA234618461BB030BD00BF6934010017
:1038A00070B5A0B076460D900C910B920A933346FA
:1038B0001946A748FFF714FA00231B930C9B002B13
:1038C00001D1A44B0D930A9B1B78002B00F0488478
:1038D0000A9B1B78252B0DD00A9B18781B9A531C2A
:1038E0001B930D9C0B9B0C99A0470A9B01330A93D9
:1038F00000F034BC0A9B01330A9300231F930A9BF8
:103900001B78203B102B57D801A252F823F000BFA0
:1039100091390100B9390100B9390100A539010017
:10392000B9390100B9390100B9390100B9390100CB
:10393000B9390100B9390100B93901007D390100F7
:10394000B939010069390100B9390100B9390100FB
:10395000553901001F9B43F001031F930A9B01335C
:103960000A9301231C932AE01F9B43F002031F9339
:103970000A9B01330A9301231C9320E01F9B43F011
:1039800004031F930A9B01330A9301231C9316E03F
:103990001F9B43F008031F930A9B01330A930123E3
:1039A0001C930CE01F9B43F010031F930A9B0133F1
:1039B0000A9301231C9302E000231C9300BF1C9B6D
:1039C000002B00D09BE700231E930A9B1B78184610
:1039D000FFF7DEFA0346002B05D00AAB1846FFF7C7
:1039E000F9FA1E9018E00A9B1B782A2B14D1249B0D
:1039F0001A1D24921B681693169B002B07DA1F9B37
:103A000043F002031F93169B5B421E9301E0169B3B
:103A10001E930A9B01330A9300231D930A9B1B7874
:103A20002E2B24D11F9B43F480631F930A9B0133E9
:103A30000A930A9B1B781846FFF7AAFA0346002B45
:103A400005D00AAB1846FFF7C5FA1D900FE00A9B98
:103A50001B782A2B0BD1249B1A1D24921B681593CB
:103A6000159B23EAE3731D930A9B01330A930A9B78
:103A70001B78683B122B67D801A252F823F000BFD5
:103A8000F33A0100493B0100293B0100493B010099
:103A9000CD3A0100493B0100493B0100493B01008F
:103AA000493B0100493B0100493B0100493B010002
:103AB000193B0100493B0100493B0100493B010022
:103AC000493B0100493B0100393B01001F9B43F486
:103AD00080731F930A9B01330A930A9B1B786C2BFC
:103AE00034D11F9B43F400731F930A9B01330A9345
:103AF0002CE01F9B43F080031F930A9B01330A9322
:103B00000A9B1B78682B27D11F9B43F040031F9310
:103B10000A9B01330A931FE01F9B43F480731F939A
:103B20000A9B01330A9318E01F9B43F400731F9311
:103B30000A9B01330A9310E01F9B43F480731F9389
:103B40000A9B01330A9308E000BF06E000BF04E0CF
:103B5000A1380100D92E010000BF0A9B1B78253B2C
:103B6000532B00F2EE8201A252F823F02B41010008
:103B70004341010043410100434101004341010031
:103B80004341010043410100434101004341010021
:103B90004341010043410100434101004341010011
:103BA0004341010043410100434101004341010001
:103BB00043410100434101004341010043410100F1
:103BC00043410100434101004341010043410100E1
:103BD00043410100434101004341010043410100D1
:103BE00043410100434101004341010043410100C1
:103BF000493F0100434101004341010043410100AD
:103C000043410100434101004341010043410100A0
:103C10004341010043410100434101004341010090
:103C20004341010043410100434101004341010080
:103C30004341010043410100BD3C010043410100FB
:103C40004341010043410100434101004341010060
:103C50004341010043410100434101004341010050
:103C6000BD3C0100853F0100BD3C01004341010016
:103C7000493F01004341010043410100BD3C0100B7
:103C80004341010043410100434101004341010020
:103C900043410100BD3C0100E340010043410100FC
:103CA000434101000D40010043410100BD3C0100C2
:103CB0004341010043410100BD3C01000A9B1B78C8
:103CC000782B03D00A9B1B78582B02D110231A9310
:103CD00013E00A9B1B786F2B02D108231A930CE088
:103CE0000A9B1B78622B02D102231A9305E00A2358
:103CF0001A931F9B23F010031F930A9B1B78582BCA
:103D000003D11F9B43F020031F930A9B1B78692B51
:103D100007D00A9B1B78642B03D01F9B23F00C0356
:103D20001F931F9B03F48063002B03D01F9B23F082
:103D300001031F930A9B1B78692B04D00A9B1B78F5
:103D4000642B40F08D801F9B03F40073002B2ED05A
:103D5000249B073323F0070303F108022492D3E9DD
:103D60000034CDE90E34DDE90E34002B74F100028D
:103D700002DA5B4264EB4404194622460F9BDB0FD8
:103D8000D8B21A9B4FF000041F9D08951E9D079501
:103D90001D9D0695CDE904340290CDE900120B9BE0
:103DA0001B9A0C990D98FFF7E5FA1B90C8E01F9B32
:103DB00003F48073002B1ED0249B1A1D24921B68D1
:103DC0001193119B002BB8BF5B421946119BDB0F6F
:103DD000DBB21F9A05921E9A04921D9A03921A9AB8
:103DE0000292019300910B9B1B9A0C990D98FFF77F
:103DF0004FFA1B90A4E01F9B03F04003002B05D05B
:103E0000249B1A1D24921B68DBB20EE01F9B03F05B
:103E10008003002B05D0249B1A1D24921B681BB223
:103E200003E0249B1A1D24921B681293129B002B03
:103E3000B8BF5B421946129BDB0FDBB21F9A05929B
:103E40001E9A04921D9A03921A9A0292019300916B
:103E50000B9B1B9A0C990D98FFF71AFA1B906FE0B9
:103E60001F9B03F40073002B20D0249B073323F007
:103E7000070303F108022492D3E900341A9A114689
:103E80004FF000021F9808901E9807901D9806900A
:103E9000CDE9041200220292CDE900340B9B1B9A5B
:103EA0000C990D98FFF766FA1B9049E01F9B03F4ED
:103EB0008073002B16D0249B1A1D24921B681F9A16
:103EC00005921E9A04921D9A03921A9A0292002257
:103ED000019200930B9B1B9A0C990D98FFF7D8F950
:103EE0001B902DE01F9B03F04003002B05D0249B6B
:103EF0001A1D24921B68DBB20EE01F9B03F08003A7
:103F0000002B05D0249B1A1D24921B689BB203E052
:103F1000249B1A1D24921B6813931F9B05931E9BC1
:103F200004931D9B03931A9B029300230193139BFD
:103F300000930B9B1B9A0C990D98FFF7A9F91B9006
:103F40000A9B01330A9309E1249B073323F00703FB
:103F500003F10802249293ED007B1F9B02931E9BAA
:103F600001931D9B0093B0EE470AF0EE670A0B9B8E
:103F70001B9A0C990D98FFF777FA1B900A9B013357
:103F80000A93EBE0012319931F9B03F00203002B1C
:103F900013D1199B5A1C19921E9A9A428CBF012365
:103FA0000023DBB2002B08D01B9A531C1B930D9CE3
:103FB0000B9B0C992020A047EBE7249B1A1D249211
:103FC0001B68D8B21B9A531C1B930D9C0B9B0C991E
:103FD000A0471F9B03F00203002B13D0199B5A1C10
:103FE00019921E9A9A428CBF01230023DBB2002B48
:103FF00008D01B9A531C1B930D9C0B9B0C992020E3
:10400000A047EBE70A9B01330A93A7E0249B1A1D04
:1040100024921B6818931898FEF798FF17901F9B1F
:1040200003F48063002B07D0179A1D9B9A4201D29C
:10403000179B00E01D9B17931F9B03F00203002BAF
:1040400013D1179B5A1C17921E9A9A428CBF0123B8
:104050000023DBB2002B08D01B9A531C1B930D9C32
:104060000B9B0C992020A047EBE7189B1B78002B9B
:104070000BD01F9B03F48063002B04D01D9B5A1EA2
:104080001D92002B01D0012300E00023002B0BD058
:10409000189B5A1C189218781B9A531C1B930D9C42
:1040A0000B9B0C99A047E0E71F9B03F00203002B3A
:1040B00013D0179B5A1C17921E9A9A428CBF012349
:1040C0000023DBB2002B08D01B9A531C1B930D9CC2
:1040D0000B9B0C992020A047EBE70A9B01330A9326
:1040E0003CE008231E931F9B43F021031F930023F2
:1040F0008DF85330249B1A1D24921B681A461F9B6F
:1041000005931E9B04931D9B03931023029300238E
:10411000019300920B9B1B9A0C990D98FFF7B8F82E
:104120001B900A9B01330A9318E01B9A531C1B93A4
:104130000D9C0B9B0C992520A0470A9B01330A93E9
:104140000CE00A9B18781B9A531C1B930D9C0B9B2D
:104150000C99A0470A9B01330A9300BFFFF7B3BB3A
:104160001B9A0B9B9A4202D30B9B5A1E00E01B9A90
:104170000D9C0B9B0C990020A0471B9C33461946B5
:104180000348FEF7C1FD2346184620B070BD00BFAE
:10419000A13801000FB430B587B075462B461946DB
:1041A0000D48FEF79DFD0BAB049303A9049B009300
:1041B0000A9B4FF0FF320948FFF772FB0590059C00
:1041C0002B4619460448FEF79FFD2346184607B0C4
:1041D000BDE8304004B0704795410100092F01004F
:1041E00030B583B0754601902B4619460748FEF757
:1041F00077FD074A019B1A60019C2B46194603482C
:10420000FEF782FD2346184603B030BDE1410100B0
:104210001091010030B583B0754601900B468DF8C2
:10422000033013468DF802302B4619460D48FEF731
:1042300057FD019B1846FFF7D3FF0B4A019B1A60FD
:10424000019B9DF803201A71019B9DF802205A7171
:10425000019C2B4619460348FEF756FD2346184697
:1042600003B030BD15420100747A010030B583B04F
:10427000754601902B4619460648FEF731FD00248D
:104280002B4619460348FEF73FFD2346184603B068
:1042900030BD00BF6D42010038B574462346194653
:1042A0000748FEF71DFD0020FFF7E0FF03461D460F
:1042B000234619460248FEF727FD2B46184638BD0F
:1042C00099420100F0B589B07546CDE900012B4651
:1042D00019462B48FEF704FDDDE90034CDE906342C
:1042E0008DF808602B4619462648FEF7F9FC4FF07A
:1042F00000034FF00004CDE90434DDE90634B4F1E5
:10430000FF3F08BFB3F1FF3F06D14FF0FF334FF03F
:10431000FF34CDE904340AE0FCF732FB0A460146DB
:10432000DDE906345E1844EB0207CDE9046701239A
:104330000393FCF725FB0A460146DDE90434A2425B
:1043400008BF994234BF01230023DBB2002B08D001
:1043500002AB1846FFF78AFF0346002BE9D0002383
:104360000393039C2B4619460648FEF7CDFC2B46CB
:1043700019460348FEF7C8FC2346184609B0F0BDAD
:10438000C5420100816B010010B582B07446CDE9D1
:104390000001234619460748FEF7A2FCDDE90001AB
:1043A000FFF790FF234619460248FEF7ADFC00BF19
:1043B00002B010BD8943010030B583B0754601904D
:1043C0002B4619460748FEF78BFC074A019B1A60EB
:1043D000019C2B4619460348FEF796FC23461846D7
:1043E00003B030BDB9430100C890010030B583B0BF
:1043F000754601900B468DF8033013468DF8023058
:104400002B4619461648FEF76BFC019B1846FFF732
:10441000D3FF144A019B1A60019B00221A71019B71
:1044200003F10C02019B9A60019B0C339DF8022062
:104430009DF803101846FFF7EDFE9DF80330022BA0
:1044400001D1012200E00022019B1A71019C2B4640
:1044500019460348FEF758FC2346184603B030BD02
:10446000ED4301008090010030B583B075460190A6
:104470002B4619461948FEF733FC019B9A68019BAD
:104480009B681B681B68002110469847019B9A682F
:10449000019B9B681B6830331B6810469847034696
:1044A0001A4601239340DC43019B9A68019B9B6859
:1044B0001B682C331B681046984703461A46084B66
:1044C00053F822301A6821460A401A602B461946D2
:1044D0000248FEF719FC00BF03B030BD694401007B
:1044E0008801001030B583B0754601902B461946FF
:1044F0001948FEF7F5FB019B9A68019B9B681B68B6
:104500001B68002110469847019B9A68019B9B6895
:104510001B6830331B681046984703461A46012330
:1045200003FA02F4019B9A68019B9B681B682C3379
:104530001B681046984703461A46084B53F822302A
:104540001A6821460A431A602B4619460248FEF7AC
:10455000DBFB00BF03B030BDE54401008801001063
:1045600010B582B0744601900B468DF80330234697
:1045700019460B48FEF7B4FB9DF80330002B03D01F
:104580000198FFF7AFFF02E00198FFF76DFF2346A8
:1045900019460348FEF7B8FB00BF02B010BD00BFCC
:1045A0006145010030B583B0754601902B46194630
:1045B0001348FEF795FB019B9A68019B9B681B685B
:1045C00030331B681046984703461A460123934030
:1045D0001C46019B9A68019B9B681B682C331B68D7
:1045E0001046984703461A46064B53F822309C6102
:1045F0002B4619460248FEF787FB00BF03B030BDCB
:10460000A54501008801001030B583B075460190C2
:104610002B4619461348FEF763FB019B9A68019BE2
:104620009B681B6830331B681046984703461A4640
:10463000012393401C46019B9A68019B9B681B6861
:104640002C331B681046984703461A46064B53F80E
:104650002230DC612B4619460248FEF755FB00BFAD
:1046600003B030BD094601008801001010B582B0CA
:10467000744601900B468DF80330234619460B48CB
:10468000FEF72EFB9DF80330002B03D00198FFF7B7
:1046900089FF02E00198FFF7B7FF23461946034858
:1046A000FEF732FB00BF02B010BD00BF6D46010037
:1046B00030B583B0754601902B4619461548FEF774
:1046C0000FFB019B9A68019B9B681B6830331B683A
:1046D0001046984703461A46012303FA02F4019B49
:1046E0009A68019B9B681B682C331B68104698478F
:1046F00003461A46084B53F822305A6921464A406D
:104700005A612B4619460348FEF7FEFA00BF03B074
:1047100030BD00BFB14601008801001030B585B042
:10472000754601902B4619461848FEF7D9FA019BA9
:104730009A68019B9B681B682C331B68104698473E
:1047400003461A46124B53F822305C69019B9A6863
:10475000019B9B681B6830331B68104698470346D3
:1047600024FA03F303F00103002B14BF01230023F9
:104770008DF80F309DF80F402B4619460348FEF781
:10478000C3FA2346184605B030BD00BF1D470100DF
:104790008801001030B583B0754601902B4619464C
:1047A0001648FEF79DFA019B9A68019B9B681B685F
:1047B0002C331B681046984703461A46104B53F893
:1047C00022305C69019B9A68019B9B681B683033AF
:1047D0001B6810469847034624FA03F303F00103CD
:1047E000002B14BF01230023DCB22B4619460348DB
:1047F000FEF78AFA2346184603B030BD95470100FC
:104800008801001030B583B0754601902B461946DB
:104810000648FEF765FA019B9C682B46194603483B
:10482000FEF772FA2346184603B030BD0548010072
:1048300030B587B0754603902B4619461748FEF7EA
:104840004FFA039B1B79012B94BF01230023DBB29A
:104850008DF817309DF8173083F00103DBB2002B81
:1048600010D0039B9A68039B9B681B682C331B68C2
:104870001046984703460093A623094A09490A4867
:10488000FFF788FC9DF817402B4619460348FEF7B2
:104890003BFA2346184607B030BD00BF314801003F
:1048A00080910100748B01004480010070B582B0DA
:1048B000764601900091334619461148FEF710FAEA
:1048C0000198FFF7B5FF009C019B1B791D46019BDA
:1048D0009A68019B9B681B6830331B681046984799
:1048E00003461946074A6B010B4442F823403346FE
:1048F00019460348FEF708FA00BF02B070BD00BFBA
:10490000AD4801004004001030B583B075460190F9
:104910002B4619460F48FEF7E3F9019B1B791C460D
:10492000019B9A68019B9B681B6830331B6810468B
:10493000984703461946084A63010B44002142F890
:1049400023102B4619460348FEF7DEF900BF03B0DB
:1049500030BD00BF094901004004001030B583B0EC
:10496000754603468DF807302B4619460648FEF774
:10497000B7F99DF807402B4619460348FEF7C4F9DE
:104980002346184603B030BD5D49010010B584B020
:10499000744603900B468DF80B3023461946194890
:1049A000FEF79EF90398FFF743FF9DF80B30012BAC
:1049B00008D0012B02D3022B08D00EE0039800F0A0
:1049C000B1F817E0039800F0EBF813E0039800F05B
:1049D000A9F8039800F0E4F80CE09DF80B301846B5
:1049E000FFF7BCFF03460093D223074A0749084854
:1049F000FFF7D0FB234619460248FEF785F900BFB2
:104A000004B010BD8D4901009C910100808B010014
:104A1000D480010010B584B0744603900B468DF825
:104A20000B30234619461948FEF75AF90398FFF749
:104A3000FFFE9DF80B30012B08D0012B02D3022B77
:104A400008D00EE0039800F0E9F817E0039800F0B2
:104A500023F913E0039800F0E1F8039800F01CF943
:104A60000CE09DF80B301846FFF778FF03460093E3
:104A7000F223074A07490848FFF78CFB23461946EB
:104A80000248FEF741F900BF04B010BD154A01000D
:104A9000449101008C8B0100D480010010B584B0DA
:104AA00074460390029113468DF807302346194649
:104AB0000B48FEF715F90398FFF7BAFE0299039821
:104AC000FFF7F4FE9DF8073019460398FFF75EFFE5
:104AD000234619460248FEF717F900BF04B010BD7F
:104AE0009D4A010010B582B07446019023461946D4
:104AF0000B48FEF7F5F80198FFF79AFE0198FFF7CB
:104B000003FF019800F08AF8019800F0C5F82346E9
:104B100019460348FEF7F8F800BF02B010BD00BF09
:104B2000E54A010030B583B0754601902B46194621
:104B30001948FEF7D5F8019B9A68019B9B681B6892
:104B400030331B681046984703461A46012303FA80
:104B500002F0019B1B791946104A0B469B000B443F
:104B60009B0013440C331B681A680446019B1B7995
:104B700018460A4903469B0003449B000B440C3330
:104B80001B6822431A602B4619460348FEF7BCF8FF
:104B900000BF03B030BD00BF254B0100A0010010D5
:104BA00030B583B0754601902B4619461948FEF77B
:104BB00097F8019B9A68019B9B681B6830331B68C0
:104BC0001046984703461A46012303FA02F0019B58
:104BD0001B791946104A0B469B000B449B0013445B
:104BE00010331B681A680446019B1B7918460A4952
:104BF00003469B0003449B000B4410331B68224375
:104C00001A602B4619460348FEF77EF800BF03B032
:104C100030BD00BFA14B0100A001001030B583B032
:104C2000754601902B4619461948FEF759F8019B25
:104C30009A68019B9B681B6830331B681046984735
:104C400003461A4601239340D843019B1B7919461A
:104C5000104A0B469B000B449B0013440C331B680B
:104C60001A680446019B1B7918460A4903469B00B3
:104C700003449B000B440C331B6822401A602B46F4
:104C800019460348FEF740F800BF03B030BD00BF2F
:104C90001D4C0100A001001030B583B07546019095
:104CA0002B4619461948FEF71BF8019B9A68019B91
:104CB0009B681B6830331B681046984703461A46AA
:104CC00001239340D843019B1B791946104A0B4698
:104CD0009B000B449B00134410331B681A68044666
:104CE000019B1B7918460A4903469B0003449B001D
:104CF0000B4410331B6822401A602B4619460348A8
:104D0000FEF702F800BF03B030BD00BF994C0100B0
:104D1000A001001082B00190034A019B1A60019B20
:104D2000184602B0704700BF5C90010000B583B028
:104D30000190019B1846FFF7EDFF044A019B1A60A2
:104D4000019B184603B05DF804FB00BFE87A010040
:104D500030B583B0754601902B4619460648FDF7DD
:104D6000BFFF019C2B4619460348FDF7CDFF2346A4
:104D7000184603B030BD00BF514D010030B583B0BF
:104D8000754601902B4619460748FDF7A9FF074ACB
:104D9000019B1A60019C2B4619460348FDF7B4FF9E
:104DA0002346184603B030BD7D4D0100349001000C
:104DB00030B583B07546019000912B4619460848DE
:104DC000FDF78EFF074A019B1A60019C2B4619468E
:104DD0000348FDF799FF2346184603B030BD00BFD6
:104DE000B14D01001091010030B583B075460190BE
:104DF00000912B4619460F48FDF772FF019B009A60
:104E000011461846FFF7D4FF0B4A019B1A60009B1E
:104E10001A79019B1A71009B5A79019B5A71019C66
:104E20002B4619460348FDF76FFF2346184603B08B
:104E300030BD00BFE94D0100747A010030B583B088
:104E40007546019000912B4619463148FDF748FF01
:104E5000019B1846FFF792FF019B04331846FFF7AA
:104E600065FF2C4A019B1A602B4A019B5A60019BEB
:104E700003F11402019B9A60019B03F11C02019B48
:104E8000DA60019B03F12402019B1A61019B03F18B
:104E900014040098FFF75CFF024613465B001344BE
:104EA000DB001E4A134419462046FFF79DFF019B75
:104EB00003F11C040098FFF74BFF024613465B000A
:104EC0001344DB000833154A134419462046FFF704
:104ED0008BFF019B03F124040098FFF739FF024682
:104EE00013465B001344DB0010330C4A134419468D
:104EF0002046FFF779FF019B009ADA62019C2B465E
:104F000019460348FDF700FF2346184603B030BD9D
:104F10003D4E0100E88F0100109001009C8B0100C4
:104F200070B586B076460190334619463048FDF795
:104F3000D7FE019BDB6A1846FFF70AFF034605937D
:104F4000019B181D019B5B6814331B68059A920036
:104F500028490A4411469847019B9868019B9B6821
:104F60001B681B682449059A0A4412781146984721
:104F7000019BD868019BDB681B681B681E49059A6A
:104F80000A44127811469847019B1869019B1B69D6
:104F90001B681B681849059A0A44127811469847FD
:104FA000164A059B52F823305B681449059A51F85C
:104FB0002240049301230393334619461048FDF71A
:104FC0008FFE0122039B02FA03F31A46049B42EA76
:104FD0000305334619460A48FDF796FE65603346D9
:104FE00019460348FDF790FE00BF06B070BD00BF34
:104FF000214F0100E48B0100988B0100C8010010D3
:105000002D6C010030B585B0754601902B461946D0
:105010001748FDF765FE019BDB6A1846FFF798FE0F
:105020000246144B53F82230DB68039304230293A7
:105030002B4619461048FDF753FE0122029B02FA47
:1050400003F31A46039B1340002B14BF01230023D4
:10505000DCB22B4619460848FDF756FE2B4619468A
:105060000348FDF751FE2346184605B030BD00BF8A
:1050700005500100C8010010696C010030B585B011
:10508000754601900B46ADF802302B461946144880
:10509000FDF726FE019BDB6A1846FFF759FE034623
:1050A0000393104A039B52F82330BDF802209A6004
:1050B0000198FFF7A7FF0346002B01D000BFF7E7D9
:1050C000084A039B52F823309B689CB22B46194632
:1050D0000348FDF719FE2346184605B030BD00BF52
:1050E0007D500100C801001010B586B074460390D1
:1050F000234619461248FDF7F3FD01238DF81730BA
:1051000000238DF8163000238DF8153030238DF8EC
:105110001430072300220021039800F05BF83023AD
:105120000093002300220121039800F009FA23468E
:1051300019460348FDF7E8FD00BF06B010BD00BFEB
:10514000E950010030B583B0754603468DF807304D
:105150002B4619460648FDF7C3FD9DF807402B4630
:1051600019460348FDF7D0FD2346184603B030BD6D
:105170004551010030B583B0754603468DF80730C0
:105180002B4619460648FDF7ABFD9DF807402B4618
:1051900019460348FDF7B8FD2346184603B030BD55
:1051A0007551010030B583B0754603468DF8073060
:1051B0002B4619460648FDF793FD9DF807402B4600
:1051C00019460348FDF7A0FD2346184603B030BD3D
:1051D000A551010070B598B074460190084611467B
:1051E0001A4603468DF803300B468DF802301346FD
:1051F0008DF80130234619467548FDF771FD019B76
:10520000DB6A1846FFF7A4FD03461793019B181DA0
:10521000179B9B006F4A13441946FBF77DFC9DF8D2
:105220000230022B02D107238DF801306A4A179B06
:1052300052F823301E689DF801301846FFF782FFB0
:1052400003461946644A179B52F8235008960B46AA
:105250008DF81F3000230693042305932346194637
:105260005E48FDF73DFD4FF0FF3304932023039389
:10527000059BC3F120034FF0FF3222FA03F30293A0
:10528000029A069B02FA03F3DB43089A1340089341
:105290009DF81F20029B1A40069B02FA03F3089A0E
:1052A00013430893089E234619464C48FDF72CFDEE
:1052B0002E60494A179B52F823301E689DF8023031
:1052C0001846FFF757FF03461946434A179B52F803
:1052D00023500F960B468DF83B3004230D93022389
:1052E0000C93234619463D48FDF7FAFC4FF0FF3377
:1052F0000B9320230A930C9BC3F120034FF0FF3242
:1053000022FA03F30993099A0D9B02FA03F3DB4394
:105310000F9A13400F939DF83B20099B1A400D9B59
:1053200002FA03F30F9A13430F930F9E2346194675
:105330002A48FDF7E9FC2E60274A179B52F82330D4
:105340005E689DF803301846FFF72CFF03461946A8
:10535000214A179B52F8235016960B468DF857306A
:105360000223149301231393234619461B48FDF788
:10537000B7FC4FF0FF33129320231193139BC3F11B
:1053800020034FF0FF3222FA03F31093109A149B7C
:1053900002FA03F3DB43169A134016939DF8572045
:1053A000109B1A40149B02FA03F3169A13431693A8
:1053B000169E234619460948FDF7A6FC6E60234653
:1053C00019460348FDF7A0FC00BF18B070BD00BF30
:1053D000D5510100E48B0100C8010010AD6C010043
:1053E00070B596B074460190234619465048FDF7B3
:1053F00077FC0023ADF85630019BDB6A1846FFF7B7
:10540000A7FC03461493019B181D149B9B00494A5B
:1054100013441946FBF780FB474A149B52F823308C
:105420001B6807930023069304230593234619461C
:105430004248FDF755FC4FF0FF33049320230393BC
:10544000059BC3F120034FF0FF3222FA03F30293CE
:10545000079A069BDA40029B02EA03052346194697
:105460003648FDF751FCADB2334A149B52F8233055
:105470001B680D9304230C9302230B9323461946B8
:105480002E48FDF72DFC4FF0FF330A93202309939C
:105490000B9BC3F120034FF0FF3222FA03F3089372
:1054A0000D9A0C9BDA40089B02EA03062346194634
:1054B0002248FDF729FCB3B25B019BB22B449DB29D
:1054C0001D4A149B52F823305B68139302231293F6
:1054D00001231193234619461848FDF701FC4FF0AC
:1054E000FF33109320230F93119BC3F120034FF040
:1054F000FF3222FA03F30E93139A129BDA400E9BAB
:1055000002EA0306234619460C48FDF7FDFBB3B239
:105510001B029BB22B44ADF85630BDF856502346C3
:1055200019460348FDF7F0FB2B46184616B070BD30
:10553000E1530100E48B0100C8010010216D01005E
:1055400070B598B074460190084611461A46034655
:105550008DF803300B468DF8023013468DF801307C
:10556000234619466C48FDF7BBFB019BDB6A1846D6
:10557000FFF7EEFB03461793019B181D179B9B003B
:10558000664A13441946FBF7C7FA654A179B52F857
:1055900023301B686249179A51F8225008939DF8EE
:1055A00003308DF81F30062306930123059323460D
:1055B00019465C48FDF794FB4FF0FF33049320231A
:1055C0000393059BC3F120034FF0FF3222FA03F34C
:1055D0000293029A069B02FA03F3DB43089A1340F4
:1055E00008939DF81F20029B1A40069B02FA03F3C2
:1055F000089A13430893089E234619464948FDF725
:1056000083FB2E60464A179B52F823301B6844499F
:10561000179A51F822500F939DF802308DF83B30C5
:1056200007230D9301230C93234619463D48FDF7AC
:1056300057FB4FF0FF330B9320230A930C9BC3F1CE
:1056400020034FF0FF3222FA03F30993099A0D9BCE
:1056500002FA03F3DB430F9A13400F939DF83B20AC
:10566000099B1A400D9B02FA03F30F9A13430F9301
:105670000F9E234619462B48FDF746FB2E60284A0D
:10568000179B52F823301B682549179A51F822506E
:1056900016939DF801308DF8573008231493082392
:1056A0001393234619462048FDF71AFB4FF0FF33AA
:1056B000129320231193139BC3F120034FF0FF3269
:1056C00022FA03F31093109A149B02FA03F3DB43BC
:1056D000169A134016939DF85720109B1A40149B5E
:1056E00002FA03F3169A13431693169E234619469D
:1056F0000D48FDF709FB2E60094A179B52F823302D
:105700009DF870201A61234619460348FDF7FCFAFC
:1057100000BF18B070BD00BF41550100E48B01000F
:10572000C8010010756D0100AD6C010070B594B03A
:1057300074460190234619465848FDF7D1FA0023D4
:105740001393019BDB6A1846FFF702FB0346129393
:10575000019B181D129B9B00514A13441946FBF7ED
:10576000DBF9504A129B52F823301B690793002340
:10577000069308230593234619464B48FDF7B0FAD4
:105780004FF0FF33049320230393059BC3F12003C1
:105790004FF0FF3222FA03F30293079A069BDA4096
:1057A000029B02EA0305234619463F48FDF7ACFA7F
:1057B0003C4A129B52F823301B680D9308230C932C
:1057C00008230B93234619463748FDF789FA4FF013
:1057D000FF330A93202309930B9BC3F120034FF05F
:1057E000FF3222FA03F308930D9A0C9BDA40089BD0
:1057F00002EA0306234619462B48FDF785FA3302D1
:105800001D44284A129B52F823301B680F9307232C
:105810000E93234619462548FDF762FA01220E9B96
:1058200002FA03F31A460F9B1340002B14BF012307
:105830000023DEB2234619461C48FDF765FA3346BD
:105840001B041D44174A129B52F823301B68119306
:1058500006231093234619461448FDF741FA012206
:10586000109B02FA03F31A46119B1340002B14BF3E
:1058700001230023DEB2234619460C48FDF744FA03
:1058800033469B042B441393139D23461946034828
:10589000FDF73AFA2B46184614B070BD2D5701009B
:1058A000E48B0100C8010010216D0100696C01004A
:1058B00030B583B0754601902B4619460748FDF771
:1058C0000FFA074A019B1A60019C2B4619460348B0
:1058D000FDF71AFA2346184603B030BDB15801004F
:1058E000BC8F010030B583B0754601908DF8001073
:1058F00011461A460B468DF8033013468DF80230D8
:105900002B4619461D48FDF7EBF9019B1846FFF79A
:10591000CFFF1B4A019B1A60019B03F10802019B08
:105920005A60019B083302211846FFF787FA019B52
:1059300003F14002019B9A63019B03F15402019B16
:10594000DA63019B40339DF802209DF8031018464E
:10595000FEF74CFD019B54339DF81C209DF8181058
:105960001846FEF743FD019C2B4619460348FDF7F8
:10597000CBF92346184603B030BD00BFE5580100FF
:10598000908F010030B585B0754603902B461946BF
:105990002748FDF7A5F9039B9A6B039B9B6B1B683C
:1059A00004331B6810469847039B9A6B039B9B6BC1
:1059B0001B680C331B6810469847039BDA6B039BEC
:1059C000DB6B1B6804331B6810469847039BDA6B3C
:1059D000039BDB6B1B680C331B6810469847039BCB
:1059E0005868039B5B681B6818331C68022300938C
:1059F0000E2300220021A047039B5868039B5B688D
:105A00001B6810331C68072300220021A047039B5A
:105A10005A68039B5B681B681B68104698472B46B7
:105A200019460348FDF770F900BF05B030BD00BF4F
:105A30008559010030B58BB07546039002912B4615
:105A40001946A748FDF74CF900238DF827300023AD
:105A50008DF82630039B1B681C68029B03F108022B
:105A600001230193642300931346002240210398ED
:105A7000A0470246029B1A619DF8273001338DF83A
:105A80002730039B1B681C68029B03F1080201235B
:105A90000193642300931346002240210398A047FA
:105AA0000246029B1A61029B1B7AFF2B08D0029BC5
:105AB0001B7A03F00103002B02D001238DF826305E
:105AC0004FF00A004FF00001FEF75EFC9DF8273012
:105AD000F92B04D89DF82630002B00D1CCE79DF897
