:020000021000EC
:1000000000000110B94B0100155201001902010056
:10001000155201001552010015520100DA69F7EF7F
:100020000000000000000000000000003156010048
:100030001552010000000000615601001552010038
:100040001552010015520100155201001552010010
:100050001552010015520100155201001552010000
:1000600015520100155201001552010015520100F0
:100070001552010000000000155201001552010048
:1000800015520100155201001552010015520100D0
:1000900015520100155201001552010015520100C0
:1000A00015520100155201001552010015520100B0
:1000B00015520100155201001552010015520100A0
:1000C0001552010015520100155201001552010090
:1000D0001552010015520100155201001552010080
:1000E000155201006CA9010000000010600500001D
:1000F0006CA9010000000020000000006005001055
:10010000540B0000000000200000000086B0002317
:100110000593059A13465B0013449B001D4A134444
:100120001D4A934233D21B49059A13465B00134480
:100130009B000B441B6803931649059A13465B000A
:1001400013449B000B445B6802931249059A1346C3
:100150005B0013449B000B4408331B68019300238E
:100160000493049A019B9A420DD2049B9B00039A2C
:100170001A44049B9B0002990B4412681A60049B6A
:1001800001330493EDE7059B01330593C1E700BFFD
:1001900006B07047E4000100FC00010084B00023B9
:1001A0000393039BDB00134A1344134A93421ED26A
:1001B000104A039B52F8333001930E4A039BDB0035
:1001C00013445B68009300230293029A009B9A42B7
:1001D00009D2029B9B00019A134400221A60029BE1
:1001E00001330293F1E7039B01330393D9E700BF87
:1001F00004B07047FC0001000C010100DFF814009E
:10020000016841F470010160BFF34F8FBFF36F8F3E
:1002100000BF704788ED00E01EF0040F0CBFEFF345
:100220000880EFF309808169004A1047DD52010020
:1002300000BF7047FFFFFFFFFFFFFFFFFFFFFFFF54
:10024000FFFFFFFFFFFFFFFFFFFFFFFFFFFFFFFFBE
:10025000FFFFFFFFFFFFFFFFFFFFFFFFFFFFFFFFAE
:10026000FFFFFFFFFFFFFFFFFFFFFFFFFFFFFFFF9E
:10027000FFFFFFFFFFFFFFFFFFFFFFFFFFFFFFFF8E
:10028000FFFFFFFFFFFFFFFFFFFFFFFFFFFFFFFF7E
:10029000FFFFFFFFFFFFFFFFFFFFFFFFFFFFFFFF6E
:1002A000FFFFFFFFFFFFFFFFFFFFFFFFFFFFFFFF5E
:1002B000FFFFFFFFFFFFFFFFFFFFFFFFFFFFFFFF4E
:1002C000FFFFFFFFFFFFFFFFFFFFFFFFFFFFFFFF3E
:1002D000FFFFFFFFFFFFFFFFFFFFFFFFFFFFFFFF2E
:1002E000FFFFFFFFFFFFFFFFFFFFFFFFFFFFFFFF1E
:1002F000FFFFFFFFFFFFFFFFFFFFFFFFFFFFFFFF0E
:10030000F8B500BFF8BC08BC9E4670474D0301001D
:10031000053A010085510100F17C0100F8B500BFEC
:10032000F8BC08BC9E46704710B5054C237833B91D
:10033000044B13B10448AFF300800123237010BDB8
:1003400060050010000000006CA9010008B5034B17
:100350001BB103490348AFF3008008BD0000000053
:10036000640500106CA9010030B583B0754601909A
:100370000B468DF8033013468DF802302B46194694
:100380000E4805F0A5F8019B9DF803201A70019B0B
:100390009DF802205A709DF80330022B01D10122F2
:1003A00000E00022019B9A70019C2B4619460348ED
:1003B00005F0A2F82346184603B030BD69030100DA
:1003C00010B582B074460190234619460F4805F0D7
:1003D0007FF8019B1B781A460D4B53F822301A68A0
:1003E000019B5B78194601238B401946019B1B78C2
:1003F0001846074B53F820300A431A602346194623
:10040000024805F079F800BF02B010BDC103010039
:100410000000001010B582B07446019023461946C2
:100420000B4805F055F8019B5B781A46012303FA47
:1004300002F2019B1B781946064B53F821309A6152
:1004400023461946024805F057F800BF02B010BD18
:10045000150401000000001010B582B07446019030
:10046000234619460B4805F033F8019B5B781A4682
:10047000012303FA02F2019B1B781946064B53F83D
:100480002130DA6123461946024805F035F800BFED
:1004900002B010BD590401000000001070B576468E
:1004A00033461946074805F013F8074BD3E90045D2
:1004B00033461946034805F01FF823462C461846D4
:1004C000214670BD9D0401008005001070B5744682
:1004D000234619460C4804F0FBFF0C4B1B68984759
:1004E0004FF47A724FF0000307F0ACFC02460B4663
:1004F00015461E4623461946034804F0FDFF2B46C9
:1005000034461846214670BDCD0401001800001085
:1005100030B583B0754601902B461946064804F065
:10052000D7FF00242B461946034804F0E5FF234675
:10053000184603B030BD00BF1105010038B5744640
:1005400023461946074804F0C3FF0020FFF7E0FFE9
:1005500003461D4623461946024804F0CDFF2B46AC
:10056000184638BD3D050100F0B589B07546CDE9A6
:1005700000012B4619462B4804F0AAFFDDE90034A0
:10058000CDE906348DF808602B461946264804F05C
:100590009FFF4FF000034FF00004CDE90434DDE984
:1005A0000634B4F1FF3F08BFB3F1FF3F06D14FF06F
:1005B000FF334FF0FF34CDE904340AE0FFF786FF44
:1005C0000A460146DDE906345E1844EB0207CDE930
:1005D000046701230393FFF779FF0A460146DDE92B
:1005E0000434A24208BF994234BF01230023DBB286
:1005F000002B08D002AB1846FFF78AFF0346002BFA
:10060000E9D000230393039C2B461946064804F0C7
:1006100073FF2B461946034804F06EFF2346184625
:1006200009B0F0BD690501003D0D010010B582B0B3
:100630007446CDE9000123461946074804F048FFF7
:10064000DDE90001FFF790FF23461946024804F058
:1006500053FF00BF02B010BD2D06010030B583B0BE
:10066000754601900B468DF803302B461946084815
:1006700004F02EFF019B9DF803201A70019C2B466D
:100680001946034804F038FF2346184603B030BD2E
:100690005D06010030B583B07546019008461146ED
:1006A0001A4603468DF803300B468DF80230134688
:1006B0008DF801302B4619469A4804F009FF019B3A
:1006C0001B78012B0FD0022B19D0002B23D1964B76
:1006D000D3F8C430944A43F40013C2F8C4300198EC
:1006E00000F01EFA17E0904BD3F8C4308E4A43F462
:1006F0008063C2F8C430019800F012FA0BE08A4B14
:10070000D3F8C430884A43F48013C2F8C430019847
:1007100000F006FA00BF9DF81830002B79D1019B3C
:100720001B781A46814B53F822301B68019A1278C5
:1007300011467E4A52F821201B0C1B041360019BBA
:100740001B781A46794B53F822301A689DF803300B
:10075000013B1946019B1B781846744B53F8203017
:100760000A431A60019B1B781A46704B53F82230DB
:100770001A689DF802301B011946019B1B78184628
:100780006A4B53F820300A431A60019B1B781A46C3
:10079000664B53F822301A699DF801301946019BC7
:1007A0001B781846614B53F820300A431A61019BAD
:1007B0001B781A465D4B53F822301A68019B1B7850
:1007C00019465A4B53F8213042F480721A60019B4B
:1007D0001B781A46554B53F822305A68019B1B78F8
:1007E0001946524B53F8213022F007025A60019B00
:1007F0001B781A464D4B53F822305A68019B1B78E0
:1008000019464A4B53F8213042F002025A60012443
:100810007EE09DF81830012B79D1019B1B781A4698
:10082000424B53F822301B68019A127811463F4A16
:1008300052F821201B0C1B041360019B1B781A46E5
:100840003A4B53F822301A689DF80330013B1946A1
:10085000019B1B781846354B53F820300A431A6029
:10086000019B1B781A46314B53F822301A689DF8C9
:1008700002301B011946019B1B7818462B4B53F87D
:1008800020300A431A60019B1B781A46274B53F805
:1008900022301A68019B1B781946244B53F82130EB
:1008A00042F480721A60019B1B781A461F4B53F862
:1008B00022301A699DF801301946019B1B781846B1
:1008C0001A4B53F820300A431A61019B1B781A46D1
:1008D000164B53F822305A68019B1B781946134B6C
:1008E00053F8213022F007025A60019B1B781A4608
:1008F0000E4B53F822305A68019B1B7819460B4B5C
:1009000053F8213042F006025A60012400E000242E
:100910002B461946034804F0EFFD2346184603B062
:1009200030BD00BF9506010000C00F401C00001044
:1009300010B58EB074460190234619463A4804F02B
:10094000C7FD019B1B78012B24D0022B43D0002B29
:1009500061D10CAB102200211846FFF705FD0AAB50
:10096000012200211846FFF7FFFC0CAB1846FFF7E9
:1009700027FD0AAB1846FFF723FD0CAB1846FFF71F
:100980006BFD0AAB1846FFF767FD284804F070FDC1
:1009900000BF40E008AB062200211846FFF7E4FC48
:1009A00006AB192200211846FFF7DEFC08AB1846FB
:1009B000FFF706FD06AB1846FFF702FD08AB184629
:1009C000FFF74AFD06AB1846FFF746FD184804F04E
:1009D0004FFD00BF1FE004AB0A2201211846FFF7BC
:1009E000C3FC02AB062200211846FFF7BDFC04AB96
:1009F0001846FFF7E5FC02AB1846FFF7E1FC04AB35
:100A00001846FFF729FD02AB1846FFF725FD0948F8
:100A100004F02EFD00BF23461946034804F06CFD88
:100A200000BF0EB010BD00BF3109010034820100CB
:100A30004C8201006482010010B58EB074460190B2
:100A400023461946354804F043FD019B1B78012BD2
:100A500021D0022B3DD0002B58D10CAB102200210D
:100A60001846FFF781FC0AAB012200211846FFF768
:100A70007BFC0CAB1846FFF7A3FC0AAB1846FFF74C
:100A80009FFC0CAB1846FFF7C5FC0AAB1846FFF7F6
:100A9000C1FC00BF3AE008AB062200211846FFF770
:100AA00063FC06AB192200211846FFF75DFC08AB7A
:100AB0001846FFF785FC06AB1846FFF781FC08AB2C
:100AC0001846FFF7A7FC06AB1846FFF7A3FC00BFCC
:100AD0001CE004AB0A2201211846FFF745FC02ABDB
:100AE000062200211846FFF73FFC04AB1846FFF72B
:100AF00067FC02AB1846FFF763FC04AB1846FFF730
:100B000089FC02AB1846FFF785FC00BF2346194657
:100B1000024804F0F1FC00BF0EB010BD390A01001C
:100B200010B582B074460190234619462A4804F055
:100B3000CFFC019B1B78012B19D0022B2DD0002B51
:100B400041D1019B01330F220021184602F0A0FF82
:100B5000019B013311220021184602F0FFFF019B87
:100B6000013312220021184603F05EF82BE0019BAE
:100B7000013307220021184602F08AFF019B01334E
:100B800008220021184602F0E9FF019B01330922E7
:100B90000021184603F048F815E0019B01330022BC
:100BA0000121184602F074FF019B01330422012148
:100BB000184602F0D3FF019B0133012201211846A0
:100BC00003F032F800BF23461946034804F094FCB2
:100BD00000BF02B010BD00BF210B010070B582B094
:100BE000764601900B468DF80330334619462C4863
:100BF00004F06EFC019B1B781A462A4B53F82230F6
:100C0000DB6803F00203002B14BF01230023DBB2D7
:100C1000002B09D0019B1B781A46224B53F8223037
:100C20009DF803209A6002E0FF2500242BE0019B41
:100C30001B781A461B4B53F82230DB6803F0100375
:100C4000002B14BF01230023DBB2002B00D0EEE702
:100C5000019B1B781A46134B53F82230DB6803F0D4
:100C60000403002B14BF01230023DBB2002B09D0A7
:100C7000019B1B781A460B4B53F822309B68DDB260
:100C8000002400E0012433461946054804F034FCF2
:100C9000012C00D100E02B46184602B070BD00BF09
:100CA000DD0B01001C00001010B588B074460390E5
:100CB000234619461F4804F00BFC0398FFF738FE43
:100CC0004FF47A704FF00001FFF7B0FC9F210398BA
:100CD000FFF784FF00230793079B032B0FDC9F2163
:100CE0000398FFF77BFF03469AB2079B5B0008A9B6
:100CF0000B4423F80C2C079B01330793ECE7039874
:100D0000FFF79AFEBDF814301946BDF816301A46A2
:100D1000BDF818301846BDF81A300093034606484F
:100D200005F030FE23461946024804F0E5FB00BFFB
:100D300008B010BDA90C01007C8201002DE93048EB
:100D400088B07546CDE902018DF804202B4619467E
:100D5000244804F0BDFB4FF000034FF00004CDE940
:100D60000634DDE90234B4F1FF3F08BFB3F1FF3FC1
:100D700006D14FF0FF334FF0FF34CDE906340BE0DE
:100D8000FFF7A4FB0A460146DDE9023413EB010B31
:100D900044EB020CCDE906BC01230593FFF796FB5B
:100DA0000A460146DDE90634A24208BF994234BF33
:100DB00001230023DBB2002B08D001AB1846FFF75C
:100DC000A7FB0346002BE9D000230593059C2B4687
:100DD0001946044804F090FB2346184608B0BDE8C5
:100DE000308800BF3D0D010000B58BB00346009177
:100DF0008DF8073004F0A2FB03461946314805F090
:100E0000C1FD04F087FB079004F098FB06900023D7
:100E10000993069B013B099A9A420DD2099B9B00BC
:100E2000079A13441B681A460999274805F0AAFD3A
:100E3000099B01330993ECE7009B002B06D0069B2E
:100E4000013B009A1946204805F09CFD9DF80730AB
:100E5000002B33D01D4A03AB07CA83E807001C48A8
:100E600004F006FB03AB19461A4805F08BFD00237E
:100E70000893069B013B089A9A4212D2089B002BCA
:100E800002D0202004F0D8FA089B9B00079A134454
:100E90001B681946104805F075FD089B013308933F
:100EA000E7E7009B002B03D000990C4805F06AFD92
:100EB0000B4804F0DDFA0B4804F0DAFA00BF0BB07F
:100EC0005DF804FB98820100AC8201008883010078
:100ED000BC820100F48201001C8301002483010014
:100EE0002C8301003483010030B583B07546019036
:100EF0002B461946074804F0EBFA074A019B1A6093
:100F0000019C2B461946034804F0F6FA234618467E
:100F100003B030BDE90E0100DC8B010030B583B0B9
:100F2000754601900B468DF8033013468DF802305C
:100F30002B4619460D4804F0CBFA019B1846FFF7E3
:100F4000D3FF0B4A019B1A60019B9DF803201A7185
:100F5000019B9DF802205A71019C2B4619460348BB
:100F600004F0CAFA2346184603B030BD1D0F010035
:100F7000A08B0100F0B585B0774603900B468DF845
:100F80000B303B461946174804F0A2FA164B1B6873
:100F9000039A12791046039A5279114642010A4483
:100FA00053F822109DF80B3003F007020E4B1C681B
:100FB000039B1B791E46039B5B791D46032300930D
:100FC00013460022039800F067FA024673012B448F
:100FD00044F823203B461946024804F08DFA00BF2E
:100FE00005B0F0BD750F010028000010F0B587B006
:100FF000774603900B468DF80B303B46194619484F
:1010000004F066FA9DF80B308DF81730164B1B680C
:10101000039A12791046039A5279114642010A4402
:1010200053F822109DF8173003F003020E4B1C6892
:10103000039B1B791E46039B5B791D46022300938D
:1010400013460322039800F027FA024673012B444B
:1010500044F823203B461946024804F04DFA00BFED
:1010600007B0F0BDED0F010028000010F0B585B00D
:10107000774603900B468DF80B303B4619461648D1
:1010800004F026FA154B1B68039A12791046039A4E
:101090005279114642010A4453F822109DF80B2060
:1010A0000E4B1C68039B1B791E46039B5B791D46F8
:1010B0000123009313460522039800F0EDF9024640
:1010C00073012B4444F823203B461946024804F0A0
:1010D00013FA00BF05B0F0BD6D100100280000102C
:1010E000F0B585B0774603900B468DF80B303B4644
:1010F0001946164804F0ECF9154B1B68039A12794F
:101100001046039A5279114642010A4453F82210BC
:101110009DF80B200E4B1C68039B1B791E46039BFE
:101120005B791D460123009313460622039800F0C5
:10113000B3F9024673012B4444F823203B46194679
:10114000024804F0D9F900BF05B0F0BDE11001007C
:1011500028000010F0B585B0774603900B468DF857
:101160000B303B461946184804F0B2F9174B1B6880
:10117000039A12791046039A5279114642010A44A1
:1011800053F822109DF80B3083F00103DBB21A46AE
:101190000E4B1C68039B1B791E46039B5B791D4607
:1011A0000123009313460722039800F075F90246C5
:1011B00073012B4444F823203B461946024804F0AF
:1011C0009BF900BF05B0F0BD5511010028000010CB
:1011D000F0B585B0774603900B468DF80B303B4653
:1011E0001946184804F074F9174B1B68039A1279D2
:1011F0001046039A5279114642010A4453F82210CC
:101200009DF80B3083F00103DBB21A460E4B1C68CD
:10121000039B1B791E46039B5B791D4601230093AC
:1012200013460822039800F037F9024673012B4455
:1012300044F823203B461946024804F05DF900BFFC
:1012400005B0F0BDD111010028000010F0B585B047
:10125000774603900B468DF80B303B4619461648EF
:1012600004F036F9154B1B68039A12791046039A5D
:101270005279114642010A4453F822109DF80B207E
:101280000E4B1C68039B1B791E46039B5B791D4616
:101290000123009313460922039800F0FDF802464B
:1012A00073012B4444F823203B461946024804F0BE
:1012B00023F900BF05B0F0BD4D1201002800001059
:1012C000F0B585B0774603900B468DF80B303B4662
:1012D0001946184804F0FCF8174B1B68039A12795A
:1012E0001046039A5279114642010A4453F82210DB
:1012F0009DF80B3083F00103DBB21A460E4B1C68DD
:10130000039B1B791E46039B5B791D4601230093BB
:1013100013460822039800F0BFF8024673012B44DD
:1013200044F823203B461946024804F0E5F800BF84
:1013300005B0F0BDC112010028000010F0B585B065
:10134000774603900B468DF80B303B4619461648FE
:1013500004F0BEF8154B1B68039A12791046039AE5
:101360005279114642010A4453F822109DF80B208D
:101370000E4B1C68039B1B791E46039B5B791D4625
:101380000123009313460922039800F085F80246D2
:1013900073012B4444F823203B461946024804F0CD
:1013A000ABF800BF05B0F0BD3D13010028000010F0
:1013B000F0B585B0774603900B468DF80B303B4671
:1013C0001946164804F084F8154B1B68039A1279E5
:1013D0001046039A5279114642010A4453F82210EA
:1013E0009DF80B200E4B1C68039B1B791E46039B2C
:1013F0005B791D460123009313460A22039800F0EF
:101400004BF8024673012B4444F823203B4619460F
:10141000024804F071F800BF05B0F0BDB11301003F
:1014200028000010F0B585B0774603900B468DF884
:101430000B303B461946164804F04AF8154B1B681A
:10144000039A12791046039A5279114642010A44CE
:1014500053F822109DF80B200E4B1C68039B1B7940
:101460001E46039B5B791D46012300931346102201
:10147000039800F011F8024673012B4444F823202E
:101480003B461946024804F037F800BF05B0F0BDEE
:10149000251401002800001030B587B07546039070
:1014A0000291019200932B461946134804F010F85C
:1014B0000A9BC3F120034FF0FF3222FA03F3059396
:1014C000059A019B02FA03F3DB43029A134002934D
:1014D000009A059B1A40019B02FA03F3029A1343F8
:1014E0000293029C2B461946034804F005F8234654
:1014F000184607B030BD00BF9914010030B583B065
:10150000754601902B461946064803F0E1FF019B02
:101510001C792B461946034803F0EEFF2346184674
:1015200003B030BDFD14010030B583B075460190A5
:101530002B461946064803F0CBFF019B5C792B46EE
:101540001946034803F0D8FF2346184603B030BDC0
:101550002915010030B583B0754601902B46194618
:10156000074803F0B5FF074A019B1A60019C2B4610
:101570001946034803F0C0FF2346184603B030BDA8
:1015800055150100588B010030B583B075460190A8
:101590000B468DF8033013468DF802302B46194662
:1015A000164803F095FF019B1846FFF7D3FF144A36
:1015B000019B1A60019B00221A71019B03F10C022E
:1015C000019B9A60019B0C339DF802209DF803104B
:1015D0001846FFF7A3FC9DF80330022B01D101222E
:1015E00000E00022019B1A71019C2B46194603481A
:1015F00003F082FF2346184603B030BD8915010071
:10160000108B010030B583B0754601902B4619460A
:10161000194803F05DFF019B9A68019B9B681B685A
:101620001B68002110469847019B9A68019B9B68A4
:101630001B6830331B681046984703461A4601233F
:101640009340DC43019B9A68019B9B681B682C3389
:101650001B681046984703461A46084B53F8223039
:101660001A6821460A401A602B461946024803F0C0
:1016700043FF00BF03B030BD051601002C00001071
:1016800030B583B0754601902B461946194803F0D2
:101690001FFF019B9A68019B9B681B681B680021C8
:1016A00010469847019B9A68019B9B681B683033E2
:1016B0001B681046984703461A46012303FA02F4B2
:1016C000019B9A68019B9B681B682C331B68104622
:1016D000984703461A46084B53F822301A682146A9
:1016E0000A431A602B461946024803F005FF00BF63
:1016F00003B030BD811601002C00001010B582B07F
:10170000744601900B468DF80330234619460B486A
:1017100003F0DEFE9DF80330002B03D00198FFF7A5
:10172000AFFF02E00198FFF76DFF2346194603481B
:1017300003F0E2FE00BF02B010BD00BFFD160100C5
:1017400030B583B0754601902B461946134803F017
:10175000BFFE019B9A68019B9B681B6830331B6826
:101760001046984703461A46012393401C46019BA6
:101770009A68019B9B681B682C331B68104698472E
:1017800003461A46064B53F822309C612B461946F5
:10179000024803F0B1FE00BF03B030BD41170100A5
:1017A0002C00001030B583B0754601902B461946C9
:1017B000134803F08DFE019B9A68019B9B681B6890
:1017C00030331B681046984703461A46012393405E
:1017D0001C46019B9A68019B9B681B682C331B6805
:1017E0001046984703461A46064B53F82230DC61F0
:1017F0002B461946024803F07FFE00BF03B030BD00
:10180000A51701002C00001010B582B0744601909D
:101810000B468DF80330234619460B4803F058FE5B
:101820009DF80330002B03D00198FFF789FF02E0F9
:101830000198FFF7B7FF23461946034803F05CFE03
:1018400000BF02B010BD00BF0918010030B583B061
:10185000754601902B461946154803F039FE019B49
:101860009A68019B9B681B6830331B681046984739
:1018700003461A46012303FA02F4019B9A68019B6E
:101880009B681B682C331B681046984703461A4612
:10189000084B53F822305A6921464A405A612B4678
:1018A0001946034803F028FE00BF03B030BD00BF57
:1018B0004D1801002C00001030B585B07546019020
:1018C0002B461946184803F003FE019B9A68019BBA
:1018D0009B681B682C331B681046984703461A46C2
:1018E000124B53F822305C69019B9A68019B9B68FC
:1018F0001B6830331B6810469847034624FA03F3ED
:1019000003F00103002B14BF012300238DF80F30D7
:101910009DF80F402B461946034803F0EDFD234682
:10192000184605B030BD00BFB91801002C000010EA
:1019300030B583B0754601902B461946164803F022
:10194000C7FD019B9A68019B9B681B682C331B6831
:101950001046984703461A46104B53F822305C69EC
:10196000019B9A68019B9B681B6830331B6810467B
:101970009847034624FA03F303F00103002B14BF36
:1019800001230023DCB22B461946034803F0B4FDC3
:101990002346184603B030BD311901002C00001059
:1019A00030B583B0754601902B461946064803F0C2
:1019B0008FFD019B9C682B461946034803F09CFD54
:1019C0002346184603B030BDA119010030B587B0D9
:1019D000754603902B461946174803F079FD039B83
:1019E0001B79012B94BF01230023DBB28DF8173044
:1019F0009DF8173083F00103DBB2002B10D0039B5E
:101A00009A68039B9B681B682C331B681046984799
:101A100003460093A623094A09490A4804F0B2FF85
:101A20009DF817402B461946034803F065FD2346F1
:101A3000184607B030BD00BFCD190100988D0100D8
:101A4000F48801009483010070B582B0764601905D
:101A5000009133461946114803F03AFD0198FFF70B
:101A6000B5FF009C019B1B791D46019B9A68019B59
:101A70009B681B6830331B6810469847034619461D
:101A8000074A6B010B4442F823403346194603488A
:101A900003F032FD00BF02B070BD00BF491A010063
:101AA0008805001030B583B0754601902B46194665
:101AB0000F4803F00DFD019B1B791C46019B9A68A2
:101AC000019B9B681B6830331B6810469847034690
:101AD0001946084A63010B44002142F823102B46A3
:101AE0001946034803F008FD00BF03B030BD00BF36
:101AF000A51A01008805001030B583B0754603466D
:101B00008DF807302B461946064803F0E1FC9DF896
:101B100007402B461946034803F0EEFC23461846BF
:101B200003B030BDF91A010010B584B074460390BB
:101B30000B468DF80B3023461946194803F0C8FCB4
:101B40000398FFF743FF9DF80B30012B08D0012BC2
:101B500002D3022B08D00EE0039800F0B1F817E092
:101B6000039800F0EBF813E0039800F0A9F803984D
:101B700000F0E4F80CE09DF80B301846FFF7BCFFCE
:101B800003460093D223074A0749084804F0FAFEA7
:101B900023461946024803F0AFFC00BF04B010BD55
:101BA000291B0100B48D010000890100248401007B
:101BB00010B584B0744603900B468DF80B30234665
:101BC0001946194803F084FC0398FFF7FFFE9DF8BF
:101BD0000B30012B08D0012B02D3022B08D00EE0D2
:101BE000039800F0E9F817E0039800F023F913E0F8
:101BF000039800F0E1F8039800F01CF90CE09DF860
:101C00000B301846FFF778FF03460093F223074A8C
:101C10000749084804F0B6FE23461946024803F077
:101C20006BFC00BF04B010BDB11B01005C8D010056
:101C30000C8901002484010010B584B0744603901F
:101C4000029113468DF80730234619460B4803F0DE
:101C50003FFC0398FFF7BAFE02990398FFF7F4FEE2
:101C60009DF8073019460398FFF75EFF2346194693
:101C7000024803F041FC00BF04B010BD391C010054
:101C800010B582B074460190234619460B4803F004
:101C90001FFC0198FFF79AFE0198FFF703FF0198D8
:101CA00000F08AF8019800F0C5F823461946034869
:101CB00003F022FC00BF02B010BD00BF811C010078
:101CC00030B583B0754601902B461946194803F08C
:101CD000FFFB019B9A68019B9B681B6830331B6864
:101CE0001046984703461A46012303FA02F0019B67
:101CF0001B791946104A0B469B000B449B0013446A
:101D00000C331B681A680446019B1B7918460A4964
:101D100003469B0003449B000B440C331B68224387
:101D20001A602B461946034803F0E6FB00BF03B0D8
:101D300030BD00BFC11C01004400001030B583B0AD
:101D4000754601902B461946194803F0C1FB019BCB
:101D50009A68019B9B681B6830331B681046984744
:101D600003461A46012303FA02F0019B1B79194628
:101D7000104A0B469B000B449B00134410331B6816
:101D80001A680446019B1B7918460A4903469B00C2
:101D900003449B000B4410331B6822431A602B46FC
:101DA0001946034803F0A8FB00BF03B030BD00BFD5
:101DB0003D1D01004400001030B583B07546019010
:101DC0002B461946194803F083FB019B9A68019B37
:101DD0009B681B6830331B681046984703461A46B9
:101DE00001239340D843019B1B791946104A0B46A7
:101DF0009B000B449B0013440C331B681A68044679
:101E0000019B1B7918460A4903469B0003449B002B
:101E10000B440C331B6822401A602B4619460348BA
:101E200003F06AFB00BF03B030BD00BFB91D010065
:101E30004400001030B583B0754601902B4619461A
:101E4000194803F045FB019B9A68019B9B681B683E
:101E500030331B681046984703461A4601239340C7
:101E6000D843019B1B791946104A0B469B000B4433
:101E70009B00134410331B681A680446019B1B79AE
:101E800018460A4903469B0003449B000B44103349
:101E90001B6822401A602B461946034803F02CFBAE
:101EA00000BF03B030BD00BF351E0100440000106C
:101EB00082B00190034A019B1A60019B184602B050
:101EC000704700BFEC8A010000B583B00190019B10
:101ED0001846FFF7EDFF044A019B1A60019B184664
:101EE00003B05DF804FB00BFC88A010000B585B0EF
:101EF00001900B468DF803300023039300210198D5
:101F000000F0CEF89DF803300C2B16D99DF8033065
:101F10009BB21A460C21019800F0ACF903904FF4E3
:101F20008071019800F0D6F89DF80330104A02FB4A
:101F300003F31A460F4B1A6006E00021019800F0E7
:101F4000C9F80C4B0C4A1A600121019800F04AFABA
:101F5000019B1B6804331B680121019898470021ED
:101F6000019800F073FA039B184605B05DF804FB76
:101F700040420F0070000010001BB70000B583B096
:101F800001900B468DF803309DF80330042B0DD9DA
:101F9000AE230B4A0B490C4804F0F4FC0B4803F049
:101FA00067FA00210120FEF71FFFFEE7084B1B68C0
:101FB0009DF80320C3F8A82100BF03B05DF804FB1F
:101FC0001C8C010018890100C48401006485010093
:101FD0006C00001082B00190034B1B68D3F8A8314D
:101FE000184602B0704700BF6C00001082B001902C
:101FF000024B1B68184602B0704700BF700000100B
:1020000000B585B00190019B1B6808331B680198DF
:102010009847029000230393029B002B0AD0019B58
:102020001B680C331B68019898470246029BB2FB61
:10203000F3F30393039B184605B05DF804FBFFFF21
:1020400084B001900091094B1B68D3F8C430009A0A
:102050001268012101FA02F213430393034B1B6838
:10206000039AC3F8C42000BF04B070476C0000108E
:1020700084B001900091094B1B68D3F8C430009ADA
:102080001268012101FA02F213400393034B1B680B
:10209000039AC3F8C42000BF04B070476C0000105E
:1020A00084B001900B46ADF80230BDF802300393C6
:1020B000074B1B68D3F80C3123F00101044B1B685C
:1020C000039A0A43C3F80C2100BF04B0704700BF55
:1020D0006C00001082B001900B46ADF80230084B46
:1020E0001B68D3F8043123F48071BDF80220044B3F
:1020F0001B680A43C3F8042100BF02B0704700BF49
:102100006C00001082B001900B46ADF80230084B15
:102110001B68D3F8083123F44071BDF80220044B4A
:102120001B680A43C3F8082100BF02B0704700BF14
:102130006C00001082B001900B46ADF80230084BE5
:102140001B68D3F8B43123F44071BDF80220044B6E
:102150001B680A43C3F8B42100BF02B0704700BF38
:102160006C00001000B587B001900B46ADF802304E
:102170001346ADF80030BDF80030B3F5C07F03D290
:10218000BDF800300C2B0DD8FF23344A34493548B4
:1021900004F0F8FB344803F06BF900210120FEF74E
:1021A00023FEFEE701238DF81730BDF80030BDF89F
:1021B0000220B3FBF2F102FB01F29B1A9BB2002B4F
:1021C00009D0BDF80020BDF80230B2FBF3F39BB29A
:1021D0000133049307E0BDF80020BDF80230B2FBE4
:1021E000F3F39BB204930123ADF80E309DF8173042
:1021F000002B2ED0049B9BB2BDF8022012FB03F3F0
:102200009BB2BDF80E2012FB03F39BB25B00ADF84E
:102210000C30BDF80C309B2B03D900238DF8173000
:10222000E4E7BDF80E305B00ADF80E30BDF80E30BF
:10223000072BDBD940F21B13084A0C490C4804F069
:10224000A1FB094803F014F900210120FEF7CCFDA1
:10225000FEE7049B184607B05DF804FBC48C010040
:10226000308901007C8501006485010048890100F6
:102270006C86010010B58AB001900B46ADF80230B3
:102280001346ADF800300123ADF81A30FEF71EF901
:102290000A46014611F57A7342F10004CDE904348F
:1022A000FEF714F9CDE90801BDF80020BDF80230B1
:1022B00019460198FFF756FF0390BDF80220039BD3
:1022C00002FB03F3079300210198FFF7E9FE0021C9
:1022D0000198FFF7FFFE00210198FFF713FF00218F
:1022E0000198FFF727FF3A4B1B68D3F8843023F09F
:1022F0001F01039B5A1E364B1B680A43C3F88420F8
:10230000334B1B68D3F8843023F06002BDF81A30D9
:102310005B0119462E4B1B680A43C3F884202C4BE3
:102320001B68D3F880202A4B1B6842F00102C3F8D7
:102330008020274B1B68AA22C3F88C20244B1B68E3
:102340005522C3F88C20224B1B68D3F8883003F445
:102350008063002B09D1DDE90812DDE90434A242D3
:1023600008BF994201D2012300E00023002B04D0D2
:10237000FEF7ACF8CDE90801E5E7154B1B68D3F88B
:10238000883003F48063002B09D1DDE90812DDE910
:102390000434A24208BF994201D3012300E0002384
:1023A000002B0ED040F243130A4A0B490B4804F0AD
:1023B000E9FA0B4803F05CF800210120FEF714FD58
:1023C000FEE7BDF80030079AD31A18460AB010BDD0
:1023D0006C000010688C0100608901001487010006
:1023E0006485010000B583B001900B468DF8033081
:1023F0009DF803301F2B0ED940F26F130E4A0F4980
:102400000F4804F0BFFA0F4803F032F80021012012
:10241000FEF7EAFCFEE70C4B1B68D3F8043123F00F
:102420001F019DF80320084B1B680A43C3F80421D1
:1024300000BF03B05DF804FB208D01007889010026
:10244000BC870100648501006C00001082B001901F
:102450000B468DF80330084B1B68D3F8003123F08E
:1024600001019DF80320044B1B680A43C3F80021B7
:1024700000BF02B0704700BF6C00001030B583B0E1
:10248000754601902B461946064803F021F8019C39
:102490002B461946034803F02FF82346184603B08D
:1024A00030BD00BF7D24010030B583B0754601907A
:1024B0002B461946074803F00BF8074A019B1A60A0
:1024C000019C2B461946034803F016F8234618468C
:1024D00003B030BDA9240100A08A010030B583B04B
:1024E0007546019000912B461946084802F0F0FF0E
:1024F000074A019B1A60019C2B461946034802F0CB
:10250000FBFF2346184603B030BD00BFDD240100A9
:10251000DC8B010030B583B07546019000912B46ED
:1025200019460F4802F0D4FF019B009A1146184645
:10253000FFF7D4FF0B4A019B1A60009B1A79019B9D
:102540001A71009B5A79019B5A71019C2B461946BE
:10255000034802F0D1FF2346184603B030BD00BF48
:1025600015250100A08B010030B583B075460190A0
:1025700000912B461946314802F0AAFF019B1846EC
:10258000FFF792FF019B04331846FFF79DFC2C4A8E
:10259000019B1A602B4A019B5A60019B03F11402B4
:1025A000019B9A60019B03F11C02019BDA60019B75
:1025B00003F12402019B1A61019B03F114040098AA
:1025C000FFF75CFF024613465B001344DB001E4A24
:1025D000134419462046FFF79DFF019B03F11C049D
:1025E0000098FFF74BFF024613465B001344DB00E5
:1025F0000833154A134419462046FFF78BFF019B09
:1026000003F124040098FFF739FF024613465B00EC
:102610001344DB0010330C4A134419462046FFF7DD
:1026200079FF019B009ADA62019C2B461946034808
:1026300002F062FF2346184603B030BD6925010051
:10264000548A01007C8A01009489010070B586B02B
:102650007646019033461946304802F039FF019B17
:10266000DB6A1846FFF70AFF03460593019B181D16
:10267000019B5B6814331B68059A920028490A4441
:1026800011469847019B9868019B9B681B681B68D3
:102690002449059A0A44127811469847019BD86844
:1026A000019BDB681B681B681E49059A0A44127867
:1026B00011469847019B1869019B1B691B681B68A1
:1026C0001849059A0A44127811469847164A059BFC
:1026D00052F823305B681449059A51F8224004935C
:1026E0000123039333461946104802F0F1FE0122FC
:1026F000039B02FA03F31A46049B42EA030533469E
:1027000019460A4802F0F8FE656033461946034848
:1027100002F0F2FE00BF06B070BD00BF4D26010002
:10272000DC8901009089010074000010CD370100A0
:1027300030B585B0754601902B461946174802F012
:10274000C7FE019BDB6A1846FFF798FE0246144B52
:1027500053F82230DB680393042302932B46194677
:10276000104802F0B5FE0122029B02FA03F31A465A
:10277000039B1340002B14BF01230023DCB22B4624
:102780001946084802F0B8FE2B461946034802F0E5
:10279000B3FE2346184605B030BD00BF3127010007
:1027A000740000100938010030B585B075460190FD
:1027B0000B46ADF802302B461946144802F088FE4D
:1027C000019BDB6A1846FFF759FE03460393104A44
:1027D000039B52F82330BDF802209A600198FFF75E
:1027E000A7FF0346002B01D000BFF7E7084A039B71
:1027F00052F823309B689CB22B461946034802F0DE
:102800007BFE2346184605B030BD00BFA927010056
:102810007400001010B586B0744603902346194624
:10282000124802F055FE01238DF8173000238DF871
:10283000163000238DF8153030238DF8143007231F
:1028400000220021039800F05BF83023009300235E
:1028500000220121039800F009FA23461946034893
:1028600002F04AFE00BF06B010BD00BF15280100EF
:1028700030B583B0754603468DF807302B461946B0
:10288000064802F025FE9DF807402B4619460348EE
:1028900002F032FE2346184603B030BD7128010015
:1028A00030B583B0754603468DF807302B46194680
:1028B000064802F00DFE9DF807402B4619460348D6
:1028C00002F01AFE2346184603B030BDA1280100CD
:1028D00030B583B0754603468DF807302B46194650
:1028E000064802F0F5FD9DF807402B4619460348BF
:1028F00002F002FE2346184603B030BDD128010085
:1029000070B598B074460190084611461A460346C1
:102910008DF803300B468DF8023013468DF80130E8
:1029200023461946754802F0D3FD019BDB6A184621
:10293000FFF7A4FD03461793019B181D179B9B00EF
:102940006F4A13441946FFF77BFB9DF80230022BB8
:1029500002D107238DF801306A4A179B52F82330C1
:102960001E689DF801301846FFF782FF034619469E
:10297000644A179B52F8235008960B468DF81F3077
:102980000023069304230593234619465E4802F06C
:102990009FFD4FF0FF33049320230393059BC3F166
:1029A00020034FF0FF3222FA03F30293029A069BB0
:1029B00002FA03F3DB43089A134008939DF81F20A3
:1029C000029B1A40069B02FA03F3089A13430893EA
:1029D000089E234619464C4802F08EFD2E60494A57
:1029E000179B52F823301E689DF802301846FFF7F7
:1029F00057FF03461946434A179B52F823500F9638
:102A00000B468DF83B3004230D9302230C93234691
:102A100019463D4802F05CFD4FF0FF330B93202335
:102A20000A930C9BC3F120034FF0FF3222FA03F309
:102A30000993099A0D9B02FA03F3DB430F9A1340A3
:102A40000F939DF83B20099B1A400D9B02FA03F35C
:102A50000F9A13430F930F9E234619462A4802F0FC
:102A60004BFD2E60274A179B52F823305E689DF875
:102A700003301846FFF72CFF03461946214A179BDF
:102A800052F8235016960B468DF8573002231493B4
:102A900001231393234619461B4802F019FD4FF0FA
:102AA000FF33129320231193139BC3F120034FF0A4
:102AB000FF3222FA03F31093109A149B02FA03F3E5
:102AC000DB43169A134016939DF85720109B1A402B
:102AD000149B02FA03F3169A13431693169E234689
:102AE0001946094802F008FD6E602346194603485E
:102AF00002F002FD00BF18B070BD00BF0129010047
:102B0000DC890100740000104D38010070B596B0EA
:102B10007446019023461946504802F0D9FC002320
:102B2000ADF85630019BDB6A1846FFF7A7FC034659
:102B30001493019B181D149B9B00494A134419468A
:102B4000FFF77EFA474A149B52F823301B6807931D
:102B5000002306930423059323461946424802F0B6
:102B6000B7FC4FF0FF33049320230393059BC3F17D
:102B700020034FF0FF3222FA03F30293079A069BD9
:102B8000DA40029B02EA030523461946364802F062
:102B9000B3FCADB2334A149B52F823301B680D933B
:102BA00004230C9302230B93234619462E4802F06C
:102BB0008FFC4FF0FF330A93202309930B9BC3F143
:102BC00020034FF0FF3222FA03F308930D9A0C9B77
:102BD000DA40089B02EA030623461946224802F01F
:102BE0008BFCB3B25B019BB22B449DB21D4A149B7C
:102BF00052F823305B68139302231293012311933D
:102C000023461946184802F063FC4FF0FF33109337
:102C100020230F93119BC3F120034FF0FF3222FAC0
:102C200003F30E93139A129BDA400E9B02EA0306FB
:102C3000234619460C4802F05FFCB3B21B029BB25C
:102C40002B44ADF85630BDF856502346194603487C
:102C500002F052FC2B46184616B070BD0D2B010039
:102C6000DC89010074000010C138010070B598B013
:102C700074460190084611461A4603468DF8033003
:102C80000B468DF8023013468DF801302346194665
:102C90006C4802F01DFC019BDB6A1846FFF7EEFB57
:102CA00003461793019B181D179B9B00664A13440C
:102CB0001946FFF7C5F9654A179B52F823301B6880
:102CC0006249179A51F8225008939DF803308DF805
:102CD0001F300623069301230593234619465C48BB
:102CE00002F0F6FB4FF0FF33049320230393059B80
:102CF000C3F120034FF0FF3222FA03F30293029A4A
:102D0000069B02FA03F3DB43089A134008939DF8ED
:102D10001F20029B1A40069B02FA03F3089A1343F2
:102D20000893089E23461946494802F0E5FB2E60A9
:102D3000464A179B52F823301B684449179A51F8AA
:102D400022500F939DF802308DF83B3007230D93EE
:102D500001230C93234619463D4802F0B9FB4FF07E
:102D6000FF330B9320230A930C9BC3F120034FF0F6
:102D7000FF3222FA03F30993099A0D9B02FA03F337
:102D8000DB430F9A13400F939DF83B20099B1A4099
:102D90000D9B02FA03F30F9A13430F930F9E2346E2
:102DA00019462B4802F0A8FB2E60284A179B52F8C0
:102DB00023301B682549179A51F8225016939DF825
:102DC00001308DF8573008231493082313932346BA
:102DD0001946204802F07CFB4FF0FF33129320236A
:102DE0001193139BC3F120034FF0FF3222FA03F338
:102DF0001093109A149B02FA03F3DB43169A1340C4
:102E000016939DF85720109B1A40149B02FA03F367
:102E1000169A13431693169E234619460D4802F040
:102E20006BFB2E60094A179B52F823309DF87020E7
:102E30001A6123461946034802F05EFB00BF18B032
:102E400070BD00BF6D2C0100DC8901007400001012
:102E5000153901004D38010070B594B074460190E9
:102E600023461946584802F033FB00231393019B75
:102E7000DB6A1846FFF702FB03461293019B181DFD
:102E8000129B9B00514A13441946FFF7D9F8504A48
:102E9000129B52F823301B690793002306930823E3
:102EA0000593234619464B4802F012FB4FF0FF33BF
:102EB000049320230393059BC3F120034FF0FF32BB
:102EC00022FA03F30293079A069BDA40029B02EA76
:102ED0000305234619463F4802F00EFB3C4A129B6D
:102EE00052F823301B680D9308230C9308230B938F
:102EF00023461946374802F0EBFA4FF0FF330A93A6
:102F0000202309930B9BC3F120034FF0FF3222FAD9
:102F100003F308930D9A0C9BDA40089B02EA030620
:102F2000234619462B4802F0E7FA33021D44284A8B
:102F3000129B52F823301B680F9307230E932346EE
:102F40001946254802F0C4FA01220E9B02FA03F347
:102F50001A460F9B1340002B14BF01230023DEB23F
:102F6000234619461C4802F0C7FA33461B041D4489
:102F7000174A129B52F823301B68119306231093B3
:102F800023461946144802F0A3FA0122109B02FAC4
:102F900003F31A46119B1340002B14BF0123002397
:102FA000DEB2234619460C4802F0A6FA33469B04CB
:102FB0002B441393139D23461946034802F09CFAB1
:102FC0002B46184614B070BD592E0100DC89010053
:102FD00074000010C13801000938010030B583B019
:102FE00075460190084611461A4603468DF803308F
:102FF0000B468DF8023013468DF801302B461946EA
:103000001A4802F065FA019A13789DF8201061F3CE
:1030100000031370019A13789DF8031061F34103C4
:103020001370019A13789DF8021061F382031370F4
:10303000019A13789DF8011061F3C3031370019A8C
:1030400013786FF307131370019B9DF81C205A70BF
:10305000019B9DF818209A70019C2B461946034845
:1030600002F04AFA2346184603B030BDDD2F0100B6
:1030700030B583B0754601902B461946154802F0CD
:1030800027FA019A13786FF300031370019A1378EB
:103090006FF341031370019A13786FF38203137077
:1030A000019A13786FF3C3031370019A13786FF3C7
:1030B00007131370019B00225A70019B00229A7023
:1030C000019C2B461946034802F016FA234618467F
:1030D00003B030BD7130010010B582B0744601906C
:1030E00023461946054802F0F3F9234619460348DA
:1030F00002F002FA00BF02B010BD00BFD9300100DB
:1031000010B582B07446019023461946054802F076
:10311000DFF923461946034802F0EEF900BF02B07A
:1031200010BD00BF0131010010B582B0744601909E
:1031300023461946054802F0CBF9234619460348B1
:1031400002F0DAF900BF02B010BD00BF2931010062
:1031500030B583B0754601902B461946074802F0FA
:10316000B7F9074A019B1A60019C2B461946034890
:1031700002F0C2F92346184603B030BD51310100B8
:10318000288A010030B583B0754601902B46194658
:103190001F4802F09DF9019B1846FFF7D9FF1D4A11
:1031A000019B1A60019B03F11002019B5A60019B75
:1031B00003F14002019B9A60019B03F15402019BC1
:1031C000DA60019B103301211846FFF7CDF9019B0E
:1031D0004033162201211846FEF7D6F9019B5433DD
:1031E000192201211846FEF7CFF9019B683340F2FE
:1031F000C1620021184604F0D1FF019C2B461946FC
:10320000034802F079F92346184603B030BD00BFE9
:1032100085310100FC89010030B583B0754601900D
:103220002B461946064802F053F980242B461946CE
:10323000034802F061F92346184603B030BD00BFD1
:103240001932010030B583B0754601902B461946FE
:10325000064802F03DF940242B461946034802F087
:103260004BF92346184603B030BD00BF453201007C
:1032700010B588B07446059023461946154802F0EB
:1032800027F907A801230293012301930123009347
:10329000012301220121FFF7A1FE06AB07AA126854
:1032A000114619800233120C1A7023461946094838
:1032B00002F022F900239DF8182062F307039DF81D
:1032C000192062F30F239DF81A2062F31743184662
:1032D00008B010BD7132010010B586B0744603907D
:1032E000029101920093234619461E4802F0F0F81D
:1032F000039BDB68019AD2B211461846FEF784FAA6
:10330000039B9B681846FEF74DFA00230593059A28
:10331000009B9A4218D2009A059BD31A03F10053DE
:10332000013BDB00029A22FA03F38DF81330039B72
:103330005B689DF8132092B211461846FFF734FAE5
:10334000059B01330593E2E7039B9B681846FEF754
:10335000F7F923461946034802F0CEF800BF06B03D
:1033600010BD00BFD932010010B582B07446019083
:1033700023461946374802F0ABF801230022AE215C
:103380000198FFF7A9FF022300224DF28051019816
:10339000FFF7A2FF022300224AF63F010198FFF740
:1033A0009BFF022300224FF453410198FFF794FF43
:1033B0000123002240210198FFF78EFF0223002203
:1033C00048F614510198FFF787FF01230022A1213D
:1033D0000198FFF781FF01230022C8210198FFF720
:1033E0007BFF022300224DF612210198FFF774FFA4
:1033F0000223002248F2CF110198FFF76DFF02234C
:1034000000224DF6F1110198FFF766FF022300221A
:103410004DF640310198FFF75FFF019800F05EF82C
:1034200001230022A4210198FFF756FF0123002267
:10343000A6210198FFF750FF01230022AF21019838
:10344000FFF74AFF23461946024802F055F800BF2D
:1034500002B010BD6933010010B584B0744603900A
:10346000234619461C4802F033F8039B9B68184614
:10347000FEF706F9039BDB681846FEF701F9039B8C
:103480009B681846FEF75CF9039BDB681846FEF75D
:1034900057F9039B5868072300220021FFF730FAF1
:1034A000039B586810230093012300220021FFF79B
:1034B000DDFB039B5B681846FFF7C8F8039800F034
:1034C00037F80398FFF750FF23461946024802F0E9
:1034D00013F800BF04B010BD5934010010B582B01C
:1034E00074460190234619460E4801F0F1FF02236D
:1034F00000224FF400510198FFF7EEFE0323002253
:1035000009490198FFF7E8FE0323002207490198C3
:10351000FFF7E2FE23461946024801F0EDFF00BF27
:1035200002B010BDDD3401007F0021000700220041
:1035300010B582B07446019023461946094801F03F
:10354000C7FF019B683340F2C1620021184604F0B6
:1035500025FE23461946034801F0CEFF00BF02B006
:1035600010BD00BF3135010010B58CB0744603901A
:10357000029101920093234619461F4801F0A8FFCB
:10358000019B03F007030B93019BDB100A930122BD
:103590000B9B02FA03F3DB4309939DF80230002BE7
:1035A00014BF012300238DF823309DF823200B9BAB
:1035B00002FA03F307930A9A13465B0113449B0034
:1035C0001344029A13446833039A13440693069BE8
:1035D0001B781A46099B1340079A13430593059BD2
:1035E000DAB2069B1A7023461946034801F084FF9D
:1035F00000BF0CB010BD00BF6935010010B584B02C
:103600007446019023461946184801F061FF01985D
:10361000FFF764FF00230393039B072B1ED80023AF
:103620000293029B7F2B15D80199039A13465B01E5
:1036300013449B001344CA18029B134468331B783D
:103640001946012301220198FFF746FE029B013330
:103650000293E6E7039B01330393DDE72346194614
:10366000024801F049FF00BF04B010BDFD35010064
:1036700030B583B07546019000912B4619461E481F
:1036800001F026FF019B009A1A60019B0433184643
:10369000FFF7EEFC019B00229A60019B0022DA609A
:1036A000009B1B681B68009898470246019B9A6024
:1036B000009B1B6804331B68009898470246019BD7
:1036C000DA60009B1B6808331B68019C00989847D0
:1036D00003461A462271C3F307226271C3F30743FC
:1036E000A371019C2B461946034801F005FF2346B0
:1036F000184603B030BD00BF7136010030B583B04D
:10370000754601902B461946164801F0E1FE019BD3
:103710001846FFF737FD019B03F22C73019A1146FF
:103720001846FFF7A5FF019B0022C3F83C27019B29
:103730000022C3F84027019B0022C3F84427019BC5
:1037400003F5E96380220021184604F027FD019C5F
:103750002B461946034801F0CFFE2346184603B016
:1037600030BD00BFFD36010030B585B075462B4633
:103770001946124801F0ACFE4F23114A1149124874
:1037800003F000F903AB02211846FCF767FF03A81A
:1037900000230093012300220821FCF77BFF03ABE9
:1037A0001846FDF781FA00242B461946034801F01C
:1037B000A3FE2346184605B030BD00BF693701009F
:1037C000108C0100E8890100B488010030B583B095
:1037D0007546019000912B4619460A4801F078FE83
:1037E0000122009B02FA03F31A46019B42EA0304FA
:1037F0002B461946034801F07FFE2346184603B0C6
:1038000030BD00BFCD37010030B583B075460190A3
:1038100000912B4619460C4801F05AFE0122009BEC
:1038200002FA03F31A46019B1340002B14BF012335
:103830000023DCB22B461946034801F05DFE234607
:10384000184603B030BD00BF0938010030B589B05B
:1038500075460390019200930B468DF80B302B4672
:103860001946164801F034FE4FF0FF33079320232A
:103870000693009BC3F120034FF0FF3222FA03F3BB
:103880000593059A019B02FA03F3DB43039A134065
:1038900003939DF80B20059B1A40019B02FA03F34A
:1038A000039A13430393039C2B461946034801F0E4
:1038B00023FE2346184609B030BD00BF4D38010035
:1038C00030B589B075460390029101922B46194696
:1038D0000F4801F0FDFD4FF0FF33079320230693BF
:1038E000019BC3F120034FF0FF3222FA03F305934B
:1038F000039A029BDA40059B02EA03042B46194611
:10390000034801F0F9FD2346184609B030BD00BF59
:10391000C138010030B589B075460390019200931B
:103920000B468DF80B302B461946164801F0D0FD9A
:103930004FF0FF33079320230693009BC3F120032E
:103940004FF0FF3222FA03F30593059A019B02FA26
:1039500003F3DB43039A134003939DF80B20059B6D
:103960001A40019B02FA03F3039A13430393039C47
:103970002B461946034801F0BFFD2346184609B0FF
:1039800030BD00BF1539010010B582B074460190FA
:10399000009123461946154801F09AFD019B012B21
:1039A0001BD1009B4FF6FF72934216D10A220121D0
:1039B0000F48FCF7D9FC042201210E48FCF7D4FC87
:1039C000002201210C48FCF7CFFC012201210B4809
:1039D000FCF7CAFC0A48FFF791FE23461946034844
:1039E00001F08AFD00BF02B010BD00BF893901009F
:1039F000880600109006001098060010A00600101F
:103A0000A806001010B5744623461946064801F072
:103A10005FFD4FF6FF710120FFF7B6FF2346194601
:103A2000014801F069FD10BD053A010010B582B0F2
:103A3000744601900B468DF8033013468DF8023022
:103A400023461946104801F043FD9DF803209DF8D8
:103A500002300E495201134451F823301A689DF880
:103A600003109DF80230094849010B4450F82330F7
:103A700022F00F021A6023461946034801F03CFD6C
:103A800000BF02B010BD00BF2D3A01008000001041
:103A900010B582B0744601900B468DF80330134682
:103AA0008DF8023023461946294801F011FD9DF892
:103AB00002209DF8033019460198FFF7B7FF9DF8E3
:103AC0000330002B1AD19DF802300F2B16D19DF830
:103AD00003209DF802301F495201134451F823304E
:103AE0001A689DF803109DF802301A4849010B44EA
:103AF00050F8233042F002021A6021E09DF80330B2
:103B0000012B1AD19DF80230002B16D19DF803200D
:103B10009DF802300F495201134451F823301A68BE
:103B20009DF803109DF802300A4849010B4450F8F3
:103B3000233042F004021A6002E0074802F022FF3C
:103B400023461946024801F0D7FC00BF02B010BD61
:103B5000913A010080000010F08D010010B582B094
:103B6000744601900B468DF8033013468DF80230F1
:103B700023461946294801F0ABFC9DF802209DF828
:103B8000033019460198FFF751FF9DF80330002BD1
:103B90001AD19DF80230192B16D19DF803209DF8FB
:103BA00002301F495201134451F823301A689DF81E
:103BB00003109DF802301A4849010B4450F8233095
:103BC00042F002021A6021E09DF80330012B1AD165
:103BD0009DF80230042B16D19DF803209DF8023089
:103BE0000F495201134451F823301A689DF803100D
:103BF0009DF802300A4849010B4450F8233042F046
:103C000004021A6002E0074802F0BCFE234619468F
:103C1000024801F071FC00BF02B010BD5D3B010025
:103C200080000010048E010010B582B0744601902F
:103C30000B468DF8033013468DF8023023461946A3
:103C4000294801F045FC9DF802209DF803301946F3
:103C50000198FFF7EBFE9DF80330002B1AD19DF879
:103C600002301B2B16D19DF803209DF802301F490E
:103C70005201134451F823301A689DF803109DF83F
:103C800002301A4849010B4450F8233042F0020236
:103C90001A6021E09DF80330012B1AD19DF8023003
:103CA000012B16D19DF803209DF802300F495201D7
:103CB000134451F823301A689DF803109DF8023020
:103CC0000A4849010B4450F8233042F004021A60BC
:103CD00002E0074802F056FE23461946024801F06A
:103CE0000BFC00BF02B010BD293C01008000001099
:103CF000148E010010B582B0744601902346194617
:103D0000064801F0E5FB064A019B1360234619466D
:103D1000024801F0F1FB00BF02B010BDF53C01000C
:103D20001800001010B57446234619460A4801F0E1
:103D3000CFFB0A4B1B6800225A60084B1B6800220D
:103D40009A60064B1B6800221A60234619460248F7
:103D500001F0D2FB00BF10BD253D01008003001023
:103D600010B5744623461946084801F0B1FB084BCC
:103D70001B68002B02D0064B1B6898472346194648
:103D8000024801F0B9FB00BF10BD00BF613D01005A
:103D9000700E001010B582B0744601900091234659
:103DA0001946074801F094FB064A009B136023461E
:103DB0001946034801F0A0FB00BF02B010BD00BFD0
:103DC000953D0100700E001030B585B0754601902C
:103DD0002B461946204801F07BFB00238DF80F305D
:103DE0001E4B1B685B68002B14BF01230023DBB252
:103DF000002B1ED0194B1B6800229A60174B1B68C2
:103E00001A68164B1B6842F002021A60134B1B68BB
:103E10001A68124B1B6842F001021A600F4B1B68B4
:103E20001A680E4B1B6842F004021A6001238DF8D9
:103E30000F304FF0FF33012209494FF0FF3001F0FE
:103E40001FFA9DF80F402B461946034801F054FB1A
:103E50002346184605B030BDC93D0100800300105F
:103E6000613D010030B585B07546019000912B464B
:103E700019461F4801F02CFB009B012B01D80024A0
:103E80002DE0019B1A1D019B5B680C331B681046DB
:103E900098470246009BB2FBF3F3013B0393019B5F
:103EA0001A1D019B5B680C331B681046984703463C
:103EB000009AB3FBF2F2009901FB02F29B1A029303
:103EC000039BB3F1807F05D36FF07F4303936FF0C3
:103ED0007F430293074B1B68039A5A60029C2B4650
:103EE0001946034801F008FB2346184605B030BDCB
:103EF000653E01008003001030B583B0754603466F
:103F00008DF807302B461946064801F0E1FA9DF876
:103F100007402B461946034801F0EEFA234618469F
:103F200003B030BDF93E010010B574462346194672
:103F3000044801F0CDFA23461946024801F0DCFAA4
:103F400000BF10BD293F010010B586B07446039034
:103F5000029101920093234619463E4801F0B8FAB7
:103F6000039B181D039B5B6814331B68039A127A2A
:103F7000920039490A4411469847029B002B0DD103
:103F80008423364A3649374802F0FCFC364801F0B3
:103F90006FFA00210120FCF727FFFEE7039B1A1DA3
:103FA000039B5B6810331B68104698470246029BD0
:103FB000B2FBF3F30593039B1B7A1A462B4B53F882
:103FC0002230DA68039B1B7A1946284B53F82130BC
:103FD00002F00102DA60039B1B7A1A46234B53F866
:103FE0002230D968059B5A00039B1B7A18461F4B49
:103FF00053F820300A43DA60039B1B7A1A461B4BA6
:1040000053F822305A68039B1B7A1946174B53F812
:10401000213042F001025A60039B1B7A1946144A70
:10402000019B42F82130039B1B7A1A46114B98568C
:10403000039B1B7A1A46104B53F82210009B012257
:1040400001F01EF923461946024801F055FA00BF57
:1040500006B010BD493F0100D4930100D494010083
:10406000F8930100B4920100C08F01008403001096
:10407000B40E0010E4930100E893010030B583B062
:10408000754603468DF807302B461946064801F061
:104090001FFA9DF807402B461946034801F02CFAF9
:1040A0002346184603B030BD7D40010070B586B090
:1040B00076460390029111461A460B468DF807305A
:1040C00013468DF8063033461946324801F000FA9F
:1040D0009DF806301846FFF7D1FF03468DF81730DC
:1040E000039B1B7A1A462C4B53F822305A699DF8D1
:1040F0001730072101FA03F3DB431946039B1B7AB0
:104100001846254B53F820300A405A61039B1B7A0E
:104110001A46214B53F822305A699DF807109DF832
:10412000173001FA03F31946039B1B7A18461A4B02
:1041300053F820300A435A61039B1B7A18469DF8B6
:104140001730164AA2FB03235B08DBB21946144A58
:1041500083000B4452F823301968029B5A08039BD2
:104160001B7A1D469DF817300C48A0FB03035B0823
:10417000DBB21C460A48AB00234450F823300A4304
:104180001A6033461946034801F0B6F900BF06B07D
:1041900070BD00BFAD40010084030010ABAAAAAA05
:1041A000740E001030B583B0754601902B46194649
:1041B000094801F08DF9019B1B7A1A46074B53F809
:1041C00022309C682B461946034801F095F9234696
:1041D000184603B030BD00BFA541010084030010A4
:1041E00010B588B0744601900091234619462D48B9
:1041F00001F06EF980238DF81F30009B07EE903A96
:10420000F8EE677ACDED067A02AB9DED060A0199CC
:10421000184600F02DFB029B1B0A8DF81730029BFD
:104220008DF81630049BDBB21B01DAB2039BDBB2C4
:1042300003F00F03DBB213438DF81530019B1B7A9B
:104240001A46194B53F8223080221A73019B1B7AAD
:104250001A46154B53F822309DF817201A71019B0E
:104260001B7A1A46104B53F822309DF816201A700C
:10427000019B1B7A1A460C4B53F822309DF81520EF
:1042800083F82820019B1B7A1A46074B53F82230EB
:1042900003221A7323461946024801F02DF900BF84
:1042A00008B010BDE14101009403001030B585B0A5
:1042B0007546019000912B461946304801F008F9E7
:1042C00007238DF80F30019B181D019B5B68143389
:1042D0001B68019A127A920029490A4411469847AC
:1042E000019B1869019B1B691B681B68019A127A64
:1042F0001146244A525C11469847019BD868019B9D
:10430000DB681B681B68019A127A11461E4A525CD0
:1043100011469847019B1A69019B1B691B6804336E
:104320001B68022110469847019BDA68019BDB68F5
:104330001B6804331B6802211046984700990198B6
:10434000FFF74EFF019B1B7A1A46104B53F82230A1
:104350001B7ADAB2019B1B7A19460C4B53F82130B9
:1043600042F00702D2B21A7201242B4619460348C2
:1043700001F0C2F82346184605B030BDAD42010039
:104380000C940100089401000494010094030010AF
:1043900030B583B0754601902B4619460D4801F0A3
:1043A00097F8019B1B681B7A1A460B4B53F8223077
:1043B0001B7DDBB203F02003002B14BF012300237D
:1043C000DCB22B461946034801F096F823461846FE
:1043D00003B030BD91430100940300102DE9304833
:1043E0008AB0754601900B468DF803302B4619466E
:1043F000314801F06DF8019B1B7A1A462F4B53F898
:1044000022309DF803201A70019B04934FF0FF3374
:104410004FF0FF34CDE90834049B03932B46194633
:10442000274801F055F84FF000034FF00004CDE9A4
:104430000634DDE90834B4F1FF3F08BFB3F1FF3FB4
:1044400006D14FF0FF334FF0FF34CDE906340BE0D7
:10445000FCF73CF80A460146DDE9083413EB010B92
:1044600044EB020CCDE906BC01230593FCF72EF8C2
:104470000A460146DDE90634A24208BF994234BF2C
:1044800001230023DBB2002B08D003AB1846FFF753
:104490007FFF0346002BE9D0002305932B461946E6
:1044A000074801F029F82B461946034801F024F883
:1044B00000BF0AB0BDE83088DD430100940300105E
:1044C000D94C010030B583B0754601902B46194692
:1044D0000D4800F0FDFF019B1B681B7A1A460B4B31
:1044E00053F822301B7DDBB203F00103002B14BF15
:1044F00001230023DCB22B461946034800F0FCFFE1
:104500002346184603B030BDC54401009403001093
:104510002DE930488CB07546019000912B46194624
:10452000364800F0D5FFFF238DF82F30019B049310
:10453000009B4FF00004CDE90834049B03932B4605
:1045400019462F4800F0C4FF4FF000034FF000045D
:10455000CDE90634DDE90834B4F1FF3F08BFB3F11B
:10456000FF3F06D14FF0FF334FF0FF34CDE9063463
:104570000BE0FBF7ABFF0A460146DDE9083413EB1D
:10458000010B44EB020CCDE906BC01230593FBF7BC
:104590009DFF0A460146DDE90634A24208BF994262
:1045A00034BF01230023DBB2002B08D003AB184635
:1045B000FFF788FF0346002BE9D000230593059CF5
:1045C0002B4619460E4800F097FF0A940A9B002BD1
:1045D00008D1019B1B7A1A460A4B53F822301B78EC
:1045E0008DF82F309DF82F402B461946034800F0D8
:1045F00083FF234618460CB0BDE830881145010002
:10460000814D01009403001010B58AB074460390E8
:1046100002918DED010A23461946384800F058FFF3
:10462000039B00221A60039B00225A60039B012215
:104630009A6000238DF8273000230893089B0E2BE7
:1046400052DC9DF82730002B4ED1089B0133079395
:10465000079B0E2B44DC9DF82730002B40D1089B94
:1046600007EE903AF8EEE77ACDED067A079B07EE73
:10467000903AF8EEE77ACDED057ADDED066A9DED2C
:10468000057AC6EE877AB7EE007A77EE877ACDEDB7
:10469000047ADDED047A9FED1A7A77EE877A9DED44
:1046A000017AB4EEE77AF1EE10FA15D8DDED047A6E
:1046B0009FED137A77EEC77A9DED017AB4EEE77A33
:1046C000F1EE10FA08DB089A039B5A60079A039BE5
:1046D0009A6001238DF82730079B01330793B7E7D2
:1046E000089B01330893A9E700BF234619460348F6
:1046F00000F002FF00BF03980AB010BD0946010098
:10470000CDCC4C3D10B52DED028B86B07446039098
:104710008DED020ACDED010A23461946154800F039
:10472000D7FE039B1A1D039B5B6810331B68104662
:10473000984707EE900AF8EE677ACDED057ADDED41
:10474000027AB3EE007A27EE877ADDED017A67EE22
:10475000277A9DED057A87EE278A23461946054874
:1047600000F0CAFEF0EE487AB0EE670A06B0BDEC83
:10477000028B10BD0547010010B52DED028B86B0F0
:10478000744603908DED020ACDED010A23461946C9
:10479000154800F09DFE039B1A1D039B5B681033B8
:1047A0001B681046984707EE900AF8EE677ACDED41
:1047B000057ADDED027AB3EE007A27EE877ADDED39
:1047C000017A67EE277A9DED057A87EE278A2346E0
:1047D0001946054800F090FEF0EE487AB0EE670A00
:1047E00006B0BDEC028B10BD7947010030B587B033
:1047F000754601908DED000A2B461946194800F0C8
:1048000067FE00238DF817309DED000A03F09AFA39
:104810008DED040A9DED007ADDED047A77EE677A7E
:10482000CDED037ADDED037A9FED0F7AF4EEC77AD2
:10483000F1EE10FA0BDBDDED037A9FED0C7AF4EE6E
:10484000C77AF1EE10FA02D801238DF817309DF8DF
:1048500017402B461946034800F04EFE23461846E3
:1048600007B030BDED470100CDCC4CBDCDCC4C3DAB
:1048700030B58FB07546079006918DED050A2B4631
:104880001946744800F024FE00230D93079B002274
:104890001A60079B00225A60079B01229A604FF022
:1048A00000030C934FF07F530B934FF07E530A930A
:1048B0004FF0804309930D9B042B00F0C1800D9BAA
:1048C000042B00F2BB8001A252F823F0E148010062
:1048D0003D4901009D4901000D4A01003D4A01008A
:1048E000F7EE000A9DED050A0698FFF70BFF8DED28
:1048F0000C0ADDED0C7AB7EE007AF4EEC77AF1EE31
:1049000010FA05D5079B00221A6004230D9396E048
:104910009DED0C0A0698FFF769FF0346002B0AD0AD
:10492000DDED0C7AFCEEE77A17EE902A079B1A6011
:1049300004230D9383E001230D9380E0DDED0B0A4A
:104940009DED050A0698FFF7DDFEF0EE407AB0EE29
:10495000670A03F0F7F98DED0C0ADDED0C0A9DED09
:10496000050A0698FFF708FF8DED0B0ADDED0B7ABF
:104970009FED397AF4EEC77AF1EE10FA0BDBDDED3C
:104980000B7A9FED367AF4EEC77AF1EE10FA02D880
:1049900003230D9353E002230D9350E0DDED097ADC
:1049A000B7EE007A77EE877ACDED097ADDED0A7AF7
:1049B000B2EE0E7AF4EEC77AF1EE10FA02DD0423BD
:1049C0000D933CE0DDED097AB2EE0E7AF4EEC77A93
:1049D000F1EE10FA0FDDDDED0A7AB7EE007A77EE30
:1049E000877ACDED0A7ADDED0A7AB7EE007A77EEB6
:1049F000877ACDED097ADDED0A6A9DED097AC6EE7A
:104A0000877ACDED0B7A01230D9318E0079C6B4656
:104A10009DED0B0A06991846FFF7F6FD6B4693E8E5
:104A2000070084E80700DDED0C7AFCEEE77A17EE6C
:104A3000902A079B1A6004230D9300E000BF3AE719
:104A400000BF2B461946034800F056FD00BF0798EB
:104A50000FB030BD71480100CDCC8C3F3333F33FF4
:104A600038B575462B4619460A4800F031FD0A4B09
:104A70001B7A1A46094B53F822309C682B4619467C
:104A8000044800F039FD23464FF000041846214643
:104A900038BD00BFA54101000404001084030010CC
:104AA00038B575462B4619460A4800F011FD0A4BE9
:104AB0001B7A1A46094B53F822309C682B4619463C
:104AC000044800F019FD23464FF000041846214623
:104AD00038BD00BFA541010004040010840300108C
:104AE00000B583B04FF47A712248FFF7BBF9214833
:104AF000FFF76AF903468DF807309DF8073083F019
:104B00000103DBB2002B05D0AD231B4A1B491C4817
:104B100001F038FF30211B48FDF7E8F90346002B70
:104B200014BF01230023DBB2002B01D000BFF1E74B
:104B300001211448FDF722FAFFF7F4F84FF47A71D7
:104B40000C48FFF78FF90B48FFF73EF94FF0FF33A2
:104B50000D4A0E490E48FFF7F7F90E48FFF7CAF85D
:104B60004FF416410C48FFF7A1FB00BF03B05DF8FE
:104B700004FB00BFF8030010149501001C94010011
:104B80007493010000040010293F010040420F000F
:104B900004040010614A0100E403001008B5FBF7AB
:104BA000B5FAFBF7FBFAFBF729FB03F0D3FAFFF7A3
:104BB00097FF00BF08BDFFFF80B584B000AF094B71
:104BC000FB60FB683B603B6883F30988FB687B60A4
:104BD0007B6883F30888FFF7E1FFFEF7C5FDB86047
:104BE000FEE700BF0000011010B5744623461946C9
:104BF0000A4800F06DFC0020FFF77EF903461A46D4
:104C0000074B53F82230984700F00EF92346194617
:104C1000024800F071FC00BF10BD00BFE94B01006D
:104C2000B40E001010B57446234619460A4800F029
:104C30004FFC0120FFF760F903461A46074B53F873
:104C40002230984700F040F923461946024800F008
:104C500053FC00BF10BD00BF254C0100B40E001076
:104C600010B57446234619460A4800F031FC02206C
:104C7000FFF742F903461A46074B53F8223098478C
:104C800000F072F923461946024800F035FC00BFD7
:104C900010BD00BF614C0100B40E001010B5744689
:104CA000234619460A4800F013FC0320FFF724F9B5
:104CB00003461A46074B53F82230984700F0A4F9F0
:104CC00023461946024800F017FC00BF10BD00BF84
:104CD0009D4C0100B40E00102DE9304888B0754697
:104CE000CDE9020101922B461946244800F0F0FB61
:104CF0004FF000034FF00004CDE90634DDE9023443
:104D0000B4F1FF3F08BFB3F1FF3F06D14FF0FF33CF
:104D10004FF0FF34CDE906340BE0FBF7D7FB0A4632
:104D20000146DDE9023413EB010B44EB020CCDE943
:104D300006BC01230593FBF7C9FB0A460146DDE9E2
:104D40000634A24208BF994234BF01230023DBB2DC
:104D5000002B08D001AB1846FFF71AFB0346002BC7
:104D6000E9D000230593059C2B461946034800F023
:104D7000C3FB2346184608B0BDE83088D94C010073
:104D80002DE9304888B07546CDE9020101922B46E5
:104D90001946244800F09CFB4FF000034FF000043C
:104DA000CDE90634DDE90234B4F1FF3F08BFB3F1C9
:104DB000FF3F06D14FF0FF334FF0FF34CDE906340B
:104DC0000BE0FBF783FB0A460146DDE9023413EBF7
:104DD000010B44EB020CCDE906BC01230593FBF764
:104DE00075FB0A460146DDE90634A24208BF994236
:104DF00034BF01230023DBB2002B08D001AB1846DF
:104E0000FFF760FB0346002BE9D000230593059CC8
:104E10002B461946034800F06FFB2346184608B09E
:104E2000BDE83088814D010010B582B0744623463C
:104E30001946234800F04CFB00238DF807309DF8FD
:104E40000730204A52F823301A689DF807301D4970
:104E500051F8233042F001021A609DF80730194AD8
:104E600052F823301A689DF80730164951F823305C
:104E700042F002021A609DF80730124A52F82330BD
:104E80001A689DF807300F4951F8233042F00402A8
:104E90001A609DF807300B4A52F823301A689DF8C3
:104EA0000730084951F8233042F008021A602346BF
:104EB0001946034800F020FB00BF02B010BD00BF40
:104EC000294E01008403001010B582B074462346B9
:104ED0001946234800F0FCFA01238DF807309DF8AD
:104EE0000730204A52F823301A689DF807301D49D0
:104EF00051F8233042F001021A609DF80730194A38
:104F000052F823301A689DF80730164951F82330BB
:104F100042F002021A609DF80730124A52F823301C
:104F20001A689DF807300F4951F8233042F0040207
:104F30001A609DF807300B4A52F823301A689DF822
:104F40000730084951F8233042F008021A6023461E
:104F50001946034800F0D0FA00BF02B010BD00BFF0
:104F6000C94E01008403001010B582B07446234678
:104F70001946234800F0ACFA02238DF807309DF85B
:104F80000730204A52F823301A689DF807301D492F
:104F900051F8233042F001021A609DF80730194A97
:104FA00052F823301A689DF80730164951F823301B
:104FB00042F002021A609DF80730124A52F823307C
:104FC0001A689DF807300F4951F8233042F0040267
:104FD0001A609DF807300B4A52F823301A689DF882
:104FE0000730084951F8233042F008021A6023467E
:104FF0001946034800F080FA00BF02B010BD00BFA0
:10500000694F01008403001010B582B07446234636
:105010001946234800F05CFA03238DF807309DF809
:105020000730204A52F823301A689DF807301D498E
:1050300051F8233042F001021A609DF80730194AF6
:1050400052F823301A689DF80730164951F823307A
:1050500042F002021A609DF80730124A52F82330DB
:105060001A689DF807300F4951F8233042F00402C6
:105070001A609DF807300B4A52F823301A689DF8E1
:105080000730084951F8233042F008021A602346DD
:105090001946034800F030FA00BF02B010BD00BF4F
:1050A000095001008403001082B001900091019B1F
:1050B000012B5DD1009B4FF6FF72934258D12E4BCE
:1050C0001B6803F00103002B52D12B4B01221A6005
:1050D0002A4B1B6818332A4A1360284B1B681C3361
:1050E000274A5360254B1B682033254A9360234B86
:1050F0001B682433224AD360204B5B681833204A54
:1051000013611E4B5B681C331D4A53611B4B5B686C
:1051100020331B4A9361194B5B682433184AD361CF
:10512000164B9B681833164A1362144B9B681C334A
:10513000134A5362114B9B682033114A93620F4B01
:105140009B6824330E4AD3620C4BDB6818330C4A3D
:1051500013630A4BDB681C33094A5363074BDB6854
:105160002033074A9363054BDB682433044AD36337
:1051700000BF02B0704700BFC40E001084030010CF
:10518000740E001008B54FF6FF710120FFF78CFF79
:1051900008BDFFFF82B003468DF807309DF9073048
:1051A00003F01F0205499DF907305B09012000FA51
:1051B00002F241F8232000BF02B0704700E100E096
:1051C00082B0034600918DF807309DF90730002B1F
:1051D0000CDA009BDAB20D499DF9073003F00F039A
:1051E000043B5201D2B20B441A760BE0009BDBB2B7
:1051F000074A9DF9071008465B01D9B213180A4601
:1052000083F8002300BF02B0704700BF00ED00E04C
:1052100000E100E000B585B0124B5B688DF80F30FF
:105220009DF80F30104A52F823300293029B0F4A28
:10523000934210D19DF80F300093DD230C4A0D49A5
:105240000D4801F09FFB0D4800F012F900210120EC
:10525000FBF7CAFDFEE7029B984700BF05B05DF86B
:1052600004FB00BF00ED00E0100400101552010027
:10527000909701008097010024960100D0960100CC
:1052800000B585B00291019303468DF80F301346A7
:105290008DF80E309DF90F3010330F49029A41F806
:1052A00023209DF80E30002B08D09DF90F30002BE5
:1052B00004DB9DF90F301846FFF76CFF019B002BB4
:1052C00006DB019A9DF90F3011461846FFF778FF6B
:1052D00000BF05B05DF804FB1004001000B58DB0F0
:1052E0000390039B1B680B93039B5B680A93039BD0
:1052F0009B680993039BDB680893039B1B690793D7
:10530000039B5B690693039B9B690593039BDB6986
:1053100004930D4801F036FB0B990A9A0998089BF3
:1053200000930346094801F02DFB0799069A05985A
:10533000049B00930346064801F024FB059B194695
:105340000120FBF751FDFEE7E896010014970100EC
:105350004897010030B583B0754601902B46194639
:10536000094800F0B5F8019BDBB219460748FFF782
:1053700035F801242B461946034800F0BDF82346B2
:10538000184603B030BD00BF55530100E4030010C0
:1053900000B583B0734601901946024800F098F8B2
:1053A00000BFFDE79153010038B575462B461946FD
:1053B000054800F08DF801242B461946024800F0FC
:1053C0009BF82346184638BDA953010030B583B079
:1053D0007546019000912B461946074800F078F871
:1053E0004FF0FF342B461946034800F085F823465A
:1053F000184603B030BD00BFCD53010010B582B0D8
:10540000744603468DF8073023461946084800F0D5
:105410005FF8084B1B689DF8072010469847234605
:105420001946034800F068F800BF02B010BD00BF85
:10543000FD530100F404001030B583B074460190B0
:1054400023461946084800F043F8084B1B680198AA
:105450009847054623461946034800F04DF82B4669
:10546000184603B030BD00BF39540100F4040010E9
:1054700030B585B0754601902B461946124800F0AC
:1054800027F800230393039B019A13441B78002BF6
:105490000BD00E4B1B68039A01990A4412781046F0
:1054A0009847039B01330393EDE7084B1B680A20E1
:1054B0009847039C2B461946034800F01DF82346E5
:1054C000184605B030BD00BF71540100F40400104F
:1054D00082B001900091009A054B1B68591C04484A
:1054E0000160044941F8232000BF02B0704700BFAB
:1054F000C80F0010C80E001082B001900091044B3C
:105500001B68013B024A136000BF02B0704700BF36
:10551000C80F001038B575462B4619460548FFF7E9
:10552000D7FF054C2B4619460248FFF7E5FF2346F7
:10553000184638BD15550100C80E001038B575461F
:105540002B4619460648FFF7C3FF064B1C682B463F
:1055500019460348FFF7D0FF2346184638BD00BF61
:105560003D550100C80F001010B584B0294B1B68D1
:10557000002B03D0284B01221A6047E0264B002263
:105580001A60FFF78DFA03460C461A46234B1A6041
:10559000224B1A68224B1B689A4209D9214B1B687F
:1055A000596D1E4A10681E4A1268821A0A445A65CA
:1055B0001A4B1B681A4A13601B4B1B680193019B13
:1055C000B3FA83F38DF803309DF80330C3F11F0362
:1055D0000393039A13469B0013449B00134A1344FE
:1055E0000293029B5B685A68029B5A60029B5A684E
:1055F000029B08339A4204D1029B5B685A68029B63
:105600005A60029B5B68DB68064A136000BF04B007
:1056100010BD00BF3C1000103810001044100010E6
:1056200040100010CC0F001034100010D00F0010EC
:10563000074B19680868B0E8F04F80F30988BFF39A
:105640006F8F4FF0000080F311887047AFF3008038
:10565000CC0F001000BF00BFFFFFFFFFFFFFFFFFE9
:10566000EFF30980BFF36F8F154B1A681EF0100F10
:1056700008BF20ED108A20E9F04F10602DE90900E5
:105680004FF0280080F31188BFF34F8FBFF36F8F67
:10569000FFF76AFF4FF0000080F3118809BC19681A
:1056A0000868B0E8F04F1EF0100F08BFB0EC108A89
:1056B00080F30988BFF36F8F704700BFAFF300809E
:1056C000CC0F001000BF00BF10B584B0744602912B
:1056D0000192009303468DF80F3023461946054882
:1056E000FFF7F6FE234619460248FFF705FF00BF05
:1056F00004B010BDC956010010B584B074460291C3
:105700000192009303468DF80F30234619460A484C
:10571000FFF7DEFE9DF80F30002B04D09DF80F3010
:105720001846FFF76BFE234619460348FFF7E4FED1
:1057300000BF04B010BD00BFF956010030B585B000
:1057400074460190234619460C48FFF7C1FE019BA1
:105750000393039B1B78002B03D0039B013303931C
:10576000F7E7039A019BD31A1D46234619460348BF
:10577000FFF7C2FE2B46184605B030BD3D5701006D
:1057800030B583B0754603468DF807302B46194671
:105790000B48FFF79DFE9DF807302F2B05D99DF88C
:1057A0000730392B01D8012400E000242B4619468C
:1057B0000348FFF7A1FE2346184603B030BD00BFE3
:1057C0008157010030B585B0754601902B461946CA
:1057D0001348FFF77DFE00230393019B1B681B7892
:1057E0001846FFF7CDFF0346002B0FD0039A134650
:1057F0009B0013445B001846019B1B68591C019ACF
:1058000011601B780344303B0393E6E7039C2B466F
:1058100019460348FFF770FE2346184605B030BD11
:10582000C557010030B589B07546039002910192C9
:1058300000932B4619469148FFF74AFE019B0593BA
:10584000129B03F00203002B0ED10D9A109B9A427B
:105850000AD20D9B1F2B07D80D9B5A1C0D920C9A38
:10586000134430221A70EBE7129B03F00203002B63
:1058700013D1129B03F00103002B0ED00D9A119B44
:105880009A420AD20D9B1F2B07D80D9B5A1C0D92D2
:105890000C9A134430221A70E6E7129B03F01003AF
:1058A000002B58D0129B03F48063002B16D10D9B64
:1058B000002B13D00D9A109B9A4203D00D9A119B86
:1058C0009A420BD10D9B013B0D930D9B002B05D0F4
:1058D0000F9B102B02D10D9B013B0D930F9B102BA7
:1058E0000FD1129B03F02003002B0AD10D9B1F2B1D
:1058F00007D80D9B5A1C0D920C9A134478221A70EB
:105900001FE00F9B102B0FD1129B03F02003002BE5
:105910000AD00D9B1F2B07D80D9B5A1C0D920C9A79
:10592000134458221A700CE00F9B022B09D10D9BD7
:105930001F2B06D80D9B5A1C0D920C9A1344622201
:105940001A700D9B1F2B06D80D9B5A1C0D920C9A9A
:10595000134430221A700D9B002B14D00D9A119B0A
:105960009A4210D19DF83830002B09D1129B03F0D8
:105970000403002B04D1129B03F00803002B02D078
:105980000D9B013B0D930D9B1F2B24D89DF83830A8
:10599000002B07D00D9B5A1C0D920C9A13442D22FC
:1059A0001A7018E0129B03F00403002B07D00D9B24
:1059B0005A1C0D920C9A13442B221A700BE0129B66
:1059C00003F00803002B06D00D9B5A1C0D920C9A75
:1059D000134420221A70129B03F00203002B16D1ED
:1059E000129B03F00103002B11D10D9B0793079A23
:1059F000119B9A420BD2019A531C0193039C009B6A
:105A000002992020A047079B01330793EFE700236B
:105A10000693069A0D9B9A4211D20D9A069BD31AB1
:105A2000013B0C9A13441878019A531C0193039C70
:105A3000009B0299A047069B01330693E9E7129B5E
:105A400003F00203002B0ED0019A059BD31A119A82
:105A50009A4208D9019A531C0193039C009B029916
:105A60002020A047F0E7019C2B4619460348FFF78A
:105A700043FD2346184609B030BD00BF255801003C
:105A800030B597B074460B900A910992089323465B
:105A900019463348FFF71CFD002315931A9B002B72
:105AA00003D11F9B23F010031F931F9B03F48063FC
:105AB000002B02D01A9B002B33D01A9B1C9AB3FBED
:105AC000F2F21C9901FB02F29B1A8DF853309DF8FB
:105AD0005330092B04D89DF853303033DAB20DE03F
