:020000021000EC
:100000000000011089480100E54E010019020100BD
:10001000E54E0100E54E0100E54E0100CA79F7EF1B
:10002000000000000000000000000000C1640100AA
:10003000E54E010000000000C1650100E54E010031
:10004000E54E0100E54E0100E54E0100E54E0100E0
:10005000E54E0100E54E0100E54E0100E54E0100D0
:10006000E54E0100E54E0100E54E0100E54E0100C0
:10007000E54E010000000000E54E0100E54E0100E4
:10008000E54E0100E54E0100E54E0100E54E0100A0
:10009000E54E0100E54E0100E54E0100E54E010090
:1000A000E54E0100E54E0100E54E0100E54E010080
:1000B000E54E0100E54E0100E54E0100E54E010070
:1000C000E54E0100E54E0100E54E0100E54E010060
:1000D000E54E0100E54E0100E54E0100E54E010050
:1000E000E54E0100F0C201000000001044090000CC
:1000F000F0C20100000000200000000048090010CC
:10010000740D0000000000200000000086B00023F5
:100110000593059A13465B0013449B001D4A134444
:100120001D4A934233D21B49059A13465B00134480
:100130009B000B441B6803931649059A13465B000A
:1001400013449B000B445B6802931249059A1346C3
:100150005B0013449B000B4408331B68019300238E
:100160000493049A019B9A420DD2049B9B00039A2C
:100170001A44049B9B0002990B4412681A60049B6A
:1001800001330493EDE7059B01330593C1E700BFFD
:1001900006B07047E4000100FC00010084B00023B9
:1001A0000393039BDB00134A1344134A93421ED26A
:1001B000104A039B52F8333001930E4A039BDB0035
:1001C00013445B68009300230293029A009B9A42B7
:1001D00009D2029B9B00019A134400221A60029BE1
:1001E00001330293F1E7039B01330393D9E700BF87
:1001F00004B07047FC0001000C010100DFF814009E
:10020000016841F470010160BFF34F8FBFF36F8F3E
:1002100000BF704788ED00E01EF0040F0CBFEFF345
:100220000880EFF309808169004A1047AD4F010053
:1002300000BF7047FFFFFFFFFFFFFFFFFFFFFFFF54
:10024000FFFFFFFFFFFFFFFFFFFFFFFFFFFFFFFFBE
:10025000FFFFFFFFFFFFFFFFFFFFFFFFFFFFFFFFAE
:10026000FFFFFFFFFFFFFFFFFFFFFFFFFFFFFFFF9E
:10027000FFFFFFFFFFFFFFFFFFFFFFFFFFFFFFFF8E
:10028000FFFFFFFFFFFFFFFFFFFFFFFFFFFFFFFF7E
:10029000FFFFFFFFFFFFFFFFFFFFFFFFFFFFFFFF6E
:1002A000FFFFFFFFFFFFFFFFFFFFFFFFFFFFFFFF5E
:1002B000FFFFFFFFFFFFFFFFFFFFFFFFFFFFFFFF4E
:1002C000FFFFFFFFFFFFFFFFFFFFFFFFFFFFFFFF3E
:1002D000FFFFFFFFFFFFFFFFFFFFFFFFFFFFFFFF2E
:1002E000FFFFFFFFFFFFFFFFFFFFFFFFFFFFFFFF1E
:1002F000FFFFFFFFFFFFFFFFFFFFFFFFFFFFFFFF0E
:10030000F8B500BFF8BC08BC9E4670474D0301001D
:100310002D370100554E0100698F0100F8B500BF6F
:10032000F8BC08BC9E46704710B5054C237833B91D
:10033000044B13B10448AFF300800123237010BDB8
:100340004809001000000000F0C2010008B5034B8E
:100350001BB103490348AFF3008008BD0000000053
:100360004C090010F0C2010030B583B07546019011
:100370002B461946074804F03FFF074A019B1A60C5
:10038000019C2B461946034804F04AFF23461846B1
:1003900003B030BD69030100049F010030B583B094
:1003A000754601900B468DF8033013468DF80230E8
:1003B0002B4619460D4804F01FFF019B1846FFF716
:1003C000D3FF0B4A019B1A60019B9DF803201A7111
:1003D000019B9DF802205A71019C2B461946034847
:1003E00004F01EFF2346184603B030BD9D030100F4
:1003F000C89E0100F0B585B0774603900B468DF896
:100400000B303B461946174804F0F6FE164B1B68A6
:10041000039A12791046039A5279114642010A440E
:1004200053F822109DF80B3003F007020E4B1C68A6
:10043000039B1B791E46039B5B791D460323009398
:1004400013460022039800F067FA024673012B441A
:1004500044F823203B461946024804F0E1FE00BF61
:1004600005B0F0BDF503010000000010F0B587B045
:10047000774603900B468DF80B303B4619461948DA
:1004800004F0BAFE9DF80B308DF81730164B1B6840
:10049000039A12791046039A5279114642010A448E
:1004A00053F822109DF8173003F003020E4B1C681E
:1004B000039B1B791E46039B5B791D460223009319
:1004C00013460322039800F027FA024673012B44D7
:1004D00044F823203B461946024804F0A1FE00BF21
:1004E00007B0F0BD6D04010000000010F0B585B04C
:1004F000774603900B468DF80B303B46194616485D
:1005000004F07AFE154B1B68039A12791046039A81
:100510005279114642010A4453F822109DF80B20EB
:100520000E4B1C68039B1B791E46039B5B791D4683
:100530000123009313460522039800F0EDF90246CB
:1005400073012B4444F823203B461946024804F02B
:1005500067FE00BF05B0F0BDED0401000000001013
:10056000F0B585B0774603900B468DF80B303B46CF
:100570001946164804F040FE154B1B68039A127981
:100580001046039A5279114642010A4453F8221048
:100590009DF80B200E4B1C68039B1B791E46039B8A
:1005A0005B791D460123009313460622039800F051
:1005B000B3F9024673012B4444F823203B46194605
:1005C000024804F02DFE00BF05B0F0BD610501003A
:1005D00000000010F0B585B0774603900B468DF80B
:1005E0000B303B461946184804F006FE174B1B68B3
:1005F000039A12791046039A5279114642010A442D
:1006000053F822109DF80B3083F00103DBB21A4639
:100610000E4B1C68039B1B791E46039B5B791D4692
:100620000123009313460722039800F075F9024650
:1006300073012B4444F823203B461946024804F03A
:10064000EFFD00BF05B0F0BDD505010000000010B2
:10065000F0B585B0774603900B468DF80B303B46DE
:100660001946184804F0C8FD174B1B68039A127905
:100670001046039A5279114642010A4453F8221057
:100680009DF80B3083F00103DBB21A460E4B1C6859
:10069000039B1B791E46039B5B791D460123009338
:1006A00013460822039800F037F9024673012B44E1
:1006B00044F823203B461946024804F0B1FD00BF30
:1006C00005B0F0BD5106010000000010F0B585B086
:1006D000774603900B468DF80B303B46194616487B
:1006E00004F08AFD154B1B68039A12791046039A91
:1006F0005279114642010A4453F822109DF80B200A
:100700000E4B1C68039B1B791E46039B5B791D46A1
:100710000123009313460922039800F0FDF80246D6
:1007200073012B4444F823203B461946024804F049
:1007300077FD00BF05B0F0BDCD0601000000001040
:10074000F0B585B0774603900B468DF80B303B46ED
:100750001946184804F050FD174B1B68039A12798C
:100760001046039A5279114642010A4453F8221066
:100770009DF80B3083F00103DBB21A460E4B1C6868
:10078000039B1B791E46039B5B791D460123009347
:1007900013460822039800F0BFF8024673012B4469
:1007A00044F823203B461946024804F039FD00BFB7
:1007B00005B0F0BD4107010000000010F0B585B0A4
:1007C000774603900B468DF80B303B46194616488A
:1007D00004F012FD154B1B68039A12791046039A18
:1007E0005279114642010A4453F822109DF80B2019
:1007F0000E4B1C68039B1B791E46039B5B791D46B1
:100800000123009313460922039800F085F802465D
:1008100073012B4444F823203B461946024804F058
:10082000FFFC00BF05B0F0BDBD07010000000010D7
:10083000F0B585B0774603900B468DF80B303B46FC
:100840001946164804F0D8FC154B1B68039A127918
:100850001046039A5279114642010A4453F8221075
:100860009DF80B200E4B1C68039B1B791E46039BB7
:100870005B791D460123009313460A22039800F07A
:100880004BF8024673012B4444F823203B4619469B
:10089000024804F0C5FC00BF05B0F0BD31080100FE
:1008A00000000010F0B585B0774603900B468DF838
:1008B0000B303B461946164804F09EFC154B1B684E
:1008C000039A12791046039A5279114642010A445A
:1008D00053F822109DF80B200E4B1C68039B1B79CC
:1008E0001E46039B5B791D4601230093134610228D
:1008F000039800F011F8024673012B4444F82320BA
:100900003B461946024804F08BFC00BF05B0F0BD21
:10091000A50801000000001030B587B075460390AF
:100920000291019200932B461946134804F064FC8F
:100930000A9BC3F120034FF0FF3222FA03F3059321
:10094000059A019B02FA03F3DB43029A13400293D8
:10095000009A059B1A40019B02FA03F3029A134383
:100960000293029C2B461946034804F059FC234687
:10097000184607B030BD00BF1909010030B583B07B
:10098000754601902B461946064804F035FC019B3C
:100990001C792B461946034804F042FC23461846AE
:1009A00003B030BD7D09010030B583B075460190BC
:1009B0002B461946064804F01FFC019B5C792B4628
:1009C0001946034804F02CFC2346184603B030BDFA
:1009D000A909010000B58BB0034600918DF80730DE
:1009E00004F040FC03461946314806F0E9FF04F0E4
:1009F00025FC079004F036FC069000230993069B23
:100A0000013B099A9A420DD2099B9B00079A134415
:100A10001B681A460999274806F0D2FF099B013343
:100A20000993ECE7009B002B06D0069B013B009A44
:100A30001946204806F0C4FF9DF80730002B33D03C
:100A40001D4A03AB07CA83E807001C4804F0A4FB57
:100A500003AB19461A4806F0B3FF00230893069B20
:100A6000013B089A9A4212D2089B002B02D0202008
:100A700004F076FB089B9B00079A13441B681946F9
:100A8000104806F09DFF089B01330893E7E7009BA1
:100A9000002B03D000990C4806F092FF0B4804F09D
:100AA0007BFB0B4804F078FB00BF0BB05DF804FB48
:100AB000589601006C960100489701007C96010051
:100AC000B4960100DC960100E4960100EC9601006A
:100AD000F496010070B5764633461946074804F08F
:100AE0008BFB074BD3E9004533461946034804F016
:100AF00097FB23462C461846214670BDD50A0100B7
:100B00006809001070B57446234619460C4804F075
:100B100073FB0C4B1B6898474FF47A724FF000033D
:100B200008F0CCFA02460B4615461E4623461946E7
:100B3000034804F075FB2B4634461846214670BD29
:100B4000050B01000400001030B583B0754601901C
:100B50002B461946074804F04FFB074A019B1A60D1
:100B6000019C2B461946034804F05AFB23461846BD
:100B700003B030BD490B0100809E010030B583B049
:100B8000754601900B468DF8033013468DF8023000
:100B90002B461946164804F02FFB019B1846FFF719
:100BA000D3FF144A019B1A60019B00221A71019B1A
:100BB00003F10C02019B9A60019B0C339DF802200B
:100BC0009DF803101846FFF7E9FB9DF80330022B50
:100BD00001D1012200E00022019B1A71019C2B46E9
:100BE0001946034804F01CFB2346184603B030BDE9
:100BF0007D0B0100389E010030B583B07546019031
:100C00002B461946194804F0F7FA019B9A68019B94
:100C10009B681B681B68002110469847019B9A68D7
:100C2000019B9B681B6830331B681046984703463E
:100C30001A4601239340DC43019B9A68019B9B6801
:100C40001B682C331B681046984703461A46084B0E
:100C500053F822301A6821460A401A602B4619467A
:100C6000024804F0DDFA00BF03B030BDF90B01000B
:100C70000800001030B583B0754601902B46194628
:100C8000194804F0B9FA019B9A68019B9B681B689C
:100C90001B68002110469847019B9A68019B9B683E
:100CA0001B6830331B681046984703461A460123D9
:100CB00003FA02F4019B9A68019B9B681B682C3322
:100CC0001B681046984703461A46084B53F82230D3
:100CD0001A6821460A431A602B461946024804F056
:100CE0009FFA00BF03B030BD750C01000800001072
:100CF00010B582B0744601900B468DF80330234640
:100D000019460B4804F078FA9DF80330002B03D005
:100D10000198FFF7AFFF02E00198FFF76DFF234650
:100D20001946034804F07CFA00BF02B010BD00BFB2
:100D3000F10C010030B583B0754601902B46194681
:100D4000134804F059FA019B9A68019B9B681B6841
:100D500030331B681046984703461A4601239340D8
:100D60001C46019B9A68019B9B681B682C331B687F
:100D70001046984703461A46064B53F822309C61AA
:100D80002B461946024804F04BFA00BF03B030BDB1
:100D9000350D01000800001030B583B07546019094
:100DA0002B461946134804F027FA019B9A68019BC9
:100DB0009B681B6830331B681046984703461A46E9
:100DC000012393401C46019B9A68019B9B681B680A
:100DD0002C331B681046984703461A46064B53F8B7
:100DE0002230DC612B461946024804F019FA00BF94
:100DF00003B030BD990D01000800001010B582B09D
:100E0000744601900B468DF80330234619460B4873
:100E100004F0F2F99DF80330002B03D00198FFF79E
:100E200089FF02E00198FFF7B7FF23461946034800
:100E300004F0F6F900BF02B010BD00BFFD0D0100C7
:100E400030B583B0754601902B461946154804F01D
:100E5000D3F9019B9A68019B9B681B6830331B6820
:100E60001046984703461A46012303FA02F4019BF1
:100E70009A68019B9B681B682C331B681046984737
:100E800003461A46084B53F822305A6921464A4015
:100E90005A612B461946034804F0C2F900BF03B05B
:100EA00030BD00BF410E01000800001030B585B014
:100EB000754601902B461946184804F09DF9019B90
:100EC0009A68019B9B681B682C331B6810469847E7
:100ED00003461A46124B53F822305C69019B9A680C
:100EE000019B9B681B6830331B681046984703467C
:100EF00024FA03F303F00103002B14BF01230023A2
:100F00008DF80F309DF80F402B461946034804F02A
:100F100087F92346184605B030BD00BFAD0E01006D
:100F20000800001030B583B0754601902B46194675
:100F3000164804F061F9019B9A68019B9B681B6845
:100F40002C331B681046984703461A46104B53F83B
:100F500022305C69019B9A68019B9B681B68303357
:100F60001B6810469847034624FA03F303F0010375
:100F7000002B14BF01230023DCB22B461946034883
:100F800004F04EF92346184603B030BD250F01008A
:100F90000800001030B583B0754601902B46194605
:100FA000064804F029F9019B9C682B461946034822
:100FB00004F036F92346184603B030BD950F010002
:100FC00030B587B0754603902B461946174804F094
:100FD00013F9039B1B79012B94BF01230023DBB280
:100FE0008DF817309DF8173083F00103DBB2002B2A
:100FF00010D0039B9A68039B9B681B682C331B686B
:101000001046984703460093A623094A09490A480F
:1010100006F0D6FC9DF817402B461946034804F00D
:10102000FFF82346184607B030BD00BFC10F0100CE
:10103000B4A00100289C01005497010070B582B053
:1010400076460190009133461946114804F0D4F8D1
:101050000198FFF7B5FF009C019B1B791D46019B82
:101060009A68019B9B681B6830331B681046984741
:1010700003461946074A6B010B4442F823403346A6
:101080001946034804F0CCF800BF02B070BD00BFA1
:101090003D1001007009001030B583B07546019015
:1010A0002B4619460F4804F0A7F8019B1B791C46F4
:1010B000019B9A68019B9B681B6830331B68104634
:1010C000984703461946084A63010B44002142F839
:1010D00023102B461946034804F0A2F800BF03B0C2
:1010E00030BD00BF991001007009001030B583B009
:1010F000754603468DF807302B461946064804F01E
:101100007BF89DF807402B461946034804F088F801
:101110002346184603B030BDED10010010B584B071
:10112000744603900B468DF80B3023461946194838
:1011300004F062F80398FFF743FF9DF80B30012B92
:1011400008D0012B02D3022B08D00EE0039800F048
:10115000B1F817E0039800F0EBF813E0039800F003
:10116000A9F8039800F0E4F80CE09DF80B3018465D
:10117000FFF7BCFF03460093D223074A07490848FC
:1011800006F01EFC23461946024804F049F800BF49
:1011900004B010BD1D110100D0A00100349C01005D
:1011A000E497010010B584B0744603900B468DF8A7
:1011B0000B3023461946194804F01EF80398FFF730
:1011C000FFFE9DF80B30012B08D0012B02D3022B20
:1011D00008D00EE0039800F0E9F817E0039800F05B
:1011E00023F913E0039800F0E1F8039800F01CF9EC
:1011F0000CE09DF80B301846FFF778FF034600938C
:10120000F223074A0749084806F0DAFB2346194645
:10121000024804F005F800BF04B010BDA51101009C
:1012200078A00100409C0100E497010010B584B053
:1012300074460390029113468DF8073023461946F1
:101240000B4803F0D9FF0398FFF7BAFE0299039801
:10125000FFF7F4FE9DF8073019460398FFF75EFF8D
:1012600023461946024803F0DBFF00BF04B010BD5F
:101270002D12010010B582B0744601902346194624
:101280000B4803F0B9FF0198FFF79AFE0198FFF7AA
:1012900003FF019800F08AF8019800F0C5F8234692
:1012A0001946034803F0BCFF00BF02B010BD00BFE9
:1012B0007512010030B583B0754601902B46194672
:1012C000194803F099FF019B9A68019B9B681B6872
:1012D00030331B681046984703461A46012303FA29
:1012E00002F0019B1B791946104A0B469B000B44E8
:1012F0009B0013440C331B681A680446019B1B793E
:1013000018460A4903469B0003449B000B440C33D8
:101310001B6822431A602B461946034803F080FFDE
:1013200000BF03B030BD00BFB512010020000010A7
:1013300030B583B0754601902B461946194803F025
:101340005BFF019B9A68019B9B681B6830331B689D
:101350001046984703461A46012303FA02F0019B00
:101360001B791946104A0B469B000B449B00134403
:1013700010331B681A680446019B1B7918460A49FA
:1013800003469B0003449B000B4410331B6822431D
:101390001A602B461946034803F042FF00BF03B012
:1013A00030BD00BF311301002000001030B583B004
:1013B000754601902B461946194803F01DFF019B05
:1013C0009A68019B9B681B6830331B6810469847DE
:1013D00003461A4601239340D843019B1B791946C3
:1013E000104A0B469B000B449B0013440C331B68B4
:1013F0001A680446019B1B7918460A4903469B005C
:1014000003449B000B440C331B6822401A602B469C
:101410001946034803F004FF00BF03B030BD00BF0E
:10142000AD1301002000001030B583B07546019067
:101430002B461946194803F0DFFE019B9A68019B71
:101440009B681B6830331B681046984703461A4652
:1014500001239340D843019B1B791946104A0B4640
:101460009B000B449B00134410331B681A6804460E
:10147000019B1B7918460A4903469B0003449B00C5
:101480000B4410331B6822401A602B461946034850
:1014900003F0C6FE00BF03B030BD00BF2914010039
:1014A0002000001082B00190034A019B1A60019B4A
:1014B000184602B0704700BF149E010000B583B00B
:1014C0000190019B1846FFF7EDFF044A019B1A604B
:1014D000019B184603B05DF804FB00BFF09D0100BE
:1014E00000B585B001900B468DF8033000230393BF
:1014F0000021019800F0CEF89DF803300C2B16D98E
:101500009DF803309BB21A460C21019800F0ACF90B
:1015100003904FF48071019800F0D6F89DF80330E5
:10152000104A02FB03F31A460F4B1A6006E0002133
:10153000019800F0C9F80C4B0C4A1A60012101987F
:1015400000F04AFA019B1B6804331B6801210198D3
:1015500098470021019800F073FA039B184605B0E4
:101560005DF804FB40420F004C000010001BB70068
:1015700000B583B001900B468DF803309DF8033021
:10158000042B0DD9AE230B4A0B490C4806F018FA70
:101590000B4803F001FE00210120FFF71BFAFEE7D4
:1015A000084B1B689DF80320C3F8A82100BF03B0B7
:1015B0005DF804FB389F01004C9C010084980100F9
:1015C000249901004800001082B00190034B1B6871
:1015D000D3F8A831184602B0704700BF4800001089
:1015E00082B00190024B1B68184602B0704700BFE2
:1015F0004C00001000B585B00190019B1B680833BA
:101600001B6801989847029000230393029B002BCC
:101610000AD0019B1B680C331B680198984702464F
:10162000029BB2FBF3F30393039B184605B05DF8EE
:1016300004FBFFFF84B001900091094B1B68D3F8B5
:10164000C430009A1268012101FA02F21343039395
:10165000034B1B68039AC3F8C42000BF04B0704753
:101660004800001084B001900091094B1B68D3F82A
:10167000C430009A1268012101FA02F21340039368
:10168000034B1B68039AC3F8C42000BF04B0704723
:101690004800001084B001900B46ADF80230BDF850
:1016A00002300393074B1B68D3F80C3123F0010180
:1016B000044B1B68039A0A43C3F80C2100BF04B013
:1016C000704700BF4800001082B001900B46ADF893
:1016D0000230084B1B68D3F8043123F48071BDF845
:1016E0000220044B1B680A43C3F8042100BF02B068
:1016F000704700BF4800001082B001900B46ADF863
:101700000230084B1B68D3F8083123F44071BDF850
:101710000220044B1B680A43C3F8082100BF02B033
:10172000704700BF4800001082B001900B46ADF832
:101730000230084B1B68D3F8B43123F44071BDF874
:101740000220044B1B680A43C3F8B42100BF02B057
:10175000704700BF4800001000B587B001900B46ED
:10176000ADF802301346ADF80030BDF80030B3F5E7
:10177000C07F03D2BDF800300C2B0DD8FF23344AB4
:101780003449354806F01CF9344803F005FD0021C2
:101790000120FFF71FF9FEE701238DF81730BDF890
:1017A0000030BDF80220B3FBF2F102FB01F29B1AFC
:1017B0009BB2002B09D0BDF80020BDF80230B2FB6F
:1017C000F3F39BB20133049307E0BDF80020BDF8AA
:1017D0000230B2FBF3F39BB204930123ADF80E3059
:1017E0009DF81730002B2ED0049B9BB2BDF8022031
:1017F00012FB03F39BB2BDF80E2012FB03F39BB266
:101800005B00ADF80C30BDF80C309B2B03D90023E6
:101810008DF81730E4E7BDF80E305B00ADF80E3000
:10182000BDF80E30072BDBD940F21B13084A0C49D8
:101830000C4806F0C5F8094803F0AEFC0021012071
:10184000FFF7C8F8FEE7049B184607B05DF804FBF5
:10185000E09F0100649C01003C9901002499010073
:101860007C9C01002C9A010010B58AB001900B46B7
:10187000ADF802301346ADF800300123ADF81A3050
:10188000FFF740F90A46014611F57A7342F1000468
:10189000CDE90434FFF736F9CDE90801BDF80020A1
:1018A000BDF8023019460198FFF756FF0390BDF8C6
:1018B0000220039B02FB03F3079300210198FFF72B
:1018C000E9FE00210198FFF7FFFE00210198FFF7D4
:1018D00013FF00210198FFF727FF3A4B1B68D3F84D
:1018E000843023F01F01039B5A1E364B1B680A43AA
:1018F000C3F88420334B1B68D3F8843023F0600294
:10190000BDF81A305B0119462E4B1B680A43C3F819
:1019100084202C4B1B68D3F880202A4B1B6842F094
:101920000102C3F88020274B1B68AA22C3F88C2031
:10193000244B1B685522C3F88C20224B1B68D3F81C
:10194000883003F48063002B09D1DDE90812DDE95A
:101950000434A24208BF994201D2012300E00023CF
:10196000002B04D0FFF7CEF8CDE90801E5E7154BD1
:101970001B68D3F8883003F48063002B09D1DDE9BC
:101980000812DDE90434A24208BF994201D30123C1
:1019900000E00023002B0ED040F243130A4A0B490B
:1019A0000B4806F00DF80B4803F0F6FB0021012070
:1019B000FFF710F8FEE7BDF80030079AD31A184673
:1019C0000AB010BD48000010849F0100949C0100E3
:1019D000D49A01002499010000B583B001900B4610
:1019E0008DF803309DF803301F2B0ED940F26F1392
:1019F0000E4A0F490F4805F0E3FF0F4803F0CCFBF8
:101A000000210120FEF7E6FFFEE70C4B1B68D3F830
:101A1000043123F01F019DF80320084B1B680A4383
:101A2000C3F8042100BF03B05DF804FB3CA0010033
:101A3000AC9C01007C9B010024990100480000102F
:101A400082B001900B468DF80330084B1B68D3F829
:101A5000003123F001019DF80320044B1B680A4369
:101A6000C3F8002100BF02B0704700BF480000105B
:101A700030B583B0754601902B461946064803F0F1
:101A8000BBFB019C2B461946034803F0C9FB2346C8
:101A9000184603B030BD00BF711A010030B583B0E5
:101AA000754601902B461946074803F0A5FB074AE7
:101AB000019B1A60019C2B461946034803F0B0FBBA
:101AC0002346184603B030BD9D1A0100C89D010091
:101AD00030B583B07546019000912B4619460848F1
:101AE00003F08AFB074A019B1A60019C2B461946AA
:101AF000034803F095FB2346184603B030BD00BFF2
:101B0000D11A0100049F010030B583B075460190E1
:101B100000912B4619460F4803F06EFB019B009A7B
:101B200011461846FFF7D4FF0B4A019B1A60009B31
:101B30001A79019B1A71009B5A79019B5A71019C79
:101B40002B461946034803F06BFB2346184603B0A7
:101B500030BD00BF091B0100C89E010030B583B035
:101B60007546019000912B461946314803F044FB1D
:101B7000019B1846FFF792FF019B04331846FFF7BD
:101B80009DFC2C4A019B1A602B4A019B5A60019BC9
:101B900003F11402019B9A60019B03F11C02019B5B
:101BA000DA60019B03F12402019B1A61019B03F19E
:101BB00014040098FFF75CFF024613465B001344D1
:101BC000DB001E4A134419462046FFF79DFF019B88
:101BD00003F11C040098FFF74BFF024613465B001D
:101BE0001344DB000833154A134419462046FFF717
:101BF0008BFF019B03F124040098FFF739FF024695
:101C000013465B001344DB0010330C4A134419469F
:101C10002046FFF779FF019B009ADA62019C2B4670
:101C20001946034803F0FCFA2346184603B030BDBA
:101C30005D1B01007C9D0100A49D0100C89C01006A
:101C400070B586B07646019033461946304803F0A9
:101C5000D3FA019BDB6A1846FFF70AFF0346059398
:101C6000019B181D019B5B6814331B68059A920049
:101C700028490A4411469847019B9868019B9B6834
:101C80001B681B682449059A0A4412781146984734
:101C9000019BD868019BDB681B681B681E49059A7D
:101CA0000A44127811469847019B1869019B1B69E9
:101CB0001B681B681849059A0A4412781146984710
:101CC000164A059B52F823305B681449059A51F86F
:101CD000224004930123039333461946104803F02E
:101CE0008BFA0122039B02FA03F31A46049B42EA91
:101CF0000305334619460A4803F092FA65603346F5
:101D00001946034803F08CFA00BF06B070BD00BF4F
:101D1000411C0100109D0100C49C010050000010F6
:101D20005D2D010030B585B0754601902B461946F2
:101D3000174803F061FA019BDB6A1846FFF798FE2B
:101D40000246144B53F82230DB68039304230293BA
:101D50002B461946104803F04FFA0122029B02FA63
:101D600003F31A46039B1340002B14BF01230023E7
:101D7000DCB22B461946084803F052FA2B461946A6
:101D8000034803F04DFA2346184605B030BD00BFA6
:101D9000251D010050000010992D010030B585B0BF
:101DA000754601900B46ADF802302B461946144893
:101DB00003F022FA019BDB6A1846FFF759FE03463F
:101DC0000393104A039B52F82330BDF802209A6017
:101DD0000198FFF7A7FF0346002B01D000BFF7E7EC
:101DE000084A039B52F823309B689CB22B46194645
:101DF000034803F015FA2346184605B030BD00BF6E
:101E00009D1D01005000001010B586B0744603906F
:101E100023461946124803F0EFF901238DF81730D5
:101E200000238DF8163000238DF8153030238DF8FF
:101E30001430072300220021039800F05BF83023C0
:101E40000093002300220121039800F009FA2346A1
:101E50001946034803F0E4F900BF06B010BD00BF07
:101E6000091E010030B583B0754603468DF8073072
:101E70002B461946064803F0BFF99DF807402B464C
:101E80001946034803F0CCF92346184603B030BD89
:101E9000651E010030B583B0754603468DF80730E6
:101EA0002B461946064803F0A7F99DF807402B4634
:101EB0001946034803F0B4F92346184603B030BD71
:101EC000951E010030B583B0754603468DF8073086
:101ED0002B461946064803F08FF99DF807402B461C
:101EE0001946034803F09CF92346184603B030BD59
:101EF000C51E010070B598B07446019008461146A1
:101F00001A4603468DF803300B468DF8023013460F
:101F10008DF8013023461946754803F06DF9019B91
:101F2000DB6A1846FFF7A4FD03461793019B181DB3
:101F3000179B9B006F4A13441946FFF77BFB9DF8E4
:101F40000230022B02D107238DF801306A4A179B19
:101F500052F823301E689DF801301846FFF782FFC3
:101F600003461946644A179B52F8235008960B46BD
:101F70008DF81F300023069304230593234619464A
:101F80005E4803F039F94FF0FF33049320230393A5
:101F9000059BC3F120034FF0FF3222FA03F30293B3
:101FA000029A069B02FA03F3DB43089A1340089354
:101FB0009DF81F20029B1A40069B02FA03F3089A21
:101FC00013430893089E234619464C4803F028F90A
:101FD0002E60494A179B52F823301E689DF8023044
:101FE0001846FFF757FF03461946434A179B52F816
:101FF00023500F960B468DF83B3004230D9302239C
:102000000C93234619463D4803F0F6F84FF0FF3392
:102010000B9320230A930C9BC3F120034FF0FF3254
:1020200022FA03F30993099A0D9B02FA03F3DB43A7
:102030000F9A13400F939DF83B20099B1A400D9B6C
:1020400002FA03F30F9A13430F930F9E2346194688
:102050002A4803F0E5F82E60274A179B52F82330F0
:102060005E689DF803301846FFF72CFF03461946BB
:10207000214A179B52F8235016960B468DF857307D
:102080000223149301231393234619461B4803F09C
:10209000B3F84FF0FF33129320231193139BC3F136
:1020A00020034FF0FF3222FA03F31093109A149B8F
:1020B00002FA03F3DB43169A134016939DF8572058
:1020C000109B1A40149B02FA03F3169A13431693BB
:1020D000169E23461946094803F0A2F86E6023466F
:1020E0001946034803F09CF800BF18B070BD00BF4C
:1020F000F51E0100109D010050000010DD2D0100B3
:1021000070B596B07446019023461946504803F0C6
:1021100073F80023ADF85630019BDB6A1846FFF7D1
:10212000A7FC03461493019B181D149B9B00494A6E
:1021300013441946FFF77EFA474A149B52F823309E
:102140001B6807930023069304230593234619462F
:10215000424803F051F84FF0FF33049320230393D8
:10216000059BC3F120034FF0FF3222FA03F30293E1
:10217000079A069BDA40029B02EA030523461946AA
:10218000364803F04DF8ADB2334A149B52F8233071
:102190001B680D9304230C9302230B9323461946CB
:1021A0002E4803F029F84FF0FF330A9320230993B8
:1021B0000B9BC3F120034FF0FF3222FA03F3089385
:1021C0000D9A0C9BDA40089B02EA03062346194647
:1021D000224803F025F8B3B25B019BB22B449DB2B9
:1021E0001D4A149B52F823305B6813930223129309
:1021F0000123119323461946184802F0FDFF4FF0C2
:10220000FF33109320230F93119BC3F120034FF052
:10221000FF3222FA03F30E93139A129BDA400E9BBD
:1022200002EA0306234619460C4802F0F9FFB3B24E
:102230001B029BB22B44ADF85630BDF856502346D6
:102240001946034802F0ECFF2B46184616B070BD45
:1022500001210100109D010050000010512E0100CD
:1022600070B598B074460190084611461A46034668
:102270008DF803300B468DF8023013468DF801308F
:10228000234619466C4802F0B7FF019BDB6A1846EB
:10229000FFF7EEFB03461793019B181D179B9B004E
:1022A000664A13441946FFF7C5F9654A179B52F869
:1022B00023301B686249179A51F8225008939DF801
:1022C00003308DF81F300623069301230593234620
:1022D00019465C4802F090FF4FF0FF33049320232F
:1022E0000393059BC3F120034FF0FF3222FA03F35F
:1022F0000293029A069B02FA03F3DB43089A134007
:1023000008939DF81F20029B1A40069B02FA03F3D4
:10231000089A13430893089E23461946494802F039
:102320007FFF2E60464A179B52F823301B684449B2
:10233000179A51F822500F939DF802308DF83B30D8
:1023400007230D9301230C93234619463D4802F0C1
:1023500053FF4FF0FF330B9320230A930C9BC3F1E1
:1023600020034FF0FF3222FA03F30993099A0D9BE1
:1023700002FA03F3DB430F9A13400F939DF83B20BF
:10238000099B1A400D9B02FA03F30F9A13430F9314
:102390000F9E234619462B4802F042FF2E60284A22
:1023A000179B52F823301B682549179A51F8225081
:1023B00016939DF801308DF85730082314930823A5
:1023C000139323461946204802F016FF4FF0FF33BF
:1023D000129320231193139BC3F120034FF0FF327C
:1023E00022FA03F31093109A149B02FA03F3DB43CF
:1023F000169A134016939DF85720109B1A40149B71
:1024000002FA03F3169A13431693169E23461946AF
:102410000D4802F005FF2E60094A179B52F8233041
:102420009DF870201A6123461946034802F0F8FE11
:1024300000BF18B070BD00BF61220100109D0100F7
:1024400050000010A52E0100DD2D010070B594B0E4
:102450007446019023461946584802F0CDFE0023E9
:102460001393019BDB6A1846FFF702FB03461293A6
:10247000019B181D129B9B00514A13441946FFF7FC
:10248000D9F8504A129B52F823301B690793002356
:10249000069308230593234619464B4802F0ACFEE9
:1024A0004FF0FF33049320230393059BC3F12003D4
:1024B0004FF0FF3222FA03F30293079A069BDA40A9
:1024C000029B02EA0305234619463F4802F0A8FE94
:1024D0003C4A129B52F823301B680D9308230C933F
:1024E00008230B9323461946374802F085FE4FF028
:1024F000FF330A93202309930B9BC3F120034FF072
:10250000FF3222FA03F308930D9A0C9BDA40089BE2
:1025100002EA0306234619462B4802F081FE3302E5
:102520001D44284A129B52F823301B680F9307233F
:102530000E9323461946254802F05EFE01220E9BAB
:1025400002FA03F31A460F9B1340002B14BF01231A
:102550000023DEB2234619461C4802F061FE3346D2
:102560001B041D44174A129B52F823301B68119319
:102570000623109323461946144802F03DFE01221B
:10258000109B02FA03F31A46119B1340002B14BF51
:1025900001230023DEB2234619460C4802F040FE18
:1025A00033469B042B441393139D2346194603483B
:1025B00002F036FE2B46184614B070BD4D240100C3
:1025C000109D010050000010512E0100992D0100B6
:1025D00030B583B075460190084611461A46034649
:1025E0008DF803300B468DF8023013468DF801301C
:1025F0002B4619461A4802F0FFFD019A13789DF800
:10260000201061F300031370019A13789DF80310F2
:1026100061F341031370019A13789DF8021061F37E
:1026200082031370019A13789DF8011061F3C303BC
:102630001370019A13786FF307131370019B9DF8C1
:102640001C205A70019B9DF818209A70019C2B4603
:102650001946034802F0E4FD2346184603B030BD96
:10266000D125010030B583B0754601902B4619463F
:10267000154802F0C1FD019A13786FF3000313703F
:10268000019A13786FF341031370019A13786FF373
:1026900082031370019A13786FF3C3031370019AC6
:1026A00013786FF307131370019B00225A70019B7C
:1026B00000229A70019C2B461946034802F0B0FD97
:1026C0002346184603B030BD6526010010B582B020
:1026D0007446019023461946054802F08DFD2346B5
:1026E0001946034802F09CFD00BF02B010BD00BFB8
:1026F000CD26010010B582B07446019023461946DC
:10270000054802F079FD23461946034802F088FD8A
:1027100000BF02B010BD00BFF526010010B582B0A9
:102720007446019023461946054802F065FD23468C
:102730001946034802F074FD00BF02B010BD00BF8F
:102740001D27010030B583B0754601902B46194610
:10275000074802F051FD074A019B1A60019C2B4675
:102760001946034802F05CFD2346184603B030BD0D
:1027700045270100509D010030B583B0754601909A
:102780002B4619461F4802F037FD019B1846FFF7FC
:10279000D9FF1D4A019B1A60019B03F11002019BA6
:1027A0005A60019B03F14002019B9A60019B03F177
:1027B0005402019BDA60019B103301211846FFF798
:1027C000CDF9019B4033162201211846FEF7D6F9B8
:1027D000019B5433192201211846FEF7CFF9019BC2
:1027E000683340F2C1620021184606F02EFE019CBB
:1027F0002B461946034802F013FD2346184603B042
:1028000030BD00BF79270100249D010030B583B0A1
:10281000754601902B461946064802F0EDFC8024CF
:102820002B461946034802F0FBFC2346184603B02A
:1028300030BD00BF0D28010030B583B07546019052
:102840002B461946064802F0D7FC40242B46194671
:10285000034802F0E5FC2346184603B030BD00BF34
:102860003928010010B588B07446059023461946F2
:10287000154802F0C1FC07A801230293012301932C
:1028800001230093012301220121FFF7A1FE06ABE2
:1028900007AA1268114619800233120C1A702346D7
:1028A0001946094802F0BCFC00239DF8182062F389
:1028B00007039DF8192062F30F239DF81A2062F395
:1028C0001743184608B010BD6528010010B586B042
:1028D00074460390029101920093234619461E48C4
:1028E00002F08AFC039BDB68019AD2B211461846BB
:1028F000FEF784FA039B9B681846FEF74DFA002307
:102900000593059A009B9A4218D2009A059BD31A08
:1029100003F10053013BDB00029A22FA03F38DF826
:102920001330039B5B689DF8132092B21146184642
:10293000FFF734FA059B01330593E2E7039B9B689D
:102940001846FEF7F7F923461946034802F068FCDB
:1029500000BF06B010BD00BFCD28010010B582B089
:102960007446019023461946374802F045FC01237E
:102970000022AE210198FFF7A9FF022300224DF2A9
:1029800080510198FFF7A2FF022300224AF63F017F
:102990000198FFF79BFF022300224FF45341019857
:1029A000FFF794FF0123002240210198FFF78EFFDB
:1029B0000223002248F614510198FFF787FF0123F4
:1029C0000022A1210198FFF781FF01230022C821E5
:1029D0000198FFF77BFF022300224DF61221019898
:1029E000FFF774FF0223002248F2CF110198FFF78E
:1029F0006DFF022300224DF6F1110198FFF766FFEB
:102A0000022300224DF640310198FFF75FFF019845
:102A100000F05EF801230022A4210198FFF756FF81
:102A200001230022A6210198FFF750FF0123002275
:102A3000AF210198FFF74AFF23461946024802F0EA
:102A4000EFFB00BF02B010BD5D29010010B584B0DE
:102A500074460390234619461C4802F0CDFB039BA5
:102A60009B681846FEF706F9039BDB681846FEF7DD
:102A700001F9039B9B681846FEF75CF9039BDB6832
:102A80001846FEF757F9039B5868072300220021D8
:102A9000FFF730FA039B58681023009301230022AC
:102AA0000021FFF7DDFB039B5B681846FFF7C8F8C2
:102AB000039800F037F80398FFF750FF23461946B4
:102AC000024802F0ADFB00BF04B010BD4D2A01006A
:102AD00010B582B074460190234619460E4802F0A4
:102AE0008BFB022300224FF400510198FFF7EEFE0A
:102AF0000323002209490198FFF7E8FE032300227F
:102B000007490198FFF7E2FE23461946024802F002
:102B100087FB00BF02B010BDD12A01007F00210059
:102B20000700220010B582B0744601902346194672
:102B3000094802F061FB019B683340F2C162002149
:102B4000184606F082FC23461946034802F068FB4B
:102B500000BF02B010BD00BF252B010010B58CB026
:102B600074460390029101920093234619461F4830
:102B700002F042FB019B03F007030B93019BDB1068
:102B80000A9301220B9B02FA03F3DB4309939DF89E
:102B90000230002B14BF012300238DF823309DF851
:102BA00023200B9B02FA03F307930A9A13465B0157
:102BB00013449B001344029A13446833039A13444A
:102BC0000693069B1B781A46099B1340079A1343EA
:102BD0000593059BDAB2069B1A70234619460348F3
:102BE00002F01EFB00BF0CB010BD00BF5D2B01004A
:102BF00010B584B07446019023461946184802F077
:102C0000FBFA0198FFF764FF00230393039B072B54
:102C10001ED800230293029B7F2B15D80199039A9B
:102C200013465B0113449B001344CA18029B1344D0
:102C300068331B781946012301220198FFF746FEED
:102C4000029B01330293E6E7039B01330393DDE725
:102C500023461946024802F0E3FA00BF04B010BD53
:102C6000F12B010030B583B07546019000912B46E1
:102C700019461E4802F0C0FA019B009A1A60019B97
:102C800004331846FFF7EEFC019B00229A60019B7B
:102C90000022DA60009B1B681B6800989847024678
:102CA000019B9A60009B1B6804331B68009898473F
:102CB0000246019BDA60009B1B6808331B68019C7D
:102CC0000098984703461A462271C3F3072262719F
:102CD000C3F30743A371019C2B461946034802F036
:102CE0009FFA2346184603B030BD00BF652C010093
:102CF00030B583B0754601902B461946164802F050
:102D00007BFA019B1846FFF737FD019B03F22C73FA
:102D1000019A11461846FFF7A5FF019B0022C3F850
:102D20003C27019B0022C3F84027019B0022C3F8E7
:102D30004427019B03F5E96380220021184606F031
:102D400084FB019C2B461946034802F069FA23468E
:102D5000184603B030BD00BFF12C010030B583B080
:102D60007546019000912B4619460A4802F044FA34
:102D70000122009B02FA03F31A46019B42EA030474
:102D80002B461946034802F04BFA2346184603B077
:102D900030BD00BF5D2D010030B583B07546019098
:102DA00000912B4619460C4802F026FA0122009B9E
:102DB00002FA03F31A46019B1340002B14BF0123B0
:102DC0000023DCB22B461946034802F029FA2346B9
:102DD000184603B030BD00BF992D010030B589B051
:102DE00075460390019200930B468DF80B302B46ED
:102DF0001946164802F000FA4FF0FF3307932023DC
:102E00000693009BC3F120034FF0FF3222FA03F335
:102E10000593059A019B02FA03F3DB43039A1340DF
:102E200003939DF80B20059B1A40019B02FA03F3C4
:102E3000039A13430393039C2B461946034802F05D
:102E4000EFF92346184609B030BD00BFDD2D010063
:102E500030B589B075460390029101922B46194610
:102E60000F4802F0C9F94FF0FF3307932023069370
:102E7000019BC3F120034FF0FF3222FA03F30593C5
:102E8000039A029BDA40059B02EA03042B4619468B
:102E9000034802F0C5F92346184609B030BD00BF0B
:102EA000512E010030B589B0754603900192009310
:102EB0000B468DF80B302B461946164802F09CF94C
:102EC0004FF0FF33079320230693009BC3F12003A9
:102ED0004FF0FF3222FA03F30593059A019B02FAA1
:102EE00003F3DB43039A134003939DF80B20059BE8
:102EF0001A40019B02FA03F3039A13430393039CC2
:102F00002B461946034802F08BF92346184609B0B0
:102F100030BD00BFA52E010010B582B074460190EF
:102F2000234619460E4802F067F9019B1A68019B77
:102F30001B681B680C331B6810469847019B1A6876
:102F4000019B1B681B6810331B681046984723467B
:102F50001946034802F064F900BF02B010BD00BF7B
:102F6000192F010010B58EB0744607900691059296
:102F70008DF8133023461946374802F03DF99DF885
:102F800013300B93079A0AAB04321268114619806A
:102F90000233120C1A7009A8012302930123019332
:102FA00000230093002300220021FFF711FB0023E0
:102FB0000D930D9B072B3DDC00230C930C9B072BE3
:102FC00034DC264A0B9BDB001A440D9B13441B7810
:102FD0001A460C9B42FA03F303F00103002B09D0BD
:102FE000079B04330AAA1268114619800233120C97
:102FF0001A700CE09DF84030002B08D0079B04337A
:1030000009AA1268114619800233120C1A70069A26
:103010000C9B13441946059A0D9B13441A460798B6
:1030200000F01EF80C9B01330C93C7E70D9B013396
:103030000D93BEE7079B04330AAA12681146198054
:103040000233120C1A7023461946034802F0E8F8BE
:1030500000BF0EB010BD00BF652F01005C00001066
:1030600030B585B075460390029101922B46194602
:10307000104802F0C1F8039B9B68029A9A4210D84C
:10308000039BDB68019A9A420BD8039B1868039B49
:103090001B681B681C331C680299019A039B5B68C0
:1030A000A0472B461946034802F0BAF800BF05B006
:1030B00030BD00BF6130010010B582B07446019090
:1030C00023461946094802F097F8019B1A68019BAC
:1030D0001B681B6820331B68104698472346194617
:1030E000024802F09DF800BF02B010BDB9300100E7
:1030F00010B582B07446019023461946094802F083
:103100007BF8019B1A68019B1B681B6818331B68BE
:103110001046984723461946024802F081F800BF3E
:1031200002B010BDF130010010B582B074460190BC
:10313000234619460E4802F05FF8019B03F22C73F8
:103140001846FFF7E9FE019B03F22C731846FFF7C0
:10315000CFFF019B03F22C731846FFF7ADFF234608
:103160001946034802F05CF800BF02B010BD00BF72
:10317000293101000EB430B5C6B0754601AB1860F8
:103180002B461946504802F037F84AAA02AB1A609B
:1031900002AB03A81B68499A4FF4807104F036FC17
:1031A0000346449300234593459A449B9A4253D245
:1031B00003AA459B13441B788DF80F319DF80F31FE
:1031C0000A2B0ED101AB1B680022C3F8402701ABCC
:1031D0001B68D3F83C375A1C01AB1B68C3F83C276B
:1031E00036E001AB1B68D3F83C2701AB1B68D3F872
:1031F0004437134403F0070201AB1B68D3F8403790
:1032000001A9096812010A44134403F5E9639DF812
:103210000F211A7001AB1B68D3F840375A1C01AB61
:103220001B68C3F8402701AB1B68D3F840370F2B4E
:103230000DD901AB1B680022C3F8402701AB1B6806
:10324000D3F83C375A1C01AB1B68C3F83C2700BFBE
:10325000459B01334593A7E701AB186800F036F8AA
:1032600001AB1B68D3F83C37072B1FD901AB1B6898
:10327000D3F84437013303F0070201AB1B68C3F8EE
:10328000442701AB1B680722C3F83C2701AB1B682E
:10329000D3F83C2701AB1B68D3F84437134403F041
:1032A000070201AB1146186800F05EF8459C2B46FA
:1032B0001946054801F0B4FF2346184646B0BDE85C
:1032C000304003B0704700BF7531010030B589B0A0
:1032D000754603902B461946224801F08DFF0023C6
:1032E0000793079B072B2CD800230693069B0F2BD5
:1032F00023D8069BDB000593079BDB000493039B0D
:1033000003F22C700599049C039BD3F84427079B78
:10331000134403F00703039A1B011A44069B13444A
:1033200003F5E9631A780123009313462246FFF759
:1033300019FE069B01330693D8E7079B01330793D9
:10334000CFE7039B03F22C731846FFF7B5FE039CEF
:103350002B461946034801F063FF2346184609B07F
:1033600030BD00BFCD32010010B584B0744601906D
:103370000091234619460F4801F03EFF00230393B6
:10338000039B0F2B0DD8019A009B1B011A44039B32
:10339000134403F5E96320221A70039B013303935E
:1033A000EEE723461946034801F03AFF00BF04B098
:1033B00010BD00BF6933010030B585B075462B469E
:1033C00019461D4801F018FF2B238DF80F302423D8
:1033D0001A4A1B491B4804F0F3FA002204210A2070
:1033E00002F0DCFD0246184B1A6000230193012312
:1033F000009300234FF480521449154802F011F84D
:103400001448FFF791FE00F027F89DF80F3018469A
:1034100000F0A4F8072000F0A1F8052000F09EF8C5
:1034200002F02EF900242B461946034801F0F8FE5D
:103430002346184605B030BDB93301006CA7010022
:1034400060A70100CCA60100700A00100CA70100C3
:1034500051360100780A001010B57446234619460B
:10346000394801F0C9FE394BD3F8C430374A43F02C
:103470008073C2F8C430364B1B7BDBB2344A63F036
:103480007F03DBB21373324B1B7ADBB2304A43F05B
:103490000103DBB213722E4B1B78DBB22C4A43F0D4
:1034A0003803DBB213702A4B1B79DBB2284A43F096
:1034B0000103DBB2137108220221264800F07CF9D7
:1034C00009220221234800F0D7F9214B1B7BDBB2F4
:1034D0001F4A23F00C03DBB213731D4B1B7BDBB2C3
:1034E0001B4A43F00303DBB21373194B1B7BDBB2A4
:1034F000174A03F07F03DBB21373154B1B7ADBB261
:10350000134A43F00603DBB21372114B93F83030C9
:10351000DBB20F4A63F07F03DBB282F830300C4B32
:103520005B680B4A43F0010353604FF0FF33012205
:103530000949072001F00CFD23461946024801F015
:103540006FFE00BF10BD00BF5934010000C00F4026
:1035500000800940740A0010F535010010B584B0F0
:10356000744603468DF80730234619461D4801F07E
:1035700043FE1D4B1B7DDBB203F02003002B0CBF71
:1035800001230023DBB2002B00D0F2E700238DF8EB
:103590000F3000238DF80E309DF807308DF80E3077
:1035A0009DF8073030338DF80F309DF80F302F2BFA
:1035B00008D99DF80F30392B04D80B4A9DF80F30ED
:1035C000137003E0084A9DF80E301370074908484D
:1035D000FFF7D0FD23461946024801F021FE00BF47
:1035E00004B010BD5D3501000080094014A7010042
:1035F000780A001010B582B07446234619460F4869
:1036000001F0FAFD00238DF807300D490D48FFF752
:10361000B1FD0D4B1B78DBB28DF807300B4B1868F2
:103620000DF107010023002202F00DFD234619468B
:10363000024801F0F5FD00BF02B010BDF5350100F4
:1036400030A70100780A001000800940700A0010BD
:1036500000B587B07346019019461F4801F0CCFDB4
:1036600000238DF80F3000238DF817301B4B1B689B
:103670000DF10F014FF0FF32184602F03DFD0346F9
:10368000002B14BF01230023DBB2002B0FD0144802
:1036900001F082FD9DF817309DF80F2006A90B441C
:1036A00003F80C2C9DF8173001338DF817309DF876
:1036B0001730032BDAD100230493049B022BD5DCB3
:1036C00003AA049B13441B781946064804F078F9B2
:1036D000049B01330493F0E751360100700A001097
:1036E0003CA701004CA7010010B582B074460190C0
:1036F0000091234619460B4801F07EFD019B012BEA
:1037000007D1009B4FF6FF72934202D10648FFF7A4
:10371000EFFA23461946034801F082FD00BF02B0CC
:1037200010BD00BFE9360100780A001010B57446DC
:1037300023461946064801F05FFD4FF6FF71012050
:10374000FFF7D2FF23461946014801F069FD10BD7D
:103750002D37010010B582B0744601900B468DF8EC
:10376000033013468DF8023023461946104801F005
:1037700043FD9DF803209DF802300E495201134489
:1037800051F823301A689DF803109DF8023009485B
:1037900049010B4450F8233022F07F021A6023467F
:1037A0001946034801F03CFD00BF02B010BD00BF48
:1037B000553701005C04001010B582B074460190CA
:1037C0000B468DF8033013468DF802302346194618
:1037D000274801F011FD9DF802209DF8033019469D
:1037E0000198FFF7B7FF9DF80330002B1AD19DF821
:1037F00002300A2B16D19DF803209DF802301D4996
:103800005201134451F823301A689DF803109DF8B3
:103810000230184849010B4450F8233042F00202AC
:103820001A601DE09DF80330022B19D19DF802307B
:10383000082B15D19DF803209DF802300D49520147
:10384000134451F823301A689DF803109DF8023094
:10385000084849010B4450F8233042F002021A6034
:1038600023461946024801F0DBFC00BF02B010BD40
:10387000B93701005C04001010B582B074460190A5
:103880000B468DF8033013468DF802302346194657
:10389000274801F0B1FC9DF802209DF8033019463D
:1038A0000198FFF757FF9DF80330002B1AD19DF8C0
:1038B00002300B2B16D19DF803209DF802301D49D4
:1038C0005201134451F823301A689DF803109DF8F3
:1038D0000230184849010B4450F8233042F00202EC
:1038E0001A601DE09DF80330022B19D19DF80230BB
:1038F000092B15D19DF803209DF802300D49520186
:10390000134451F823301A689DF803109DF80230D3
:10391000084849010B4450F8233042F002021A6073
:1039200023461946024801F07BFC00BF02B010BDDF
:10393000793801005C04001010B582B07446019023
:1039400023461946064801F057FC064A019B1360BE
:1039500023461946024801F063FC00BF02B010BDC7
:10396000393901000400001010B574462346194689
:103970000A4801F041FC0A4B1B6800225A60084BC0
:103980001B6800229A60064B1B6800221A602346BF
:103990001946024801F044FC00BF10BD693901001E
:1039A0005C07001010B5744623461946084801F01C
:1039B00023FC084B1B68002B02D0064B1B68984762
:1039C00023461946024801F02BFC00BF10BD00BF82
:1039D000A53901004012001010B582B07446019064
:1039E000009123461946074801F006FC064A009B51
:1039F000136023461946034801F012FC00BF02B0D1
:103A000010BD00BFD93901004012001030B585B09B
:103A1000754601902B461946204801F0EDFB002326
:103A20008DF80F301E4B1B685B68002B14BF012301
:103A30000023DBB2002B1ED0194B1B6800229A60BA
:103A4000174B1B681A68164B1B6842F002021A607B
:103A5000134B1B681A68124B1B6842F001021A6074
:103A60000F4B1B681A680E4B1B6842F004021A6069
:103A700001238DF80F304FF0FF33012209494FF039
:103A8000FF3001F065FA9DF80F402B4619460348B8
:103A900001F0C6FB2346184605B030BD0D3A0100C3
:103AA0005C070010A539010030B585B0754601905E
:103AB00000912B4619461F4801F09EFB009B012BED
:103AC00001D800242DE0019B1A1D019B5B680C337B
:103AD0001B68104698470246009BB2FBF3F3013B7C
:103AE0000393019B1A1D019B5B680C331B681046F6
:103AF00098470346009AB3FBF2F2009901FB02F2E9
:103B00009B1A0293039BB3F1807F05D36FF07F4331
:103B100003936FF07F430293074B1B68039A5A602D
:103B2000029C2B461946034801F07AFB23461846AF
:103B300005B030BDA93A01005C07001030B583B074
:103B4000754603468DF807302B461946064801F0A6
:103B500053FB9DF807402B461946034801F060FBD4
:103B60002346184603B030BD3D3B010010B57446F6
:103B700023461946044801F03FFB234619460248F4
:103B800001F04EFB00BF10BD6D3B010010B586B0CB
:103B900074460390029101920093234619463E48D1
:103BA00001F02AFB039B181D039B5B6814331B6801
:103BB000039A127A920039490A4411469847029BA7
:103BC000002B0DD18423364A3649374803F0F8FEDE
:103BD000364801F0E1FA00210120FCF7FBFEFEE788
:103BE000039B1A1D039B5B6810331B6810469847A4
:103BF0000246029BB2FBF3F30593039B1B7A1A4622
:103C00002B4B53F82230DA68039B1B7A1946284B5A
:103C100053F8213002F00102DA60039B1B7A1A4646
:103C2000234B53F82230D968059B5A00039B1B7A1B
:103C300018461F4B53F820300A43DA60039B1B7A67
:103C40001A461B4B53F822305A68039B1B7A1946BD
:103C5000174B53F8213042F001025A60039B1B7A44
:103C60001946144A019B42F82130039B1B7A1A46DD
:103C7000114B9856039B1B7A1A46104B53F822108F
:103C8000009B012201F064F923461946024801F025
:103C9000C7FA00BF06B010BD8D3B010028AD010082
:103CA00028AE01004CAD010008AC010014A90100D0
:103CB000600700108412001038AD01003CAD010017
:103CC00030B583B0754603468DF807302B4619464C
:103CD000064801F091FA9DF807402B461946034823
:103CE00001F09EFA2346184603B030BDC13C0100E6
:103CF00070B586B076460390029111461A460B467F
:103D00008DF8073013468DF8063033461946324891
:103D100001F072FA9DF806301846FFF7D1FF03460E
:103D20008DF81730039B1B7A1A462C4B53F8223020
:103D30005A699DF81730072101FA03F3DB4319464E
:103D4000039B1B7A1846254B53F820300A405A61D2
:103D5000039B1B7A1A46214B53F822305A699DF86F
:103D600007109DF8173001FA03F31946039B1B7ADD
:103D700018461A4B53F820300A435A61039B1B7AAA
:103D800018469DF81730164AA2FB03235B08DBB2E6
:103D90001946144A83000B4452F823301968029BD9
:103DA0005A08039B1B7A1D469DF817300C48A0FB50
:103DB00003035B08DBB21C460A48AB00234450F8FF
:103DC00023300A431A6033461946034801F028FAA3
:103DD00000BF06B070BD00BFF13C010060070010DD
:103DE000ABAAAAAA4412001030B583B07546019060
:103DF0002B461946094801F0FFF9019B1B7A1A4628
:103E0000074B53F822309C682B461946034801F0B3
:103E100007FA2346184603B030BD00BFE93D010054
:103E20006007001010B588B07446019000912346D9
:103E300019462D4801F0E0F980238DF81F30009BD2
:103E400007EE903AF8EE677ACDED067A02AB9DED7B
:103E5000060A0199184600F02DFB029B1B0A8DF8FB
:103E60001730029B8DF81630049BDBB21B01DAB2CF
:103E7000039BDBB203F00F03DBB213438DF8153065
:103E8000019B1B7A1A46194B53F8223080221A7371
:103E9000019B1B7A1A46154B53F822309DF81720C8
:103EA0001A71019B1B7A1A46104B53F822309DF869
:103EB00016201A70019B1B7A1A460C4B53F82230BD
:103EC0009DF8152083F82820019B1B7A1A46074B82
:103ED00053F8223003221A7323461946024801F090
:103EE0009FF900BF08B010BD253E0100700700100B
:103EF00030B585B07546019000912B461946304883
:103F000001F07AF907238DF80F30019B181D019BF2
:103F10005B6814331B68019A127A920029490A449B
:103F200011469847019B1869019B1B691B681B6818
:103F3000019A127A1146244A525C11469847019B15
:103F4000D868019BDB681B681B68019A127A1146CE
:103F50001E4A525C11469847019B1A69019B1B69D6
:103F60001B6804331B68022110469847019BDA68DE
:103F7000019BDB681B6804331B68022110469847CD
:103F800000990198FFF74EFF019B1B7A1A46104BD0
:103F900053F822301B7ADAB2019B1B7A19460C4B7C
:103FA00053F8213042F00702D2B21A7201242B4694
:103FB0001946034801F034F92346184605B030BDD0
:103FC000F13E010060AD01005CAD010058AD0100A3
:103FD0007007001030B583B0754601902B46194626
:103FE0000D4801F009F9019B1B681B7A1A460B4B1F
:103FF00053F822301B7DDBB203F02003002B14BFEB
:1040000001230023DCB22B461946034801F008F9CE
:104010002346184603B030BDD53F0100700700109D
:104020002DE930488AB0754601900B468DF8033073
:104030002B461946314801F0DFF8019B1B7A1A46DE
:104040002F4B53F822309DF803201A70019B0493E4
:104050004FF0FF334FF0FF34CDE90834049B039356
:104060002B461946274801F0C7F84FF000034FF0E0
:104070000004CDE90634DDE90834B4F1FF3F08BFA0
:10408000B3F1FF3F06D14FF0FF334FF0FF34CDE9DE
:1040900006340BE0FCF736FD0A460146DDE908343C
:1040A00013EB010B44EB020CCDE906BC0123059395
:1040B000FCF728FD0A460146DDE90634A24208BFA6
:1040C000994234BF01230023DBB2002B08D003AB9D
:1040D0001846FFF77FFF0346002BE9D00023059326
:1040E0002B461946074801F09BF82B461946034812
:1040F00001F096F800BF0AB0BDE830882140010009
:1041000070070010A949010030B583B075460190D1
:104110002B4619460D4801F06FF8019B1B681B7A6E
:104120001A460B4B53F822301B7DDBB203F0010320
:10413000002B14BF01230023DCB22B461946034891
:1041400001F06EF82346184603B030BD0941010066
:10415000700700102DE930488CB075460190009131
:104160002B461946364801F047F8FF238DF82F30CB
:10417000019B0493009B4FF00004CDE90834049B9D
:1041800003932B4619462F4801F036F84FF00003F1
:104190004FF00004CDE90634DDE90834B4F1FF3F07
:1041A00008BFB3F1FF3F06D14FF0FF334FF0FF34AC
:1041B000CDE906340BE0FCF7A5FC0A460146DDE933
:1041C000083413EB010B44EB020CCDE906BC0123D0
:1041D0000593FCF797FC0A460146DDE90634A24246
:1041E00008BF994234BF01230023DBB2002B08D063
:1041F00003AB1846FFF788FF0346002BE9D00023E6
:104200000593059C2B4619460E4801F009F80A94BF
:104210000A9B002B08D1019B1B7A1A460A4B53F8C4
:1042200022301B788DF82F309DF82F402B461946F1
:10423000034800F0F5FF234618460CB0BDE830886F
:1042400055410100514A01007007001010B58AB0B5
:104250007446039002918DED010A234619463848B1
:1042600000F0CAFF039B00221A60039B00225A60E1
:10427000039B01229A6000238DF8273000230893C6
:10428000089B0E2B52DC9DF82730002B4ED1089B4B
:1042900001330793079B0E2B44DC9DF82730002B3E
:1042A00040D1089B07EE903AF8EEE77ACDED067A1A
:1042B000079B07EE903AF8EEE77ACDED057ADDED53
:1042C000066A9DED057AC6EE877AB7EE007A77EE3C
:1042D000877ACDED047ADDED047A9FED1A7A77EED8
:1042E000877A9DED017AB4EEE77AF1EE10FA15D8EF
:1042F000DDED047A9FED137A77EEC77A9DED017AB2
:10430000B4EEE77AF1EE10FA08DB089A039B5A60E4
:10431000079A039B9A6001238DF82730079B01338E
:104320000793B7E7089B01330893A9E700BF23462B
:104330001946034800F074FF00BF03980AB010BD8F
:104340004D420100CDCC4C3D10B52DED028B86B019
:10435000744603908DED020ACDED010A23461946FD
:10436000154800F049FF039B1A1D039B5B6810333F
:104370001B681046984707EE900AF8EE677ACDED75
:10438000057ADDED027AB3EE007A27EE877ADDED6D
:10439000017A67EE277A9DED057A87EE278A234614
:1043A0001946054800F03CFFF0EE487AB0EE670A87
:1043B00006B0BDEC028B10BD4943010010B52DEDD8
:1043C000028B86B0744603908DED020ACDED010A92
:1043D00023461946154800F00FFF039B1A1D039B47
:1043E0005B6810331B681046984707EE900AF8EE9A
:1043F000677ACDED057ADDED027AB3EE007A27EE2D
:10440000877ADDED017A67EE277A9DED057A87EEF2
:10441000278A23461946054800F002FFF0EE487A45
:10442000B0EE670A06B0BDEC028B10BDBD430100C3
:1044300030B587B0754601908DED000A2B461946C0
:10444000194800F0D9FE00238DF817309DED000AC1
:1044500004F0B4FD8DED040A9DED007ADDED047AE3
:1044600077EE677ACDED037ADDED037A9FED0F7A73
:10447000F4EEC77AF1EE10FA0BDBDDED037A9FED77
:104480000C7AF4EEC77AF1EE10FA02D801238DF817
:1044900017309DF817402B461946034800F0C0FE20
:1044A0002346184607B030BD31440100CDCC4CBD89
:1044B000CDCC4C3D30B58FB07546079006918DED53
:1044C000050A2B461946744800F096FE00230D930A
:1044D000079B00221A60079B00225A60079B01225B
:1044E0009A604FF000030C934FF07F530B934FF003
:1044F0007E530A934FF0804309930D9B042B00F0E9
:10450000C1800D9B042B00F2BB8001A252F823F066
:104510002545010081450100E145010051460100AA
:1045200081460100F7EE000A9DED050A0698FFF7A7
:104530000BFF8DED0C0ADDED0C7AB7EE007AF4EE90
:10454000C77AF1EE10FA05D5079B00221A60042302
:104550000D9396E09DED0C0A0698FFF769FF034660
:10456000002B0AD0DDED0C7AFCEEE77A17EE902AEC
:10457000079B1A6004230D9383E001230D9380E0D1
:10458000DDED0B0A9DED050A0698FFF7DDFEF0EE66
:10459000407AB0EE670A04F011FD8DED0C0ADDEDF6
:1045A0000C0A9DED050A0698FFF708FF8DED0B0A32
:1045B000DDED0B7A9FED397AF4EEC77AF1EE10FA61
:1045C0000BDBDDED0B7A9FED367AF4EEC77AF1EE78
:1045D00010FA02D803230D9353E002230D9350E009
:1045E000DDED097AB7EE007A77EE877ACDED097ABC
:1045F000DDED0A7AB2EE0E7AF4EEC77AF1EE10FA39
:1046000002DD04230D933CE0DDED097AB2EE0E7A73
:10461000F4EEC77AF1EE10FA0FDDDDED0A7AB7EEAF
:10462000007A77EE877ACDED0A7ADDED0A7AB7EE79
:10463000007A77EE877ACDED097ADDED0A6A9DED95
:10464000097AC6EE877ACDED0B7A01230D9318E037
:10465000079C6B469DED0B0A06991846FFF7F6FD81
:104660006B4693E8070084E80700DDED0C7AFCEE6A
:10467000E77A17EE902A079B1A6004230D9300E057
:1046800000BF3AE700BF2B461946034800F0C8FDBB
:1046900000BF07980FB030BDB5440100CDCC8C3FB2
:1046A0003333F33F38B575462B4619460A4800F0B8
:1046B000A3FD0A4B1B7A1A46094B53F822309C681B
:1046C0002B461946044800F0ABFD23464FF000048A
:1046D0001846214638BD00BFE93D0100E007001043
:1046E0006007001038B575462B4619460A4800F099
:1046F00083FD0A4B1B7A1A46094B53F822309C68FB
:104700002B461946044800F08BFD23464FF0000469
:104710001846214638BD00BFE93D0100E007001002
:104720006007001030B583B0754601902B461946DE
:10473000064800F061FD50242B461946034800F05E
:104740006FFD2346184603B030BD00BF254701006A
:1047500000B585B0039002910192039B074A1A604D
:10476000029B074A1A600648FFF7DCFF0246019BDE
:104770001A6000BF05B05DF804FB00BF9412001082
:10478000F412001008B5FFF7EFF84FF47A710648FD
:10479000FFF78AF905490448FFF71EF90248FFF7B9
:1047A00035F900BF08BD00BFD4070010296601001D
:1047B00000B583B04FF47A712248FFF775F92148AC
:1047C000FFF724F903468DF807309DF8073083F092
:1047D0000103DBB2002B05D0AD231B4A1B491C484B
:1047E00003F0EEF830211B48FCF77AFE0346002B5D
:1047F00014BF01230023DBB2002B01D000BFF1E77F
:1048000001211448FCF7B4FEFFF7AEF84FF47A71BB
:104810000C48FFF749F90B48FFF7F8F84FF0FF3362
:104820000D4A0E490E48FFF7B1F90E48FFF784F81C
:104830004FF416410C48FFF75BFB00BF03B05DF877
:1048400004FB00BFD407001068AE010070AD01008A
:10485000C8AC0100DC0700106D3B010040420F00B6
:10486000E0070010A5460100C007001008B5FBF7DF
:104870004DFCFBF793FCFBF7C1FC04F0A7FDFFF731
:1048800097FF00BF08BDFFFF80B584B000AF094BA4
:10489000FB60FB683B603B6883F30988FB687B60D7
:1048A0007B6883F30888FFF7E1FFFEF785FDB860BA
:1048B000FEE700BF0000011010B5744623461946FC
:1048C0000A4800F099FC0020FFF738F903461A4621
:1048D000074B53F82230984700F00EF9234619464B
:1048E000024800F09DFC00BF10BD00BFB9480100A8
:1048F0008412001010B57446234619460A4800F089
:104900007BFC0120FFF71AF903461A46074B53F8C0
:104910002230984700F040F923461946024800F03B
:104920007FFC00BF10BD00BFF548010084120010DD
:1049300010B57446234619460A4800F05DFC022073
:10494000FFF7FCF803461A46074B53F82230984706
:1049500000F072F923461946024800F061FC00BFDE
:1049600010BD00BF314901008412001010B574461B
:10497000234619460A4800F03FFC0320FFF7DEF803
:1049800003461A46074B53F82230984700F0A4F923
:1049900023461946024800F043FC00BF10BD00BF8B
:1049A0006D490100841200102DE9304888B0754629
:1049B000CDE9020101922B461946244800F01CFC67
:1049C0004FF000034FF00004CDE90634DDE9023476
:1049D000B4F1FF3F08BFB3F1FF3F06D14FF0FF3303
:1049E0004FF0FF34CDE906340BE0FCF78BF80A46B4
:1049F0000146DDE9023413EB010B44EB020CCDE977
:104A000006BC01230593FCF77DF80A460146DDE963
:104A10000634A24208BF994234BF01230023DBB20F
:104A2000002B08D001AB1846FFF7D4FA0346002B41
:104A3000E9D000230593059C2B461946034800F056
:104A4000EFFB2346184608B0BDE83088A9490100AD
:104A50002DE9304888B07546CDE9020101922B4618
:104A60001946244800F0C8FB4FF000034FF0000443
:104A7000CDE90634DDE90234B4F1FF3F08BFB3F1FC
:104A8000FF3F06D14FF0FF334FF0FF34CDE906343E
:104A90000BE0FCF737F80A460146DDE9023413EB78
:104AA000010B44EB020CCDE906BC01230593FCF796
:104AB00029F80A460146DDE90634A24208BF9942B8
:104AC00034BF01230023DBB2002B08D001AB184612
:104AD000FFF71AFB0346002BE9D000230593059C42
:104AE0002B461946034800F09BFB2346184608B0A6
:104AF000BDE83088514A010010B582B074462346A3
:104B00001946234800F078FB00238DF807309DF804
:104B10000730204A52F823301A689DF807301D49A3
:104B200051F8233042F001021A609DF80730194A0B
:104B300052F823301A689DF80730164951F823308F
:104B400042F002021A609DF80730124A52F82330F0
:104B50001A689DF807300F4951F8233042F00402DB
:104B60001A609DF807300B4A52F823301A689DF8F6
:104B70000730084951F8233042F008021A602346F2
:104B80001946034800F04CFB00BF02B010BD00BF47
:104B9000F94A01006007001010B582B07446234640
:104BA0001946234800F028FB01238DF807309DF8B3
:104BB0000730204A52F823301A689DF807301D4903
:104BC00051F8233042F001021A609DF80730194A6B
:104BD00052F823301A689DF80730164951F82330EF
:104BE00042F002021A609DF80730124A52F8233050
:104BF0001A689DF807300F4951F8233042F004023B
:104C00001A609DF807300B4A52F823301A689DF855
:104C10000730084951F8233042F008021A60234651
:104C20001946034800F0FCFA00BF02B010BD00BFF7
:104C3000994B01006007001010B582B074462346FE
:104C40001946234800F0D8FA02238DF807309DF862
:104C50000730204A52F823301A689DF807301D4962
:104C600051F8233042F001021A609DF80730194ACA
:104C700052F823301A689DF80730164951F823304E
:104C800042F002021A609DF80730124A52F82330AF
:104C90001A689DF807300F4951F8233042F004029A
:104CA0001A609DF807300B4A52F823301A689DF8B5
:104CB0000730084951F8233042F008021A602346B1
:104CC0001946034800F0ACFA00BF02B010BD00BFA7
:104CD000394C01006007001010B582B074462346BD
:104CE0001946234800F088FA03238DF807309DF811
:104CF0000730204A52F823301A689DF807301D49C2
:104D000051F8233042F001021A609DF80730194A29
:104D100052F823301A689DF80730164951F82330AD
:104D200042F002021A609DF80730124A52F823300E
:104D30001A689DF807300F4951F8233042F00402F9
:104D40001A609DF807300B4A52F823301A689DF814
:104D50000730084951F8233042F008021A60234610
:104D60001946034800F05CFA00BF02B010BD00BF56
:104D7000D94C01006007001082B001900091019BA6
:104D8000012B5DD1009B4FF6FF72934258D12E4B01
:104D90001B6803F00103002B52D12B4B01221A6038
:104DA0002A4B1B6818332A4A1360284B1B681C3394
:104DB000274A5360254B1B682033254A9360234BB9
:104DC0001B682433224AD360204B5B681833204A87
:104DD00013611E4B5B681C331D4A53611B4B5B68A0
:104DE00020331B4A9361194B5B682433184AD36103
:104DF000164B9B681833164A1362144B9B681C337E
:104E0000134A5362114B9B682033114A93620F4B34
:104E10009B6824330E4AD3620C4BDB6818330C4A70
:104E200013630A4BDB681C33094A5363074BDB6887
:104E30002033074A9363054BDB682433044AD3636A
:104E400000BF02B0704700BF3414001060070010AC
:104E50004412001008B54FF6FF710120FFF78CFFD8
:104E600008BDFFFF82B003468DF807309DF907307B
:104E700003F01F0205499DF907305B09012000FA84
:104E800002F241F8232000BF02B0704700E100E0C9
:104E900082B0034600918DF807309DF90730002B52
:104EA0000CDA009BDAB20D499DF9073003F00F03CD
:104EB000043B5201D2B20B441A760BE0009BDBB2EA
:104EC000074A9DF9071008465B01D9B213180A4634
:104ED00083F8002300BF02B0704700BF00ED00E080
:104EE00000E100E000B585B0124B5B688DF80F3033
:104EF0009DF80F30104A52F823300293029B0F4A5C
:104F0000934210D19DF80F300093DD230C4A0D49D8
:104F10000D4802F055FD0D4800F03EF9002101203A
:104F2000FBF758FDFEE7029B984700BF05B05DF810
:104F300004FB00BF00ED00E0EC070010E54E0100AF
:104F4000E4B00100D4B0010078AF010024B001004A
:104F500000B585B00291019303468DF80F301346DA
:104F60008DF80E309DF90F3010330F49029A41F839
:104F700023209DF80E30002B08D09DF90F30002B18
:104F800004DB9DF90F301846FFF76CFF019B002BE7
:104F900006DB019A9DF90F3011461846FFF778FF9E
:104FA00000BF05B05DF804FBEC07001000B58DB044
:104FB0000390039B1B680B93039B5B680A93039B03
:104FC0009B680993039BDB680893039B1B6907930A
:104FD000039B5B690693039B9B690593039BDB69BA
:104FE00004930D4802F0ECFC0B990A9A0998089B6F
:104FF00000930346094802F0E3FC0799069A0598D6
:10500000049B00930346064802F0DAFC059B194610
:105010000120FBF7DFFCFEE73CB0010068B00100B7
:105020009CB0010030B583B0754601902B461946FF
:10503000094800F0E1F8019BDBB219460748FEF78A
:10504000EFFF01242B461946034800F0E9F82346F8
:10505000184603B030BD00BF25500100C007001046
:1050600000B583B0734601901946024800F0C4F8B9
:1050700000BFFDE76150010038B575462B46194663
:10508000054800F0B9F801242B461946024800F003
:10509000C7F82346184638BD7950010030B583B0B3
:1050A0007546019000912B461946074800F0A4F878
:1050B0004FF0FF342B461946034800F0B1F8234661
:1050C000184603B030BD00BF9D50010030B585B01B
:1050D000754601902B4619460F4800F08DF80F4B8E
:1050E0001B6803930D4B1A68019B13440C4A9342AF
:1050F00001D900230393094B1A68019B1344074A03
:105100001360039C2B461946034800F089F8234698
:10511000184605B030BD00BFCD500100D0080010CA
:105120000080002010B582B0744603468DF8073029
:1051300023461946084800F05FF8084B1B689DF8A5
:1051400007201046984723461946034800F068F8A0
:1051500000BF02B010BD00BF25510100D4080010EF
:1051600030B583B07446019023461946084800F0D4
:1051700043F8084B1B680198984705462346194693
:10518000034800F04DF82B46184603B030BD00BF71
:1051900061510100D408001030B585B0754601900A
:1051A0002B461946124800F027F800230393039B6F
:1051B000019A13441B78002B0BD00E4B1B68039AEB
:1051C00001990A44127810469847039B01330393D0
:1051D000EDE7084B1B680A209847039C2B461946AD
:1051E000034800F01DF82346184605B030BD00BF47
:1051F00099510100D408001082B001900091009AEA
:10520000054B1B68591C04480160044941F82320E0
:1052100000BF02B0704700BF3815001038140010EE
:1052200082B001900091044B1B68013B024A13605D
:1052300000BF02B0704700BF3815001038B5754682
:105240002B4619460548FFF7D7FF054C2B46194654
:105250000248FFF7E5FF2346184638BD3D520100DE
:105260003814001038B575462B4619460648FFF726
:10527000C3FF064B1C682B4619460348FFF7D0FFB7
:105280002346184638BD00BF65520100381500108E
:1052900082B00190019B03F10802019B5A60019BBF
:1052A0004FF0FF329A60019B03F10802019BDA6024
:1052B000019B03F10802019B1A61019B00221A6005
:1052C00000BF02B0704782B00190019B00221A61BA
:1052D00000BF02B0704784B001900091019B5B68F1
:1052E0000393009B039A5A60039B9A68009B9A6001
:1052F000039B9B68009A5A60039B009A9A60009BEC
:10530000019A1A61019B1B685A1C019B1A6000BF1D
:1053100004B0704784B001900091009B1B68029319
:10532000029BB3F1FF3F03D1019B1B6903930CE088
:10533000019B0833039302E0039B5B680393039B89
:105340005B681B68029A9A42F6D2039B5A68009BDC
:105350005A60009B5B68009A9A60009B039A9A606F
:10536000039B009A5A60009B019A1A61019B1B687B
:105370005A1C019B1A6000BF04B0704784B00190B2
:10538000019B1B690393019B5B68019A92689A6079
:10539000019B9B68019A52685A60039B5B68019A63
:1053A0009A4203D1019B9A68039B5A60019B002299
:1053B0001A61039B1B685A1E039B1A60039B1B68A0
:1053C000184604B0704700B58BB00790069105925F
:1053D00004930E9B002B1DD00D9B002B1AD00E9B0F
:1053E0000993099B0D9A1A63099B022283F85D2099
:1053F00000230393099B029308AB01930C9B00933A
:10540000049B059A0699079800F052F8099800F055
:10541000C9F801E000230893089B18460BB05DF81B
:1054200004FB00B58DB00790069104931346ADF8C8
:105430001630BDF816309B00184601F01FF9099090
:10544000099B002B0ED0602001F018F90B900B9BEC
:10545000002B03D00B9B099A1A6305E0099801F011
:105460001EF901E000230B930B9B002B18D00B9B24
:10547000002283F85D20BDF81620002303930B9BC8
:1054800002930F9B01930E9B0093049B0699079830
:1054900000F00EF80B9800F085F801230A9302E063
:1054A0004FF0FF330A930A9B18460DB05DF804FBDA
:1054B00000B587B003900291019200930A9B186B8C
:1054C000019B9B001A46A52103F0BFFF0A9B1A6BA4
:1054D000019B03F18043013B9B0013440493049B15
:1054E00023F0070304930023059312E0029A059B1F
:1054F000134419780A9A059B134434330A461A70E8
:10550000029A059B13441B78002B06D0059B0133A0
:105510000593059B0F2BE9D900E000BF0A9B0022F1
:1055200083F84320089B042B01D9042308930A9B8A
:10553000089ADA620A9B089ADA640A9B00221A65C2
:105540000A9B04331846FFF7BEFE0A9B1833184621
:10555000FFF7B9FE0A9B0A9A1A61089BC3F105027C
:105560000A9B9A610A9B0A9A5A620A9B00225A6510
:105570000A9B00229A650A9B002283F85C20009A0D
:105580000399049800F052FF02460A9B1A60099B97
:10559000002B02D0099B0A9A1A6000BF07B05DF881
:1055A00004FBFFFF00B583B0019000F0DBFF2D4B43
:1055B0001B6801332B4A13602B4B1B68002B09D14E
:1055C000294A019B1360274B1B68012B10D100F067
:1055D0001BFB0DE0254B1B68002B09D1224B1B68E0
:1055E000DA6A019BDB6A9A4202D81F4A019B136068
:1055F0001F4B1B6801331E4A13601D4B1A68019B29
:105600005A64019BDB6A01229A401A4B1B681343C0
:10561000184A1360019BDA6A13469B0013449B00EF
:10562000154A1A44019B043319461046FFF753FEEE
:1056300000F0ACFF0D4B1B68002B0ED00A4B1B6813
:10564000DA6A019BDB6A9A4207D20C4B4FF0805218
:105650001A60BFF34F8FBFF36F8F00BF03B05DF8C9
:1056600004FB00BF141600103C150010201600109B
:10567000301600101C1600104015001004ED00E05C
:1056800000B58BB0002307930023069305AA06A953
:1056900007AB1846FFF75CF80599069B079A02923C
:1056A00001930023009300230A4616491648FFF78A
:1056B0008AFE0246154B1A60144B1B68002B02D061
:1056C0000123099301E000230993099B012B14D1C5
:1056D0004FF0280383F31188BFF36F8FBFF34F8F11
:1056E00008930B4B4FF0FF321A600A4B01221A60ED
:1056F000094B00221A6000F00BFF00BF0BB05DF8F1
:1057000004FB00BF04B10100FD5B0100381600106E
:10571000341600102016001018160010034B1B68DA
:105720000133024A136000BF704700BF3C160010EF
:1057300000B585B0002303930023029300F012FF0D
:10574000384B1B68013B374A1360364B1B68002BF4
:1057500061D1354B1B68002B5DD02EE0334BDB68ED
:10576000DB680393039B18331846FFF707FE039B80
:1057700004331846FFF702FE039BDB6A01229A40BE
:105780002B4B1B6813432A4A1360039BDA6A1346A8
:105790009B0013449B00274A1A44039B0433194679
:1057A0001046FFF798FD039BDA6A234B1B68DB6A00
:1057B0009A4202D3214B01221A601C4B1B68002B1A
:1057C000CCD1039B002B01D000F0A6FA1C4B1B6828
:1057D0000193019B002B10D000F036F80346002BFC
:1057E00002D0164B01221A60019B013B0193019BE1
:1057F000002BF1D1124B00221A60104B1B68002BBA
:1058000009D0012302930F4B4FF080521A60BFF36F
:105810004F8FBFF36F8F00F0B9FE029B184605B0A3
:105820005DF804FB3C16001014160010D41500108F
:105830001C160010401500103C1500102816001012
:105840002416001004ED00E000B587B00023059396
:10585000484B1B68002B7CD1474B1B6801330493DA
:10586000454A049B1360049B002B10D1434B1B68DB
:105870000393434B1B68414A1360414A039B1360E7
:10588000404B1B6801333F4A136000F045FA3E4B22
:105890001B68049A9A424DD3384B1B681B68002B37
:1058A00001D1012300E00023002B04D0364B4FF040
:1058B000FF321A603EE0314B1B68DB68DB68029305
:1058C000029B5B680193049A019B9A4203D22E4A81
:1058D000019B13602EE0029B04331846FFF74EFD38
:1058E000029B9B6A002B04D0029B18331846FFF7DB
:1058F00045FD029BDB6A01229A40244B1B6813433F
:10590000224A1360029BDA6A13469B0013449B00F1
:105910001F4A1A44029B043319461046FFF7DBFC6A
:10592000029BDA6A1B4B1B68DB6A9A42B4D30123E1
:105930000593B1E7174B1B68DA6A154913469B00BC
:1059400013449B000B441B68012B07D901230593CB
:1059500004E0114B1B6801330F4A13600F4B1B68A7
:10596000002B01D001230593059B184607B05DF875
:1059700004FB00BF3C16001018160010CC150010D8
:10598000D01500102C160010341600101C16001034
:10599000401500103C1500102416001028160010A9
:1059A00010B584B0294B1B68002B03D0284B012273
:1059B0001A6047E0264B00221A60FEF793FE03466A
:1059C0000C461A46234B1A60224B1A68224B1B685E
:1059D0009A4209D9214B1B68596D1E4A10681E4A0C
:1059E0001268821A0A445A651A4B1B681A4A1360D5
:1059F0001B4B1B680193019BB3FA83F38DF80330B3
:105A00009DF80330C3F11F030393039A13469B00D1
:105A100013449B00134A13440293029B5B685A6829
:105A2000029B5A60029B5A68029B08339A4204D137
:105A3000029B5B685A68029B5A60029B5B68DB684A
:105A4000064A136000BF04B010BD00BF3C16001032
:105A50002816001044160010401600103C150010C7
:105A60001C1600104015001000B583B00190009185
:105A7000074B1B68183319460198FFF74BFC0121AF
:105A8000009800F0CDF900BF03B05DF804FB00BF43
:105A90003C15001000B585B00190019BDB68DB6808
:105AA0000293029B18331846FFF768FC1D4B1B68D6
:105AB000002B1CD1029B04331846FFF75FFC029BAE
:105AC000DB6A01229A40184B1B681343164A136085
:105AD000029BDA6A13469B0013449B00134A1A4444
