:020000021000EC
:1000000000000110E9460100454D01001902010000
:10001000454D0100454D0100454D0100EA81F7EFD6
:10002000000000000000000000000000615101001D
:10003000454D01000000000091510100454D0100B7
:10004000454D0100454D0100454D0100454D010064
:10005000454D0100454D0100454D0100454D010054
:10006000454D0100454D0100454D0100454D010044
:10007000454D010000000000454D0100454D0100C7
:10008000454D0100454D0100454D0100454D010024
:10009000454D0100454D0100454D0100454D010014
:1000A000454D0100454D0100454D0100454D010004
:1000B000454D0100454D0100454D0100454D0100F4
:1000C000454D0100454D0100454D0100454D0100E4
:1000D000454D0100454D0100454D0100454D0100D4
:1000E000454D0100E4AB0100000000103C09000098
:1000F000E4AB0100000000200000000040090010F7
:10010000380B0000000000200000000086B0002333
:100110000593059A13465B0013449B001D4A134444
:100120001D4A934233D21B49059A13465B00134480
:100130009B000B441B6803931649059A13465B000A
:1001400013449B000B445B6802931249059A1346C3
:100150005B0013449B000B4408331B68019300238E
:100160000493049A019B9A420DD2049B9B00039A2C
:100170001A44049B9B0002990B4412681A60049B6A
:1001800001330493EDE7059B01330593C1E700BFFD
:1001900006B07047E4000100FC00010084B00023B9
:1001A0000393039BDB00134A1344134A93421ED26A
:1001B000104A039B52F8333001930E4A039BDB0035
:1001C00013445B68009300230293029A009B9A42B7
:1001D00009D2029B9B00019A134400221A60029BE1
:1001E00001330293F1E7039B01330393D9E700BF87
:1001F00004B07047FC0001000C010100DFF814009E
:10020000016841F470010160BFF34F8FBFF36F8F3E
:1002100000BF704788ED00E01EF0040F0CBFEFF345
:100220000880EFF309808169004A10470D4E0100F4
:1002300000BF7047FFFFFFFFFFFFFFFFFFFFFFFF54
:10024000FFFFFFFFFFFFFFFFFFFFFFFFFFFFFFFFBE
:10025000FFFFFFFFFFFFFFFFFFFFFFFFFFFFFFFFAE
:10026000FFFFFFFFFFFFFFFFFFFFFFFFFFFFFFFF9E
:10027000FFFFFFFFFFFFFFFFFFFFFFFFFFFFFFFF8E
:10028000FFFFFFFFFFFFFFFFFFFFFFFFFFFFFFFF7E
:10029000FFFFFFFFFFFFFFFFFFFFFFFFFFFFFFFF6E
:1002A000FFFFFFFFFFFFFFFFFFFFFFFFFFFFFFFF5E
:1002B000FFFFFFFFFFFFFFFFFFFFFFFFFFFFFFFF4E
:1002C000FFFFFFFFFFFFFFFFFFFFFFFFFFFFFFFF3E
:1002D000FFFFFFFFFFFFFFFFFFFFFFFFFFFFFFFF2E
:1002E000FFFFFFFFFFFFFFFFFFFFFFFFFFFFFFFF1E
:1002F000FFFFFFFFFFFFFFFFFFFFFFFFFFFFFFFF0E
:10030000F8B500BFF8BC08BC9E4670474D0301001D
:1003100019360100B54C0100A17A0100F8B500BF03
:10032000F8BC08BC9E46704710B5054C237833B91D
:10033000044B13B10448AFF300800123237010BDB8
:100340004009001000000000E4AB010008B5034BB9
:100350001BB103490348AFF3008008BD0000000053
:1003600044090010E4AB010030B583B0754601903C
:100370002B461946074804F043FE074A019B1A60C2
:10038000019C2B461946034804F04EFE23461846AE
:1003900003B030BD69030100A088010030B583B00F
:1003A000754601900B468DF8033013468DF80230E8
:1003B0002B4619460D4804F023FE019B1846FFF713
:1003C000D3FF0B4A019B1A60019B9DF803201A7111
:1003D000019B9DF802205A71019C2B461946034847
:1003E00004F022FE2346184603B030BD9D030100F1
:1003F00064880100F0B585B0774603900B468DF810
:100400000B303B461946174804F0FAFD164B1B68A3
:10041000039A12791046039A5279114642010A440E
:1004200053F822109DF80B3003F007020E4B1C68A6
:10043000039B1B791E46039B5B791D460323009398
:1004400013460022039800F067FA024673012B441A
:1004500044F823203B461946024804F0E5FD00BF5E
:1004600005B0F0BDF503010000000010F0B587B045
:10047000774603900B468DF80B303B4619461948DA
:1004800004F0BEFD9DF80B308DF81730164B1B683D
:10049000039A12791046039A5279114642010A448E
:1004A00053F822109DF8173003F003020E4B1C681E
:1004B000039B1B791E46039B5B791D460223009319
:1004C00013460322039800F027FA024673012B44D7
:1004D00044F823203B461946024804F0A5FD00BF1E
:1004E00007B0F0BD6D04010000000010F0B585B04C
:1004F000774603900B468DF80B303B46194616485D
:1005000004F07EFD154B1B68039A12791046039A7E
:100510005279114642010A4453F822109DF80B20EB
:100520000E4B1C68039B1B791E46039B5B791D4683
:100530000123009313460522039800F0EDF90246CB
:1005400073012B4444F823203B461946024804F02B
:100550006BFD00BF05B0F0BDED0401000000001010
:10056000F0B585B0774603900B468DF80B303B46CF
:100570001946164804F044FD154B1B68039A12797E
:100580001046039A5279114642010A4453F8221048
:100590009DF80B200E4B1C68039B1B791E46039B8A
:1005A0005B791D460123009313460622039800F051
:1005B000B3F9024673012B4444F823203B46194605
:1005C000024804F031FD00BF05B0F0BD6105010037
:1005D00000000010F0B585B0774603900B468DF80B
:1005E0000B303B461946184804F00AFD174B1B68B0
:1005F000039A12791046039A5279114642010A442D
:1006000053F822109DF80B3083F00103DBB21A4639
:100610000E4B1C68039B1B791E46039B5B791D4692
:100620000123009313460722039800F075F9024650
:1006300073012B4444F823203B461946024804F03A
:10064000F3FC00BF05B0F0BDD505010000000010AF
:10065000F0B585B0774603900B468DF80B303B46DE
:100660001946184804F0CCFC174B1B68039A127902
:100670001046039A5279114642010A4453F8221057
:100680009DF80B3083F00103DBB21A460E4B1C6859
:10069000039B1B791E46039B5B791D460123009338
:1006A00013460822039800F037F9024673012B44E1
:1006B00044F823203B461946024804F0B5FC00BF2D
:1006C00005B0F0BD5106010000000010F0B585B086
:1006D000774603900B468DF80B303B46194616487B
:1006E00004F08EFC154B1B68039A12791046039A8E
:1006F0005279114642010A4453F822109DF80B200A
:100700000E4B1C68039B1B791E46039B5B791D46A1
:100710000123009313460922039800F0FDF80246D6
:1007200073012B4444F823203B461946024804F049
:100730007BFC00BF05B0F0BDCD060100000000103D
:10074000F0B585B0774603900B468DF80B303B46ED
:100750001946184804F054FC174B1B68039A127989
:100760001046039A5279114642010A4453F8221066
:100770009DF80B3083F00103DBB21A460E4B1C6868
:10078000039B1B791E46039B5B791D460123009347
:1007900013460822039800F0BFF8024673012B4469
:1007A00044F823203B461946024804F03DFC00BFB4
:1007B00005B0F0BD4107010000000010F0B585B0A4
:1007C000774603900B468DF80B303B46194616488A
:1007D00004F016FC154B1B68039A12791046039A15
:1007E0005279114642010A4453F822109DF80B2019
:1007F0000E4B1C68039B1B791E46039B5B791D46B1
:100800000123009313460922039800F085F802465D
:1008100073012B4444F823203B461946024804F058
:1008200003FC00BF05B0F0BDBD07010000000010D3
:10083000F0B585B0774603900B468DF80B303B46FC
:100840001946164804F0DCFB154B1B68039A127915
:100850001046039A5279114642010A4453F8221075
:100860009DF80B200E4B1C68039B1B791E46039BB7
:100870005B791D460123009313460A22039800F07A
:100880004BF8024673012B4444F823203B4619469B
:10089000024804F0C9FB00BF05B0F0BD31080100FB
:1008A00000000010F0B585B0774603900B468DF838
:1008B0000B303B461946164804F0A2FB154B1B684B
:1008C000039A12791046039A5279114642010A445A
:1008D00053F822109DF80B200E4B1C68039B1B79CC
:1008E0001E46039B5B791D4601230093134610228D
:1008F000039800F011F8024673012B4444F82320BA
:100900003B461946024804F08FFB00BF05B0F0BD1E
:10091000A50801000000001030B587B075460390AF
:100920000291019200932B461946134804F068FB8C
:100930000A9BC3F120034FF0FF3222FA03F3059321
:10094000059A019B02FA03F3DB43029A13400293D8
:10095000009A059B1A40019B02FA03F3029A134383
:100960000293029C2B461946034804F05DFB234684
:10097000184607B030BD00BF1909010030B583B07B
:10098000754601902B461946064804F039FB019B39
:100990001C792B461946034804F046FB23461846AB
:1009A00003B030BD7D09010030B583B075460190BC
:1009B0002B461946064804F023FB019B5C792B4625
:1009C0001946034804F030FB2346184603B030BDF7
:1009D000A909010000B58BB0034600918DF80730DE
:1009E00004F044FB03461946314805F085FD04F048
:1009F00029FB079004F03AFB069000230993069B1D
:100A0000013B099A9A420DD2099B9B00079A134415
:100A10001B681A460999274805F06EFD099B0133AA
:100A20000993ECE7009B002B06D0069B013B009A44
:100A30001946204805F060FD9DF80730002B33D0A3
:100A40001D4A03AB07CA83E807001C4804F0A8FA54
:100A500003AB19461A4805F04FFD00230893069B87
:100A6000013B089A9A4212D2089B002B02D0202008
:100A700004F07AFA089B9B00079A13441B681946F6
:100A8000104805F039FD089B01330893E7E7009B08
:100A9000002B03D000990C4805F02EFD0B4804F004
:100AA0007FFA0B4804F07CFA00BF0BB05DF804FB42
:100AB000E47F0100F87F0100D4800100088001007C
:100AC0004080010068800100708001007880010092
:100AD0008080010070B5764633461946074804F019
:100AE0008FFA074BD3E9004533461946034804F013
:100AF0009BFA23462C461846214670BDD50A0100B4
:100B00006009001070B57446234619460C4804F07D
:100B100077FA0C4B1B6898474FF47A724FF000033A
:100B200007F068F802460B4615461E46234619464E
:100B3000034804F079FA2B4634461846214670BD26
:100B4000050B01000400001030B583B0754601901C
:100B50002B461946074804F053FA074A019B1A60CE
:100B6000019C2B461946034804F05EFA23461846BA
:100B700003B030BD490B01001C88010030B583B0C3
:100B8000754601900B468DF8033013468DF8023000
:100B90002B461946164804F033FA019B1846FFF716
:100BA000D3FF144A019B1A60019B00221A71019B1A
:100BB00003F10C02019B9A60019B0C339DF802200B
:100BC0009DF803101846FFF7E9FB9DF80330022B50
:100BD00001D1012200E00022019B1A71019C2B46E9
:100BE0001946034804F020FA2346184603B030BDE6
:100BF0007D0B0100D487010030B583B075460190AC
:100C00002B461946194804F0FBF9019B9A68019B91
:100C10009B681B681B68002110469847019B9A68D7
:100C2000019B9B681B6830331B681046984703463E
:100C30001A4601239340DC43019B9A68019B9B6801
:100C40001B682C331B681046984703461A46084B0E
:100C500053F822301A6821460A401A602B4619467A
:100C6000024804F0E1F900BF03B030BDF90B010008
:100C70000800001030B583B0754601902B46194628
:100C8000194804F0BDF9019B9A68019B9B681B6899
:100C90001B68002110469847019B9A68019B9B683E
:100CA0001B6830331B681046984703461A460123D9
:100CB00003FA02F4019B9A68019B9B681B682C3322
:100CC0001B681046984703461A46084B53F82230D3
:100CD0001A6821460A431A602B461946024804F056
:100CE000A3F900BF03B030BD750C0100080000106F
:100CF00010B582B0744601900B468DF80330234640
:100D000019460B4804F07CF99DF80330002B03D002
:100D10000198FFF7AFFF02E00198FFF76DFF234650
:100D20001946034804F080F900BF02B010BD00BFAF
:100D3000F10C010030B583B0754601902B46194681
:100D4000134804F05DF9019B9A68019B9B681B683E
:100D500030331B681046984703461A4601239340D8
:100D60001C46019B9A68019B9B681B682C331B687F
:100D70001046984703461A46064B53F822309C61AA
:100D80002B461946024804F04FF900BF03B030BDAE
:100D9000350D01000800001030B583B07546019094
:100DA0002B461946134804F02BF9019B9A68019BC6
:100DB0009B681B6830331B681046984703461A46E9
:100DC000012393401C46019B9A68019B9B681B680A
:100DD0002C331B681046984703461A46064B53F8B7
:100DE0002230DC612B461946024804F01DF900BF91
:100DF00003B030BD990D01000800001010B582B09D
:100E0000744601900B468DF80330234619460B4873
:100E100004F0F6F89DF80330002B03D00198FFF79B
:100E200089FF02E00198FFF7B7FF23461946034800
:100E300004F0FAF800BF02B010BD00BFFD0D0100C4
:100E400030B583B0754601902B461946154804F01D
:100E5000D7F8019B9A68019B9B681B6830331B681D
:100E60001046984703461A46012303FA02F4019BF1
:100E70009A68019B9B681B682C331B681046984737
:100E800003461A46084B53F822305A6921464A4015
:100E90005A612B461946034804F0C6F800BF03B058
:100EA00030BD00BF410E01000800001030B585B014
:100EB000754601902B461946184804F0A1F8019B8D
:100EC0009A68019B9B681B682C331B6810469847E7
:100ED00003461A46124B53F822305C69019B9A680C
:100EE000019B9B681B6830331B681046984703467C
:100EF00024FA03F303F00103002B14BF01230023A2
:100F00008DF80F309DF80F402B461946034804F02A
:100F10008BF82346184605B030BD00BFAD0E01006A
:100F20000800001030B583B0754601902B46194675
:100F3000164804F065F8019B9A68019B9B681B6842
:100F40002C331B681046984703461A46104B53F83B
:100F500022305C69019B9A68019B9B681B68303357
:100F60001B6810469847034624FA03F303F0010375
:100F7000002B14BF01230023DCB22B461946034883
:100F800004F052F82346184603B030BD250F010087
:100F90000800001030B583B0754601902B46194605
:100FA000064804F02DF8019B9C682B46194603481F
:100FB00004F03AF82346184603B030BD950F0100FF
:100FC00030B587B0754603902B461946174804F094
:100FD00017F8039B1B79012B94BF01230023DBB27D
:100FE0008DF817309DF8173083F00103DBB2002B2A
:100FF00010D0039B9A68039B9B681B682C331B686B
:101000001046984703460093A623094A09490A480F
:1010100005F072FA9DF817402B461946034804F074
:1010200003F82346184607B030BD00BFC10F0100CA
:10103000508A0100C4850100E080010070B582B0D3
:1010400076460190009133461946114803F0D8FFC7
:101050000198FFF7B5FF009C019B1B791D46019B82
:101060009A68019B9B681B6830331B681046984741
:1010700003461946074A6B010B4442F823403346A6
:101080001946034803F0D0FF00BF02B070BD00BF97
:101090003D1001006809001030B583B0754601901D
:1010A0002B4619460F4803F0ABFF019B1B791C46EA
:1010B000019B9A68019B9B681B6830331B68104634
:1010C000984703461946084A63010B44002142F839
:1010D00023102B461946034803F0A6FF00BF03B0B8
:1010E00030BD00BF991001006809001030B583B011
:1010F000754603468DF807302B461946064803F01F
:101100007FFF9DF807402B461946034803F08CFFEC
:101110002346184603B030BDED10010010B584B071
:10112000744603900B468DF80B3023461946194838
:1011300003F066FF0398FFF743FF9DF80B30012B88
:1011400008D0012B02D3022B08D00EE0039800F048
:10115000B1F817E0039800F0EBF813E0039800F003
:10116000A9F8039800F0E4F80CE09DF80B3018465D
:10117000FFF7BCFF03460093D223074A07490848FC
:1011800005F0BAF923461946024803F04DFF00BFA7
:1011900004B010BD1D1101006C8A0100D085010052
:1011A0007081010010B584B0744603900B468DF831
:1011B0000B3023461946194803F022FF0398FFF726
:1011C000FFFE9DF80B30012B08D0012B02D3022B20
:1011D00008D00EE0039800F0E9F817E0039800F05B
:1011E00023F913E0039800F0E1F8039800F01CF9EC
:1011F0000CE09DF80B301846FFF778FF034600938C
:10120000F223074A0749084805F076F923461946AC
:10121000024803F009FF00BF04B010BDA511010092
:10122000148A0100DC8501007081010010B584B0D2
:1012300074460390029113468DF8073023461946F1
:101240000B4803F0DDFE0398FFF7BAFE02990398FE
:10125000FFF7F4FE9DF8073019460398FFF75EFF8D
:1012600023461946024803F0DFFE00BF04B010BD5C
:101270002D12010010B582B0744601902346194624
:101280000B4803F0BDFE0198FFF79AFE0198FFF7A7
:1012900003FF019800F08AF8019800F0C5F8234692
:1012A0001946034803F0C0FE00BF02B010BD00BFE6
:1012B0007512010030B583B0754601902B46194672
:1012C000194803F09DFE019B9A68019B9B681B686F
:1012D00030331B681046984703461A46012303FA29
:1012E00002F0019B1B791946104A0B469B000B44E8
:1012F0009B0013440C331B681A680446019B1B793E
:1013000018460A4903469B0003449B000B440C33D8
:101310001B6822431A602B461946034803F084FEDB
:1013200000BF03B030BD00BFB512010020000010A7
:1013300030B583B0754601902B461946194803F025
:101340005FFE019B9A68019B9B681B6830331B689A
:101350001046984703461A46012303FA02F0019B00
:101360001B791946104A0B469B000B449B00134403
:1013700010331B681A680446019B1B7918460A49FA
:1013800003469B0003449B000B4410331B6822431D
:101390001A602B461946034803F046FE00BF03B00F
:1013A00030BD00BF311301002000001030B583B004
:1013B000754601902B461946194803F021FE019B02
:1013C0009A68019B9B681B6830331B6810469847DE
:1013D00003461A4601239340D843019B1B791946C3
:1013E000104A0B469B000B449B0013440C331B68B4
:1013F0001A680446019B1B7918460A4903469B005C
:1014000003449B000B440C331B6822401A602B469C
:101410001946034803F008FE00BF03B030BD00BF0B
:10142000AD1301002000001030B583B07546019067
:101430002B461946194803F0E3FD019B9A68019B6E
:101440009B681B6830331B681046984703461A4652
:1014500001239340D843019B1B791946104A0B4640
:101460009B000B449B00134410331B681A6804460E
:10147000019B1B7918460A4903469B0003449B00C5
:101480000B4410331B6822401A602B461946034850
:1014900003F0CAFD00BF03B030BD00BF2914010036
:1014A0002000001082B00190034A019B1A60019B4A
:1014B000184602B0704700BFB087010000B583B086
:1014C0000190019B1846FFF7EDFF044A019B1A604B
:1014D000019B184603B05DF804FB00BF8C87010038
:1014E00000B585B001900B468DF8033000230393BF
:1014F0000021019800F0CEF89DF803300C2B16D98E
:101500009DF803309BB21A460C21019800F0ACF90B
:1015100003904FF48071019800F0D6F89DF80330E5
:10152000104A02FB03F31A460F4B1A6006E0002133
:10153000019800F0C9F80C4B0C4A1A60012101987F
:1015400000F04AFA019B1B6804331B6801210198D3
:1015500098470021019800F073FA039B184605B0E4
:101560005DF804FB40420F004C000010001BB70068
:1015700000B583B001900B468DF803309DF8033021
:10158000042B0DD9AE230B4A0B490C4804F0B4FFD1
:101590000B4803F005FD00210120FFF71BFAFEE7D1
:1015A000084B1B689DF80320C3F8A82100BF03B0B7
:1015B0005DF804FBD4880100E88501001082010079
:1015C000B08201004800001082B00190034B1B68FC
:1015D000D3F8A831184602B0704700BF4800001089
:1015E00082B00190024B1B68184602B0704700BFE2
:1015F0004C00001000B585B00190019B1B680833BA
:101600001B6801989847029000230393029B002BCC
:101610000AD0019B1B680C331B680198984702464F
:10162000029BB2FBF3F30393039B184605B05DF8EE
:1016300004FBFFFF84B001900091094B1B68D3F8B5
:10164000C430009A1268012101FA02F21343039395
:10165000034B1B68039AC3F8C42000BF04B0704753
:101660004800001084B001900091094B1B68D3F82A
:10167000C430009A1268012101FA02F21340039368
:10168000034B1B68039AC3F8C42000BF04B0704723
:101690004800001084B001900B46ADF80230BDF850
:1016A00002300393074B1B68D3F80C3123F0010180
:1016B000044B1B68039A0A43C3F80C2100BF04B013
:1016C000704700BF4800001082B001900B46ADF893
:1016D0000230084B1B68D3F8043123F48071BDF845
:1016E0000220044B1B680A43C3F8042100BF02B068
:1016F000704700BF4800001082B001900B46ADF863
:101700000230084B1B68D3F8083123F44071BDF850
:101710000220044B1B680A43C3F8082100BF02B033
:10172000704700BF4800001082B001900B46ADF832
:101730000230084B1B68D3F8B43123F44071BDF874
:101740000220044B1B680A43C3F8B42100BF02B057
:10175000704700BF4800001000B587B001900B46ED
:10176000ADF802301346ADF80030BDF80030B3F5E7
:10177000C07F03D2BDF800300C2B0DD8FF23344AB4
:101780003449354804F0B8FE344803F009FC002120
:101790000120FFF71FF9FEE701238DF81730BDF890
:1017A0000030BDF80220B3FBF2F102FB01F29B1AFC
:1017B0009BB2002B09D0BDF80020BDF80230B2FB6F
:1017C000F3F39BB20133049307E0BDF80020BDF8AA
:1017D0000230B2FBF3F39BB204930123ADF80E3059
:1017E0009DF81730002B2ED0049B9BB2BDF8022031
:1017F00012FB03F39BB2BDF80E2012FB03F39BB266
:101800005B00ADF80C30BDF80C309B2B03D90023E6
:101810008DF81730E4E7BDF80E305B00ADF80E3000
:10182000BDF80E30072BDBD940F21B13084A0C49D8
:101830000C4804F061FE094803F0B2FB00210120CE
:10184000FFF7C8F8FEE7049B184607B05DF804FBF5
:101850007C89010000860100C8820100B08201007D
:1018600018860100B883010010B58AB001900B46BC
:10187000ADF802301346ADF800300123ADF81A3050
:10188000FFF740F90A46014611F57A7342F1000468
:10189000CDE90434FFF736F9CDE90801BDF80020A1
:1018A000BDF8023019460198FFF756FF0390BDF8C6
:1018B0000220039B02FB03F3079300210198FFF72B
:1018C000E9FE00210198FFF7FFFE00210198FFF7D4
:1018D00013FF00210198FFF727FF3A4B1B68D3F84D
:1018E000843023F01F01039B5A1E364B1B680A43AA
:1018F000C3F88420334B1B68D3F8843023F0600294
:10190000BDF81A305B0119462E4B1B680A43C3F819
:1019100084202C4B1B68D3F880202A4B1B6842F094
:101920000102C3F88020274B1B68AA22C3F88C2031
:10193000244B1B685522C3F88C20224B1B68D3F81C
:10194000883003F48063002B09D1DDE90812DDE95A
:101950000434A24208BF994201D2012300E00023CF
:10196000002B04D0FFF7CEF8CDE90801E5E7154BD1
:101970001B68D3F8883003F48063002B09D1DDE9BC
:101980000812DDE90434A24208BF994201D30123C1
:1019900000E00023002B0ED040F243130A4A0B490B
:1019A0000B4804F0A9FD0B4803F0FAFA00210120CE
:1019B000FFF710F8FEE7BDF80030079AD31A184673
:1019C0000AB010BD480000102089010030860100D7
:1019D00060840100B082010000B583B001900B4625
:1019E0008DF803309DF803301F2B0ED940F26F1392
:1019F0000E4A0F490F4804F07FFD0F4803F0D0FA5C
:101A000000210120FEF7E6FFFEE70C4B1B68D3F830
:101A1000043123F01F019DF80320084B1B680A4383
:101A2000C3F8042100BF03B05DF804FBD8890100AE
:101A30004886010008850100B082010048000010BE
:101A400082B001900B468DF80330084B1B68D3F829
:101A5000003123F001019DF80320044B1B680A4369
:101A6000C3F8002100BF02B0704700BF480000105B
:101A700030B583B0754601902B461946064803F0F1
:101A8000BFFA019C2B461946034803F0CDFA2346C2
:101A9000184603B030BD00BF711A010030B583B0E5
:101AA000754601902B461946074803F0A9FA074AE4
:101AB000019B1A60019C2B461946034803F0B4FAB7
:101AC0002346184603B030BD9D1A0100648701000B
:101AD00030B583B07546019000912B4619460848F1
:101AE00003F08EFA074A019B1A60019C2B461946A7
:101AF000034803F099FA2346184603B030BD00BFEF
:101B0000D11A0100A088010030B583B0754601905C
:101B100000912B4619460F4803F072FA019B009A78
:101B200011461846FFF7D4FF0B4A019B1A60009B31
:101B30001A79019B1A71009B5A79019B5A71019C79
:101B40002B461946034803F06FFA2346184603B0A4
:101B500030BD00BF091B01006488010030B583B0AF
:101B60007546019000912B461946314803F048FA1A
:101B7000019B1846FFF792FF019B04331846FFF7BD
:101B80009DFC2C4A019B1A602B4A019B5A60019BC9
:101B900003F11402019B9A60019B03F11C02019B5B
:101BA000DA60019B03F12402019B1A61019B03F19E
:101BB00014040098FFF75CFF024613465B001344D1
:101BC000DB001E4A134419462046FFF79DFF019B88
:101BD00003F11C040098FFF74BFF024613465B001D
:101BE0001344DB000833154A134419462046FFF717
:101BF0008BFF019B03F124040098FFF739FF024695
:101C000013465B001344DB0010330C4A134419469F
:101C10002046FFF779FF019B009ADA62019C2B4670
:101C20001946034803F000FA2346184603B030BDB6
:101C30005D1B0100188701004087010064860100D8
:101C400070B586B07646019033461946304803F0A9
:101C5000D7F9019BDB6A1846FFF70AFF0346059395
:101C6000019B181D019B5B6814331B68059A920049
:101C700028490A4411469847019B9868019B9B6834
:101C80001B681B682449059A0A4412781146984734
:101C9000019BD868019BDB681B681B681E49059A7D
:101CA0000A44127811469847019B1869019B1B69E9
:101CB0001B681B681849059A0A4412781146984710
:101CC000164A059B52F823305B681449059A51F86F
:101CD000224004930123039333461946104803F02E
:101CE0008FF90122039B02FA03F31A46049B42EA8E
:101CF0000305334619460A4803F096F965603346F2
:101D00001946034803F090F900BF06B070BD00BF4C
:101D1000411C0100AC8601006086010050000010EB
:101D20002D31010030B585B0754601902B4619461E
:101D3000174803F065F9019BDB6A1846FFF798FE28
:101D40000246144B53F82230DB68039304230293BA
:101D50002B461946104803F053F90122029B02FA60
:101D600003F31A46039B1340002B14BF01230023E7
:101D7000DCB22B461946084803F056F92B461946A3
:101D8000034803F051F92346184605B030BD00BFA3
:101D9000251D0100500000106931010030B585B0EB
:101DA000754601900B46ADF802302B461946144893
:101DB00003F026F9019BDB6A1846FFF759FE03463C
:101DC0000393104A039B52F82330BDF802209A6017
:101DD0000198FFF7A7FF0346002B01D000BFF7E7EC
:101DE000084A039B52F823309B689CB22B46194645
:101DF000034803F019F92346184605B030BD00BF6B
:101E00009D1D01005000001010B586B0744603906F
:101E100023461946124803F0F3F801238DF81730D2
:101E200000238DF8163000238DF8153030238DF8FF
:101E30001430072300220021039800F05BF83023C0
:101E40000093002300220121039800F009FA2346A1
:101E50001946034803F0E8F800BF06B010BD00BF04
:101E6000091E010030B583B0754603468DF8073072
:101E70002B461946064803F0C3F89DF807402B4649
:101E80001946034803F0D0F82346184603B030BD86
:101E9000651E010030B583B0754603468DF80730E6
:101EA0002B461946064803F0ABF89DF807402B4631
:101EB0001946034803F0B8F82346184603B030BD6E
:101EC000951E010030B583B0754603468DF8073086
:101ED0002B461946064803F093F89DF807402B4619
:101EE0001946034803F0A0F82346184603B030BD56
:101EF000C51E010070B598B07446019008461146A1
:101F00001A4603468DF803300B468DF8023013460F
:101F10008DF8013023461946754803F071F8019B8E
:101F2000DB6A1846FFF7A4FD03461793019B181DB3
:101F3000179B9B006F4A13441946FFF77BFB9DF8E4
:101F40000230022B02D107238DF801306A4A179B19
:101F500052F823301E689DF801301846FFF782FFC3
:101F600003461946644A179B52F8235008960B46BD
:101F70008DF81F300023069304230593234619464A
:101F80005E4803F03DF84FF0FF33049320230393A2
:101F9000059BC3F120034FF0FF3222FA03F30293B3
:101FA000029A069B02FA03F3DB43089A1340089354
:101FB0009DF81F20029B1A40069B02FA03F3089A21
:101FC00013430893089E234619464C4803F02CF807
:101FD0002E60494A179B52F823301E689DF8023044
:101FE0001846FFF757FF03461946434A179B52F816
:101FF00023500F960B468DF83B3004230D9302239C
:102000000C93234619463D4802F0FAFF4FF0FF3388
:102010000B9320230A930C9BC3F120034FF0FF3254
:1020200022FA03F30993099A0D9B02FA03F3DB43A7
:102030000F9A13400F939DF83B20099B1A400D9B6C
:1020400002FA03F30F9A13430F930F9E2346194688
:102050002A4802F0E9FF2E60274A179B52F82330E6
:102060005E689DF803301846FFF72CFF03461946BB
:10207000214A179B52F8235016960B468DF857307D
:102080000223149301231393234619461B4802F09D
:10209000B7FF4FF0FF33129320231193139BC3F12B
:1020A00020034FF0FF3222FA03F31093109A149B8F
:1020B00002FA03F3DB43169A134016939DF8572058
:1020C000109B1A40149B02FA03F3169A13431693BB
:1020D000169E23461946094802F0A6FF6E60234665
:1020E0001946034802F0A0FF00BF18B070BD00BF42
:1020F000F51E0100AC86010050000010AD3101005A
:1021000070B596B07446019023461946504802F0C7
:1021100077FF0023ADF85630019BDB6A1846FFF7C6
:10212000A7FC03461493019B181D149B9B00494A6E
:1021300013441946FFF77EFA474A149B52F823309E
:102140001B6807930023069304230593234619462F
:10215000424802F055FF4FF0FF33049320230393CE
:10216000059BC3F120034FF0FF3222FA03F30293E1
:10217000079A069BDA40029B02EA030523461946AA
:10218000364802F051FFADB2334A149B52F8233067
:102190001B680D9304230C9302230B9323461946CB
:1021A0002E4802F02DFF4FF0FF330A9320230993AE
:1021B0000B9BC3F120034FF0FF3222FA03F3089385
:1021C0000D9A0C9BDA40089B02EA03062346194647
:1021D000224802F029FFB3B25B019BB22B449DB2AF
:1021E0001D4A149B52F823305B6813930223129309
:1021F0000123119323461946184802F001FF4FF0BE
:10220000FF33109320230F93119BC3F120034FF052
:10221000FF3222FA03F30E93139A129BDA400E9BBD
:1022200002EA0306234619460C4802F0FDFEB3B24B
:102230001B029BB22B44ADF85630BDF856502346D6
:102240001946034802F0F0FE2B46184616B070BD42
:1022500001210100AC860100500000102132010074
:1022600070B598B074460190084611461A46034668
:102270008DF803300B468DF8023013468DF801308F
:10228000234619466C4802F0BBFE019BDB6A1846E8
:10229000FFF7EEFB03461793019B181D179B9B004E
:1022A000664A13441946FFF7C5F9654A179B52F869
:1022B00023301B686249179A51F8225008939DF801
:1022C00003308DF81F300623069301230593234620
:1022D00019465C4802F094FE4FF0FF33049320232C
:1022E0000393059BC3F120034FF0FF3222FA03F35F
:1022F0000293029A069B02FA03F3DB43089A134007
:1023000008939DF81F20029B1A40069B02FA03F3D4
:10231000089A13430893089E23461946494802F039
:1023200083FE2E60464A179B52F823301B684449AF
:10233000179A51F822500F939DF802308DF83B30D8
:1023400007230D9301230C93234619463D4802F0C1
:1023500057FE4FF0FF330B9320230A930C9BC3F1DE
:1023600020034FF0FF3222FA03F30993099A0D9BE1
:1023700002FA03F3DB430F9A13400F939DF83B20BF
:10238000099B1A400D9B02FA03F30F9A13430F9314
:102390000F9E234619462B4802F046FE2E60284A1F
:1023A000179B52F823301B682549179A51F8225081
:1023B00016939DF801308DF85730082314930823A5
:1023C000139323461946204802F01AFE4FF0FF33BC
:1023D000129320231193139BC3F120034FF0FF327C
:1023E00022FA03F31093109A149B02FA03F3DB43CF
:1023F000169A134016939DF85720109B1A40149B71
:1024000002FA03F3169A13431693169E23461946AF
:102410000D4802F009FE2E60094A179B52F823303E
:102420009DF870201A6123461946034802F0FCFD0E
:1024300000BF18B070BD00BF61220100AC86010072
:102440005000001075320100AD31010070B594B03C
:102450007446019023461946584802F0D1FD0023E6
:102460001393019BDB6A1846FFF702FB03461293A6
:10247000019B181D129B9B00514A13441946FFF7FC
:10248000D9F8504A129B52F823301B690793002356
:10249000069308230593234619464B4802F0B0FDE6
:1024A0004FF0FF33049320230393059BC3F12003D4
:1024B0004FF0FF3222FA03F30293079A069BDA40A9
:1024C000029B02EA0305234619463F4802F0ACFD91
:1024D0003C4A129B52F823301B680D9308230C933F
:1024E00008230B9323461946374802F089FD4FF025
:1024F000FF330A93202309930B9BC3F120034FF072
:10250000FF3222FA03F308930D9A0C9BDA40089BE2
:1025100002EA0306234619462B4802F085FD3302E2
:102520001D44284A129B52F823301B680F9307233F
:102530000E9323461946254802F062FD01220E9BA8
:1025400002FA03F31A460F9B1340002B14BF01231A
:102550000023DEB2234619461C4802F065FD3346CF
:102560001B041D44174A129B52F823301B68119319
:102570000623109323461946144802F041FD012218
:10258000109B02FA03F31A46119B1340002B14BF51
:1025900001230023DEB2234619460C4802F044FD15
:1025A00033469B042B441393139D2346194603483B
:1025B00002F03AFD2B46184614B070BD4D240100C0
:1025C000AC86010050000010213201006931010089
:1025D00030B583B075460190084611461A46034649
:1025E0008DF803300B468DF8023013468DF801301C
:1025F0002B4619461A4802F003FD019A13789DF8FC
:10260000201061F300031370019A13789DF80310F2
:1026100061F341031370019A13789DF8021061F37E
:1026200082031370019A13789DF8011061F3C303BC
:102630001370019A13786FF307131370019B9DF8C1
:102640001C205A70019B9DF818209A70019C2B4603
:102650001946034802F0E8FC2346184603B030BD93
:10266000D125010030B583B0754601902B4619463F
:10267000154802F0C5FC019A13786FF3000313703C
:10268000019A13786FF341031370019A13786FF373
:1026900082031370019A13786FF3C3031370019AC6
:1026A00013786FF307131370019B00225A70019B7C
:1026B00000229A70019C2B461946034802F0B4FC94
:1026C0002346184603B030BD6526010010B582B020
:1026D0007446019023461946054802F091FC2346B2
:1026E0001946034802F0A0FC00BF02B010BD00BFB5
:1026F000CD26010010B582B07446019023461946DC
:10270000054802F07DFC23461946034802F08CFC84
:1027100000BF02B010BD00BFF526010010B582B0A9
:102720007446019023461946054802F069FC234689
:102730001946034802F078FC00BF02B010BD00BF8C
:102740001D27010030B583B0754601902B46194610
:10275000074802F055FC074A019B1A60019C2B4672
:102760001946034802F060FC2346184603B030BD0A
:1027700045270100EC86010030B583B07546019015
:102780002B4619461F4802F03BFC019B1846FFF7F9
:10279000D9FF1D4A019B1A60019B03F11002019BA6
:1027A0005A60019B03F14002019B9A60019B03F177
:1027B0005402019BDA60019B103301211846FFF798
:1027C000CDF9019B4033162201211846FEF7D6F9B8
:1027D000019B5433192201211846FEF7CFF9019BC2
:1027E000683340F2C1620021184605F0AFFB019C3E
:1027F0002B461946034802F017FC2346184603B03F
:1028000030BD00BF79270100C086010030B583B01C
:10281000754601902B461946064802F0F1FB8024CC
:102820002B461946034802F0FFFB2346184603B027
:1028300030BD00BF0D28010030B583B07546019052
:102840002B461946064802F0DBFB40242B4619466E
:10285000034802F0E9FB2346184603B030BD00BF31
:102860003928010010B588B07446059023461946F2
:10287000154802F0C5FB07A8012302930123019329
:1028800001230093012301220121FFF7A1FE06ABE2
:1028900007AA1268114619800233120C1A702346D7
:1028A0001946094802F0C0FB00239DF8182062F386
:1028B00007039DF8192062F30F239DF81A2062F395
:1028C0001743184608B010BD6528010010B586B042
:1028D00074460390029101920093234619461E48C4
:1028E00002F08EFB039BDB68019AD2B211461846B8
:1028F000FEF784FA039B9B681846FEF74DFA002307
:102900000593059A009B9A4218D2009A059BD31A08
:1029100003F10053013BDB00029A22FA03F38DF826
:102920001330039B5B689DF8132092B21146184642
:10293000FFF734FA059B01330593E2E7039B9B689D
:102940001846FEF7F7F923461946034802F06CFBD8
:1029500000BF06B010BD00BFCD28010010B582B089
:102960007446019023461946374802F049FB01237B
:102970000022AE210198FFF7A9FF022300224DF2A9
:1029800080510198FFF7A2FF022300224AF63F017F
:102990000198FFF79BFF022300224FF45341019857
:1029A000FFF794FF0123002240210198FFF78EFFDB
:1029B0000223002248F614510198FFF787FF0123F4
:1029C0000022A1210198FFF781FF01230022C821E5
:1029D0000198FFF77BFF022300224DF61221019898
:1029E000FFF774FF0223002248F2CF110198FFF78E
:1029F0006DFF022300224DF6F1110198FFF766FFEB
:102A0000022300224DF640310198FFF75FFF019845
:102A100000F05EF801230022A4210198FFF756FF81
:102A200001230022A6210198FFF750FF0123002275
:102A3000AF210198FFF74AFF23461946024802F0EA
:102A4000F3FA00BF02B010BD5D29010010B584B0DB
:102A500074460390234619461C4802F0D1FA039BA2
:102A60009B681846FEF706F9039BDB681846FEF7DD
:102A700001F9039B9B681846FEF75CF9039BDB6832
:102A80001846FEF757F9039B5868072300220021D8
:102A9000FFF730FA039B58681023009301230022AC
:102AA0000021FFF7DDFB039B5B681846FFF7C8F8C2
:102AB000039800F037F80398FFF750FF23461946B4
:102AC000024802F0B1FA00BF04B010BD4D2A010067
:102AD00010B582B074460190234619460E4802F0A4
:102AE0008FFA022300224FF400510198FFF7EEFE07
:102AF0000323002209490198FFF7E8FE032300227F
:102B000007490198FFF7E2FE23461946024802F002
:102B10008BFA00BF02B010BDD12A01007F00210056
:102B20000700220010B582B0744601902346194672
:102B3000094802F065FA019B683340F2C162002146
:102B4000184605F003FA23461946034802F06CFACA
:102B500000BF02B010BD00BF252B010010B58CB026
:102B600074460390029101920093234619461F4830
:102B700002F046FA019B03F007030B93019BDB1065
:102B80000A9301220B9B02FA03F3DB4309939DF89E
:102B90000230002B14BF012300238DF823309DF851
:102BA00023200B9B02FA03F307930A9A13465B0157
:102BB00013449B001344029A13446833039A13444A
:102BC0000693069B1B781A46099B1340079A1343EA
:102BD0000593059BDAB2069B1A70234619460348F3
:102BE00002F022FA00BF0CB010BD00BF5D2B010047
:102BF00010B584B07446019023461946184802F077
:102C0000FFF90198FFF764FF00230393039B072B51
:102C10001ED800230293029B7F2B15D80199039A9B
:102C200013465B0113449B001344CA18029B1344D0
:102C300068331B781946012301220198FFF746FEED
:102C4000029B01330293E6E7039B01330393DDE725
:102C500023461946024802F0E7F900BF04B010BD50
:102C6000F12B010030B583B07546019000912B46E1
:102C700019461E4802F0C4F9019B009A1A60019B94
:102C800004331846FFF7EEFC019B00229A60019B7B
:102C90000022DA60009B1B681B6800989847024678
:102CA000019B9A60009B1B6804331B68009898473F
:102CB0000246019BDA60009B1B6808331B68019C7D
:102CC0000098984703461A462271C3F3072262719F
:102CD000C3F30743A371019C2B461946034802F036
:102CE000A3F92346184603B030BD00BF652C010090
:102CF00010B58EB074460790069105928DF813308A
:102D000023461946374802F07BF99DF813300B93A0
:102D1000079A0AAB04321268114619800233120C6A
:102D20001A7009A801230293012301930023009341
:102D3000002300220021FFF74BFC00230D930D9B85
:102D4000072B3DDC00230C930C9B072B34DC264A1D
:102D50000B9BDB001A440D9B13441B781A460C9BFB
:102D600042FA03F303F00103002B09D0079B04335D
:102D70000AAA1268114619800233120C1A700CE06C
:102D80009DF84030002B08D0079B043309AA126835
:102D9000114619800233120C1A70069A0C9B1344C8
:102DA0001946059A0D9B13441A46079800F01EF821
:102DB0000C9B01330C93C7E70D9B01330D93BEE7CA
:102DC000079B04330AAA1268114619800233120CB9
:102DD0001A7023461946034802F026F900BF0EB0C8
:102DE00010BD00BFF12C01005C00001030B585B0B3
:102DF00075460390029101922B461946104802F045
:102E0000FFF8039B9B68029A9A4210D8039BDB68E9
:102E1000019A9A420BD8039B1868039B1B681B6896
:102E20001C331C680299019A039B5B68A0472B46E0
:102E30001946034802F0F8F800BF05B030BD00BFE6
:102E4000ED2D010010B582B074460190234619465D
:102E5000094802F0D5F8019B1A68019B1B681B68A2
:102E600020331B681046984723461946024802F053
:102E7000DBF800BF02B010BD452E01000EB430B526
:102E8000C6B0754601AB18602B461946504802F093
:102E9000B7F84AAA02AB1A6002AB03A81B68499AAA
:102EA0004FF4807103F04EFB034644930023459397
:102EB000459A449B9A4253D203AA459B13441B78DC
:102EC0008DF80F319DF80F310A2B0ED101AB1B6825
:102ED0000022C3F8402701AB1B68D3F83C375A1CCB
:102EE00001AB1B68C3F83C2736E001AB1B68D3F885
:102EF0003C2701AB1B68D3F84437134403F00702A7
:102F000001AB1B68D3F8403701A9096812010A44D4
:102F1000134403F5E9639DF80F211A7001AB1B6898
:102F2000D3F840375A1C01AB1B68C3F8402701ABEC
:102F30001B68D3F840370F2B0DD901AB1B6800225B
:102F4000C3F8402701AB1B68D3F83C375A1C01ABD0
:102F50001B68C3F83C2700BF459B01334593A7E797
:102F600001AB186800F036F801AB1B68D3F83C37AA
:102F7000072B1FD901AB1B68D3F84437013303F08B
:102F8000070201AB1B68C3F8442701AB1B6807228B
:102F9000C3F83C2701AB1B68D3F83C2701AB1B6887
:102FA000D3F84437134403F0070201AB1146186805
:102FB00000F05EF8459C2B461946054802F034F8AF
:102FC0002346184646B0BDE8304003B0704700BF06
:102FD0007D2E010030B589B0754603902B46194609
:102FE000224802F00DF800230793079B072B2CD8EB
:102FF00000230693069B0F2B23D8069BDB0005932B
:10300000079BDB000493039B03F22C700599049C3F
:10301000039BD3F84427079B134403F00703039A49
:103020001B011A44069B134403F5E9631A78012334
:10303000009313462246FFF75BFE069B013306937F
:10304000D8E7079B01330793CFE7039B03F22C7369
:103050001846FFF7F7FE039C2B461946034801F07C
:10306000E3FF2346184609B030BD00BFD52F01004D
:1030700010B584B0744601900091234619460F485C
:1030800001F0BEFF00230393039B0F2B0DD8019A81
:10309000009B1B011A44039B134403F5E9632022A0
:1030A0001A70039B01330393EEE723461946034846
:1030B00001F0BAFF00BF04B010BD00BF71300100C5
:1030C00030B583B0754601902B461946164801F07D
:1030D00097FF019B1846FFF74FFB019B03F22C73F0
:1030E000019A11461846FFF7BDFD019B0022C3F867
:1030F0003C27019B0022C3F84027019B0022C3F814
:103100004427019B03F5E96380220021184604F05F
:103110001DFF019C2B461946034801F085FF2346FD
:10312000184603B030BD00BFC130010030B583B0D8
:103130007546019000912B4619460A4801F060FF40
:103140000122009B02FA03F31A46019B42EA0304A0
:103150002B461946034801F067FF2346184603B083
:1031600030BD00BF2D31010030B583B075460190F0
:1031700000912B4619460C4801F042FF0122009BAA
:1031800002FA03F31A46019B1340002B14BF0123DC
:103190000023DCB22B461946034801F045FF2346C5
:1031A000184603B030BD00BF6931010030B589B0A9
:1031B00075460390019200930B468DF80B302B4619
:1031C0001946164801F01CFF4FF0FF3307932023E8
:1031D0000693009BC3F120034FF0FF3222FA03F362
:1031E0000593059A019B02FA03F3DB43039A13400C
:1031F00003939DF80B20059B1A40019B02FA03F3F1
:10320000039A13430393039C2B461946034801F08A
:103210000BFF2346184609B030BD00BFAD31010099
:1032200030B589B075460390029101922B4619463C
:103230000F4801F0E5FE4FF0FF330793202306937C
:10324000019BC3F120034FF0FF3222FA03F30593F1
:10325000039A029BDA40059B02EA03042B461946B7
:10326000034801F0E1FE2346184609B030BD00BF17
:103270002132010030B589B0754603900192009368
:103280000B468DF80B302B461946164801F0B8FE58
:103290004FF0FF33079320230693009BC3F12003D5
:1032A0004FF0FF3222FA03F30593059A019B02FACD
:1032B00003F3DB43039A134003939DF80B20059B14
:1032C0001A40019B02FA03F3039A13430393039CEE
:1032D0002B461946034801F0A7FE2346184609B0BD
:1032E00030BD00BF7532010010B582B07446019048
:1032F000234619460E4801F083FE019B1A68019B84
:103300001B681B680C331B6810469847019B1A68A2
:10331000019B1B681B6810331B68104698472346A7
:103320001946034801F080FE00BF02B010BD00BF87
:10333000E932010010B582B0744601902346194667
:10334000094801F05DFE019B1A68019B1B681B6820
:1033500018331B681046984723461946024801F067
:1033600063FE00BF02B010BD3533010010B582B05E
:1033700074460190234619460E4801F041FE019B18
:1033800003F22C731846FFF7AFFF019B03F22C7377
:103390001846FFF7CFFF019B03F22C731846FFF787
:1033A00051FD23461946034801F03EFE00BF02B01E
:1033B00010BD00BF6D33010030B583B075462B469C
:1033C00019460E4801F01CFE2B238DF807300C48DF
:1033D000FFF7CCFF00F016F89DF80730184600F014
:1033E00089F800F0D3F800242B461946034801F071
:1033F0001BFE2346184603B030BD00BFB9330100A1
:103400006C0A001010B5744623461946354801F081
:10341000F7FD354BD3F8C430334A43F08073C2F81C
:10342000C430324B1B7BDBB2304A63F07F03DBB22C
:1034300013732E4B1B7ADBB22C4A43F00103DBB231
:1034400013722A4B1B78DBB2284A43F03803DBB2F5
:103450001370264B1B79DBB2244A43F00103DBB225
:10346000137108220221224800F01CF909220221CE
:103470001F4800F077F91D4B1B7BDBB21B4A23F082
:103480000C03DBB21373194B1B7BDBB2174A43F0FF
:103490000303DBB21373154B1B7BDBB2134A03F040
:1034A0007F03DBB21373114B1B7ADBB20F4A43F07D
:1034B0000603DBB213720D4B93F83030DBB20B4ACC
:1034C00063F07F03DBB282F83030084B5B68074A59
:1034D00043F00103536023461946024801F0A4FD5E
:1034E00000BF10BD0534010000C00F40008009403E
:1034F000680A001010B584B0744603468DF8073092
:10350000234619461D4801F07BFD1D4B1B7DDBB298
:1035100003F02003002B0CBF01230023DBB2002BA0
:1035200000D0F2E700238DF80F3000238DF80E3025
:103530009DF807308DF80E309DF8073030338DF848
:103540000F309DF80F302F2B08D99DF80F30392BF5
:1035500004D80B4A9DF80F30137003E0084A9DF819
:103560000E30137007490848FFF788FC23461946B8
:10357000024801F059FD00BF04B010BDF534010050
:1035800000800940689001006C0A001010B582B0FC
:103590007446234619460B4801F032FD0A4B1B784E
:1035A000DBB28DF804309DF804301A46074908480C
:1035B000FFF764FC23461946024801F035FD00BFC1
:1035C00002B010BD8D3501000080094078900100E7
:1035D0006C0A001010B582B0744601900091234629
:1035E00019460B4801F00CFD019B012B07D1009BF4
:1035F0004FF6FF72934202D10648FFF761FD234662
:103600001946034801F010FD00BF02B010BD00BF15
:10361000D53501006C0A001010B5744623461946D2
:10362000064801F0EDFC4FF6FF710120FFF7D2FFD5
:1036300023461946014801F0F7FC10BD1936010078
:1036400010B582B0744601900B468DF803301346D6
:103650008DF8023023461946104801F0D1FC9DF840
:1036600003209DF802300E495201134451F82330D3
:103670001A689DF803109DF80230094849010B446F
:1036800050F8233022F07F021A602346194603487F
:1036900001F0CAFC00BF02B010BD00BF41360100FE
:1036A0005C04001010B582B0744601900B468DF892
:1036B000033013468DF8023023461946274801F09F
:1036C0009FFC9DF802209DF8033019460198FFF7F2
:1036D000B7FF9DF80330002B1AD19DF802300A2B5A
:1036E00016D19DF803209DF802301D495201134464
:1036F00051F823301A689DF803109DF802301848DD
:1037000049010B4450F8233042F002021A601DE0D8
:103710009DF80330022B19D19DF80230082B15D1EA
:103720009DF803209DF802300D495201134451F8D1
:1037300023301A689DF803109DF8023008484901AB
:103740000B4450F8233042F002021A602346194617
:10375000024801F069FC00BF02B010BDA5360100AF
:103760005C04001010B582B0744601900B468DF8D1
:10377000033013468DF8023023461946274801F0DE
:103780003FFC9DF802209DF8033019460198FFF791
:1037900057FF9DF80330002B1AD19DF802300B2BF8
:1037A00016D19DF803209DF802301D4952011344A3
:1037B00051F823301A689DF803109DF8023018481C
:1037C00049010B4450F8233042F002021A601DE018
:1037D0009DF80330022B19D19DF80230092B15D129
:1037E0009DF803209DF802300D495201134451F811
:1037F00023301A689DF803109DF8023008484901EB
:103800000B4450F8233042F002021A602346194656
:10381000024801F009FC00BF02B010BD653701008D
:103820005C04001010B582B074460190234619461E
:10383000064801F0E5FB064A019B13602346194642
:10384000024801F0F1FB00BF02B010BD25380100B5
:103850000400001010B57446234619460A4801F0CA
:10386000CFFB0A4B1B6800225A60084B1B680022E2
:103870009A60064B1B6800221A60234619460248CC
:1038800001F0D2FB00BF10BD553801005C070010ED
:1038900010B5744623461946084801F0B1FB084BA1
:1038A0001B68002B02D0064B1B689847234619461D
:1038B000024801F0B9FB00BF10BD00BF9138010004
:1038C0003412001010B582B0744601900091234666
:1038D0001946074801F094FB064A009B13602346F3
:1038E0001946034801F0A0FB00BF02B010BD00BFA5
:1038F000C53801003412001030B585B0754601900E
:103900002B461946204801F07BFB00238DF80F3031
:103910001E4B1B685B68002B14BF01230023DBB226
:10392000002B1ED0194B1B6800229A60174B1B6896
:103930001A68164B1B6842F002021A60134B1B6890
:103940001A68124B1B6842F001021A600F4B1B6889
:103950001A680E4B1B6842F004021A6001238DF8AE
:103960000F304FF0FF33012209494FF0FF3001F0D3
:103970001FFA9DF80F402B461946034801F054FBEF
:103980002346184605B030BDF93801005C07001029
:103990009138010030B585B07546019000912B46F5
:1039A00019461F4801F02CFB009B012B01D8002475
:1039B0002DE0019B1A1D019B5B680C331B681046B0
:1039C00098470246009BB2FBF3F3013B0393019B34
:1039D0001A1D019B5B680C331B6810469847034611
:1039E000009AB3FBF2F2009901FB02F29B1A0293D8
:1039F000039BB3F1807F05D36FF07F4303936FF098
:103A00007F430293074B1B68039A5A60029C2B4624
:103A10001946034801F008FB2346184605B030BD9F
:103A2000953901005C07001030B583B07546034638
:103A30008DF807302B461946064801F0E1FA9DF84B
:103A400007402B461946034801F0EEFA2346184674
:103A500003B030BD293A010010B57446234619461B
:103A6000044801F0CDFA23461946024801F0DCFA79
:103A700000BF10BD593A010010B586B074460390DE
:103A8000029101920093234619463E4801F0B8FA8C
:103A9000039B181D039B5B6814331B68039A127AFF
:103AA000920039490A4411469847029B002B0DD1D8
:103AB0008423364A3649374802F01EFD364801F065
:103AC0006FFA00210120FCF785FFFEE7039B1A1D1A
:103AD000039B5B6810331B68104698470246029BA5
:103AE000B2FBF3F30593039B1B7A1A462B4B53F857
:103AF0002230DA68039B1B7A1946284B53F8213091
:103B000002F00102DA60039B1B7A1A46234B53F83A
:103B10002230D968059B5A00039B1B7A18461F4B1D
:103B200053F820300A43DA60039B1B7A1A461B4B7A
:103B300053F822305A68039B1B7A1946174B53F8E7
:103B4000213042F001025A60039B1B7A1946144A45
:103B5000019B42F82130039B1B7A1A46114B985661
:103B6000039B1B7A1A46104B53F82210009B01222C
:103B700001F01EF923461946024801F055FA00BF2C
:103B800006B010BD793A01004C9601004C97010037
:103B9000709601002C95010038920100600700101A
:103BA000781200105C9601006096010030B583B079
:103BB000754603468DF807302B461946064801F036
:103BC0001FFA9DF807402B461946034801F02CFACE
:103BD0002346184603B030BDAD3B010070B586B03A
:103BE00076460390029111461A460B468DF807302F
:103BF00013468DF8063033461946324801F000FA74
:103C00009DF806301846FFF7D1FF03468DF81730B0
:103C1000039B1B7A1A462C4B53F822305A699DF8A5
:103C20001730072101FA03F3DB431946039B1B7A84
:103C30001846254B53F820300A405A61039B1B7AE3
:103C40001A46214B53F822305A699DF807109DF807
:103C5000173001FA03F31946039B1B7A18461A4BD7
:103C600053F820300A435A61039B1B7A18469DF88B
:103C70001730164AA2FB03235B08DBB21946144A2D
:103C800083000B4452F823301968029B5A08039BA7
:103C90001B7A1D469DF817300C48A0FB03035B08F8
:103CA000DBB21C460A48AB00234450F823300A43D9
:103CB0001A6033461946034801F0B6F900BF06B052
:103CC00070BD00BFDD3B010060070010ABAAAAAACF
:103CD0003812001030B583B0754601902B46194656
:103CE000094801F08DF9019B1B7A1A46074B53F8DE
:103CF00022309C682B461946034801F095F923466B
:103D0000184603B030BD00BFD53C0100600700106D
:103D100010B588B0744601900091234619462D488D
:103D200001F06EF980238DF81F30009B07EE903A6A
:103D3000F8EE677ACDED067A02AB9DED060A0199A1
:103D4000184600F02DFB029B1B0A8DF81730029BD2
:103D50008DF81630049BDBB21B01DAB2039BDBB299
:103D600003F00F03DBB213438DF81530019B1B7A70
:103D70001A46194B53F8223080221A73019B1B7A82
:103D80001A46154B53F822309DF817201A71019BE3
:103D90001B7A1A46104B53F822309DF816201A70E1
:103DA000019B1B7A1A460C4B53F822309DF81520C4
:103DB00083F82820019B1B7A1A46074B53F82230C0
:103DC00003221A7323461946024801F02DF900BF59
:103DD00008B010BD113D01007007001030B585B06E
:103DE0007546019000912B461946304801F008F9BC
:103DF00007238DF80F30019B181D019B5B6814335E
:103E00001B68019A127A920029490A441146984780
:103E1000019B1869019B1B691B681B68019A127A38
:103E20001146244A525C11469847019BD868019B71
:103E3000DB681B681B68019A127A11461E4A525CA5
:103E400011469847019B1A69019B1B691B68043343
:103E50001B68022110469847019BDA68019BDB68CA
:103E60001B6804331B68022110469847009901988B
:103E7000FFF74EFF019B1B7A1A46104B53F8223076
:103E80001B7ADAB2019B1B7A19460C4B53F821308E
:103E900042F00702D2B21A7201242B461946034897
:103EA00001F0C2F82346184605B030BDDD3D0100E3
:103EB00084960100809601007C9601007007001036
:103EC00030B583B0754601902B4619460D4801F078
:103ED00097F8019B1B681B7A1A460B4B53F822304C
:103EE0001B7DDBB203F02003002B14BF0123002352
:103EF000DCB22B461946034801F096F823461846D3
:103F000003B030BDC13E0100700700102DE93048FC
:103F10008AB0754601900B468DF803302B46194642
:103F2000314801F06DF8019B1B7A1A462F4B53F86C
:103F300022309DF803201A70019B04934FF0FF3349
:103F40004FF0FF34CDE90834049B03932B46194608
:103F5000274801F055F84FF000034FF00004CDE979
:103F60000634DDE90834B4F1FF3F08BFB3F1FF3F89
:103F700006D14FF0FF334FF0FF34CDE906340BE0AC
:103F8000FCF7C0FD0A460146DDE9083413EB010BDE
:103F900044EB020CCDE906BC01230593FCF7B2FD0E
:103FA0000A460146DDE90634A24208BF994234BF01
:103FB00001230023DBB2002B08D003AB1846FFF728
:103FC0007FFF0346002BE9D0002305932B461946BB
:103FD000074801F029F82B461946034801F024F858
:103FE00000BF0AB0BDE830880D3F01007007001027
:103FF0000948010030B583B0754601902B4619463B
:104000000D4800F0FDFF019B1B681B7A1A460B4B05
:1040100053F822301B7DDBB203F00103002B14BFE9
:1040200001230023DCB22B461946034800F0FCFFB5
:104030002346184603B030BDF53F0100700700105D
:104040002DE930488CB07546019000912B461946F9
:10405000364800F0D5FFFF238DF82F30019B0493E5
:10406000009B4FF00004CDE90834049B03932B46DA
:1040700019462F4800F0C4FF4FF000034FF0000432
:10408000CDE90634DDE90834B4F1FF3F08BFB3F1F0
:10409000FF3F06D14FF0FF334FF0FF34CDE9063438
:1040A0000BE0FCF72FFD0A460146DDE9083413EB6F
:1040B000010B44EB020CCDE906BC01230593FCF790
:1040C00021FD0A460146DDE90634A24208BF9942B5
:1040D00034BF01230023DBB2002B08D003AB18460A
:1040E000FFF788FF0346002BE9D000230593059CCA
:1040F0002B4619460E4800F097FF0A940A9B002BA6
:1041000008D1019B1B7A1A460A4B53F822301B78C0
:104110008DF82F309DF82F402B461946034800F0AC
:1041200083FF234618460CB0BDE8308841400100AB
:10413000B14801007007001010B58AB074460390B2
:1041400002918DED010A23461946384800F058FFC8
:10415000039B00221A60039B00225A60039B0122EA
:104160009A6000238DF8273000230893089B0E2BBC
:1041700052DC9DF82730002B4ED1089B013307936A
:10418000079B0E2B44DC9DF82730002B40D1089B69
:1041900007EE903AF8EEE77ACDED067A079B07EE48
:1041A000903AF8EEE77ACDED057ADDED066A9DED01
:1041B000057AC6EE877AB7EE007A77EE877ACDED8C
:1041C000047ADDED047A9FED1A7A77EE877A9DED19
:1041D000017AB4EEE77AF1EE10FA15D8DDED047A43
:1041E0009FED137A77EEC77A9DED017AB4EEE77A08
:1041F000F1EE10FA08DB089A039B5A60079A039BBA
:104200009A6001238DF82730079B01330793B7E7A6
:10421000089B01330893A9E700BF234619460348CA
:1042200000F002FF00BF03980AB010BD3941010041
:10423000CDCC4C3D10B52DED028B86B0744603906D
:104240008DED020ACDED010A23461946154800F00E
:10425000D7FE039B1A1D039B5B6810331B68104637
:10426000984707EE900AF8EE677ACDED057ADDED16
:10427000027AB3EE007A27EE877ADDED017A67EEF7
:10428000277A9DED057A87EE278A23461946054849
:1042900000F0CAFEF0EE487AB0EE670A06B0BDEC58
:1042A000028B10BD3542010010B52DED028B86B09A
:1042B000744603908DED020ACDED010A234619469E
:1042C000154800F09DFE039B1A1D039B5B6810338D
:1042D0001B681046984707EE900AF8EE677ACDED16
:1042E000057ADDED027AB3EE007A27EE877ADDED0E
:1042F000017A67EE277A9DED057A87EE278A2346B5
:104300001946054800F090FEF0EE487AB0EE670AD4
:1043100006B0BDEC028B10BDA942010030B587B0DC
:10432000754601908DED000A2B461946194800F09C
:1043300067FE00238DF817309DED000A03F0DAFBCD
:104340008DED040A9DED007ADDED047A77EE677A53
:10435000CDED037ADDED037A9FED0F7AF4EEC77AA7
:10436000F1EE10FA0BDBDDED037A9FED0C7AF4EE43
:10437000C77AF1EE10FA02D801238DF817309DF8B4
:1043800017402B461946034800F04EFE23461846B8
:1043900007B030BD1D430100CDCC4CBDCDCC4C3D54
:1043A00030B58FB07546079006918DED050A2B4606
:1043B0001946744800F024FE00230D93079B002249
:1043C0001A60079B00225A60079B01229A604FF0F7
:1043D00000030C934FF07F530B934FF07E530A93DF
:1043E0004FF0804309930D9B042B00F0C1800D9B7F
:1043F000042B00F2BB8001A252F823F0114401000B
:104400006D440100CD4401003D4501006D450100B2
:10441000F7EE000A9DED050A0698FFF70BFF8DEDFC
:104420000C0ADDED0C7AB7EE007AF4EEC77AF1EE05
:1044300010FA05D5079B00221A6004230D9396E01D
:104440009DED0C0A0698FFF769FF0346002B0AD082
:10445000DDED0C7AFCEEE77A17EE902A079B1A60E6
:1044600004230D9383E001230D9380E0DDED0B0A1F
:104470009DED050A0698FFF7DDFEF0EE407AB0EEFE
:10448000670A03F037FB8DED0C0ADDED0C0A9DED9C
:10449000050A0698FFF708FF8DED0B0ADDED0B7A94
:1044A0009FED397AF4EEC77AF1EE10FA0BDBDDED11
:1044B0000B7A9FED367AF4EEC77AF1EE10FA02D855
:1044C00003230D9353E002230D9350E0DDED097AB1
:1044D000B7EE007A77EE877ACDED097ADDED0A7ACC
:1044E000B2EE0E7AF4EEC77AF1EE10FA02DD042392
:1044F0000D933CE0DDED097AB2EE0E7AF4EEC77A68
:10450000F1EE10FA0FDDDDED0A7AB7EE007A77EE04
:10451000877ACDED0A7ADDED0A7AB7EE007A77EE8A
:10452000877ACDED097ADDED0A6A9DED097AC6EE4E
:10453000877ACDED0B7A01230D9318E0079C6B462B
:104540009DED0B0A06991846FFF7F6FD6B4693E8BA
:10455000070084E80700DDED0C7AFCEEE77A17EE41
:10456000902A079B1A6004230D9300E000BF3AE7EE
:1045700000BF2B461946034800F056FD00BF0798C0
:104580000FB030BDA1430100CDCC8C3F3333F33F9E
:1045900038B575462B4619460A4800F031FD0A4BDE
:1045A0001B7A1A46094B53F822309C682B46194651
:1045B000044800F039FD23464FF000041846214618
:1045C00038BD00BFD53C0100E007001060070010B7
:1045D00038B575462B4619460A4800F011FD0A4BBE
:1045E0001B7A1A46094B53F822309C682B46194611
:1045F000044800F019FD23464FF0000418462146F8
:1046000038BD00BFD53C0100E00700106007001076
:1046100000B583B04FF47A712248FFF7BBF9214807
:10462000FFF76AF903468DF807309DF8073083F0ED
:104630000103DBB2002B05D0AD231B4A1B491C48EC
:1046400001F05AFF30211B48FCF74AFF0346002BBC
:1046500014BF01230023DBB2002B01D000BFF1E720
:1046600001211448FCF784FFFFF7F4F84FF47A7146
:104670000C48FFF78FF90B48FFF73EF94FF0FF3377
:104680000D4A0E490E48FFF7F7F90E48FFF7CAF832
:104690004FF416410C48FFF7A1FB00BF03B05DF8D3
:1046A00004FB00BFD40700108C9701009496010012
:1046B000EC950100DC070010593A010040420F0060
:1046C000E007001091450100C007001008B5FBF796
:1046D0001DFDFBF763FDFBF791FD03F013FCFFF7F6
:1046E00097FF00BF08BDFFFF80B584B000AF094B46
:1046F000FB60FB683B603B6883F30988FB687B6079
:104700007B6883F30888FFF7E1FFFEF755FEB8608A
:10471000FEE700BF0000011010B57446234619469D
:104720000A4800F06DFC0020FFF77EF903461A46A8
:10473000074B53F82230984700F00EF923461946EC
:10474000024800F071FC00BF10BD00BF1947010016
:104750007812001010B57446234619460A4800F036
:104760004FFC0120FFF760F903461A46074B53F848
:104770002230984700F040F923461946024800F0DD
:1047800053FC00BF10BD00BF554701007812001058
:1047900010B57446234619460A4800F031FC022041
:1047A000FFF742F903461A46074B53F82230984761
:1047B00000F072F923461946024800F035FC00BFAC
:1047C00010BD00BF914701007812001010B574466B
:1047D000234619460A4800F013FC0320FFF724F98A
:1047E00003461A46074B53F82230984700F0A4F9C5
:1047F00023461946024800F017FC00BF10BD00BF59
:10480000CD470100781200102DE9304888B0754678
:10481000CDE9020101922B461946244800F0F0FB35
:104820004FF000034FF00004CDE90634DDE9023417
:10483000B4F1FF3F08BFB3F1FF3F06D14FF0FF33A4
:104840004FF0FF34CDE906340BE0FCF75BF90A4684
:104850000146DDE9023413EB010B44EB020CCDE918
:1048600006BC01230593FCF74DF90A460146DDE934
:104870000634A24208BF994234BF01230023DBB2B1
:10488000002B08D001AB1846FFF71AFB0346002B9C
:10489000E9D000230593059C2B461946034800F0F8
:1048A000C3FB2346184608B0BDE83088094801001C
:1048B0002DE9304888B07546CDE9020101922B46BA
:1048C0001946244800F09CFB4FF000034FF0000411
:1048D000CDE90634DDE90234B4F1FF3F08BFB3F19E
:1048E000FF3F06D14FF0FF334FF0FF34CDE90634E0
:1048F0000BE0FCF707F90A460146DDE9023413EB49
:10490000010B44EB020CCDE906BC01230593FCF737
:10491000F9F80A460146DDE90634A24208BF994289
:1049200034BF01230023DBB2002B08D001AB1846B3
:10493000FFF760FB0346002BE9D000230593059C9D
:104940002B461946034800F06FFB2346184608B073
:10495000BDE83088B148010010B582B074462346E6
:104960001946234800F04CFB00238DF807309DF8D2
:104970000730204A52F823301A689DF807301D4945
:1049800051F8233042F001021A609DF80730194AAD
:1049900052F823301A689DF80730164951F8233031
:1049A00042F002021A609DF80730124A52F8233092
:1049B0001A689DF807300F4951F8233042F004027D
:1049C0001A609DF807300B4A52F823301A689DF898
:1049D0000730084951F8233042F008021A60234694
:1049E0001946034800F020FB00BF02B010BD00BF15
:1049F000594901006007001010B582B07446234683
:104A00001946234800F0FCFA01238DF807309DF881
:104A10000730204A52F823301A689DF807301D49A4
:104A200051F8233042F001021A609DF80730194A0C
:104A300052F823301A689DF80730164951F8233090
:104A400042F002021A609DF80730124A52F82330F1
:104A50001A689DF807300F4951F8233042F00402DC
:104A60001A609DF807300B4A52F823301A689DF8F7
:104A70000730084951F8233042F008021A602346F3
:104A80001946034800F0D0FA00BF02B010BD00BFC5
:104A9000F94901006007001010B582B07446234642
:104AA0001946234800F0ACFA02238DF807309DF830
:104AB0000730204A52F823301A689DF807301D4904
:104AC00051F8233042F001021A609DF80730194A6C
:104AD00052F823301A689DF80730164951F82330F0
:104AE00042F002021A609DF80730124A52F8233051
:104AF0001A689DF807300F4951F8233042F004023C
:104B00001A609DF807300B4A52F823301A689DF856
:104B10000730084951F8233042F008021A60234652
:104B20001946034800F080FA00BF02B010BD00BF74
:104B3000994A01006007001010B582B07446234600
:104B40001946234800F05CFA03238DF807309DF8DE
:104B50000730204A52F823301A689DF807301D4963
:104B600051F8233042F001021A609DF80730194ACB
:104B700052F823301A689DF80730164951F823304F
:104B800042F002021A609DF80730124A52F82330B0
:104B90001A689DF807300F4951F8233042F004029B
:104BA0001A609DF807300B4A52F823301A689DF8B6
:104BB0000730084951F8233042F008021A602346B2
:104BC0001946034800F030FA00BF02B010BD00BF24
:104BD000394B01006007001082B001900091019BE9
:104BE000012B5DD1009B4FF6FF72934258D12E4BA3
:104BF0001B6803F00103002B52D12B4B01221A60DA
:104C00002A4B1B6818332A4A1360284B1B681C3335
:104C1000274A5360254B1B682033254A9360234B5A
:104C20001B682433224AD360204B5B681833204A28
:104C300013611E4B5B681C331D4A53611B4B5B6841
:104C400020331B4A9361194B5B682433184AD361A4
:104C5000164B9B681833164A1362144B9B681C331F
:104C6000134A5362114B9B682033114A93620F4BD6
:104C70009B6824330E4AD3620C4BDB6818330C4A12
:104C800013630A4BDB681C33094A5363074BDB6829
:104C90002033074A9363054BDB682433044AD3630C
:104CA00000BF02B0704700BF8812001060070010FC
:104CB0003812001008B54FF6FF710120FFF78CFF86
:104CC00008BDFFFF82B003468DF807309DF907301D
:104CD00003F01F0205499DF907305B09012000FA26
:104CE00002F241F8232000BF02B0704700E100E06B
:104CF00082B0034600918DF807309DF90730002BF4
:104D00000CDA009BDAB20D499DF9073003F00F036E
:104D1000043B5201D2B20B441A760BE0009BDBB28B
:104D2000074A9DF9071008465B01D9B213180A46D5
:104D300083F8002300BF02B0704700BF00ED00E021
:104D400000E100E000B585B0124B5B688DF80F30D4
:104D50009DF80F30104A52F823300293029B0F4AFD
:104D6000934210D19DF80F300093DD230C4A0D497A
:104D70000D4801F0C1FB0D4800F012F9002101209F
:104D8000FBF728FEFEE7029B984700BF05B05DF8E1
:104D900004FB00BF00ED00E0EC070010454D0100F2
:104DA000089A0100F89901009C98010048990100B7
:104DB00000B585B00291019303468DF80F3013467C
:104DC0008DF80E309DF90F3010330F49029A41F8DB
:104DD00023209DF80E30002B08D09DF90F30002BBA
:104DE00004DB9DF90F301846FFF76CFF019B002B89
:104DF00006DB019A9DF90F3011461846FFF778FF40
:104E000000BF05B05DF804FBEC07001000B58DB0E5
:104E10000390039B1B680B93039B5B680A93039BA4
:104E20009B680993039BDB680893039B1B690793AB
:104E3000039B5B690693039B9B690593039BDB695B
:104E400004930D4801F058FB0B990A9A0998089BA6
:104E500000930346094801F04FFB0799069A05980D
:104E6000049B00930346064801F046FB059B194648
:104E70000120FBF7AFFDFEE7609901008C9901006E
:104E8000C099010030B583B0754601902B46194694
:104E9000094800F0B5F8019BDBB219460748FFF757
:104EA00035F801242B461946034800F0BDF8234687
:104EB000184603B030BD00BF854E0100C00700108A
:104EC00000B583B0734601901946024800F098F887
:104ED00000BFFDE7C14E010038B575462B461946A7
:104EE000054800F08DF801242B461946024800F0D1
:104EF0009BF82346184638BDD94E010030B583B023
:104F00007546019000912B461946074800F078F845
:104F10004FF0FF342B461946034800F085F823462E
:104F2000184603B030BD00BFFD4E010010B582B081
:104F3000744603468DF8073023461946084800F0AA
:104F40005FF8084B1B689DF80720104698472346DA
:104F50001946034800F068F800BF02B010BD00BF5A
:104F60002D4F0100D008001030B583B07446019079
:104F700023461946084800F043F8084B1B6801987F
:104F80009847054623461946034800F04DF82B463E
:104F9000184603B030BD00BF694F0100D0080010B3
:104FA00030B585B0754601902B461946124800F081
:104FB00027F800230393039B019A13441B78002BCB
:104FC0000BD00E4B1B68039A01990A4412781046C5
:104FD0009847039B01330393EDE7084B1B680A20B6
:104FE0009847039C2B461946034800F01DF82346BA
:104FF000184605B030BD00BFA14F0100D008001019
:1050000082B001900091009A054B1B68591C04481E
:105010000160044941F8232000BF02B0704700BF7F
:105020008C1300108C12001082B001900091044B80
:105030001B68013B024A136000BF02B0704700BF0B
:105040008C13001038B575462B4619460548FFF7F6
:10505000D7FF054C2B4619460248FFF7E5FF2346CC
:10506000184638BD455001008C12001038B5754601
:105070002B4619460648FFF7C3FF064B1C682B4614
:1050800019460348FFF7D0FF2346184638BD00BF36
:105090006D5001008C13001010B584B0294B1B68B3
:1050A000002B03D0284B01221A6047E0264B002238
:1050B0001A60FFF78DFA03460C461A46234B1A6016
:1050C000224B1A68224B1B689A4209D9214B1B6854
:1050D000596D1E4A10681E4A1268821A0A445A659F
:1050E0001A4B1B681A4A13601B4B1B680193019BE8
:1050F000B3FA83F38DF803309DF80330C3F11F0337
:105100000393039A13469B0013449B00134A1344D2
:105110000293029B5B685A68029B5A60029B5A6822
:10512000029B08339A4204D1029B5B685A68029B37
:105130005A60029B5B68DB68064A136000BF04B0DC
:1051400010BD00BF00140010FC1300100814001064
:105150000414001090130010F813001094130010A2
:10516000074B19680868B0E8F04F80F30988BFF36F
:105170006F8F4FF0000080F311887047AFF300800D
:105180009013001000BF00BFFFFFFFFFFFFFFFFFF6
:10519000EFF30980BFF36F8F154B1A681EF0100FE5
:1051A00008BF20ED108A20E9F04F10602DE90900BA
:1051B0004FF0280080F31188BFF34F8FBFF36F8F3C
:1051C000FFF76AFF4FF0000080F3118809BC1968EF
:1051D0000868B0E8F04F1EF0100F08BFB0EC108A5E
:1051E00080F30988BFF36F8F704700BFAFF3008073
:1051F0009013001000BF00BF10B584B07446029138
:105200000192009303468DF80F30234619460A4851
:10521000FFF7F6FE019A009B9A4205D2029A019B83
:1052200013449DF80F201A70234619460248FFF7D1
:10523000FBFE00BF04B010BDF951010010B584B0F1
:10524000744602910192009303468DF80F30234675
:1052500019460548FFF7D4FE234619460248FFF7D2
:10526000E3FE00BF04B010BD3D52010010B584B094
:10527000744602910192009303468DF80F30234645
:1052800019460A48FFF7BCFE9DF80F30002B04D0EA
:105290009DF80F301846FFF749FE2346194603488C
:1052A000FFF7C2FE00BF04B010BD00BF6D52010089
:1052B00030B585B074460190234619460C48FFF777
:1052C0009FFE019B0393039B1B78002B03D0039B42
:1052D00001330393F7E7039A019BD31A1D46234634
:1052E00019460348FFF7A0FE2B46184605B030BD0F
:1052F000B152010030B583B0754603468DF80730D2
:105300002B4619460B48FFF77BFE9DF807302F2BE5
:1053100005D99DF80730392B01D8012400E000247D
:105320002B4619460348FFF77FFE2346184603B075
:1053300030BD00BFF552010030B585B07546019013
:105340002B4619461348FFF75BFE00230393019B8E
:105350001B681B781846FFF7CDFF0346002B0FD0C4
:10536000039A13469B0013445B001846019B1B687D
:10537000591C019A11601B780344303B0393E6E704
:10538000039C2B4619460348FFF74EFE234618465A
:1053900005B030BD3953010030B589B07546039072
:1053A0000291019200932B4619469148FFF728FE7F
:1053B000019B0593129B03F00203002B0ED10D9A63
:1053C000109B9A420AD20D9B1F2B07D80D9B5A1C8B
:1053D0000D920C9A134430221A70EBE7129B03F0E3
:1053E0000203002B13D1129B03F00103002B0ED0FC
:1053F0000D9A119B9A420AD20D9B1F2B07D80D9B29
:105400005A1C0D920C9A134430221A70E6E7129B34
:1054100003F01003002B58D0129B03F48063002B81
:1054200016D10D9B002B13D00D9A109B9A4203D0DE
:105430000D9A119B9A420BD10D9B013B0D930D9B35
:10544000002B05D00F9B102B02D10D9B013B0D9320
:105450000F9B102B0FD1129B03F02003002B0AD1BE
:105460000D9B1F2B07D80D9B5A1C0D920C9A1344B1
:1054700078221A701FE00F9B102B0FD1129B03F0A4
:105480002003002B0AD00D9B1F2B07D80D9B5A1C05
:105490000D920C9A134458221A700CE00F9B022BA9
:1054A00009D10D9B1F2B06D80D9B5A1C0D920C9AEF
:1054B000134462221A700D9B1F2B06D80D9B5A1C99
:1054C0000D920C9A134430221A700D9B002B14D0AD
:1054D0000D9A119B9A4210D19DF83830002B09D1BA
:1054E000129B03F00403002B04D1129B03F008036A
:1054F000002B02D00D9B013B0D930D9B1F2B24D83D
:105500009DF83830002B07D00D9B5A1C0D920C9A39
:1055100013442D221A7018E0129B03F00403002B91
:1055200007D00D9B5A1C0D920C9A13442B221A7013
:105530000BE0129B03F00803002B06D00D9B5A1CB6
:105540000D920C9A134420221A70129B03F002034E
:10555000002B16D1129B03F00103002B11D10D9BE0
:105560000793079A119B9A420BD2019A531C0193FD
:10557000039C009B02992020A047079B01330793BF
:10558000EFE700230693069A0D9B9A4211D20D9ADB
:10559000069BD31A013B0C9A13441878019A531CAA
:1055A0000193039C009B0299A047069B013306933D
:1055B000E9E7129B03F00203002B0ED0019A059B32
:1055C000D31A119A9A4208D9019A531C0193039C49
:1055D000009B02992020A047F0E7019C2B4619462A
:1055E0000348FFF721FD2346184609B030BD00BF30
:1055F0009953010030B597B074460B900A91099207
:105600000893234619463348FFF7FAFC0023159305
:105610001A9B002B03D11F9B23F010031F931F9B8A
:1056200003F48063002B02D01A9B002B33D01A9B0B
:105630001C9AB3FBF2F21C9901FB02F29B1A8DF843
:1056400053309DF85330092B04D89DF85330303334
:10565000DAB20DE01F9B03F02003002B01D04122A2
:1056600000E061229DF853301344DBB20A3BDAB20A
:10567000159B591C159116A90B4403F8282C1A9A4E
:105680001C9BB2FBF3F31A931A9B002B03D0159BC0
:105690001F2B00D8CBE71F9B06931E9B05931D9BDA
:1056A00004931C9B03939DF86C300293159B01930C
:1056B0000CAB0093089B099A0A990B98FFF76CFEB4
:1056C0000546234619460348FFF7AEFC2B4618460D
:1056D00017B030BDF555010030B597B075460B9049
:1056E0000A91099208932B4619463748FFF788FC20
:1056F00000231593DDE91A34234303D1229B23F0C1
:1057000010032293229B03F48063002B03D0DDE976
:105710001A34234339D0DDE91A01DDE91E2302F0F2
:1057200069FA1C4613468DF853309DF85330092B07
:1057300004D89DF853303033DAB20DE0229B03F0E9
:105740002003002B01D0412200E061229DF853305C
:105750001344DBB20A3BDAB2159B591C159116A90A
:105760000B4403F8282CDDE91E23DDE91A0102F0C1
:1057700041FA03460C46CDE91A34DDE91A342343D5
:1057800003D0159B1F2B00D8C5E71E9B229A0692BB
:10579000219A0592209A049203939DF87030029307
:1057A000159B01930CAB0093089B099A0A990B98DF
:1057B000FFF7F2FD04462B4619460348FFF734FC79
:1057C0002346184617B030BDD956010030B59BB0FE
:1057D000754605900491039202938DED000B2B46C4
:1057E0001946B748FFF70CFC039B1193DDE9000154
:1057F00002F0B0F903461993002318934FF0000309
:1058000010934FF09E430F9300238DF85F30DDED32
:10581000197AF5EEC07AF1EE10FA0AD501238DF867
:105820005F309FEDA87ADDED197A77EE677ACDEDDE
:10583000197A209B03F48063002B01D106231E9369
:10584000189B1F2B0ED81E9B092B0BD9189B5A1C7B
:1058500018921AAA1344302203F8502C1E9B013BC5
:105860001E93EDE7DDED197AFDEEE77A17EE903A3B
:105870001693169B07EE903AF8EEE77A9DED197AAB
:1058800037EE677A904A1E9B9B001344D3ED007A53
:1058900067EE277ACDED0E7ADDED0E7AFCEEE77A33
:1058A00017EE903A1593159B07EE903AF8EE677A4B
:1058B0009DED0E7A77EE677ACDED107ADDED107AF8
:1058C000B6EE007AF4EEC77AF1EE10FA18DD159B09
:1058D00001331593159B07EE903AB8EE677A7A4A32
:1058E0001E9B9B001344D3ED007AB4EEE77AF1EEF1
:1058F00010FA19DB00231593169B0133169313E05E
:10590000DDED107AB6EE007AF4EE477AF1EE10FA99
:105910000AD1159B002B04D0159B03F00103002B2B
:1059200002D0159B01331593DDED197A9FED677A4F
:10593000F4EEC77AF1EE10FA01DD002456E11E9B69
:10594000002B29D1169B07EE903AF8EEE77A9DEDF1
:10595000197A77EE677ACDED107ADDED107AB6EE32
:10596000007AF4EEC77AF1EE10FA03DD169B0133EC
:1059700016935FE0DDED107AB6EE007AF4EE477A2A
:10598000F1EE10FA56D1169B03F00103002B51D013
:10599000169B013316934DE01E9B1493189B1F2BEF
:1059A00027D8149B013B14931599494BA3FB012362
:1059B000DA0813469B0013445B00CA1AD3B2303393
:1059C000D9B2189B5A1C18921AAA13440A4603F813
:1059D000502C159B3E4AA2FB0323DB081593159B15
:1059E000002B0CBF01230023DBB2002B00D1D5E735
:1059F00000BF189B1F2B06D8149B5A1E1492002B15
:105A000001D0012300E00023002B08D0189B5A1C72
:105A100018921AAA1344302203F8502CE9E7189B75
:105A20001F2B07D8189B5A1C18921AAA13442E220F
:105A300003F8502C189B1F2B28D8169A254B83FB54
:105A400002139910D317C91A0B469B000B445B0035
:105A5000D11ACBB23033D9B2189B5A1C18921AAA59
:105A600013440A4603F8502C169B1A4A82FB031271
:105A70009210DB17D31A1693169B002B0CBF012331
:105A80000023DBB2002B00D1D4E700BF209B03F042
:105A90000203002B20D1209B03F00103002B1BD01D
:105AA000189A1F9B9A4217D2189B1F2B14D8189B29
:105AB0005A1C18921AAA1344302203F8502CE5E716
:105AC000CD57010000000000289A01000000004F9F
:105AD000CDCCCCCC67666666189A1F9B9A4210D1D3
