:020000021000EC
:1000000000000110194D0100755301001902010093
:10001000755301007553010075530100FA62F7EF43
:100020000000000000000000000000005169010015
:100030007553010000000000516A01007553010072
:10004000755301007553010075530100755301008C
:10005000755301007553010075530100755301007C
:10006000755301007553010075530100755301006C
:100070007553010000000000755301007553010025
:10008000755301007553010075530100755301004C
:10009000755301007553010075530100755301003C
:1000A000755301007553010075530100755301002C
:1000B000755301007553010075530100755301001C
:1000C000755301007553010075530100755301000C
:1000D00075530100755301007553010075530100FC
:1000E0007553010044C70100000000104C090000D6
:1000F00044C701000000002000000000500900106B
:10010000800D0000000000200000000086B00023E9
:100110000593059A13465B0013449B001D4A134444
:100120001D4A934233D21B49059A13465B00134480
:100130009B000B441B6803931649059A13465B000A
:1001400013449B000B445B6802931249059A1346C3
:100150005B0013449B000B4408331B68019300238E
:100160000493049A019B9A420DD2049B9B00039A2C
:100170001A44049B9B0002990B4412681A60049B6A
:1001800001330493EDE7059B01330593C1E700BFFD
:1001900006B07047E4000100FC00010084B00023B9
:1001A0000393039BDB00134A1344134A93421ED26A
:1001B000104A039B52F8333001930E4A039BDB0035
:1001C00013445B68009300230293029A009B9A42B7
:1001D00009D2029B9B00019A134400221A60029BE1
:1001E00001330293F1E7039B01330393D9E700BF87
:1001F00004B07047FC0001000C010100DFF814009E
:10020000016841F470010160BFF34F8FBFF36F8F3E
:1002100000BF704788ED00E01EF0040F0CBFEFF345
:100220000880EFF309808169004A10473D540100BE
:1002300000BF7047FFFFFFFFFFFFFFFFFFFFFFFF54
:10024000FFFFFFFFFFFFFFFFFFFFFFFFFFFFFFFFBE
:10025000FFFFFFFFFFFFFFFFFFFFFFFFFFFFFFFFAE
:10026000FFFFFFFFFFFFFFFFFFFFFFFFFFFFFFFF9E
:10027000FFFFFFFFFFFFFFFFFFFFFFFFFFFFFFFF8E
:10028000FFFFFFFFFFFFFFFFFFFFFFFFFFFFFFFF7E
:10029000FFFFFFFFFFFFFFFFFFFFFFFFFFFFFFFF6E
:1002A000FFFFFFFFFFFFFFFFFFFFFFFFFFFFFFFF5E
:1002B000FFFFFFFFFFFFFFFFFFFFFFFFFFFFFFFF4E
:1002C000FFFFFFFFFFFFFFFFFFFFFFFFFFFFFFFF3E
:1002D000FFFFFFFFFFFFFFFFFFFFFFFFFFFFFFFF2E
:1002E000FFFFFFFFFFFFFFFFFFFFFFFFFFFFFFFF1E
:1002F000FFFFFFFFFFFFFFFFFFFFFFFFFFFFFFFF0E
:10030000F8B500BFF8BC08BC9E4670475103010019
:100310002D3901003D3A0100E5520100F993010039
:10032000F8B500BFF8BC08BC9E46704710B5054C38
:10033000237833B9044B13B10448AFF30080012391
:10034000237010BD500900100000000044C70100D8
:1003500008B5034B1BB103490348AFF3008008BD48
:10036000000000005409001044C7010030B583B0FC
:10037000754601902B461946074805F085F9074A4E
:10038000019B1A60019C2B461946034805F090F921
:100390002346184603B030BD6D030100A4A301003D
:1003A00030B583B0754601900B468DF80330134687
:1003B0008DF802302B4619460D4805F065F9019B72
:1003C0001846FFF7D3FF0B4A019B1A60019B9DF86B
:1003D00003201A71019B9DF802205A71019C2B4643
:1003E0001946034805F064F92346184603B030BDAA
:1003F000A103010068A30100F0B585B07746039022
:100400000B468DF80B303B461946174805F03CF972
:10041000164B1B68039A12791046039A52791146BB
:1004200042010A4453F822109DF80B3003F00702F2
:100430000E4B1C68039B1B791E46039B5B791D4674
:100440000323009313460022039800F067FA024644
:1004500073012B4444F823203B461946024805F01B
:1004600027F900BF05B0F0BDF9030100000000103E
:10047000F0B587B0774603900B468DF80B303B46BE
:100480001946194805F000F99DF80B308DF8173022
:10049000164B1B68039A12791046039A527911463B
:1004A00042010A4453F822109DF8173003F003026A
:1004B0000E4B1C68039B1B791E46039B5B791D46F4
:1004C0000223009313460322039800F027FA024602
:1004D00073012B4444F823203B461946024805F09B
:1004E000E7F800BF07B0F0BD710401000000001084
:1004F000F0B585B0774603900B468DF80B303B4640
:100500001946164805F0C0F8154B1B68039A127976
:100510001046039A5279114642010A4453F82210B8
:100520009DF80B200E4B1C68039B1B791E46039BFA
:100530005B791D460123009313460522039800F0C2
:10054000EDF9024673012B4444F823203B4619463B
:10055000024805F0ADF800BF05B0F0BDF1040100A0
:1005600000000010F0B585B0774603900B468DF87B
:100570000B303B461946164805F086F8154B1B68AC
:10058000039A12791046039A5279114642010A449D
:1005900053F822109DF80B200E4B1C68039B1B790F
:1005A0001E46039B5B791D460123009313460622DA
:1005B000039800F0B3F9024673012B4444F823205A
:1005C0003B461946024805F073F800BF05B0F0BD80
:1005D0006505010000000010F0B585B07746039076
:1005E0000B468DF80B303B461946184805F04CF881
:1005F000174B1B68039A12791046039A52791146D9
:1006000042010A4453F822109DF80B3083F0010395
:10061000DBB21A460E4B1C68039B1B791E46039BDC
:100620005B791D460123009313460722039800F0CF
:1006300075F9024673012B4444F823203B461946C2
:10064000024805F035F800BF05B0F0BDD90501003E
:1006500000000010F0B585B0774603900B468DF88A
:100660000B303B461946184805F00EF8174B1B682F
:10067000039A12791046039A5279114642010A44AC
:1006800053F822109DF80B3083F00103DBB21A46B9
:100690000E4B1C68039B1B791E46039B5B791D4612
:1006A0000123009313460822039800F037F902460D
:1006B00073012B4444F823203B461946024804F0BA
:1006C000F7FF00BF05B0F0BD5506010000000010A7
:1006D000F0B585B0774603900B468DF80B303B465E
:1006E0001946164804F0D0FF154B1B68039A12797F
:1006F0001046039A5279114642010A4453F82210D7
:100700009DF80B200E4B1C68039B1B791E46039B18
:100710005B791D460123009313460922039800F0DC
:10072000FDF8024673012B4444F823203B4619464A
:10073000024804F0BDFF00BF05B0F0BDD1060100C6
:1007400000000010F0B585B0774603900B468DF899
:100750000B303B461946184804F096FF174B1B68B0
:10076000039A12791046039A5279114642010A44BB
:1007700053F822109DF80B3083F00103DBB21A46C8
:100780000E4B1C68039B1B791E46039B5B791D4621
:100790000123009313460822039800F0BFF8024695
:1007A00073012B4444F823203B461946024804F0C9
:1007B0007FFF00BF05B0F0BD45070100000000103D
:1007C000F0B585B0774603900B468DF80B303B466D
:1007D0001946164804F058FF154B1B68039A127906
:1007E0001046039A5279114642010A4453F82210E6
:1007F0009DF80B200E4B1C68039B1B791E46039B28
:100800005B791D460123009313460922039800F0EB
:1008100085F8024673012B4444F823203B461946D1
:10082000024804F045FF00BF05B0F0BDC10701005C
:1008300000000010F0B585B0774603900B468DF8A8
:100840000B303B461946164804F01EFF154B1B683B
:10085000039A12791046039A5279114642010A44CA
:1008600053F822109DF80B200E4B1C68039B1B793C
:100870001E46039B5B791D460123009313460A2203
:10088000039800F04BF8024673012B4444F82320F0
:100890003B461946024804F00BFF00BF05B0F0BD0F
:1008A0003508010000000010F0B585B077460390D0
:1008B0000B468DF80B303B461946164804F0E4FE13
:1008C000154B1B68039A12791046039A5279114608
:1008D00042010A4453F822109DF80B200E4B1C686D
:1008E000039B1B791E46039B5B791D4601230093E6
:1008F00013461022039800F011F8024673012B44AE
:1009000044F823203B461946024804F0D1FE00BFBC
:1009100005B0F0BDA90801000000001030B587B097
:10092000754603900291019200932B461946134895
:1009300004F0AAFE0A9BC3F120034FF0FF3222FA13
:1009400003F30593059A019B02FA03F3DB43029A32
:1009500013400293009A059B1A40019B02FA03F38D
:10096000029A13430293029C2B461946034804F053
:100970009FFE2346184607B030BD00BF1D09010089
:1009800030B583B0754601902B461946064804F0F1
:100990007BFE019B1C792B461946034804F088FE18
:1009A0002346184603B030BD8109010030B583B03D
:1009B000754601902B461946064804F065FE019BDA
:1009C0005C792B461946034804F072FE234618460C
:1009D00003B030BDAD09010000B58BB003460091F6
:1009E0008DF8073004F086FE03461946314807F0BB
:1009F0002FFA04F06BFE079004F07CFE06900023B3
:100A00000993069B013B099A9A420DD2099B9B00D0
:100A1000079A13441B681A460999274807F018FAE1
:100A2000099B01330993ECE7009B002B06D0069B42
:100A3000013B009A1946204807F00AFA9DF8073052
:100A4000002B33D01D4A03AB07CA83E807001C48BC
:100A500004F0EAFD03AB19461A4807F0F9F9002340
:100A60000893069B013B089A9A4212D2089B002BDE
:100A700002D0202004F0BCFD089B9B00079A134481
:100A80001B681946104807F0E3F9089B01330893E7
:100A9000E7E7009B002B03D000990C4807F0D8F93A
:100AA0000B4804F0C1FD0B4804F0BEFD00BF0BB0C5
:100AB0005DF804FBE89A0100FC9A0100D89B010054
:100AC0000C9B0100449B01006C9B0100749B010086
:100AD0007C9B0100849B010070B576463346194625
:100AE000074804F0D1FD074BD3E9004533461946CA
:100AF000034804F0DDFD23462C461846214670BD10
:100B0000D90A01007009001070B5744623461946D1
:100B10000C4804F0B9FD0C4B1B6898474FF47A72EF
:100B20004FF0000308F012FD02460B4615461E4624
:100B300023461946034804F0BBFD2B4634461846AD
:100B4000214670BD090B01000400001030B583B0D0
:100B5000754601902B461946074804F095FD074A53
:100B6000019B1A60019C2B461946034804F0A0FD26
:100B70002346184603B030BD4D0B010020A30100F1
:100B800030B583B0754601900B468DF8033013469F
:100B90008DF802302B461946164804F075FD019B6E
:100BA0001846FFF7D3FF144A019B1A60019B0022ED
:100BB0001A71019B03F10C02019B9A60019B0C339B
:100BC0009DF802209DF803101846FFF7E9FB9DF8F9
:100BD0000330022B01D1012200E00022019B1A7197
:100BE000019C2B461946034804F062FD2346184633
:100BF00003B030BD810B0100D8A2010030B583B035
:100C0000754601902B461946194804F03DFD019B9D
:100C10009A68019B9B681B681B68002110469847D7
:100C2000019B9A68019B9B681B6830331B681046C8
:100C3000984703461A4601239340DC43019B9A6878
:100C4000019B9B681B682C331B6810469847034622
:100C50001A46084B53F822301A6821460A401A6097
:100C60002B461946024804F023FD00BF03B030BDF7
:100C7000FD0B01000800001030B583B075460190EF
:100C80002B461946194804F0FFFC019B9A68019B0A
:100C90009B681B681B68002110469847019B9A6857
:100CA000019B9B681B6830331B68104698470346BE
:100CB0001A46012303FA02F4019B9A68019B9B6880
:100CC0001B682C331B681046984703461A46084B8E
:100CD00053F822301A6821460A431A602B461946F7
:100CE000024804F0E5FC00BF03B030BD790C010000
:100CF0000800001010B582B0744601900B468DF8C4
:100D00000330234619460B4804F0BEFC9DF803301F
:100D1000002B03D00198FFF7AFFF02E00198FFF727
:100D20006DFF23461946034804F0C2FC00BF02B021
:100D300010BD00BFF50C010030B583B075460190C1
:100D40002B461946134804F09FFC019B9A68019BAF
:100D50009B681B6830331B681046984703461A4649
:100D6000012393401C46019B9A68019B9B681B686A
:100D70002C331B681046984703461A46064B53F817
:100D800022309C612B461946024804F091FC00BFBA
:100D900003B030BD390D01000800001030B583B03C
:100DA000754601902B461946134804F06DFC019BD3
:100DB0009A68019B9B681B6830331B6810469847F4
:100DC00003461A46012393401C46019B9A68019BE7
:100DD0009B681B682C331B681046984703461A46CD
:100DE000064B53F82230DC612B461946024804F0CA
:100DF0005FFC00BF03B030BD9D0D01000800001076
:100E000010B582B0744601900B468DF8033023462E
:100E100019460B4804F038FC9DF80330002B03D032
:100E20000198FFF789FF02E00198FFF7B7FF23461B
:100E30001946034804F03CFC00BF02B010BD00BFDF
:100E4000010E010030B583B0754601902B4619465E
:100E5000154804F019FC019B9A68019B9B681B686C
:100E600030331B681046984703461A46012303FA9D
:100E700002F4019B9A68019B9B681B682C331B68DA
:100E80001046984703461A46084B53F822305A69D1
:100E900021464A405A612B461946034804F008FC93
:100EA00000BF03B030BD00BF450E010008000010B8
:100EB00030B585B0754601902B461946184804F0A8
:100EC000E3FB019B9A68019B9B681B682C331B68A2
:100ED0001046984703461A46124B53F822305C6975
:100EE000019B9A68019B9B681B6830331B68104606
:100EF0009847034624FA03F303F00103002B14BFC1
:100F0000012300238DF80F309DF80F402B46194622
:100F1000034804F0CDFB2346184605B030BD00BFA2
:100F2000B10E01000800001030B583B07546019085
:100F30002B461946164804F0A7FB019B9A68019BB3
:100F40009B681B682C331B681046984703461A465B
:100F5000104B53F822305C69019B9A68019B9B6897
:100F60001B6830331B6810469847034624FA03F386
:100F700003F00103002B14BF01230023DCB22B4636
:100F80001946034804F094FB2346184603B030BDCD
:100F9000290F01000800001030B583B0754601909C
:100FA0002B461946064804F06FFB019B9C682B46B4
:100FB0001946034804F07CFB2346184603B030BDB5
:100FC000990F010030B587B0754603902B4619463E
:100FD000174804F059FB039B1B79012B94BF012395
:100FE0000023DBB28DF817309DF8173083F0010332
:100FF000DBB2002B10D0039B9A68039B9B681B6895
:101000002C331B681046984703460093A623094AD1
:1010100009490A4806F01CFF9DF817402B4619465F
:10102000034804F045FB2346184607B030BD00BF17
:10103000C50F010054A50100C8A00100E49B0100F8
:1010400070B582B07646019000913346194611483A
:1010500004F01AFB0198FFF7B5FF009C019B1B7978
:101060001D46019B9A68019B9B681B6830331B6877
:101070001046984703461946074A6B010B4442F84D
:10108000234033461946034804F012FB00BF02B068
:1010900070BD00BF411001007809001030B583B069
:1010A000754601902B4619460F4804F0EDFA019B56
:1010B0001B791C46019B9A68019B9B681B68303317
:1010C0001B681046984703461946084A63010B44BB
:1010D000002142F823102B461946034804F0E8FA91
:1010E00000BF03B030BD00BF9D10010078090010A3
:1010F00030B583B0754603468DF807302B46194648
:10110000064804F0C1FA9DF807402B4619460348EB
:1011100004F0CEFA2346184603B030BDF1100100AA
:1011200010B584B0744603900B468DF80B302346FF
:101130001946194804F0A8FA0398FFF743FF9DF8F1
:101140000B30012B08D0012B02D3022B08D00EE06C
:10115000039800F0B1F817E0039800F0EBF813E003
:10116000039800F0A9F8039800F0E4F80CE09DF86B
:101170000B301846FFF7BCFF03460093D223074A03
:101180000749084806F064FE23461946024804F061
:101190008FFA00BF04B010BD2111010070A501003D
:1011A000D4A00100749C010010B584B07446039073
:1011B0000B468DF80B3023461946194804F064FAA3
:1011C0000398FFF7FFFE9DF80B30012B08D0012B91
:1011D00002D3022B08D00EE0039800F0E9F817E0E4
:1011E000039800F023F913E0039800F0E1F8039866
:1011F00000F01CF90CE09DF80B301846FFF778FF63
:1012000003460093F223074A0749084806F020FEE8
:1012100023461946024804F04BFA00BF04B010BD43
:10122000A911010018A50100E0A00100749C0100B3
:1012300010B584B074460390029113468DF80730C0
:10124000234619460B4804F01FFA0398FFF7BAFE2D
:1012500002990398FFF7F4FE9DF8073019460398AA
:10126000FFF75EFF23461946024804F021FA00BF4B
:1012700004B010BD3112010010B582B07446019067
:10128000234619460B4804F0FFF90198FFF79AFE30
:101290000198FFF703FF019800F08AF8019800F029
:1012A000C5F823461946034804F002FA00BF02B00D
:1012B00010BD00BF7912010030B583B075460190B2
:1012C0002B461946194804F0DFF9019B9A68019BE7
:1012D0009B681B6830331B681046984703461A46C4
:1012E000012303FA02F0019B1B791946104A0B46B1
:1012F0009B000B449B0013440C331B681A68044684
:10130000019B1B7918460A4903469B0003449B0036
:101310000B440C331B6822431A602B4619460348C2
:1013200004F0C6F900BF03B030BD00BFB912010020
:101330002000001030B583B0754601902B46194649
:10134000194804F0A1F9019B9A68019B9B681B68EE
:1013500030331B681046984703461A46012303FAA8
:1013600002F0019B1B791946104A0B469B000B4467
:101370009B00134410331B681A680446019B1B79B9
:1013800018460A4903469B0003449B000B44103354
:101390001B6822431A602B461946034804F088F95B
:1013A00000BF03B030BD00BF3513010020000010A6
:1013B00030B583B0754601902B461946194804F0A4
:1013C00063F9019B9A68019B9B681B6830331B681B
:1013D0001046984703461A4601239340D843019B81
:1013E0001B791946104A0B469B000B449B00134483
:1013F0000C331B681A680446019B1B7918460A497E
:1014000003469B0003449B000B440C331B682240A3
:101410001A602B461946034804F04AF900BF03B08E
:1014200030BD00BFB11301002000001030B583B003
:10143000754601902B461946194804F025F9019B81
:101440009A68019B9B681B6830331B68104698475D
:1014500003461A4601239340D843019B1B79194642
:10146000104A0B469B000B449B00134410331B682F
:101470001A680446019B1B7918460A4903469B00DB
:1014800003449B000B4410331B6822401A602B4618
:101490001946034804F00CF900BF03B030BD00BF8B
:1014A0002D1401002000001082B00190034A019B1E
:1014B0001A60019B184602B0704700BFB4A2010039
:1014C00000B583B00190019B1846FFF7EDFF044A79
:1014D000019B1A60019B184603B05DF804FB00BF36
:1014E00090A2010000B585B001900B468DF8033045
:1014F000002303930021019800F0CEF89DF80330FB
:101500000C2B16D99DF803309BB21A460C2101987A
:1015100000F0ACF903904FF48071019800F0D6F818
:101520009DF80330104A02FB03F31A460F4B1A6072
:1015300006E00021019800F0C9F80C4B0C4A1A6033
:101540000121019800F04AFA019B1B6804331B68D3
:101550000121019898470021019800F073FA039B3C
:10156000184605B05DF804FB40420F004C00001027
:10157000001BB70000B583B001900B468DF8033017
:101580009DF80330042B0DD9AE230B4A0B490C48B0
:1015900006F05EFC0B4804F047F800210120FFF73D
:1015A0001BFAFEE7084B1B689DF80320C3F8A8212F
:1015B00000BF03B05DF804FBD8A30100ECA001005C
:1015C000149D0100B49D01004800001082B00190FC
:1015D000034B1B68D3F8A831184602B0704700BF10
:1015E0004800001082B00190024B1B68184602B000
:1015F000704700BF4C00001000B585B00190019B02
:101600001B6808331B6801989847029000230393D6
:10161000029B002B0AD0019B1B680C331B680198AE
:1016200098470246029BB2FBF3F30393039B1846D1
:1016300005B05DF804FBFFFF84B001900091094BF9
:101640001B68D3F8C430009A1268012101FA02F233
:1016500013430393034B1B68039AC3F8C42000BFD2
:1016600004B070474800001084B001900091094B0D
:101670001B68D3F8C430009A1268012101FA02F203
:1016800013400393034B1B68039AC3F8C42000BFA5
:1016900004B070474800001084B001900B46ADF8CC
:1016A0000230BDF802300393074B1B68D3F80C31AE
:1016B00023F00101044B1B68039A0A43C3F80C2171
:1016C00000BF04B0704700BF4800001082B0019016
:1016D0000B46ADF80230084B1B68D3F8043123F4F5
:1016E0008071BDF80220044B1B680A43C3F8042133
:1016F00000BF02B0704700BF4800001082B00190E8
:101700000B46ADF80230084B1B68D3F8083123F4C0
:101710004071BDF80220044B1B680A43C3F808213E
:1017200000BF02B0704700BF4800001082B00190B7
:101730000B46ADF80230084B1B68D3F8B43123F4E4
:101740004071BDF80220044B1B680A43C3F8B42162
:1017500000BF02B0704700BF4800001000B587B05E
:1017600001900B46ADF802301346ADF80030BDF8DD
:101770000030B3F5C07F03D2BDF800300C2B0DD87C
:10178000FF23344A3449354806F062FB344803F0FD
:101790004BFF00210120FFF71FF9FEE701238DF821
:1017A0001730BDF80030BDF80220B3FBF2F102FBA8
:1017B00001F29B1A9BB2002B09D0BDF80020BDF8A6
:1017C0000230B2FBF3F39BB20133049307E0BDF8A0
:1017D0000020BDF80230B2FBF3F39BB20493012367
:1017E000ADF80E309DF81730002B2ED0049B9BB225
:1017F000BDF8022012FB03F39BB2BDF80E2012FBD2
:1018000003F39BB25B00ADF80C30BDF80C309B2BA2
:1018100003D900238DF81730E4E7BDF80E305B00E4
:10182000ADF80E30BDF80E30072BDBD940F21B139C
:10183000084A0C490C4806F00BFB094803F0F4FE7B
:1018400000210120FFF7C8F8FEE7049B184607B007
:101850005DF804FB80A4010004A10100CC9D0100FF
:10186000B49D01001CA10100BC9E010010B58AB00E
:1018700001900B46ADF802301346ADF8003001235D
:10188000ADF81A30FFF740F90A46014611F57A73B0
:1018900042F10004CDE90434FFF736F9CDE908013F
:1018A000BDF80020BDF8023019460198FFF756FF39
:1018B0000390BDF80220039B02FB03F30793002172
:1018C0000198FFF7E9FE00210198FFF7FFFE0021D4
:1018D0000198FFF713FF00210198FFF727FF3A4B0C
:1018E0001B68D3F8843023F01F01039B5A1E364B2C
:1018F0001B680A43C3F88420334B1B68D3F8843039
:1019000023F06002BDF81A305B0119462E4B1B68AC
:101910000A43C3F884202C4B1B68D3F880202A4B41
:101920001B6842F00102C3F88020274B1B68AA22E3
:10193000C3F88C20244B1B685522C3F88C20224B03
:101940001B68D3F8883003F48063002B09D1DDE9EC
:101950000812DDE90434A24208BF994201D20123F2
:1019600000E00023002B04D0FFF7CEF8CDE90801FA
:10197000E5E7154B1B68D3F8883003F48063002B30
:1019800009D1DDE90812DDE90434A24208BF994219
:1019900001D3012300E00023002B0ED040F24313BB
:1019A0000A4A0B490B4806F053FA0B4803F03CFE79
:1019B00000210120FFF710F8FEE7BDF80030079A7C
:1019C000D31A18460AB010BD4800001024A4010024
:1019D00034A10100649F0100B49D010000B583B0F3
:1019E00001900B468DF803309DF803301F2B0ED964
:1019F00040F26F130E4A0F490F4806F029FA0F48BC
:101A000003F012FE00210120FEF7E6FFFEE70C4B7B
:101A10001B68D3F8043123F01F019DF80320084B05
:101A20001B680A43C3F8042100BF03B05DF804FB40
:101A3000DCA401004CA101000CA00100B49D010038
:101A40004800001082B001900B468DF80330084B1F
:101A50001B68D3F8003123F001019DF80320044BEB
:101A60001B680A43C3F8002100BF02B0704700BFE3
:101A70004800001030B583B0754601902B461946DA
:101A8000064803F001FE019C2B461946034803F06B
:101A90000FFE2346184603B030BD00BF751A010083
:101AA00030B583B0754601902B461946074803F0C0
:101AB000EBFD074A019B1A60019C2B46194603481F
:101AC00003F0F6FD2346184603B030BDA11A01000D
:101AD00068A2010030B583B07546019000912B4695
:101AE0001946084803F0D0FD074A019B1A60019C83
:101AF0002B461946034803F0DBFD2346184603B086
:101B000030BD00BFD51A0100A4A3010030B583B0D9
:101B10007546019000912B4619460F4803F0B4FD1D
:101B2000019B009A11461846FFF7D4FF0B4A019B10
:101B30001A60009B1A79019B1A71009B5A79019BCC
:101B40005A71019C2B461946034803F0B1FD234608
:101B5000184603B030BD00BF0D1B010068A3010093
:101B600030B583B07546019000912B461946314837
:101B700003F08AFD019B1846FFF792FF019B043397
:101B80001846FFF79DFC2C4A019B1A602B4A019BCB
:101B90005A60019B03F11402019B9A60019B03F1BF
:101BA0001C02019BDA60019B03F12402019B1A6174
:101BB000019B03F114040098FFF75CFF02461346F3
:101BC0005B001344DB001E4A134419462046FFF70E
:101BD0009DFF019B03F11C040098FFF74BFF024699
:101BE00013465B001344DB000833154A13441946BF
:101BF0002046FFF78BFF019B03F124040098FFF7B9
:101C000039FF024613465B001344DB0010330C4AD5
:101C1000134419462046FFF779FF019B009ADA62C8
:101C2000019C2B461946034803F042FD2346184603
:101C300003B030BD611B01001CA2010044A20100E1
:101C400068A1010070B586B076460190334619460A
:101C5000304803F019FD019BDB6A1846FFF70AFFC5
:101C600003460593019B181D019B5B6814331B6899
:101C7000059A920028490A4411469847019B9868A2
:101C8000019B9B681B681B682449059A0A441278CB
:101C900011469847019BD868019BDB681B681B684D
:101CA0001E49059A0A44127811469847019B186903
:101CB000019B1B691B681B681849059A0A44127826
:101CC00011469847164A059B52F823305B68144921
:101CD000059A51F822400493012303933346194691
:101CE000104803F0D1FC0122039B02FA03F31A46C9
:101CF000049B42EA0305334619460A4803F0D8FC20
:101D0000656033461946034803F0D2FC00BF06B0B5
:101D100070BD00BF451C0100B0A1010064A101001D
:101D2000500000101937010030B585B0754601909C
:101D30002B461946174803F0A7FC019BDB6A18469F
:101D4000FFF798FE0246144B53F82230DB680393EA
:101D5000042302932B461946104803F095FC0122F8
:101D6000029B02FA03F31A46039B1340002B14BF95
:101D700001230023DCB22B461946084803F098FCE7
:101D80002B461946034803F093FC2346184605B03A
:101D900030BD00BF291D0100500000105537010063
:101DA00030B585B0754601900B46ADF802302B4634
:101DB0001946144803F068FC019BDB6A1846FFF7DC
:101DC00059FE03460393104A039B52F82330BDF893
:101DD00002209A600198FFF7A7FF0346002B01D06D
:101DE00000BFF7E7084A039B52F823309B689CB278
:101DF0002B461946034803F05BFC2346184605B002
:101E000030BD00BFA11D01005000001010B586B00C
:101E10007446039023461946124803F035FC01230B
:101E20008DF8173000238DF8163000238DF815300B
:101E300030238DF81430072300220021039800F08E
:101E40005BF830230093002300220121039800F067
:101E500009FA23461946034803F02AFC00BF06B0DE
:101E600010BD00BF0D1E010030B583B0754603469E
:101E70008DF807302B461946064803F005FC9DF8FF
:101E800007402B461946034803F012FC2346184628
:101E900003B030BD691E010030B583B075460346FE
:101EA0008DF807302B461946064803F0EDFB9DF8E8
:101EB00007402B461946034803F0FAFB2346184611
:101EC00003B030BD991E010030B583B0754603469E
:101ED0008DF807302B461946064803F0D5FB9DF8D0
:101EE00007402B461946034803F0E2FB23461846F9
:101EF00003B030BDC91E010070B598B074460190A2
:101F0000084611461A4603468DF803300B468DF8F5
:101F1000023013468DF8013023461946754803F008
:101F2000B3FB019BDB6A1846FFF7A4FD034617933A
:101F3000019B181D179B9B006F4A13441946FFF71E
:101F40007BFB9DF80230022B02D107238DF8013074
:101F50006A4A179B52F823301E689DF801301846D4
:101F6000FFF782FF03461946644A179B52F8235035
:101F700008960B468DF81F30002306930423059323
:101F8000234619465E4803F07FFB4FF0FF3304936E
:101F900020230393059BC3F120034FF0FF3222FA65
:101FA00003F30293029A069B02FA03F3DB43089AB7
:101FB000134008939DF81F20029B1A40069B02FACB
:101FC00003F3089A13430893089E234619464C4886
:101FD00003F06EFB2E60494A179B52F823301E68AF
:101FE0009DF802301846FFF757FF03461946434A4B
:101FF000179B52F823500F960B468DF83B30042365
:102000000D9302230C93234619463D4803F03CFBF5
:102010004FF0FF330B9320230A930C9BC3F1200353
:102020004FF0FF3222FA03F30993099A0D9B02FA4B
:1020300003F3DB430F9A13400F939DF83B20099B5A
:102040001A400D9B02FA03F30F9A13430F930F9E4E
:10205000234619462A4803F02BFB2E60274A179B7C
:1020600052F823305E689DF803301846FFF72CFFC6
:1020700003461946214A179B52F8235016960B46E1
:102080008DF85730022314930123139323461946E6
:102090001B4803F0F9FA4FF0FF33129320231193FA
:1020A000139BC3F120034FF0FF3222FA03F3109386
:1020B000109A149B02FA03F3DB43169A134016930B
:1020C0009DF85720109B1A40149B02FA03F3169AAE
:1020D00013431693169E23461946094803F0E8FA5F
:1020E0006E6023461946034803F0E2FA00BF18B0B9
:1020F00070BD00BFF91E0100B0A10100500000102A
:102100009937010070B596B0744601902346194680
:10211000504803F0B9FA0023ADF85630019BDB6A52
:102120001846FFF7A7FC03461493019B181D149B48
:102130009B00494A13441946FFF77EFA474A149B0D
:1021400052F823301B68079300230693042305935A
:1021500023461946424803F097FA4FF0FF330493A1
:1021600020230393059BC3F120034FF0FF3222FA93
:1021700003F30293079A069BDA40029B02EA0305E7
:1021800023461946364803F093FAADB2334A149BFE
:1021900052F823301B680D9304230C9302230B93F6
:1021A000234619462E4803F06FFA4FF0FF330A9387
:1021B000202309930B9BC3F120034FF0FF3222FA37
:1021C00003F308930D9A0C9BDA40089B02EA03067E
:1021D00023461946224803F06BFAB3B25B019BB267
:1021E0002B449DB21D4A149B52F823305B68139315
:1021F000022312930123119323461946184803F032
:1022000043FA4FF0FF33109320230F93119BC3F138
:1022100020034FF0FF3222FA03F30E93139A129B1E
:10222000DA400E9B02EA0306234619460C4803F0E7
:102230003FFAB3B21B029BB22B44ADF85630BDF847
:10224000565023461946034803F032FA2B461846E7
:1022500016B070BD05210100B0A1010050000010B2
:102260000D38010070B598B07446019008461146CB
:102270001A4603468DF803300B468DF8023013469C
:102280008DF80130234619466C4803F0FDF9019B97
:10229000DB6A1846FFF7EEFB03461793019B181DF8
:1022A000179B9B00664A13441946FFF7C5F9654A18
:1022B000179B52F823301B686249179A51F8225035
:1022C00008939DF803308DF81F30062306930123F1
:1022D0000593234619465C4803F0D6F94FF0FF33C7
:1022E000049320230393059BC3F120034FF0FF3297
:1022F00022FA03F30293029A069B02FA03F3DB43EA
:10230000089A134008939DF81F20029B1A40069BD1
:1023100002FA03F3089A13430893089E23461946CA
:10232000494803F0C5F92E60464A179B52F82330FE
:102330001B684449179A51F822500F939DF80230B8
:102340008DF83B3007230D9301230C932346194648
:102350003D4803F099F94FF0FF330B9320230A9384
:102360000C9BC3F120034FF0FF3222FA03F30993D1
:10237000099A0D9B02FA03F3DB430F9A13400F9364
:102380009DF83B20099B1A400D9B02FA03F30F9A1C
:1023900013430F930F9E234619462B4803F088F9E9
:1023A0002E60284A179B52F823301B682549179A3C
:1023B00051F8225016939DF801308DF857300823BC
:1023C00014930823139323461946204803F05CF91D
:1023D0004FF0FF33129320231193139BC3F120037B
:1023E0004FF0FF3222FA03F31093109A149B02FA73
:1023F00003F3DB43169A134016939DF85720109B66
:102400001A40149B02FA03F3169A13431693169E6E
:10241000234619460D4803F04BF92E60094A179BD5
:1024200052F823309DF870201A612346194603485C
:1024300003F03EF900BF18B070BD00BF6522010077
:10244000B0A101005000001061380100993701006F
:1024500070B594B07446019023461946584803F06D
:1024600013F900231393019BDB6A1846FFF702FB65
:1024700003461293019B181D129B9B00514A134463
:102480001946FFF7D9F8504A129B52F823301B69BE
:1024900007930023069308230593234619464B48C8
:1024A00003F0F2F84FF0FF33049320230393059BCE
:1024B000C3F120034FF0FF3222FA03F30293079A8D
:1024C000069BDA40029B02EA0305234619463F4871
:1024D00003F0EEF83C4A129B52F823301B680D9330
:1024E00008230C9308230B9323461946374803F01F
:1024F000CBF84FF0FF330A93202309930B9BC3F1D2
:1025000020034FF0FF3222FA03F308930D9A0C9B3D
:10251000DA40089B02EA0306234619462B4803F0DB
:10252000C7F833021D44284A129B52F823301B6817
:102530000F9307230E9323461946254803F0A4F86A
:1025400001220E9B02FA03F31A460F9B1340002B45
:1025500014BF01230023DEB2234619461C4803F0B2
:10256000A7F833461B041D44174A129B52F8233028
:102570001B6811930623109323461946144803F051
:1025800083F80122109B02FA03F31A46119B1340B1
:10259000002B14BF01230023DEB2234619460C484A
:1025A00003F086F833469B042B441393139D234674
:1025B0001946034803F07CF82B46184614B070BD4A
:1025C00051240100B0A10100500000100D3801009D
:1025D0005537010030B583B0754601900846114665
:1025E0001A4603468DF803300B468DF80230134629
:1025F0008DF801302B4619461A4803F045F8019A28
:1026000013789DF8201061F300031370019A13787A
:102610009DF8031061F341031370019A13789DF83C
:10262000021061F382031370019A13789DF8011070
:1026300061F3C3031370019A13786FF307131370D8
:10264000019B9DF81C205A70019B9DF818209A70E0
:10265000019C2B461946034803F02AF823461846E6
:1026600003B030BDD525010030B583B0754601906B
:102670002B461946154803F007F8019A13786FF3B3
:1026800000031370019A13786FF341031370019ADA
:1026900013786FF382031370019A13786FF3C303F7
:1026A0001370019A13786FF307131370019B0022C4
:1026B0005A70019B00229A70019C2B4619460348D0
:1026C00002F0F6FF2346184603B030BD692601002C
:1026D00010B582B07446019023461946054802F0B1
:1026E000D3FF23461946034802F0E2FF00BF02B0C1
:1026F00010BD00BFD126010010B582B07446019014
:1027000023461946054802F0BFFF234619460348F1
:1027100002F0CEFF00BF02B010BD00BFF9260100DD
:1027200010B582B07446019023461946054802F060
:10273000ABFF23461946034802F0BAFF00BF02B0C0
:1027400010BD00BF2127010030B583B07546019050
:102750002B461946074802F097FF074A019B1A606B
:10276000019C2B461946034802F0A2FF2346184657
:1027700003B030BD49270100F0A1010030B583B09E
:10278000754601902B4619461F4802F07DFF019BBC
:102790001846FFF7D9FF1D4A019B1A60019B03F100
:1027A0001002019B5A60019B03F14002019B9A6059
:1027B000019B03F15402019BDA60019B103301215C
:1027C0001846FFF7CDF9019B403316220121184628
:1027D000FEF7D6F9019B5433192201211846FEF762
:1027E000CFF9019B683340F2C1620021184607F01F
:1027F00074F8019C2B461946034802F059FF234602
:10280000184603B030BD00BF7D270100C4A1010000
:1028100030B583B0754601902B461946064802F044
:1028200033FF80242B461946034802F041FF23461C
:10283000184603B030BD00BF1128010030B583B089
:10284000754601902B461946064802F01DFF4024AC
:102850002B461946034802F02BFF2346184603B0C7
:1028600030BD00BF3D28010010B588B0744605900A
:1028700023461946154802F007FF07A801230293D3
:102880000123019301230093012301220121FFF77A
:10289000A1FE06AB07AA1268114619800233120C7A
:1028A0001A7023461946094802F002FF00239DF8DA
:1028B000182062F307039DF8192062F30F239DF897
:1028C0001A2062F31743184608B010BD69280100AA
:1028D00010B586B07446039002910192009323468E
:1028E00019461E4802F0D0FE039BDB68019AD2B263
:1028F00011461846FEF784FA039B9B681846FEF7BC
:102900004DFA00230593059A009B9A4218D2009A2B
:10291000059BD31A03F10053013BDB00029A22FA14
:1029200003F38DF81330039B5B689DF8132092B27C
:1029300011461846FFF734FA059B01330593E2E789
:10294000039B9B681846FEF7F7F923461946034890
:1029500002F0AEFE00BF06B010BD00BFD1280100DE
:1029600010B582B07446019023461946374802F0EC
:102970008BFE01230022AE210198FFF7A9FF02235D
:1029800000224DF280510198FFF7A2FF022300229E
:102990004AF63F010198FFF79BFF022300224FF404
:1029A00053410198FFF794FF012300224021019831
:1029B000FFF78EFF0223002248F614510198FFF71B
:1029C00087FF01230022A1210198FFF781FF012346
:1029D0000022C8210198FFF77BFF022300224DF659
:1029E00012210198FFF774FF0223002248F2CF1151
:1029F0000198FFF76DFF022300224DF6F1110198B7
:102A0000FFF766FF022300224DF640310198FFF7E1
:102A10005FFF019800F05EF801230022A4210198D5
:102A2000FFF756FF01230022A6210198FFF750FF70
:102A300001230022AF210198FFF74AFF23461946E0
:102A4000024802F035FE00BF02B010BD612901004E
:102A500010B584B074460390234619461C4802F012
:102A600013FE039B9B681846FEF706F9039BDB6881
:102A70001846FEF701F9039B9B681846FEF75CF9C0
:102A8000039BDB681846FEF757F9039B586807233A
:102A900000220021FFF730FA039B586810230093AF
:102AA000012300220021FFF7DDFB039B5B68184632
:102AB000FFF7C8F8039800F037F80398FFF750FFC6
:102AC00023461946024802F0F3FD00BF04B010BDD2
:102AD000512A010010B582B0744601902346194670
:102AE0000E4802F0D1FD022300224FF4005101985C
:102AF000FFF7EEFE0323002209490198FFF7E8FEE5
:102B00000323002207490198FFF7E2FE23461946F6
:102B1000024802F0CDFD00BF02B010BDD52A010071
:102B20007F0021000700220010B582B0744601909A
:102B300023461946094802F0A7FD019B683340F27D
:102B4000C1620021184606F0C8FE23461946034814
:102B500002F0AEFD00BF02B010BD00BF292B010086
:102B600010B58CB0744603900291019200932346F5
:102B700019461F4802F088FD019B03F007030B93E1
:102B8000019BDB100A9301220B9B02FA03F3DB4348
:102B900009939DF80230002B14BF012300238DF808
:102BA00023309DF823200B9B02FA03F307930A9A24
:102BB00013465B0113449B001344029A1344683389
:102BC000039A13440693069B1B781A46099B1340ED
:102BD000079A13430593059BDAB2069B1A702346A6
:102BE0001946034802F064FD00BF0CB010BD00BFE1
:102BF000612B010010B584B074460190234619463C
:102C0000184802F041FD0198FFF764FF0023039389
:102C1000039B072B1ED800230293029B7F2B15D802
:102C20000199039A13465B0113449B001344CA188D
:102C3000029B134468331B78194601230122019833
:102C4000FFF746FE029B01330293E6E7039B013345
:102C50000393DDE723461946024802F029FD00BF31
:102C600004B010BDF52B010030B583B0754601905E
:102C700000912B4619461E4802F006FD019B009A62
:102C80001A60019B04331846FFF7EEFC019B0022FB
:102C90009A60019B0022DA60009B1B681B68009809
:102CA00098470246019B9A60009B1B6804331B688F
:102CB000009898470246019BDA60009B1B68083326
:102CC0001B68019C0098984703461A462271C3F37B
:102CD00007226271C3F30743A371019C2B46194677
:102CE000034802F0E5FC2346184603B030BD00BFA0
:102CF000692C010010B582B0744601902346194634
:102D00000E4802F0C1FC019B1A68019B1B681B68FE
:102D10000C331B6810469847019B1A68019B1B687F
:102D20001B6810331B681046984723461946034812
:102D300002F0BEFC00BF02B010BD00BFF52C0100C8
:102D400010B58EB074460790069105928DF8133039
:102D500023461946374802F097FC9DF813300B9331
:102D6000079A0AAB04321268114619800233120C1A
:102D70001A7009A8012302930123019300230093F1
:102D8000002300220021FFF725FC00230D930D9B5B
:102D9000072B3DDC00230C930C9B072B34DC264ACD
:102DA0000B9BDB001A440D9B13441B781A460C9BAB
:102DB00042FA03F303F00103002B09D0079B04330D
:102DC0000AAA1268114619800233120C1A700CE01C
:102DD0009DF84030002B08D0079B043309AA1268E5
:102DE000114619800233120C1A70069A0C9B134478
:102DF0001946059A0D9B13441A46079800F01EF8D1
:102E00000C9B01330C93C7E70D9B01330D93BEE779
:102E1000079B04330AAA1268114619800233120C68
:102E20001A7023461946034802F042FC00BF0EB058
:102E300010BD00BF412D01005C00001030B585B011
:102E400075460390029101922B461946104802F0F4
:102E50001BFC039B9B68029A9A4210D8039BDB6879
:102E6000019A9A420BD8039B1868039B1B681B6846
:102E70001C331C680299019A039B5B68A0472B4690
:102E80001946034802F014FC00BF05B030BD00BF76
:102E90003D2E010010B582B07446019023461946BC
:102EA000094802F0F1FB019B1A68019B1B681B6833
:102EB00020331B681046984723461946024802F003
:102EC000F7FB00BF02B010BD952E010010B582B017
:102ED0007446019023461946094802F0D5FB019B30
:102EE0001A68019B1B681B6818331B6810469847BB
:102EF00023461946024802F0DBFB00BF02B010BDBA
:102F0000CD2E010010B582B07446019023461946BB
:102F10000E4802F0B9FB019B03F22C731846FFF731
:102F2000E9FE019B03F22C731846FFF7CFFF019BCC
:102F300003F22C731846FFF7ADFF234619460348EA
:102F400002F0B6FB00BF02B010BD00BF052F0100AC
:102F50000EB430B5C6B0754601AB18602B461946A5
:102F6000504802F091FB4AAA02AB1A6002AB03A8D8
:102F70001B68499A4FF4807104F090FF0346449314
:102F800000234593459A449B9A4253D203AA459BFA
:102F900013441B788DF80F319DF80F310A2B0ED199
:102FA00001AB1B680022C3F8402701AB1B68D3F8B4
:102FB0003C375A1C01AB1B68C3F83C2736E001AB19
:102FC0001B68D3F83C2701AB1B68D3F84437134484
:102FD00003F0070201AB1B68D3F8403701A9096869
:102FE00012010A44134403F5E9639DF80F211A7096
:102FF00001AB1B68D3F840375A1C01AB1B68C3F800
:10300000402701AB1B68D3F840370F2B0DD901AB1C
:103010001B680022C3F8402701AB1B68D3F83C377C
:103020005A1C01AB1B68C3F83C2700BF459B01330A
:103030004593A7E701AB186800F036F801AB1B68B1
:10304000D3F83C37072B1FD901AB1B68D3F84437A3
:10305000013303F0070201AB1B68C3F8442701AB3F
:103060001B680722C3F83C2701AB1B68D3F83C2739
:1030700001AB1B68D3F84437134403F0070201ABDC
:103080001146186800F05EF8459C2B461946054825
:1030900002F00EFB2346184646B0BDE8304003B0B0
:1030A000704700BF512F010030B589B075460390BD
:1030B0002B461946224802F0E7FA00230793079BA4
:1030C000072B2CD800230693069B0F2B23D8069B97
:1030D000DB000593079BDB000493039B03F22C703A
:1030E0000599049C039BD3F84427079B134403F0E2
:1030F0000703039A1B011A44069B134403F5E96373
:103100001A780123009313462246FFF719FE069B07
:1031100001330693D8E7079B01330793CFE7039B5F
:1031200003F22C731846FFF7B5FE039C2B46194695
:10313000034802F0BDFA2346184609B030BD00BF6F
:10314000A930010010B584B0744601900091234667
:1031500019460F4802F098FA00230393039B0F2BA4
:103160000DD8019A009B1B011A44039B134403F5DD
:10317000E96320221A70039B01330393EEE7234691
:103180001946034802F094FA00BF04B010BD00BF16
:103190004531010030B583B0754601902B46194684
:1031A000164802F071FA019B1846FFF7E7FA019BF7
:1031B00003F22C73019A11461846FFF755FD019B47
:1031C0000022C3F83C27019B0022C3F84027019B43
:1031D0000022C3F84427019B03F5E9638022002104
:1031E000184606F07AFB019C2B461946034802F06C
:1031F0005FFA2346184603B030BD00BF9531010089
:1032000030B583B0754601900B468DF803302B46E0
:103210001946094802F038FA9DF80330023BDAB249
:10322000064B1A70019C2B461946034802F040FADF
:103230002346184603B030BD01320100780A001061
:1032400010B57446234619466D4802F01DFA6D4BC1
:103250001B78002B02D0012B1AD033E06A4BD3F835
:10326000C430694A43F08073C2F8C4300822022196
:10327000664800F029FC09220221644800F084FC21
:103280004FF0FF3301226249072002F0A9F819E04C
:103290005D4BD3F8C4305C4A43F00073C2F8C430CD
:1032A00008220221594800F0CFFC09220221574888
:1032B00000F02AFD4FF0FF3301225549082002F0AB
:1032C0008FF800BF5348FFF71DFE4E4B1B781A4680
:1032D000514B53F822301B7BDAB24A4B1B7819460C
:1032E0004D4B53F8213062F07F02D2B21A73454B36
:1032F0001B781A46484B53F822301B7ADAB2414BFE
:103300001B781946444B53F8213042F00102D2B2E7
:103310001A7200F083F83B4B1B781A463E4B53F869
:1033200022301B7BDAB2374B1B7819463A4B53F8E5
:10333000213022F00C02D2B21A73324B1B781A469B
:10334000354B53F822301B7BDAB22E4B1B781946D3
:10335000314B53F8213042F00302D2B21A73294B99
:103360001B781A462C4B53F822301B7BDAB2254BC4
:103370001B781946284B53F8213002F07F02D2B255
:103380001A73204B1B781A46234B53F822301B7AB2
:10339000DAB21C4B1B7819461F4B53F8213042F010
:1033A0000602D2B21A72174B1B781A461A4B53F800
:1033B000223093F83030DAB2124B1B781946164B94
:1033C00053F8213062F07F02D2B283F830200D4BE7
:1033D0001B781A46104B53F822305A68094B1B7859
:1033E00019460D4B53F8213042F001025A6000F0AB
:1033F00079F923461946024802F05AF900BF10BD78
:1034000041320100780A001000C00F407C0A001011
:1034100025360100800A00105C04001010B582B04F
:103420007446234619461E4802F02EF94FF41653EF
:1034300001934FF49C73ADF802301A4B1B781A4677
:10344000194B53F822301B78D9B2BDF80230DAB2EA
:10345000144B1B781846144B53F820300A43D2B251
:103460001A70104B1B781A460F4B53F822301B79F9
:10347000DBB25AB2BDF802301B125BB213435AB230
:10348000084B1B781946084B53F82130D2B21A71F9
:1034900023461946024802F00BF900BF02B010BDE6
:1034A0001D340100780A00105C04001010B582B0D1
:1034B0007446019023461946124802F0E5F8124B73
:1034C0001B781A46114B53F822301B7DDBB203F0F8
:1034D0002003002B0CBF01230023DBB2002B00D004
:1034E000EDE7094B1B781A46084B53F82230019A36
:1034F000D2B21A7023461946024802F0D9F800BF2A
:1035000002B010BDAD340100780A00105C04001058
:1035100030B583B075462B461946154802F0B4F80D
:1035200000238DF80730134B1B781A46124B53F8C3
:1035300022301B7DDBB203F00103002B14BF0123FB
:103540000023DBB2002B08D00A4B1B781A460A4B2B
:1035500053F822301B788DF807309DF807402B4632
:103560001946034802F0A4F82346184603B030BDBC
:1035700011350100780A00105C04001000B589B014
:10358000734601901946224802F07EF82148FFF761
:10359000B9FC00238DF8173000230693002307930E
:1035A0001D4B1B680DF117014FF0FF32184602F05A
:1035B000EBFF0346002B14BF01230023DBB2002BDB
:1035C00016D09DF817301A46079B9B0008A90B449C
:1035D00043F8182C079B9B0008AA134453F8183C87
:1035E0001A460E490B48FFF7B3FC079B01330793BC
:1035F000079B032BD4D102AB184600F037F8069096
:10360000069A07490348FFF7A3FC00230793C7E77F
:103610007D350100800A001048120010A8A00100AA
:10362000BCA0010010B582B07446234619460D486F
:1036300002F02AF800238DF80730FFF769FF0346F0
:103640008DF80730084B18680DF1070100230022A0
:1036500002F041FF23461946024802F029F800BF54
:1036600002B010BD253601004812001030B587B0F9
:10367000754601902B461946194802F005F80023BB
:103680000593019B1B680493019B5B680393019B5B
:1036900008331B68DBB22B2B04D02D2B07D02A2B31
:1036A0000AD00FE0049A039B134405930AE0039A9F
:1036B000049BD31A059305E0049B039A02FB03F3D2
:1036C000059300BF0598FFF7F1FE059C2B461946B0
:1036D000034801F0EDFF2346184607B030BD00BF98
:1036E0006D36010010B5744623461946084801F0AE
:1036F000CBFF002204210A2002F098FE0246054B6F
:103700001A6023461946024801F0D2FF00BF10BDDF
:10371000E53601004812001030B583B075460190BF
:1037200000912B4619460A4801F0AEFF0122009B8A
:1037300002FA03F31A46019B42EA03042B46194698
:10374000034801F0B5FF2346184603B030BD00BF63
:103750001937010030B583B07546019000912B46B2
:1037600019460C4801F090FF0122009B02FA03F376
:103770001A46019B1340002B14BF01230023DCB227
:103780002B461946034801F093FF2346184603B021
:1037900030BD00BF5537010030B589B07546039084
:1037A000019200930B468DF80B302B4619461648B4
:1037B00001F06AFF4FF0FF33079320230693009B2D
:1037C000C3F120034FF0FF3222FA03F30593059A69
:1037D000019B02FA03F3DB43039A134003939DF822
:1037E0000B20059B1A40019B02FA03F3039A134333
:1037F0000393039C2B461946034801F059FF2346C7
:10380000184609B030BD00BF9937010030B589B006
:1038100075460390029101922B4619460F4801F01C
:1038200033FF4FF0FF33079320230693019BC3F12F
:1038300020034FF0FF3222FA03F30593039A029B11
:10384000DA40059B02EA03042B461946034801F0BF
:103850002FFF2346184609B030BD00BF0D380100C8
:1038600030B589B075460390019200930B468DF8F0
:103870000B302B461946164801F006FF4FF0FF3378
:10388000079320230693009BC3F120034FF0FF32E0
:1038900022FA03F30593059A019B02FA03F3DB4333
:1038A000039A134003939DF80B20059B1A40019B3C
:1038B00002FA03F3039A13430393039C2B4619461E
:1038C000034801F0F5FE2346184609B030BD00BF9D
:1038D0006138010010B582B0744601900091234612
:1038E00019460F4801F0D0FE019B012B10D1009B1F
:1038F0004FF6FF7293420BD10A4B1B6803F0010392
:10390000002B05D1074B01221A600748FFF742FC44
:1039100023461946024801F0CBFE00BF02B010BD9D
:10392000D53801004C120010800A001010B5744602
:1039300023461946064801F0A7FE4FF6FF71012005
:10394000FFF7C8FF23461946014801F0B1FE10BD3C
:103950002D39010030B585B075462B4619461848FB
:1039600001F092FE2A238DF80F302423154A1649C0
:10397000164804F06DFA00230193012300930023FD
:103980004FF480521249134801F093FFFFF758FC9F
:103990000220FFF78BFD0520FFF788FD9DF80F3013
:1039A0001846FFF783FD02F0B3F800242B461946B2
:1039B000034801F07DFE2346184605B030BD00BF28
:1039C00055390100C0AB0100B4AB01006CAB010084
:1039D000ACAB01007D35010010B582B0744601909A
:1039E000009123461946114801F04EFE019B012B20
:1039F00014D1009B4FF6FF7293420FD10C4B1B6802
:103A000003F00103002B05D1094B01221A6009487C
:103A1000FFF7C0FB02210848FFF7F2FB23461946D7
:103A2000024801F045FE00BF02B010BDD9390100C7
:103A30004C120010800A00105012001010B574468D
:103A400023461946064801F01FFE4FF6FF7101207C
:103A5000FFF7C2FF23461946014801F029FE10BDB9
:103A60003D3A010010B582B0744601900B468DF8C6
:103A7000033013468DF8023023461946104801F0F2
:103A800003FE9DF803209DF802300E4952011344B5
:103A900051F823301A689DF803109DF80230094848
:103AA00049010B4450F8233022F07F021A6023466C
:103AB0001946034801F0FCFD00BF02B010BD00BF75
:103AC000653A01006404001010B582B0744601909C
:103AD0000B468DF8033013468DF802302346194605
:103AE000274801F0D1FD9DF802209DF803301946CA
:103AF0000198FFF7B7FF9DF80330002B1AD19DF80E
:103B000002300A2B16D19DF803209DF802301D4982
:103B10005201134451F823301A689DF803109DF8A0
:103B20000230184849010B4450F8233042F0020299
:103B30001A601DE09DF80330022B19D19DF8023068
:103B4000082B15D19DF803209DF802300D49520134
:103B5000134451F823301A689DF803109DF8023081
:103B6000084849010B4450F8233042F002021A6021
:103B700023461946024801F09BFD00BF02B010BD6C
:103B8000C93A01006404001010B582B07446019077
:103B90000B468DF8033013468DF802302346194644
:103BA000274801F071FD9DF802209DF80330194669
:103BB0000198FFF757FF9DF80330002B1AD19DF8AD
:103BC00002300B2B16D19DF803209DF802301D49C1
:103BD0005201134451F823301A689DF803109DF8E0
:103BE0000230184849010B4450F8233042F00202D9
:103BF0001A601DE09DF80330022B19D19DF80230A8
:103C0000092B15D19DF803209DF802300D49520172
:103C1000134451F823301A689DF803109DF80230C0
:103C2000084849010B4450F8233042F002021A6060
:103C300023461946024801F03BFD00BF02B010BD0B
:103C4000893B01006404001010B582B074460190F5
:103C50000B468DF8033013468DF802302346194683
:103C6000274801F011FD9DF802209DF80330194608
:103C70000198FFF7F7FE9DF80330002B1AD19DF84D
:103C80000230002B16D19DF803209DF802301D490B
:103C90005201134451F823301A689DF803109DF81F
:103CA0000230184849010B4450F8233042F0020218
:103CB0001A601DE09DF80330042B19D19DF80230E5
:103CC0001C2B15D19DF803209DF802300D4952019F
:103CD000134451F823301A689DF803109DF8023000
:103CE000084849010B4450F8233042F002021A60A0
:103CF00023461946024801F0DBFC00BF02B010BDAC
:103D0000493C01006404001010B582B07446019073
:103D10000B468DF8033013468DF8023023461946C2
:103D2000274801F0B1FC9DF802209DF803301946A8
:103D30000198FFF797FE9DF80330002B1AD19DF8EC
:103D40000230012B16D19DF803209DF802301D4949
:103D50005201134451F823301A689DF803109DF85E
:103D60000230184849010B4450F8233042F0020257
:103D70001A601DE09DF80330042B19D19DF8023024
:103D80001D2B15D19DF803209DF802300D495201DD
:103D9000134451F823301A689DF803109DF802303F
:103DA000084849010B4450F8233042F002021A60DF
:103DB00023461946024801F07BFC00BF02B010BD4B
:103DC000093D01006404001010B582B074460190F2
:103DD00023461946064801F057FC064A019B13602A
:103DE00023461946024801F063FC00BF02B010BD33
:103DF000C93D01000400001010B574462346194661
:103E00000A4801F041FC0A4B1B6800225A60084B2B
:103E10001B6800229A60064B1B6800221A6023462A
:103E20001946024801F044FC00BF10BDF93D0100F5
:103E30006407001010B5744623461946084801F07F
:103E400023FC084B1B68002B02D0064B1B689847CD
:103E500023461946024801F02BFC00BF10BD00BFED
:103E6000353E01005412001010B582B07446019026
:103E7000009123461946074801F006FC064A009BBC
:103E8000136023461946034801F012FC00BF02B03C
:103E900010BD00BF693E01005412001030B585B05E
:103EA000754601902B461946204801F0EDFB002392
:103EB0008DF80F301E4B1B685B68002B14BF01236D
:103EC0000023DBB2002B1ED0194B1B6800229A6026
:103ED000174B1B681A68164B1B6842F002021A60E7
:103EE000134B1B681A68124B1B6842F001021A60E0
:103EF0000F4B1B681A680E4B1B6842F004021A60D5
:103F000001238DF80F304FF0FF33012209494FF0A4
:103F1000FF3001F065FA9DF80F402B461946034823
:103F200001F0C6FB2346184605B030BD9D3E01009A
:103F300064070010353E010030B585B0754601902C
:103F400000912B4619461F4801F09EFB009B012B58
:103F500001D800242DE0019B1A1D019B5B680C33E6
:103F60001B68104698470246009BB2FBF3F3013BE7
:103F70000393019B1A1D019B5B680C331B68104661
:103F800098470346009AB3FBF2F2009901FB02F254
:103F90009B1A0293039BB3F1807F05D36FF07F439D
:103FA00003936FF07F430293074B1B68039A5A6099
:103FB000029C2B461946034801F07AFB234618461B
:103FC00005B030BD393F01006407001030B583B043
:103FD000754603468DF807302B461946064801F012
:103FE00053FB9DF807402B461946034801F060FB40
:103FF0002346184603B030BDCD3F010010B57446CE
:1040000023461946044801F03FFB2346194602485F
:1040100001F04EFB00BF10BDFD3F010010B586B0A2
:1040200074460390029101920093234619463E483C
:1040300001F02AFB039B181D039B5B6814331B686C
:10404000039A127A920039490A4411469847029B12
:10405000002B0DD18423364A3649374803F0F8FE49
:10406000364801F0E1FA00210120FCF7B5FCFEE73B
:10407000039B1A1D039B5B6810331B68104698470F
:104080000246029BB2FBF3F30593039B1B7A1A468D
:104090002B4B53F82230DA68039B1B7A1946284BC6
:1040A00053F8213002F00102DA60039B1B7A1A46B2
:1040B000234B53F82230D968059B5A00039B1B7A87
:1040C00018461F4B53F820300A43DA60039B1B7AD3
:1040D0001A461B4B53F822305A68039B1B7A194629
:1040E000174B53F8213042F001025A60039B1B7AB0
:1040F0001946144A019B42F82130039B1B7A1A4649
:10410000114B9856039B1B7A1A46104B53F82210FA
:10411000009B012201F064F923461946024801F090
:10412000C7FA00BF06B010BD1D4001007CB1010000
:104130007CB20100A0B101005CB0010068AD0100DB
:1041400068070010981200108CB1010090B10100B6
:1041500030B583B0754603468DF807302B461946B7
:10416000064801F091FA9DF807402B46194603488E
:1041700001F09EFA2346184603B030BD51410100BC
:1041800070B586B076460390029111461A460B46EA
:104190008DF8073013468DF80630334619463248FD
:1041A00001F072FA9DF806301846FFF7D1FF03467A
:1041B0008DF81730039B1B7A1A462C4B53F822308C
:1041C0005A699DF81730072101FA03F3DB431946BA
:1041D000039B1B7A1846254B53F820300A405A613E
:1041E000039B1B7A1A46214B53F822305A699DF8DB
:1041F00007109DF8173001FA03F31946039B1B7A49
:1042000018461A4B53F820300A435A61039B1B7A15
:1042100018469DF81730164AA2FB03235B08DBB251
:104220001946144A83000B4452F823301968029B44
:104230005A08039B1B7A1D469DF817300C48A0FBBB
:1042400003035B08DBB21C460A48AB00234450F86A
:1042500023300A431A6033461946034801F028FA0E
:1042600000BF06B070BD00BF8141010068070010AB
:10427000ABAAAAAA5812001030B583B075460190B7
:104280002B461946094801F0FFF9019B1B7A1A4693
:10429000074B53F822309C682B461946034801F01F
:1042A00007FA2346184603B030BD00BF794201002B
:1042B0006807001010B588B074460190009123463D
:1042C00019462D4801F0E0F980238DF81F30009B3E
:1042D00007EE903AF8EE677ACDED067A02AB9DEDE7
:1042E000060A0199184600F02DFB029B1B0A8DF867
:1042F0001730029B8DF81630049BDBB21B01DAB23B
:10430000039BDBB203F00F03DBB213438DF81530D0
:10431000019B1B7A1A46194B53F8223080221A73DC
:10432000019B1B7A1A46154B53F822309DF8172033
:104330001A71019B1B7A1A46104B53F822309DF8D4
:1043400016201A70019B1B7A1A460C4B53F8223028
:104350009DF8152083F82820019B1B7A1A46074BED
:1043600053F8223003221A7323461946024801F0FB
:104370009FF900BF08B010BDB542010078070010DA
:1043800030B585B07546019000912B4619463048EE
:1043900001F07AF907238DF80F30019B181D019B5E
:1043A0005B6814331B68019A127A920029490A4407
:1043B00011469847019B1869019B1B691B681B6884
:1043C000019A127A1146244A525C11469847019B81
:1043D000D868019BDB681B681B68019A127A11463A
:1043E0001E4A525C11469847019B1A69019B1B6942
:1043F0001B6804331B68022110469847019BDA684A
:10440000019BDB681B6804331B6802211046984738
:1044100000990198FFF74EFF019B1B7A1A46104B3B
:1044200053F822301B7ADAB2019B1B7A19460C4BE7
:1044300053F8213042F00702D2B21A7201242B46FF
:104440001946034801F034F92346184605B030BD3B
:1044500081430100B4B10100B0B10100ACB1010071
:104460007807001030B583B0754601902B46194689
:104470000D4801F009F9019B1B681B7A1A460B4B8A
:1044800053F822301B7DDBB203F02003002B14BF56
:1044900001230023DCB22B461946034801F008F93A
:1044A0002346184603B030BD65440100780700106C
:1044B0002DE930488AB0754601900B468DF80330DF
:1044C0002B461946314801F0DFF8019B1B7A1A464A
:1044D0002F4B53F822309DF803201A70019B049350
:1044E0004FF0FF334FF0FF34CDE90834049B0393C2
:1044F0002B461946274801F0C7F84FF000034FF04C
:104500000004CDE90634DDE90834B4F1FF3F08BF0B
:10451000B3F1FF3F06D14FF0FF334FF0FF34CDE949
:1045200006340BE0FCF7F0FA0A460146DDE90834F0
:1045300013EB010B44EB020CCDE906BC0123059300
:10454000FCF7E2FA0A460146DDE90634A24208BF5A
:10455000994234BF01230023DBB2002B08D003AB08
:104560001846FFF77FFF0346002BE9D00023059391
:104570002B461946074801F09BF82B46194603487D
:1045800001F096F800BF0AB0BDE83088B1440100E0
:1045900078070010394E010030B583B075460190A0
:1045A0002B4619460D4801F06FF8019B1B681B7ADA
:1045B0001A460B4B53F822301B7DDBB203F001038C
:1045C000002B14BF01230023DCB22B4619460348FD
:1045D00001F06EF82346184603B030BD994501003E
:1045E000780700102DE930488CB075460190009195
:1045F0002B461946364801F047F8FF238DF82F3037
:10460000019B0493009B4FF00004CDE90834049B08
:1046100003932B4619462F4801F036F84FF000035C
:104620004FF00004CDE90634DDE90834B4F1FF3F72
:1046300008BFB3F1FF3F06D14FF0FF334FF0FF3417
:10464000CDE906340BE0FCF75FFA0A460146DDE9E6
:10465000083413EB010B44EB020CCDE906BC01233B
:104660000593FCF751FA0A460146DDE90634A242F9
:1046700008BF994234BF01230023DBB2002B08D0CE
:1046800003AB1846FFF788FF0346002BE9D0002351
:104690000593059C2B4619460E4801F009F80A942B
:1046A0000A9B002B08D1019B1B7A1A460A4B53F830
:1046B00022301B788DF82F309DF82F402B4619465D
:1046C000034800F0F5FF234618460CB0BDE83088DB
:1046D000E5450100E14E01007807001010B58AB0F1
:1046E0007446039002918DED010A2346194638481D
:1046F00000F0CAFF039B00221A60039B00225A604D
:10470000039B01229A6000238DF827300023089331
:10471000089B0E2B52DC9DF82730002B4ED1089BB6
:1047200001330793079B0E2B44DC9DF82730002BA9
:1047300040D1089B07EE903AF8EEE77ACDED067A85
:10474000079B07EE903AF8EEE77ACDED057ADDEDBE
:10475000066A9DED057AC6EE877AB7EE007A77EEA7
:10476000877ACDED047ADDED047A9FED1A7A77EE43
:10477000877A9DED017AB4EEE77AF1EE10FA15D85A
:10478000DDED047A9FED137A77EEC77A9DED017A1D
:10479000B4EEE77AF1EE10FA08DB089A039B5A6050
:1047A000079A039B9A6001238DF82730079B0133FA
:1047B0000793B7E7089B01330893A9E700BF234697
:1047C0001946034800F074FF00BF03980AB010BDFB
:1047D000DD460100CDCC4C3D10B52DED028B86B0F1
:1047E000744603908DED020ACDED010A2346194669
:1047F000154800F049FF039B1A1D039B5B681033AB
:104800001B681046984707EE900AF8EE677ACDEDE0
:10481000057ADDED027AB3EE007A27EE877ADDEDD8
:10482000017A67EE277A9DED057A87EE278A23467F
:104830001946054800F03CFFF0EE487AB0EE670AF2
:1048400006B0BDEC028B10BDD947010010B52DEDAF
:10485000028B86B0744603908DED020ACDED010AFD
:1048600023461946154800F00FFF039B1A1D039BB2
:104870005B6810331B681046984707EE900AF8EE05
:10488000677ACDED057ADDED027AB3EE007A27EE98
:10489000877ADDED017A67EE277A9DED057A87EE5E
:1048A000278A23461946054800F002FFF0EE487AB1
:1048B000B0EE670A06B0BDEC028B10BD4D4801009A
:1048C00030B587B0754601908DED000A2B4619462C
:1048D000194800F0D9FE00238DF817309DED000A2D
:1048E00004F0B4FD8DED040A9DED007ADDED047A4F
:1048F00077EE677ACDED037ADDED037A9FED0F7ADF
:10490000F4EEC77AF1EE10FA0BDBDDED037A9FEDE2
:104910000C7AF4EEC77AF1EE10FA02D801238DF882
:1049200017309DF817402B461946034800F0C0FE8B
:104930002346184607B030BDC1480100CDCC4CBD60
:10494000CDCC4C3D30B58FB07546079006918DEDBE
:10495000050A2B461946744800F096FE00230D9375
:10496000079B00221A60079B00225A60079B0122C6
:104970009A604FF000030C934FF07F530B934FF06E
:104980007E530A934FF0804309930D9B042B00F054
:10499000C1800D9B042B00F2BB8001A252F823F0D2
:1049A000B5490100114A0100714A0100E14A0100C4
:1049B000114B0100F7EE000A9DED050A0698FFF77E
:1049C0000BFF8DED0C0ADDED0C7AB7EE007AF4EEFC
:1049D000C77AF1EE10FA05D5079B00221A6004236E
:1049E0000D9396E09DED0C0A0698FFF769FF0346CC
:1049F000002B0AD0DDED0C7AFCEEE77A17EE902A58
:104A0000079B1A6004230D9383E001230D9380E03C
:104A1000DDED0B0A9DED050A0698FFF7DDFEF0EED1
:104A2000407AB0EE670A04F011FD8DED0C0ADDED61
:104A30000C0A9DED050A0698FFF708FF8DED0B0A9D
:104A4000DDED0B7A9FED397AF4EEC77AF1EE10FACC
:104A50000BDBDDED0B7A9FED367AF4EEC77AF1EEE3
:104A600010FA02D803230D9353E002230D9350E074
:104A7000DDED097AB7EE007A77EE877ACDED097A27
:104A8000DDED0A7AB2EE0E7AF4EEC77AF1EE10FAA4
:104A900002DD04230D933CE0DDED097AB2EE0E7ADF
:104AA000F4EEC77AF1EE10FA0FDDDDED0A7AB7EE1B
:104AB000007A77EE877ACDED0A7ADDED0A7AB7EEE5
:104AC000007A77EE877ACDED097ADDED0A6A9DED01
:104AD000097AC6EE877ACDED0B7A01230D9318E0A3
:104AE000079C6B469DED0B0A06991846FFF7F6FDED
:104AF0006B4693E8070084E80700DDED0C7AFCEED6
:104B0000E77A17EE902A079B1A6004230D9300E0C2
:104B100000BF3AE700BF2B461946034800F0C8FD26
:104B200000BF07980FB030BD45490100CDCC8C3F88
:104B30003333F33F38B575462B4619460A4800F023
:104B4000A3FD0A4B1B7A1A46094B53F822309C6886
:104B50002B461946044800F0ABFD23464FF00004F5
:104B60001846214638BD00BF79420100E807001011
:104B70006807001038B575462B4619460A4800F0FC
:104B800083FD0A4B1B7A1A46094B53F822309C6866
:104B90002B461946044800F08BFD23464FF00004D5
:104BA0001846214638BD00BF79420100E8070010D1
:104BB0006807001030B583B0754601902B46194642
:104BC000064800F061FD50242B461946034800F0CA
:104BD0006FFD2346184603B030BD00BFB54B010042
:104BE00000B585B0039002910192039B074A1A60B9
:104BF000029B074A1A600648FFF7DCFF0246019B4A
:104C00001A6000BF05B05DF804FB00BFA8120010D9
:104C10000813001008B5FFF7EFF84FF47A71064853
:104C2000FFF78AF905490448FFF71EF90248FFF724
:104C300035F900BF08BD00BFDC070010B96A0100EC
:104C400000B583B04FF47A712248FFF775F9214817
:104C5000FFF724F903468DF807309DF8073083F0FD
:104C60000103DBB2002B05D0AD231B4A1B491C48B6
:104C700003F0EEF830211B48FCF734FC0346002B10
:104C800014BF01230023DBB2002B01D000BFF1E7EA
:104C900001211448FCF76EFCFFF7AEF84FF47A716F
:104CA0000C48FFF749F90B48FFF7F8F84FF0FF33CE
:104CB0000D4A0E490E48FFF7B1F90E48FFF784F888
:104CC0004FF416410C48FFF75BFB00BF03B05DF8E3
:104CD00004FB00BFDC070010BCB20100C4B101003E
:104CE0001CB10100E4070010FD3F010040420F002D
:104CF000E8070010354B0100C807001008B5FBF7A6
:104D000005FAFBF74BFAFBF779FA04F0A7FDFFF77A
:104D100097FF00BF08BDFFFF80B584B000AF094B0F
:104D2000FB60FB683B603B6883F30988FB687B6042
:104D30007B6883F30888FFF7E1FFFEF70BFEB8609E
:104D4000FEE700BF0000011010B574462346194667
:104D50000A4800F099FC0020FFF738F903461A468C
:104D6000074B53F82230984700F00EF923461946B6
:104D7000024800F09DFC00BF10BD00BF494D01007E
:104D80009812001010B57446234619460A4800F0E0
:104D90007BFC0120FFF71AF903461A46074B53F82C
:104DA0002230984700F040F923461946024800F0A7
:104DB0007FFC00BF10BD00BF854D010098120010A0
:104DC00010B57446234619460A4800F05DFC0220DF
:104DD000FFF7FCF803461A46074B53F82230984772
:104DE00000F072F923461946024800F061FC00BF4A
:104DF00010BD00BFC14D01009812001010B57446DF
:104E0000234619460A4800F03FFC0320FFF7DEF86E
:104E100003461A46074B53F82230984700F0A4F98E
:104E200023461946024800F043FC00BF10BD00BFF6
:104E3000FD4D0100981200102DE9304888B07546EC
:104E4000CDE9020101922B461946244800F01CFCD2
:104E50004FF000034FF00004CDE90634DDE90234E1
:104E6000B4F1FF3F08BFB3F1FF3F06D14FF0FF336E
:104E70004FF0FF34CDE906340BE0FBF745FE0A4660
:104E80000146DDE9023413EB010B44EB020CCDE9E2
:104E900006BC01230593FBF737FE0A460146DDE910
:104EA0000634A24208BF994234BF01230023DBB27B
:104EB000002B08D001AB1846FFF7D4FA0346002BAD
:104EC000E9D000230593059C2B461946034800F0C2
:104ED000EFFB2346184608B0BDE83088394E010084
:104EE0002DE9304888B07546CDE9020101922B4684
:104EF0001946244800F0C8FB4FF000034FF00004AF
:104F0000CDE90634DDE90234B4F1FF3F08BFB3F167
:104F1000FF3F06D14FF0FF334FF0FF34CDE90634A9
:104F20000BE0FBF7F1FD0A460146DDE9023413EB25
:104F3000010B44EB020CCDE906BC01230593FBF702
:104F4000E3FD0A460146DDE90634A24208BF994264
:104F500034BF01230023DBB2002B08D001AB18467D
:104F6000FFF71AFB0346002BE9D000230593059CAD
:104F70002B461946034800F09BFB2346184608B011
:104F8000BDE83088E14E010010B582B0744623467A
:104F90001946234800F078FB00238DF807309DF870
:104FA0000730204A52F823301A689DF807301D490F
:104FB00051F8233042F001021A609DF80730194A77
:104FC00052F823301A689DF80730164951F82330FB
:104FD00042F002021A609DF80730124A52F823305C
:104FE0001A689DF807300F4951F8233042F0040247
:104FF0001A609DF807300B4A52F823301A689DF862
:105000000730084951F8233042F008021A6023465D
:105010001946034800F04CFB00BF02B010BD00BFB2
:10502000894F01006807001010B582B0744623460E
:105030001946234800F028FB01238DF807309DF81E
:105040000730204A52F823301A689DF807301D496E
:1050500051F8233042F001021A609DF80730194AD6
:1050600052F823301A689DF80730164951F823305A
:1050700042F002021A609DF80730124A52F82330BB
:105080001A689DF807300F4951F8233042F00402A6
:105090001A609DF807300B4A52F823301A689DF8C1
:1050A0000730084951F8233042F008021A602346BD
:1050B0001946034800F0FCFA00BF02B010BD00BF63
:1050C000295001006807001010B582B074462346CD
:1050D0001946234800F0D8FA02238DF807309DF8CE
:1050E0000730204A52F823301A689DF807301D49CE
:1050F00051F8233042F001021A609DF80730194A36
:1051000052F823301A689DF80730164951F82330B9
:1051100042F002021A609DF80730124A52F823301A
:105120001A689DF807300F4951F8233042F0040205
:105130001A609DF807300B4A52F823301A689DF820
:105140000730084951F8233042F008021A6023461C
:105150001946034800F0ACFA00BF02B010BD00BF12
:10516000C95001006807001010B582B0744623468C
:105170001946234800F088FA03238DF807309DF87C
:105180000730204A52F823301A689DF807301D492D
:1051900051F8233042F001021A609DF80730194A95
:1051A00052F823301A689DF80730164951F8233019
:1051B00042F002021A609DF80730124A52F823307A
:1051C0001A689DF807300F4951F8233042F0040265
:1051D0001A609DF807300B4A52F823301A689DF880
:1051E0000730084951F8233042F008021A6023467C
:1051F0001946034800F05CFA00BF02B010BD00BFC2
:10520000695101006807001082B001900091019B74
:10521000012B5DD1009B4FF6FF72934258D12E4B6C
:105220001B6803F00103002B52D12B4B01221A60A3
:105230002A4B1B6818332A4A1360284B1B681C33FF
:10524000274A5360254B1B682033254A9360234B24
:105250001B682433224AD360204B5B681833204AF2
:1052600013611E4B5B681C331D4A53611B4B5B680B
:1052700020331B4A9361194B5B682433184AD3616E
:10528000164B9B681833164A1362144B9B681C33E9
:10529000134A5362114B9B682033114A93620F4BA0
:1052A0009B6824330E4AD3620C4BDB6818330C4ADC
:1052B00013630A4BDB681C33094A5363074BDB68F3
:1052C0002033074A9363054BDB682433044AD363D6
:1052D00000BF02B0704700BF4814001068070010FC
:1052E0005812001008B54FF6FF710120FFF78CFF30
:1052F00008BDFFFF82B003468DF807309DF90730E7
:1053000003F01F0205499DF907305B09012000FAEF
:1053100002F241F8232000BF02B0704700E100E034
:1053200082B0034600918DF807309DF90730002BBD
:105330000CDA009BDAB20D499DF9073003F00F0338
:10534000043B5201D2B20B441A760BE0009BDBB255
:10535000074A9DF9071008465B01D9B213180A469F
:1053600083F8002300BF02B0704700BF00ED00E0EB
:1053700000E100E000B585B0124B5B688DF80F309E
:105380009DF80F30104A52F823300293029B0F4AC7
:10539000934210D19DF80F300093DD230C4A0D4944
:1053A0000D4802F055FD0D4800F03EF900210120A6
:1053B000FBF712FBFEE7029B984700BF05B05DF8C4
:1053C00004FB00BF00ED00E0F4070010755301007E
:1053D00038B5010028B50100CCB3010078B4010054
:1053E00000B585B00291019303468DF80F30134646
:1053F0008DF80E309DF90F3010330F49029A41F8A5
:1054000023209DF80E30002B08D09DF90F30002B83
:1054100004DB9DF90F301846FFF76CFF019B002B52
:1054200006DB019A9DF90F3011461846FFF778FF09
:1054300000BF05B05DF804FBF407001000B58DB0A7
:105440000390039B1B680B93039B5B680A93039B6E
:105450009B680993039BDB680893039B1B69079375
:10546000039B5B690693039B9B690593039BDB6925
:1054700004930D4802F0ECFC0B990A9A0998089BDA
:1054800000930346094802F0E3FC0799069A059841
:10549000049B00930346064802F0DAFC059B19467C
:1054A0000120FBF799FAFEE790B40100BCB40100BB
:1054B000F0B4010030B583B0754601902B46194613
:1054C000094800F0E1F8019BDBB219460748FEF7F6
:1054D000EFFF01242B461946034800F0E9F8234664
:1054E000184603B030BD00BFB5540100C807001016
:1054F00000B583B0734601901946024800F0C4F825
:1055000000BFFDE7F154010038B575462B4619463A
:10551000054800F0B9F801242B461946024800F06E
:10552000C7F82346184638BD0955010030B583B089
:105530007546019000912B461946074800F0A4F8E3
:105540004FF0FF342B461946034800F0B1F82346CC
:10555000184603B030BD00BF2D55010030B585B0F1
:10556000754601902B4619460F4800F08DF80F4BF9
:105570001B6803930D4B1A68019B13440C4A93421A
:1055800001D900230393094B1A68019B1344074A6E
:105590001360039C2B461946034800F089F8234604
:1055A000184605B030BD00BF5D550100D808001099
:1055B0000080002010B582B0744603468DF8073095
:1055C00023461946084800F05FF8084B1B689DF811
:1055D00007201046984723461946034800F068F80C
:1055E00000BF02B010BD00BFB5550100DC080010BF
:1055F00030B583B07446019023461946084800F040
:1056000043F8084B1B6801989847054623461946FE
:10561000034800F04DF82B46184603B030BD00BFDC
:10562000F1550100DC08001030B585B075460190D9
:105630002B461946124800F027F800230393039BDA
:10564000019A13441B78002B0BD00E4B1B68039A56
:1056500001990A44127810469847039B013303933B
:10566000EDE7084B1B680A209847039C2B46194618
:10567000034800F01DF82346184605B030BD00BFB2
:1056800029560100DC08001082B001900091009AB8
:10569000054B1B68591C04480160044941F823204C
:1056A00000BF02B0704700BF4C1500104C14001032
:1056B00082B001900091044B1B68013B024A1360C9
:1056C00000BF02B0704700BF4C15001038B57546DA
:1056D0002B4619460548FFF7D7FF054C2B461946C0
:1056E0000248FFF7E5FF2346184638BDCD560100B6
:1056F0004C14001038B575462B4619460648FFF77E
:10570000C3FF064B1C682B4619460348FFF7D0FF22
:105710002346184638BD00BFF55601004C15001051
:1057200082B00190019B03F10802019B5A60019B2A
:105730004FF0FF329A60019B03F10802019BDA608F
:10574000019B03F10802019B1A61019B00221A6070
:1057500000BF02B0704782B00190019B00221A6125
:1057600000BF02B0704784B001900091019B5B685C
:105770000393009B039A5A60039B9A68009B9A606C
:10578000039B9B68009A5A60039B009A9A60009B57
:10579000019A1A61019B1B685A1C019B1A6000BF89
:1057A00004B0704784B001900091009B1B68029385
:1057B000029BB3F1FF3F03D1019B1B6903930CE0F4
:1057C000019B0833039302E0039B5B680393039BF5
:1057D0005B681B68029A9A42F6D2039B5A68009B48
:1057E0005A60009B5B68009A9A60009B039A9A60DB
:1057F000039B009A5A60009B019A1A61019B1B68E7
:105800005A1C019B1A6000BF04B0704784B001901D
:10581000019B1B690393019B5B68019A92689A60E4
:10582000019B9B68019A52685A60039B5B68019ACE
:105830009A4203D1019B9A68039B5A60019B002204
:105840001A61039B1B685A1E039B1A60039B1B680B
:10585000184604B0704700B58BB0079006910592CA
:1058600004930E9B002B1DD00D9B002B1AD00E9B7A
:105870000993099B0D9A1A63099B022283F85D2004
:1058800000230393099B029308AB01930C9B0093A5
:10589000049B059A0699079800F052F8099800F0C1
:1058A000C9F801E000230893089B18460BB05DF887
:1058B00004FB00B58DB00790069104931346ADF834
:1058C0001630BDF816309B00184601F01FF90990FC
:1058D000099B002B0ED0602001F018F90B900B9B58
:1058E000002B03D00B9B099A1A6305E0099801F07D
:1058F0001EF901E000230B930B9B002B18D00B9B90
:10590000002283F85D20BDF81620002303930B9B33
:1059100002930F9B01930E9B0093049B069907989B
:1059200000F00EF80B9800F085F801230A9302E0CE
:105930004FF0FF330A930A9B18460DB05DF804FB45
:1059400000B587B003900291019200930A9B186BF7
:10595000019B9B001A46A52103F0BFFF0A9B1A6B0F
:10596000019B03F18043013B9B0013440493049B80
:1059700023F0070304930023059312E0029A059B8A
:10598000134419780A9A059B134434330A461A7053
:10599000029A059B13441B78002B06D0059B01330C
:1059A0000593059B0F2BE9D900E000BF0A9B00225D
:1059B00083F84320089B042B01D9042308930A9BF6
:1059C000089ADA620A9B089ADA640A9B00221A652E
:1059D0000A9B04331846FFF7BEFE0A9B183318468D
:1059E000FFF7B9FE0A9B0A9A1A61089BC3F10502E8
:1059F0000A9B9A610A9B0A9A5A620A9B00225A657C
:105A00000A9B00229A650A9B002283F85C20009A78
:105A10000399049800F052FF02460A9B1A60099B02
:105A2000002B02D0099B0A9A1A6000BF07B05DF8EC
:105A300004FBFFFF00B583B0019000F0DBFF2D4BAE
:105A40001B6801332B4A13602B4B1B68002B09D1B9
:105A5000294A019B1360274B1B68012B10D100F0D2
:105A60001BFB0DE0254B1B68002B09D1224B1B684B
:105A7000DA6A019BDB6A9A4202D81F4A019B1360D3
:105A80001F4B1B6801331E4A13601D4B1A68019B94
:105A90005A64019BDB6A01229A401A4B1B6813432C
:105AA000184A1360019BDA6A13469B0013449B005B
:105AB000154A1A44019B043319461046FFF753FE5A
:105AC00000F0ACFF0D4B1B68002B0ED00A4B1B687F
:105AD000DA6A019BDB6A9A4207D20C4B4FF0805284
